:1000000000180020B108000059130000611300001F
:100010006113000061130000611300006113000010
:100020006113000061130000611300006113000000
:1000300061130000611300006113000061130000F0
:1000400061130000611300006113000061130000E0
:1000500061130000611300006113000061130000D0
:1000600061130000611300006113000061130000C0
:10007000950B000061130000611300006113000084
:1000800061130000611300006113000061130000A0
:100090006113000061130000611300006113000090
:1000A0006113000061130000611300006113000080
:1000B0006113000061130000611300006113000070
:10040000FFFFFFFFFFFFFFFFFFFFFFFF7EFFFFFF7D
:1004100008B5054B054803331B1A062B03D9044BBB
:10042000002B00D0984708BD04F8FF1F04F8FF1FF9
:10043000000000000648074908B5091A8910CB0FCB
:100440005918491003D0044B002B00D0984708BD21
:1004500004F8FF1F04F8FF1F00000000084B10B550
:100460001A781C1C002A09D1FFF7D2FF054B002B7C
:1004700002D0054800E000BF0123237010BDC04634
:1004800000FCFF1F00000000D01B000008B5094B56
:10049000002B03D00848094900E000BF0848036862
:1004A000002B03D0074B002B00D09847FFF7C2FF6B
:1004B00008BDC04600000000D01B000004FCFF1F68
:1004C00004F8FF1F000000007047C0467047C04698
:1004D0007047C0467047C0467047C0467047C04628
:1004E000064A802311689B0110B518684A1C04D085
:1004F000034A044CA35000F08FF910BD0420000003
:10050000080D000000E000E070B584B002AC0023EC
:100510002370201C00F04CFC0A28FAD00023267817
:100520002370201C00F044FC0A28FAD0002323701A
:10053000201C00F03DFC0A28FAD000236A461380F4
:10054000042503E06A461388E418ED1AA9B2201CBA
:100550006A4600F0DBFC0A28F4D000236A46029DBC
:10056000341C138003E06A461388ED18E41AA1B224
:10057000281C6A4600F054FD0B28F4D004B070BD6E
:10058000F0B5454657464E46E0B488B006AD002368
:100590002B70281C00F00CFC0A28FAD000232B80BA
:1005A000022602AC02E02B88E418F61AB1B2201C35
:1005B0002A1C00F0ABFC0A28F5D004AC00232380F1
:1005C000042602E02388ED18F61AB1B2281C221C7A
:1005D00000F09CFC0A28F5D068460589012380229A
:1005E0000370D200954256D9032303700023238061
:1005F00001266D4602E02388ED18F61AB1B2281CD8
:10060000221C00F00DFD0B28F5D06A461389002B43
:100610000CD0002500262670201C00F0C9FB0A28FB
:10062000FAD0684603890135AB42F4DC069A434BA5
:100630009A422CD9684601898A189A4227D9002300
:10064000238001266D4602E02388ED18F61AB1B228
:10065000281C221C00F0E4FC0B28F5D06846037827
:10066000012B53D00023238001266D4602E023880E
:10067000ED18F61AB1B2281C221C00F0D1FC0B2890
:10068000F5D008B01CBC90469946A246F0BD0223A6
:100690006A461370D3E72A4BFF21181C9A4601F0D3
:1006A00082FA002DC2D00020804681464346ED1AD2
:1006B000102D00DD10254846208001276E4602E0FF
:1006C0002388F618FF1AB9B2301C221C00F0A8FCCF
:1006D0000B28F5D056464B464644238002E023883B
:1006E000F618ED1AA9B2301C221C00F00FFC0A28E3
:1006F000F5D0002806D16B4610221D89904445454F
:10070000D4DC93E70423684603708FE780220370EC
:1007100006990B48D20000F0E5FF00280AD100201E
:1007200000F0D4FF00289DD0002000F0CFFF00286B
:10073000F5D197E703236A46137093E7FF1F000084
:1007400000080020F0B557464E464546E0B4304B11
:1007500086B01B699A0758D400F0F8FA2D4B002296
:1007600098468023DB0004AC02AD92469946684669
:1007700000F01EFB0028FAD16A4613785A2B2AD0C3
:10078000012B0BD0022B04D0032BF0D1FFF7F8FE86
:10079000EDE7FFF7B9FE6A461378F5E75346237095
:1007A000201C00F005FB0A28FAD02378012B18D072
:1007B000434652461F682280102602E02388FF1815
:1007C000F61AB1B2381C221C00F02AFC0B28F5D016
:1007D0006A461378D6E75A2000F03CFB6A46137845
:1007E000CEE74A46534604922B800427261C02E09B
:1007F0002B88F618FF1AB9B2301C2A1C00F010FC26
:100800000B28F5D06A461378BCE7FFF769FEA3E72B
:1008100000F00F4000F8FF1F80F3088880F309887C
:100820008F46704708B500F025FEFFF78BFFFEE707
:100830001C4BF0B5002B00D1F0BD0027032501268D
:10084000D81902684168002A26D1002904D182689B
:10085000002AF1D00C37F3E780680028FAD0141C86
:100860000C43254208D1032806D910CA043810C108
:100870000028F4D10C37E3E7264207D1012805D937
:10088000148802380C8002320231E6E7147801380D
:100890000C7001320131E0E780688A42DDD10C370B
:1008A000CEE7C046F41B00007047C0467047C04604
:1008B00038B5FFF7F9FF00F055FD184B181C00285C
:1008C00005D0854681B00020C043009001B0144B94
:1008D000144AD21A08D1FFF7ABFFFFF7E7FF002059
:1008E0001149FFF79FFFFEE7032501240020291C83
:1008F000194006D1032A04D902C3043A002AF6D1CA
:10090000E9E7211C194005D1012A03D91980023ACF
:100910000233F3E71870013A0133EFE700180020C3
:1009200000FCFF1F080C00201CFCFF1F334A344B47
:10093000F0B5D0611A603348334B8025C658ED00BE
:100940000021354311811182D1605182118351619F
:10095000C5502E4B2E4E5F6880253740AD002F438B
:100960005F609F6800243E4035439D60294BC3254E
:10097000AD005E59FF27BE4380273E435E511E688F
:1009800080256D0135431D60234B0826DD78B54376
:10099000DD70DF780425AF43DF70516011801F499F
:1009A00094709C709C719C725C7147581C4C3C40CC
:1009B0008027FF043C43445018781F218843187057
:1009C00002205870987A8843011C032001439972D1
:1009D000D87A02210143D972D9785F200140D970B9
:1009E00099790F2081439971D978101CB143D9703E
:1009F000D978A943D9700B4B1A60F0BD48FCFF1F92
:100A000044FCFF1F007004403410000000900440BC
:100A1000FFF8FFFE00E100E000A006400410000027
:100A2000FFFFFFF3C401002000B58378002B12D133
:100A300001238370094B0822D9780A43DA70D978E8
:100A400004220A43DA70D97820220A43DA709979AD
:100A50000F220A439A71002000BDC04600A0064044
:100A600000B58378002B12D000238370094B5F21DF
:100A7000DA780A40DA709A790F218A439A71DA7823
:100A800008218A43DA70DA7804218A43DA70002078
:100A900000BDC04600A0064030B5041C807883B07D
:100AA0000723002802D1181C03B030BD8423002A7C
:100AB000F9D0208A08230028F5D16B46EFF3108087
:100AC00072B618700E4B18780130C0B21870012839
:100AD00010D02282002222811A78E160013AD2B23B
:100AE0001A700023002ADED1064B187880F3108894
:100AF0000023D8E76846057802480570E9E7C04654
:100B000084FDFF1F040C002030B5041C807883B0E6
:100B10000723002802D1181C03B030BD8423002A0B
:100B2000F9D0208B08230028F5D16B46EFF3108015
:100B300072B61870144B18780130C0B218700128C2
:100B40001CD06161228321880022628201220A4333
:100B500022800E4A8021D0780143D1709179C9B2A8
:100B600091711A78013AD2B21A700023002AD2D1B8
:100B7000074B187880F310880023CCE76846057887
:100B800003480570DDE7C04684FDFF1F00A0064056
:100B9000040C002038B5404A404B0F211C681379E3
:100BA000DBB21D1C19421FD01171D279D2B2980745
:100BB00024D40122002100201D0700D4021CD807E4
:100BC00002D50220024392B25D0702D508200243FB
:100BD00092B260681D1C0243626020229543E06966
:100BE000002945D000F0B0FBA9062AD422880123B1
:100BF000134202D080222A420CD138BD99063AD540
:100C0000002A38D1218802220A43228001210122B0
:100C10000020D1E7618A228B914230D263695A1C4D
:100C200062611A781C4BDA71638A228B01339BB2A2
:100C300063829A42E1D100232383E06900F01CFB28
:100C4000DBE7154BDB79D9B2238A002BCED0E268E3
:100C5000531CE36011702389228A01339BB22381E4
:100C60009A42C3D100232382E06900F0CBFABDE7AA
:100C700000F044FBB8E70522002104209CE7064A67
:100C80007F20D1780140D1709179C9B291712288C9
:100C90009A432280B1E7C04600A0064044FCFF1FF3
:100CA00010B58278031C82B00720002A01D102B05F
:100CB00010BD6A46EFF3108072B610700E4A1078BD
:100CC0000130C0B21070012810D0586808600021AF
:100CD000596013780020013BDBB21370002BE6D182
:100CE000064B187880F310880020E0E76846047807
:100CF00002480470E9E7C04684FDFF1F040C002091
:100D00000A4B0B4A802110605869084358611868E3
:100D100088431860074B0849D8690140802040008B
:100D20000143D961054B101C5A607047C0F00F4059
:100D300068FCFF1F00C00440FFF8FFFEC401002054
:100D4000014B80229A607047C0F00FF810B5114B2C
:100D50001A78002A01D0002010BD0F4C0122206813
:100D60001A70FFF761FE20680C490122FFF794FE1C
:100D70000B4B1B88002BEED00A4B202219882068D1
:100D80000A431A80084B09491B880122C918FFF73A
:100D9000BBFEE0E76CFCFF1F000C002072FCFF1F95
:100DA0006EFCFF1F80FDFF1FFCFCFF1F78FCFF1F78
:100DB00030B5204B041C198883B00A20002901D1CA
:100DC00003B030BD1C4A6946EFF3108072B608705C
:100DD00011780131C9B21170012926D01988174D37
:100DE00001391980164B1888411C285C89B219807A
:100DF00020707F2901D9002119801249124C0888DE
:100E0000002320420FD1114C204008801178181C7B
:100E10000139C9B211700029D2D10D4A107880F37E
:100E20001088181CCCE71923EDE7694608780849B3
:100E30000870D3E774FCFF1F84FDFF1F00FDFF1F38
:100E400070FCFF1F80FDFF1F41080000B6F7FFFF89
:100E5000040C002070B5244B061C198882B00B20AE
:100E600080292DD0214C6A46EFF3108072B61070A5
:100E700022780132D2B22270012A23D01A881C496A
:100E800001321A801B4B1D886A1C92B21A804E5583
:100E90007F2A01D900221A80174B1B78002B03D020
:100EA000164B1A88900612D523780020013BDBB23E
:100EB0002370002B04D1124B187880F31088002087
:100EC00002B070BD684601780D4A1170D6E7202047
:100ED00002431A800B4B012218680B4B1B88C91860
:100EE000FFF712FEE0E7C0466EFCFF1F84FDFF1F08
:100EF00078FCFF1F82FDFF1F6CFCFF1F80FDFF1FA2
:100F0000040C0020000C0020FCFCFF1FF0B556462E
:100F10005F464D464446F0B4844685B0924600296B
:100F200000D16AE0364D2B88002B0BD100230A221A
:100F300050460380101C05B03CBC90469946A24622
:100F4000AB46F0BD071C2F48002280462E482F4C90
:100F5000013700238146934601916946EFF31080E3
:100F600072B6087221780131C9B2217001293DD0D1
:100F7000414608884246411C89B22E881180244A85
:100F8000013E105CB6B262462E8010707F2902D9F5
:100F90000021404601804A4610881E4A0021104226
:100FA00000D019211C4A10404A4610802078013890
:100FB000C0B22070002803D1184A107880F310883E
:100FC0000A290BD0192901D119218B460133019A25
:100FD0009BB293420FD0791C002E04D15A46002AAE
:100FE000A6D10A22A4E7BC460F1CB6E76A46117ACE
:100FF0000A4A1170BCE75A469AE70022002397E795
:1010000074FCFF1F70FCFF1F80FDFF1F84FDFF1F8E
:1010100000FDFF1F41080000B6F7FFFF040C002091
:10102000F0B556464D465F464446F0B489464049C1
:1010300087B003920A784B468A460292002B00D171
:1010400071E03C4E33887F2B5ED8071C3A493B4801
:1010500000243B4D80468B4634E0012351460B7003
:10106000318843461A88013189B2531C40460191A8
:1010700031809BB239780380584681547F2B02D946
:10108000002341460B800134A4B24C4529D0019A7B
:10109000802A26D02B490B78002B03D02A4A1388AC
:1010A000980624D52B78013BDBB22B70002B03D1A3
:1010B000264B187880F310884C4530D033880137A0
:1010C0007F2B22D82B786A460133DBB2EFF31080F6
:1010D00072B610742B70012BBFD1137C1B480370A8
:1010E000BBE7029B002BD5D150460370D2E7111C01
:1010F000202213430B80164B01221868154B1988C8
:101100005944FFF701FDCDE70024039B0B201C8011
:1011100007B03CBC90469946A246AB46F0BD039A48
:1011200000201480F4E7039803800020F0E7C04615
:10113000FAFCFF1F6EFCFF1F78FCFF1F82FDFF1FE4
:1011400084FDFF1F6CFCFF1F80FDFF1F040C0020AF
:10115000000C0020FCFCFF1FF0B51F4D474600228D
:1011600080B42A701D4A002313801D4A1D4C138031
:101170001D4A1E4F13801E4A0020138090461D4AB0
:1011800023803B801380FFF7D1FB1B4E2B78306010
:10119000002B0CD0FFF748FC306818490122FFF7FC
:1011A0007BFC3B88002B09D104BC9046F0BD238812
:1011B000DF2213402380FFF753FCF5E7228820232A
:1011C0001343424623800E4913883068C918012210
:1011D000FFF79AFCE8E7C0466CFCFF1F74FCFF1F9A
:1011E00070FCFF1F80FDFF1FF8FCFF1F6EFCFF1F40
:1011F000FCFCFF1F82FDFF1F000C002072FCFF1F84
:1012000078FCFF1F164B70B51A887F2A14D801325C
:1012100092B21A80134B144C18882678411C134D37
:1012200089B219802E547F2901D900211980802A82
:1012300011D0FFF74DF907E00D4B402219880A4302
:101240001A80FFF743F9084C0A4B211C1868012249
:10125000FFF722FC70BDFFF73BF9FFF73DF9F3E71D
:1012600074FCFF1FF8FCFF1F72FCFF1F00FDFF1F37
:1012700080FDFF1F000C002038B51A481A4B01886A
:101280001A8801319406E40F89B264007F2900D9DD
:101290000021164D01802888013880B2288000285E
:1012A00014D1DF210A401A80114B1B78002B06D085
:1012B000A30708D4E30701D5FFF710F938BD0123D0
:1012C0001C43A307F6D5FFF705F9F3E720200243F7
:1012D0001A80084B01221868074B5918FFF714FCB5
:1012E000E6E7C046FCFCFF1F80FDFF1F6EFCFF1FF2
:1012F000FAFCFF1F000C002078FCFF1F30B5104BDC
:1013000083B0186801A9FFF7CBFC019B002B12D01A
:101310000C4A9C071588012019071840E40FA40007
:10132000C90F2843C901204308435907C90F490081
:10133000031C0B431380FFF7C9F803B030BDC04650
:10134000000C002080FDFF1F024B022219880A4377
:101350001A80704780FDFF1F08B5FFF7B5F808BD7C
:10136000FFBE7047354B364A364900B5D150364B33
:101370008822002152019950344AC0218902995093
:10138000334AC8219858890101439950314B9A78C2
:10139000110704D5997808220A43D2B29A702A4BD1
:1013A0002D492A4A99502D4A8021985849020143D3
:1013B00099501868C02109030143196098582849B9
:1013C00001408020400401439950264B264A996CE5
:1013D0000A4026499A644B78402213402022134346
:1013E0004B70234B80221A70A0230B70CB781F22E6
:1013F0001340CB7002230B7100234B7110228B79A9
:101400001A42FCD119480C218379184A0B40082B49
:10141000FAD1402353710C2193790B40082BFBD157
:10142000124840218379114A1942FBD020231370BE
:101430000C2193790B400C2BFBD100BD080D000053
:1014400000E000E0000000000070044044100000D4
:101450003810000000D00740000001100410000008
:10146000FFFFFFFC00900440FFF8FFFE0040064035
:1014700000500640F8B5304B30481A69E021024070
:10148000C9000A431A612E4A1F255479AC4354718E
:1014900014790725AC4314712A4A73251478AC4398
:1014A00050252C43147054786325AC4340252C43BD
:1014B000547094781925AC439470234A0024147016
:1014C0000224A0229C50214A214DD6683540032693
:1014D0003543D5601F4AC725AD0056593604360C32
:1014E00056511D4D1D4EAF6F3E400827FF373E43FE
:1014F000AE675E681A4D35402C435C601C6D204021
:1015000001431965C1239B00D05816490140D150B1
:1015100000F020FBFFF720FE00F02AFB0020FFF781
:10152000EFFB114B5868FFF70BFC00F0BBF800F025
:1015300009FB62B6F8BDC04600900440FFF8FFFE0C
:1015400000F0074000D0074000E0074000B0044032
:10155000F8FFFFFE00E100E000D00440F8F8FFFED5
:10156000F8FFF0FEFFFF00FFC4010020F8B54F4672
:101570004646C0B48846071C151E0BD00B78FF2BBF
:101580002ED1002403E04146665CFF2E28D10134B1
:10159000AC42F8D300239946374B49461960374B84
:1015A0000522374E374C1A60012333702068391CEE
:1015B00042462B1C00F06AF900280BD1206800F08D
:1015C000ABF93378002BF9D12F4B18780CBC90462F
:1015D0009946F8BD4A46327089284AD0C0B2F5E72C
:1015E00043462A4C9E0AB6028022311CD200201C9F
:1015F00000F0D0FA41468B05254A9B0DB146E31811
:10160000A11802E00133002D06D03A78013D1A708E
:101610000137ADB28B42F5D1194E01233370174B10
:1016200006221A601B4B80221C601B4BD2001A60E2
:101630001A4B494619601A4B124C1F600E4B20681A
:101640001D6000F043F9031E06D000223270022014
:10165000892BBBD0D8B2B9E7206800F05DF93378A8
:10166000002BB1D0206800F057F93378002BF3D16C
:10167000AAE70220AAE7C0468CFDFF1F98010020C0
:101680009C01002088FDFF1F85FDFF1F94FDFF1FAB
:10169000FF03000090FDFF1FA8010020A40100200F
:1016A000A001002008B5002000F0D4F8044B00226F
:1016B0001860044B1A70044B01221A7008BDC04612
:1016C00088FDFF1F9C0100209401002008B5034BFA
:1016D000186800F021F9024B187808BD88FDFF1F3B
:1016E0009C01002010B5054B1C780823002C01D06C
:1016F000181C10BDFFF73AFF031CF9E79C010020FE
:10170000F0B53A484E4657464546E0B40368384E71
:10171000002434708446052B19D0062B06D0354B97
:101720001C701CBC90469946A246F0BD0523036080
:10173000314B1868314B1968314B1A68314B1B68B3
:1017400000F0A4F8C0B230700028EAD0E7E72E4AD3
:1017500090461268002A33D02C4C284D2949284B3A
:1017600027681868AA462F600D68894629189005D1
:101770001960800D11D0264B9A4224D88024002372
:101780002448E40004E0FD5CC5540133A34223D0A7
:101790009A42F8D85D5CC554F7E74B4645461A6057
:1017A0002860604606230360134B186800F08EF82B
:1017B000C0B230700028B4D00E4B00221A70B0E7CF
:1017C0000C4B1A70ADE7920A92024B464546BF1881
:1017D0001A6028602760E4E7524610604D460022F8
:1017E000404602602B601A1CDBE7C04698010020CF
:1017F00085FDFF1F9C01002088FDFF1F90FDFF1F3E
:10180000A4010020A80100208CFDFF1FA0010020E2
:10181000FF03000094FDFF1F00B50A4A0023137068
:10182000094A85B01360094B6946186800F05AF9F7
:1018300069468A780323D10600D51623044A13701B
:1018400005B000BD9C0100209801002088FDFF1F0D
:1018500085FDFF1F094B022210B55A700022DA7075
:101860001A70DA600649074A58618C5801202043F3
:101870008850054A181C936010BDC046AC0100207A
:10188000007004403C100000C401002070B5457891
:10189000041C0820022D00D970BD0B4D5E1E89204E
:1018A000AE42F9D880256D02ED1AAA42F4D8022082
:1018B000207004206070A36006200023A070E16007
:1018C000226163600020E7E7FFFF000030B5447845
:1018D000031C0820022C00D930BD0E4C551E892057
:1018E000A542F9D880246402A41AA142F4D80C1CA1
:1018F0001443A405A40DEFD19A6080220320D200E6
:1019000018705A60042009225870DC6019619A70BE
:101910000020E1E7FFFF0000F0B5474680B4012357
:101920008AB05B420022019302924378041CD91EC4
:10193000C9B2022904D86449087840B2002803DB00
:101940000AB004BC9046F0BD042B2CD00B7870215B
:101950000B40E1780B43E37014D1A068002825D137
:10196000022363702378012B08D0584B8022D9685A
:10197000D2000A43DA60C046C046C0466069FFF73D
:10198000BFFEDDE723786270012B08D04F4B802229
:10199000D968D2000A43DA60C046C046C0466069D2
:1019A000FFF73AFFCCE770230B70E2702278931EAA
:1019B000DBB2012BC4D8444B70211B781942BFD134
:1019C0006378042B6ED025696368ED182561022ABF
:1019D0006BD0032A3AD1A2683D4D00265319A3606B
:1019E0000022A178384BD97121698E1BF6B21E7185
:1019F0002569A91A090AC9B2597121698A1A120CF2
:101A0000D2B29A7103A9334A0B1C31CA31C331CA0D
:101A100031C31278304C1A7023786A460133DBB236
:101A2000EFF3108072B610702370012B41D00123A8
:101A3000194388472378013BDBB22370002B00D089
:101A40007EE7264B187880F3108879E7256903260E
:101A50002E400427BF1BA068FFB28046B84202D2C6
:101A6000C7B2002F0CD001AA9019E1683A1C00F00F
:101A700091F802AB0121981949423A1C00F093F801
:101A8000AD1B019B29680298C9431840321C0142D2
:101A900014D14B40454612496760EF1B0193A76084
:101AA0000B609EE70523637093E7E168CB18E36062
:101AB000CDE768460278094B1A70B8E7E27804234C
:101AC0001343E3703CE7C04600000240003000F0E2
:101AD00000FCFFFFB81B000084FDFF1F040C00206A
:101AE0000800024010B582B0031C6A46EFF3108074
:101AF00072B61070114A10780130C0B2107001280F
:101B000017D01878087098784870D8788870186955
:101B10004860D8685B688860CB601378013BDBB2B3
:101B20001370002B03D1064B187880F3108802B095
:101B300010BD6846047802480470E2E784FDFF1F88
:101B4000040C0020024B02215A698A435A617047F3
:101B500000F00F40054B08225968114359609968FD
:101B600091439960596991435961704780F00F40E2
:101B7000064B074A59681140596098688021C90589
:101B80000143996059690A405A61704700F10F405A
:101B9000FFFFFFBF10B50023934203D0CC5CC454B9
:101BA0000133F9E710BD00B5031C8218934202D03F
:101BB00019700133FAE700BD00B5044A80231370A1
:101BC000117848B20028FBDA00BDC0460000024090
:101BD000F8B5C046F8BC08BC9E467047F8B5C0468C
:081BE000F8BC08BC9E467047EA
:041BE8008D04000068
:041BEC005D04000094
:041BF00000240000CD
:101BF400F01B000000F8FF1F0400000000000000BC
:081C04000000000000000000D8
:04000003000008B140
:00000001FF
