:102000000018002099830000A18E0000AD8E000012
:10201000AD8E0000AD8E0000AD8E0000AD8E0000D4
:10202000AD8E0000AD8E0000AD8E0000AD8E0000C4
:10203000AD8E0000AD8E0000AD8E0000AD8E0000B4
:10204000AD8E0000AD8E0000AD8E0000AD8E0000A4
:10205000AD8E0000AD8E0000AD8E0000AD8E000094
:10206000AD8E0000AD8E0000AD8E0000AD8E000084
:10207000D1870000AD8E0000AD8E0000AD8E000057
:10208000AD8E0000AD8E0000AD8E0000AD8E000064
:10209000AD8E0000AD8E0000AD8E0000AD8E000054
:1020A000EDA10000AD8E0000AD8E0000AD8E0000F1
:1020B000AD8E0000AD8E0000AD8E0000AD8E000034
:10240000B1A8718CDC45000010240000E8570000E2
:1024100000180020B52E0000714100007D41000031
:102420007D4100007D4100007D4100007D410000B4
:102430007D4100007D4100007D4100007D410000A4
:102440007D4100007D4100007D4100007D41000094
:102450007D4100007D4100007D4100007D41000084
:102460007D4100007D4100007D4100007D41000074
:102470007D4100007D4100007D4100007D41000064
:10248000D93800007D410000A13200007D410000EC
:102490007D4100007D4100007D4100007D41000044
:1024A0007D4100007D4100007D4100007D41000034
:1024B000F95E00007D4100007D4100007D4100008B
:1024C0006D4E00007D4100007D4100007D41000017
:1024D000FFFFFFFFFFFFFFFFFFFFFFFFFFFFFFFF0C
:1024E000FFFFFFFFFFFFFFFFFFFFFFFFFFFFFFFFFC
:1024F000FFFFFFFFFFFFFFFFFFFFFFFFFFFFFFFFEC
:10250000FFFFFFFFFFFFFFFFFFFFFFFFFFFFFFFFDB
:10281000B1A8718C01000000000000000000000061
:1028200002B4714649084900095C49008E4402BC63
:102830007047C046002934D00123002210B48842DA
:102840002CD301242407A14204D2814202D20901DF
:102850001B01F8E7E400A14204D2814202D2490000
:102860005B00F8E7884201D3401A1A434C08A042A3
:1028700002D3001B5C0822438C08A04202D3001B39
:102880009C082243CC08A04202D3001BDC08224350
:10289000002803D01B0901D00909E3E7101C10BC74
:1028A0007047002801D00020C04307B4024802A1AD
:1028B0004018029003BDC046190000000029F0D066
:1028C00003B5FFF7B9FF0EBC4243891A1847C0464B
:1028D0007047C04608B5054B054803331B1A062B45
:1028E00003D9044B002B00D0984708BD60F9FF1FA7
:1028F00060F9FF1F000000000648074908B5091AE3
:102900008910CB0F5918491003D0044B002B00D06D
:10291000984708BD60F9FF1F60F9FF1F0000000025
:10292000084B10B51A781C1C002A09D1FFF7D2FFFA
:10293000054B002B02D0054800E000BF01232370A7
:1029400010BDC04600FAFF1F0000000050760000D6
:1029500008B5094B002B03D00848094900E000BF27
:1029600008480368002B03D0074B002B00D0984782
:10297000FFF7C2FF08BDC04600000000507600000F
:1029800004FAFF1F60F9FF1F0000000080B500AFD0
:10299000BD4680BD80B500AFBD4680BD80B500AFEF
:1029A000BD4680BD80B500AFBD4680BD80B500AFDF
:1029B000BD4680BD80B500AFBD4680BD80B500AFCF
:1029C000BD4680BD80B500AFBD4680BD80B500AFBF
:1029D000BD4680BD80B500AFBD4680BD80B500AFAF
:1029E000BD4680BD80B500AF02F060FBBD4680BD36
:1029F00080B500AF01F09CFE012003F03FF802F02B
:102A00008DFF00F033FAFEE790B585B000AF041CEF
:102A1000081C111C1A1CFB1D1C70BB1D18707B1D93
:102A20001970BB1C1A80BB1D1B78032B00D075E0EE
:102A3000BB1C1B88002B07D1484A3B6A1A60042341
:102A40001A1C7B6A1A8084E03B1C0F3300221A7028
:102A50003B1C0E3301221A7024E03B1C0F33197803
:102A60003F4A0B1C9B005B185B00D1184979D318B7
:102A70009B791B020B439BB2BA1C12889A420AD163
:102A80007B1D1B78072B05D83B1C0E337A1D127853
:102A90001A700CE00BE03B1C0F331A783B1C0F3311
:102AA00001321A703B1C0F331B78002BD5D03B1C16
:102AB0000F3319782A4A0B1C9B005B185B00D11856
:102AC000C979D018008900020143D3189B7A1B06EC
:102AD0000B431A1C3B1C0E331B789B00D3181A683F
:102AE0003B6A1A603B1C0F3319781D4A0B1C9B0074
:102AF0005B185B00D118C97AD018808900020143A5
:102B0000D3189B7B1B060B431A1C3B1C0E331B78F4
:102B1000D3181B781A1C7B6A1A801AE0BB1D1B781D
:102B2000072B14D8BB1D1A780E4B9200D2583B6A63
:102B30001A603B6A1B68002B01D1CD230AE0BB1D44
:102B40001A78094B5200D25A7B6A1A8001E0CD23D1
:102B500000E00023181CBD4605B090BD9CF8FF1F87
:102B600044750000F4740000E474000080B582B085
:102B700000AF3A60FB1D021C1A70BB1D0A1C1A70C4
:102B8000BB1D1B78012B07D8BB1D1B78054AD25CE7
:102B90003B681A70002300E0CD23181CBD4602B02C
:102BA00080BDC0461CFAFF1F80B582B000AFFB1D80
:102BB0001870BB1D19707B1D1A70BB1D1B78012B73
:102BC00007D8BB1D1B78054A791D0978D15400230D
:102BD00000E0CD23181CBD4602B080BD1CFAFF1FCB
:102BE00080B584B000AF0A1CFB1D011C19703B1D91
:102BF0001A803B1C0F3300221A7011E03B1C0F336C
:102C00001B780C4AD35C3A1D12889A4201D10123E9
:102C10000CE03B1C0F331A783B1C0F3301321A7047
:102C20003B1C0F331B78012BE8D90023181CBD4631
:102C300004B080BD6075000080B582B000AF021C9A
:102C4000FB1D1A700123181CBD4602B080BDC04692
:102C500080B582B000AF021CFB1D1A70024B181C1D
:102C6000BD4602B080BDC046D474000080B500AF40
:102C700001F07CFEBD4680BD80B584B000AF7860B9
:102C80000123FB600023BB607B68002B04D0002382
:102C9000FB600323BB6016E015E00F4B9B68181C1C
:102CA00001F014F9C82002F01DFE0B4B9B68181CA4
:102CB00001F000F9C82002F015FEFB68002B02D1DC
:102CC000BB68013BBB60FB68002BE6D1BB68002BF7
:102CD000E3DCBD4604B080BDD402002080B584B0E2
:102CE00000AF78600023FB603B1D1B781A1C0F238C
:102CF0001340043B0B2B00D97BE09A00474BD318C1
:102D00001B689F463B1D5B78181C04F011FC0123D7
:102D1000FB606EE03B1D5B78DBB25BB2002B1ADA26
:102D20003B1D5B78F02B02D0F72B08D00FE004F0AE
:102D3000EFFB3B1D5B78181C04F0FAFB0AE03B1D1F
:102D40005B78181C04F0F4FB0123FB6002E0012314
:102D5000FB60C0460BE0324B1B68002B07D03B1DCD
:102D60005B78181C04F0E4FB031CFB6041E040E0CE
:102D70003B1D5B78181C04F0DBFB3B1D9B78181C8B
:102D800004F0D6FB0123FB6033E03B1D5B78F02BA6
:102D900001D104F0BDFB3B1D5B78181C04F0C8FB9F
:102DA000031CFA681343FB603B1D9B78181C04F05E
:102DB000BFFB031CFA681343FB603B1DDB78181C48
:102DC00004F0B6FB031CFA681343FB6011E03B1DE3
:102DD0005B78181C04F0ACFB3B1D9B78181C04F0BE
:102DE000A7FB3B1DDB78181C04F0A2FB0123FB6052
:102DF000C046FB68002B01D004F07CFB094B1B682C
:102E0000002B03D1084B1B68002B01D0012300E0ED
:102E10000023181CBD4604B080BDC0466475000088
:102E20002C070020D00600202407002080B582B0A7
:102E300000AF786002F0E4FC031C032B13D93B1DA8
:102E40001B78181C02F014FC3B1D5B78181C02F068
:102E50000FFC3B1D9B78181C02F00AFC3B1DDB7825
:102E6000181C02F005FCBD4602B080BD80B5A8B0BC
:102E700000AF684B181C04F076F9664B664A1A617D
:102E8000644B664A5A61664B181C04F031FA644B75
:102E9000802252005A60624B624A9A60604B624ADA
:102EA000DA605F4B614A5A615D4B614A9A61012069
:102EB00002F07AF8031C1A1C594B1A743B1D181C9B
:102EC00004F084FA3B1D5B4ADA603B1D5A4A1A61E2
:102ED0003B1D02229A603B1D584A5A613B1D584ACD
:102EE0009A613B1D574A5A633B1D574A9A633B1DE3
:102EF000564A5A653B1D00229A653B1D00225A67BF
:102F00003B1D474A9A6701F0D5F901F033F804F008
:102F10007DF84F4B181C402102F066FD031C0C2B62
:102F20000DD14C4B9B68181C00F0C4FF3B1D181CB6
:102F300004F04CFA02F088FB02F070FC08E0454B0C
:102F40009B68181C00F0C2FF3B1D181C04F042FADD
:102F5000414B1B68002B2ED1404B1B68002B2AD104
:102F60003B1C181C04F09EF8031C9C22D219136011
:102F70009C22D2191368002B1DD03B1C1B781A1CF5
:102F8000F023134002D0102B05D014E03B68181C2E
:102F9000FFF74CFF0FE0224B0420191C04F0ABF9A3
:102FA000031C002B06D03A681D4B101C191C04F0A2
:102FB000CFF9FFE7C0463A1C164B101C191C04F051
:102FC00080F9031C9822D21913609822D219136831
:102FD000002B1ED03B1C1A780F231340DAB23B1C87
:102FE0001A703B1C1B7810221343DAB23B1C1A7078
:102FF0003B68181CFFF71AFF0420002104F08EF82C
:10300000031C002B05D03B68181C002104F098F825
:103010007FE77EE700FEFF1F6D4700009945000037
:1030200018FEFF1F8147000081460000454C00004C
:10303000454D0000095200004D5100000D6D00008B
:10304000E76E0000316D0000416F0000CD280000E8
:1030500000FCFF1FD4020020D0060020240700201F
:1030600080B582B000AF78603960BD4602B080BDE7
:1030700080B58AB000AFF860B9607A607B687B6227
:1030800004233B620323FB610223BB6101237B61B9
:1030900001233B61FA68BB689A4202D07B68002B2F
:1030A00000D14DE049E0FB69BA68134018D1FB69D3
:1030B000FA68134014D13A6A7B6A9A4210D8FB68C6
:1030C000BA6812681A603B6AFA68D318FB603B6AF8
:1030D000BA68D318BB603B6A7A6AD31A7B622CE069
:1030E0007B69BA68134018D17B69FA68134014D120
:1030F000BA697B6A9A4210D8FB68BA6812881A804B
:10310000BB69FA68D318FB60BB69BA68D318BB60A7
:10311000BB697A6AD31A7B620FE0FB68BA681278DF
:103120001A703B69FA68D318FB603B69BA68D31818
:10313000BB603B697A6AD31A7B627B6A002BB2D18F
:10314000BD460AB080BDC04690B583B000AF2D4BE0
:10315000002B00D153E000237B6032E029497A68DC
:10316000131C5B009B189B00CB18586825497A6894
:10317000131C5B009B189B005958224C7A68131C47
:103180005B009B189B00E31808331B681A1CFFF7B1
:103190006FFF1C497A68131C5B009B189B00CB18BF
:1031A000596818487A68131C5B009B189B00C31869
:1031B00008331B68081C191CFFF752FF7B6801339A
:1031C0007B6010497A68131C5B009B189B005B585E
:1031D000002BC3D10B497A68131C5B009B189B0022
:1031E000CB185B68002BB9D106497A68131C5B00C9
:1031F0009B189B00CB1808331B68002BAED1BD4633
:1032000003B090BDD077000080B588B000AF274AEA
:10321000274BD31AFB61264BBB6104237B6103233D
:103220003B610223FB600123BB6001237B60FB69E0
:10323000002B00D136E032E03B69BA6913400FD170
:103240007A69FB699A420BD8BB6900221A607B69D4
:10325000BA69D318BB617B69FA69D31AFB611EE0B6
:10326000BB68BA6913400FD1FA68FB699A420BD860
:10327000BB6900221A80FB68BA69D318BB61FB687E
:10328000FA69D31AFB610AE0BB6900221A707B68F5
:10329000BA69D318BB617B68FA69D31AFB61FB6911
:1032A000002BC9D1BD4608B080BDC0460012002029
:1032B00000FAFF1F80B500AFBD4680BD80B500AFEE
:1032C000BD4680BD80B582B000AF0E4B7B60FFF77E
:1032D000F1FF01F061F97B68181C002805D08546D4
:1032E00081B00020C043009001B0FFF78DFFFFF7D1
:1032F0002BFFFFF7E3FF044B0020191CFFF778FBBF
:10330000FEE7C0460018002034FEFF1F80B584B0E1
:1033100000AF78604F4BFB60FB6800221A81FB68AE
:1033200000221A82FB680022DA60FB6800225A82BF
:10333000FB6800221A83FB6800225A61FB687A68E6
:10334000DA61454BFA681A60444A4449444BCB5809
:10335000802149011943424BD150424B414A1169E6
:10336000414A0A40C02189000A431A613D4B3D4A47
:1033700051693D4A0A40C02189000A435A613B4ACB
:103380003A49C3239B00C958394B0B40802109049B
:103390001943C3239B00D150344B344A1268802117
:1033A000C9010A431A60334B324AD278D2B208219B
:1033B0008A43D2B2DA702F4B2E4AD278D2B204218D
:1033C0008A43D2B2DA70FB6800221A80FB680022BE
:1033D0005A60284B00229A70264B00229A71254B86
:1033E00000225A71234B234A1278D2B21F218A43FA
:1033F000D2B21A701F4B30225A701E4B1D4AD2781F
:10340000D2B2D2B208210A43D2B2D2B2DA70194B88
:10341000184AD278D2B2D2B204210A43D2B2D2B27E
:10342000DA70144B134AD278D2B220210A43D2B2B6
:10343000DA70104B0F4A9279D2B20F210A43D2B2FE
:103440009A710D4BFA681A60FB68181CBD4604B0EF
:1034500080BDC0465CFEFF1F7CFEFF1F0070044065
:103460003410000000C00440FFF8FFFE00E100E05F
:10347000FFFF00FF00C00640D402002080B586B0E8
:1034800000AFF860B960BB1D1A80FB687B61BB1D93
:103490001B88002B01D1842333E07B691B8A002B1E
:1034A00001D008232DE03B1C1333EFF3108072B6DC
:1034B0001870164B1B78DBB20133DBB2134A191CB0
:1034C0001170012B04D13B1C13331A78104B1A7066
:1034D0007B69BA68DA607B69BA1D12881A827B69D7
:1034E00000221A81094B1B78DBB2013BDBB2074A91
:1034F000191C1170002B03D1054B187880F310882C
:103500000023181CBD4606B080BDC046BD0000208B
:103510000C0C002080B586B000AFF860B960BB1D10
:103520001A80FB687B61BB1D1B88002B01D18423A3
:1035300048E07B691B8B002B01D0082342E03B1C39
:103540001333EFF3108072B61870204B1B78DBB288
:103550000133DBB21D4A191C1170012B04D13B1C35
:1035600013331A781A4B1A707B69BA685A617B69EF
:10357000BA1D12881A837B6900225A827B691B88D4
:10358000012213439AB27B691A80124B114AD278F6
:10359000D2B2802149420A43D2B2DA700D4B0D4AB1
:1035A0009279D2B29A71094B1B78DBB2013BDBB244
:1035B000064A191C1170002B03D1054B187880F3B3
:1035C00010880023181CBD4606B080BDBD00002039
:1035D0000C0C002000C0064090B583B000AF7860AE
:1035E000124BDB79DBB21C1C7B681B8A002B1AD0C8
:1035F0007B68DB68591C7A68D160E2B21A707B681C
:103600001B8901339AB27B681A817B681A897B68AF
:103610001B8A9A4207D17B6800221A827B68DB6989
:10362000181C01F0F1FABD4603B090BD00C0064081
:1036300080B582B000AF78607B685A8A7B681B8B4C
:103640009A421CD219497B685B69581C7A685061A0
:103650001B78CB717B685B8A01339AB27B685A8294
:103660007B685A8A7B681B8B9A421CD17B6800223C
:103670001A837B68DB69181C01F028FB13E00B4BF5
:103680000A4AD278D1B27F220A40D2B2DA70074B0E
:10369000064A9279D2B29A717B681B8801229343C1
:1036A0009AB27B681A80BD4602B080BD00C0064059
:1036B000F0B5474680B482B000AF354B1B687B60E5
:1036C000344B1B79DBB21C1C002500260F23234042
:1036D00044D0304BDB79DBB298460223234013D031
:1036E000202323400DD04246002A0AD1331C013347
:1036F000DEB27B681B88022213439AB27B681A8071
:1037000002E004232B439DB20823234002D001236F
:103710002B439DB20123234002D002232B439DB2B1
:103720000423234002D008232B439DB27B685A68B0
:103730002B1C1A437B685A602023221C9A43131CBB
:103740001C1C002E05D07B68DB69181C01F07CFB7B
:1037500004E07B68DB69181C01F02CFB202323406C
:1037600003D07B68181CFFF737FF7B681B881A1C87
:103770000123134006D08023234003D07B68181C0C
:10378000FFF756FFBD4602B004BC9046F0BDC046F0
:103790007CFEFF1F00C0064080B584B000AF78609B
:1037A00039607B68FB603B1C0B33EFF3108072B613
:1037B0001870144B1B78DBB20133DBB2114A191CB1
:1037C0001170012B04D13B1C0B331A780E4B1A706D
:1037D000FB685A683B681A60FB6800225A60094B14
:1037E0001B78DBB2013BDBB2064A191C1170002BBF
:1037F00003D1054B187880F310880023181CBD46B0
:1038000004B080BDBD0000200C0C002080B584B049
:1038100000AF7860604BFB60FB6800221A81FB6898
:1038200000221A82FB680022DA60FB6800225A82BA
:10383000FB6800221A83FB6800225A61FB687A68E1
:10384000DA61564BFA681A60554A5549554BCB58C0
:103850008021C9001943534BD150534B524A9169AF
:10386000524A0A40C02189000A439A614E4B4E4A8F
:10387000D1694E4A0A40C02189000A43DA614C4AA4
:103880004B49C3239B00CB58FF21181C8843011CC4
:10389000C3239B00D150464B454A12688021490101
:1038A0000A431A60434B434AD278D2B208218A4372
:1038B000D2B2DA703F4B3F4AD278D2B204218A4367
:1038C000D2B2DA70FB6800221A80FB6800225A60CC
:1038D000FB6800229A70374B00229A70354B002209
:1038E0009A71344B00229A72324B00225A712C4A40
:1038F0002B49314BC958314B0B408021C904194326
:103900002D4BD1502B4B2B4A1278D2B21F218A4318
:10391000D2B21A70274B02225A70264B254A927A4D
:10392000D2B2D2B21F218A43D2B203210A43D2B209
:10393000D2B29A721F4B1F4AD27AD2B2D2B20221AD
:103940000A43D2B2D2B2DA721A4B1A4AD278D1B240
:103950005F220A40D2B2DA70164B164A9279D2B27E
:103960000F218A43D2B29A71124B124AD278D2B244
:1039700008218A43D2B2DA700E4B0E4AD278D2B204
:1039800004218A43D2B2DA700D4BFA685A60FB68A0
:10399000181CBD4604B080BD80FEFF1FA0FEFF1FA7
:1039A000007004403410000000C00440FFF8FFFE27
:1039B00000E100E000A0064004100000FFFFFFF35C
:1039C000D402002080B584B000AF78607B68FB60D3
:1039D000FB689B78002B26D1FB6801229A70144B60
:1039E000134AD278D2B2D2B208210A43D2B2D2B2AA
:1039F000DA700F4B0E4AD278D2B2D2B204210A4307
:103A0000D2B2D2B2DA700A4B094AD278D2B22021AD
:103A10000A43D2B2DA70064B054A9279D2B20F212C
:103A20000A43D2B29A710023181CBD4604B080BD6F
:103A300000A0064080B584B000AF78607B68FB6072
:103A4000FB689B78002B22D0FB6800229A70124BF7
:103A5000114AD278D1B25F220A40D2B2DA700E4B4C
:103A60000D4A9279D2B20F218A43D2B29A710A4B8F
:103A7000094AD278D2B208218A43D2B2DA70064B10
:103A8000054AD278D2B204218A43D2B2DA70002336
:103A9000181CBD4604B080BD00A0064080B586B0AD
:103AA00000AFF860B960BB1D1A80FB687B617B6961
:103AB0009B78002B01D1072339E0BB1D1B88002B0D
:103AC00001D1842333E07B691B8A002B01D00823BA
:103AD0002DE03B1C1333EFF3108072B61870164BB9
:103AE0001B78DBB20133DBB2134A191C1170012BB6
:103AF00004D13B1C13331A78104B1A707B69BA68D7
:103B0000DA607B69BA1D12881A827B6900221A81E9
:103B1000094B1B78DBB2013BDBB2074A191C117061
:103B2000002B03D1054B187880F310880023181C54
:103B3000BD4606B080BDC046BD0000200C0C002074
:103B400080B586B000AFF860B960BB1D1A80FB6815
:103B50007B617B699B78002B01D107234EE0BB1D65
:103B60001B88002B01D1842348E07B691B8B002B31
:103B700001D0082342E03B1C1333EFF3108072B6F0
:103B80001870204B1B78DBB20133DBB21D4A191CC5
:103B90001170012B04D13B1C13331A781A4B1A7085
:103BA0007B69BA685A617B69BA1D12881A837B697E
:103BB00000225A827B691B88012213439AB27B69D7
:103BC0001A80124B114AD278D2B2802149420A435C
:103BD000D2B2DA700D4B0D4A9279D2B29A71094B7A
:103BE0001B78DBB2013BDBB2064A191C1170002BBB
:103BF00003D1054B187880F310880023181CBD46AC
:103C000006B080BDBD0000200C0C002000A00640C6
:103C100090B583B000AF7860124BDB79DBB21C1C2F
:103C20007B681B8A002B1AD07B68DB68591C7A687A
:103C3000D160E2B21A707B681B8901339AB27B684B
:103C40001A817B681A897B681B8A9A4207D17B6834
:103C500000221A827B68DB69181C00F061FBBD46FC
:103C600003B090BD00A0064080B582B000AF786080
:103C70007B685A8A7B681B8B9A421CD219497B68E5
:103C80005B69581C7A6850611B78CB717B685B8AD2
:103C900001339AB27B685A827B685A8A7B681B8B95
:103CA0009A421CD17B6800221A837B68DB69181C4E
:103CB00000F098FB13E00B4B0A4AD278D1B27F2276
:103CC0000A40D2B2DA70074B064A9279D2B29A71A0
:103CD0007B681B88012293439AB27B681A80BD4699
:103CE00002B080BD00A00640F0B5474680B482B067
:103CF00000AF364B1B687B60354B1B79DBB21C1C5D
:103D0000002500260F23234047D0314B0F221A7184
:103D10002F4BDB79DBB298460223234013D02023BC
:103D200023400DD04246002A0AD1331C0133DEB2B3
:103D30007B681B88022213439AB27B681A8002E0D8
:103D400004232B439DB20823234002D001232B439D
:103D50009DB20123234002D002232B439DB20423B2
:103D6000234002D008232B439DB27B685A682B1C4A
:103D70001A437B685A602023221C9A43131C1C1C84
:103D8000002E05D07B68DB69181C00F0E9FB04E01D
:103D90007B68DB69181C00F099FB2023234003D0CB
:103DA0007B68181CFFF734FF7B681B881A1C0123F3
:103DB000134006D08023234003D07B68181CFFF7F4
:103DC00053FFBD4602B004BC9046F0BDA0FEFF1FED
:103DD00000A0064080B584B000AF786039607B6891
:103DE000FB60FB689B78002B01D107232AE03B1C7A
:103DF0000B33EFF3108072B61870144B1B78DBB2E4
:103E00000133DBB2114A191C1170012B04D13B1C88
:103E10000B331A780E4B1A70FB685A683B681A60AD
:103E2000FB6800225A60094B1B78DBB2013BDBB216
:103E3000064A191C1170002B03D1054B187880F32A
:103E400010880023181CBD4604B080BDBD000020B2
:103E50000C0C002080B584B000AF7860104BFB6084
:103E6000FB687A681A600F4B0E4A526901210A43B7
:103E70005A610C4B0B4A126801218A431A600A4BA3
:103E8000094A1168094A0A40802149000A431A6018
:103E9000074BFA689A60FB68181CBD4604B080BDE9
:103EA000A4FEFF1F40F00F4000A00440FFF8FFFEFB
:103EB000D402002080B582B000AF7860024B0122AE
:103EC0009A60BD4602B080BD40F00FF880B582B068
:103ED00000AF7860024B01225A60BD4602B080BD3F
:103EE00040F00FF880B500AF1B4B1B78002B24D09F
:103EF0001A4B1B68181CFFF765FD184B1A68184B06
:103F0000101C191C0122FFF7C9FD164B1B88002B42
:103F10001FD0154B1B88202213439AB2124B1A80D4
:103F20000E4B1A68114B1B88191C114BCB18101C17
:103F3000191C0122FFF704FE0BE00B4B1A88DF234C
:103F400013409AB2084B1A80044B1B68181CFFF7E9
:103F500071FDBD4680BDC046A8FEFF1F080C0020B5
:103F6000B4FFFF1FB6FFFF1FAAFEFF1FB8FFFF1F12
:103F7000BCFFFF1F80B500AF064B1B78002B04D1A0
:103F8000044B01221A70FFF7ADFF0023181CBD4639
:103F900080BDC046A8FEFF1F80B500AF064B1B7852
:103FA000002B04D0044B00221A70FFF79BFF002364
:103FB000181CBD4680BDC046A8FEFF1F80B584B05A
:103FC00000AF78603B1C0F3300221A702D4B1B880A
:103FD000002B4DD03B1C0E33EFF3108072B61870DF
:103FE000294B1B78DBB20133DBB2274A191C117055
:103FF000012B04D13B1C0E331A78244B1A70214B31
:104000001B88013B9AB21F4B1A80214B1B885A1CFC
:1040100091B21F4A11801F4AD25C7B681A701C4BF8
:104020001B88FF2B02D91A4B00221A801A4B1B88BF
:104030001A1C1A4B134001D0192300E000233A1C2C
:104040000F321370144B1A88154B13409AB2124B4F
:104050001A800D4B1B78DBB2013BDBB20A4A191CFC
:104060001170002B06D1094B187880F3108801E0FD
:104070000A2302E03B1C0F331B78181CBD4604B01A
:1040800080BDC046ACFEFF1FBD0000200C0C002010
:10409000AEFEFF1FB4FEFF1FAAFEFF1F4108000077
:1040A000B6F7FFFF80B584B000AF021CFB1D1A708D
:1040B000314B1A8880235B009A4201D10B2357E0D1
:1040C0003B1C0F33EFF3108072B618702B4B1B782C
:1040D000DBB20133DBB2294A191C1170012B04D168
:1040E0003B1C0F331A78264B1A70234B1B88013365
:1040F0009AB2214B1A80234B1B885A1C91B2214A39
:104100001180214AF91D0978D1541E4B1B88FF2BC1
:1041100002D91C4B00221A801C4B1B78002B18D094
:104120001B4B1B881A1C2023134012D1184B1B88D1
:10413000202213439AB2164B1A80164B1A68164B5C
:104140001B88191C104BCB18101C191C0122FFF7DF
:10415000F7FC0A4B1B78DBB2013BDBB2074A191CA8
:104160001170002B03D1064B187880F310880023C0
:10417000181CBD4604B080BDB6FFFF1FBD00002067
:104180000C0C0020BAFFFF1FBCFFFF1FA8FEFF1F83
:10419000AAFEFF1F080C0020B8FFFF1F80B582B0E9
:1041A00000AFFB1DEFF3108072B61870144B1B7834
:1041B000DBB20133DBB2124A191C1170012B03D19F
:1041C000FB1D1A780F4B1A700F4B00221A800F4BF1
:1041D00000221A800E4B00221A80094B1B78DBB29A
:1041E000013BDBB2064A191C1170002B03D1054BB1
:1041F000187880F310880023181CBD4602B080BDDB
:10420000BD0000200C0C0020ACFEFF1FB0FEFF1F05
:10421000AEFEFF1F80B582B000AFFB1DEFF3108034
:1042200072B61870144B1B78DBB20133DBB2124A42
:10423000191C1170012B03D1FB1D1A780F4B1A703A
:104240000F4B00221A800F4B00221A800E4B0022C7
:104250001A80094B1B78DBB2013BDBB2064A191C02
:104260001170002B03D1054B187880F310880023C0
:10427000181CBD4602B080BDBD0000200C0C002003
:10428000B6FFFF1FBAFFFF1FB8FFFF1F80B500AFCB
:10429000024B1B88181CBD4680BDC046ACFEFF1FEC
:1042A00080B500AF024B1B88181CBD4680BDC046C0
:1042B000B6FFFF1F80B500AF104B00221A80104BD5
:1042C00000221A700F4B00221A800F4B00221A8016
:1042D0000E4B00221A800E4B00221A800D4B00223A
:1042E0001A800D4B00221A800020FFF78FFA021C63
:1042F0000A4B1A60FFF7F6FDBD4680BDAAFEFF1F00
:10430000A8FEFF1FACFEFF1FAEFEFF1FB0FEFF1F8B
:10431000B6FFFF1FB8FFFF1FBAFFFF1F080C0020EA
:1043200090B583B000AF78600024284B1B88FF2B2A
:1043300023D8264B1B8801339AB2244B1A80244B76
:104340001B885A1C91B2224A1180224A1178224AB3
:10435000D1541F4B1B88FF2B02D91D4B00221A8002
:1043600004232343DCB2194B1A8880235B009A4252
:104370000DD102232343DCB209E0184B1B884022F5
:1043800013439AB2154B1A8001232343DCB2221C3B
:104390000123134002D0FEF711FB0BE0221C042383
:1043A000134001D0FEF70EFB221C0223134001D064
:1043B000FEF710FB0A4B1A68064B101C191C012251
:1043C000FFF76CFBBD4603B090BDC046ACFEFF1FBF
:1043D000B0FEFF1FB4FFFF1FB4FEFF1FAAFEFF1FAA
:1043E000080C002080B584B000AF78603B1C0E3311
:1043F00000221A802F4B1B881A1C2023134007D041
:104400003B1C0E333A1C0E32128802210A431A80DA
:10441000294B1B8801339AB2274B1A80264B1B88E5
:10442000FF2B02D9244B00221A80244B1B88013B0E
:104430009AB2224B1A80214B1B88002B13D01D4BA4
:104440001B88202213439AB21A4B1A801C4B1A68FD
:10445000194B1B88191C1B4BCB18101C191C012253
:10446000FFF76EFB12E0134B1A88DF2313409AB25A
:10447000104B1A80144B1B78002B07D13B1C0E33BA
:104480003A1C0E32128801210A431A803B1C0E335B
:104490001A880223134001D0FEF798FA3B1C0E3312
:1044A0001A880123134001D0FEF798FABD4604B0E4
:1044B00080BDC046AAFEFF1FB8FFFF1FB6FFFF1F4B
:1044C000080C0020BCFFFF1FBC00002080B584B09A
:1044D00000AF7860204B1A683B1C0C33101C191C71
:1044E000FFF778FCFB68002B31D0FA6802231340F9
:1044F00001D0042300E00023184A128813439AB223
:10450000164B1A80FA680823134001D0802300E07C
:104510000023124A128813439AB2104B1A80FB6888
:104520009AB2012313409AB20C4B1B8813439AB2E0
:104530000A4B1A80FA680423134001D0022300E0DA
:104540000023064A128813439AB2044B1A80FEF7DE
:1045500035FABD4604B080BD080C0020AAFEFF1F3E
:1045600080B582B000AF7860044B1B8802221343F1
:104570009AB2024B1A80BD4602B080BDAAFEFF1F50
:1045800080B500AFFEF702FABD4680BD80B500AF32
:10459000FFBEBD4680BDC04680B500AF564A5749F4
:1045A000574BD150574A88235B010021D150554ABF
:1045B000554BC0218902D150524A5249534BCB58D6
:1045C000F82189011943514BD1504E4A4D494F4B67
:1045D000CB58012119434D4BD1504D4B9B78DBB249
:1045E0001A1C0823134007D0494B494A9278D2B28B
:1045F00008210A43D2B29A70424A434B4549D150EE
:10460000404A4049444BCB58802149021943424B10
:10461000D1503C4B3B4A1268C02109030A431A603F
:10462000384A38493C4BC9583C4B0B40802149041F
:104630001943394BD1503A4B394A916C394A0A40A7
:104640009A64374B364AD16C364A0A40DA64364BA4
:10465000354A5278D2B2D2B2111C40220A40D2B2AC
:1046600024210A43D2B2D2B25A70304B80221A703F
:104670002D4BA0221A702C4B2B4AD278D1B21F227C
:104680000A40D2B2DA70284B02221A71264B00225D
:104690005A71C046244B9B79DBB21A1C102313407D
:1046A000F8D1C046204B9B79DBB21A1C0C23134077
:1046B000082BF7D11C4B40225A71C0461A4B9B79EC
:1046C000DBB21A1C0C231340082BF7D1C046164B43
:1046D0009B79DBB21A1C40231340F8D0124B2022E6
:1046E0001A70C046104B9B79DBB21A1C0C23134086
:1046F0000C2BF7D1BD4680BD00E000E0002000009B
:10470000080D000000700440441000003810000044
:1047100000D007400000011004100000FFFFFFFC64
:1047200000900440FFF8FFFE0040064000500640A5
:1047300080B500AF7E4A7E497E4BCB58E0218B434B
:10474000402119437B4BD1507B4B7B4A11697B4AFB
:104750000A40E021C9000A431A61794B784A52792C
:10476000D2B21F218A43D2B25A71754B744A127960
:10477000D2B207218A43D2B21A71724B714A1278AF
:10478000D2B2D2B273218A43D2B250210A43D2B2FA
:10479000D2B21A706B4B6B4A5278D2B2D2B263214A
:1047A0008A43D2B240210A43D2B2D2B25A70654B88
:1047B000644A9278D2B219218A43D2B29A70624B7B
:1047C00000221A70614B614A9168614A0A400221D5
:1047D0000A439A605D4B5D4A51695E4A0A40042172
:1047E000FF310A435A61594B584A9169594A0A4064
:1047F0000421FF310A439A61544B544AD169554A06
:104800000A40812149000A43DA61504B4F4A5168FE
:104810004A4A0A40802149000A435A604B4B4B4A9E
:104820001169464A0A40802149000A431A614A4AEE
:104830004949C7239B00CB581B04190CC7239B0075
:10484000D150464B454A1168424A0A400421FF3183
:104850000A431A60414B414A916F3E4A0A40812106
:1048600049000A439A673C4A3B49C6239B00CB5800
:10487000FF218B4340211943C6239B00D150384B65
:10488000374A9169324A0A4002210A439A612A4B07
:10489000294A51682F4A0A40812149000A435A6037
:1048A000254B254A91682B4A0A40812149000A4339
:1048B0009A60264B254AD168204A0A40A021C900A7
:1048C0000A43DA601C4B1C4A116D1C4A0A40E02165
:1048D000C9000A431A65204A1F49C1239B00C958D1
:1048E000204B1940C1239B00D15000F0C9FA00F0C1
:1048F00059F9FFF7DFFC00F0F7FA00F08FFF00F046
:10490000A3FE00F00DFD0020FFF7A4FA164B9B68F4
:10491000181CFFF7CFFA002000F0F4FA00F0F8FBC3
:10492000002000F0C3FC00F09FFA62B6BD4680BDD7
:10493000007004400410000000900440FFF8FFFEE7
:1049400000F0074000D0074000E0074000B00440FE
:10495000FCFFFFFEFCF8FFFE00E100E000D0044099
:1049600000C00440FFFF00FFD402002080B500AF6C
:10497000024A034B0349D150FEE7C04600E000E085
:104980000C0D00000400FA0580B500AF044B1A6856
:10499000044B101C191C0122FEF770FDBD4680BDA2
:1049A000100C0020C801002080B584B000AF7860F2
:1049B0003B1C0F3300221A702D4B1B88002B4DD04F
:1049C0003B1C0E33EFF3108072B61870294B1B7826
:1049D000DBB20133DBB2274A191C1170012B04D161
:1049E0003B1C0E331A78244B1A70214B1B88013B59
:1049F0009AB21F4B1A80214B1B885A1C91B21F4A36
:104A000011801F4AD25C7B681A701C4B1B88FF2BDD
:104A100002D91A4B00221A801A4B1B881A1C1A4BF7
:104A2000134001D0192300E000233A1C0F32137009
:104A3000144B1A88154B13409AB2124B1A800D4B27
:104A40001B78DBB2013BDBB20A4A191C1170002B48
:104A500006D1094B187880F3108801E00A2302E0A0
:104A60003B1C0F331B78181CBD4604B080BDC046EC
:104A7000C0000020BD0000200C0C0020C20000205F
:104A8000C8000020BE00002041080000B6F7FFFF6C
:104A900080B584B000AF021CFB1D1A702F4B1A8822
:104AA00080235B009A4201D10B2353E03B1C0F3360
:104AB000EFF3108072B61870294B1B78DBB201330C
:104AC000DBB2274A191C1170012B04D13B1C0F3398
:104AD0001A78244B1A70214B1B8801339AB21F4B52
:104AE0001A80214B1B885A1C91B21F4A11801F4A01
:104AF000F91D0978D1541C4B1B88FF2B02D91A4B86
:104B000000221A801A4B1B881A1C2023134012D132
:104B1000174B1B88202213439AB2154B1A80154B52
:104B20001A68154B1B88191C104BCB18101C191C2C
:104B30000122FEF7EFFC0A4B1B78DBB2013BDBB234
:104B4000074A191C1170002B03D1064B187880F30B
:104B500010880023181CBD4604B080BDCA01002087
:104B6000BD0000200C0C0020CE010020D001002050
:104B7000BE000020100C0020CC01002080B500AF4A
:104B8000024B1B88181CBD4680BDC046C0000020DB
:104B900080B500AF024B1B88181CBD4680BDC046C7
:104BA000CA01002080B500AF0F4B00221A800F4BC6
:104BB00000221A800E4B00221A800E4B00221A800F
:104BC0000D4B00221A800D4B00221A800C4B002244
:104BD0001A800020FEF79AFB021C0A4B1A60FFF7AE
:104BE000D3FEBD4680BDC046BE000020C0000020F0
:104BF000C2000020C4000020CA010020CC01002017
:104C0000CE010020100C002090B583B000AF78607A
:104C10000024284B1B88FF2B23D8264B1B880133ED
:104C20009AB2244B1A80244B1B885A1C91B2224AF8
:104C30001180224A1178224AD1541F4B1B88FF2B26
:104C400002D91D4B00221A8004232343DCB2194BE6
:104C50001A8880235B009A420DD102232343DCB2E1
:104C600009E0184B1B88402213439AB2154B1A8057
:104C700001232343DCB2221C0123134002D0FDF7A1
:104C800089FE0BE0221C0423134001D0FDF786FEB1
:104C9000221C0223134001D0FDF788FE0A4B1A683C
:104CA000064B101C191C0122FEF7E8FBBD4603B0A1
:104CB00090BDC046C0000020C4000020C8010020F4
:104CC000C8000020BE000020100C002080B584B079
:104CD00000AF78603B1C0E3300221A802F4B1B88DC
:104CE0001A1C2023134007D03B1C0E333A1C0E32F3
:104CF000128802210A431A80294B1B8801339AB279
:104D0000274B1A80264B1B88FF2B02D9244B0022ED
:104D10001A80244B1B88013B9AB2224B1A80214BEC
:104D20001B88002B13D01D4B1B88202213439AB2E3
:104D30001A4B1A801C4B1A68194B1B88191C1B4BE9
:104D4000CB18101C191C0122FEF7E4FB12E0134BD8
:104D50001A88DF2313409AB2104B1A80144B1B7829
:104D6000002B07D13B1C0E333A1C0E321288012156
:104D70000A431A803B1C0E331A880223134001D0C9
:104D8000FDF710FE3B1C0E331A880123134001D09F
:104D9000FDF710FEBD4604B080BDC046BE00002039
:104DA000CC010020CA010020100C0020D0010020FE
:104DB000D002002080B584B000AF7860204B1A6824
:104DC0003B1C0C33101C191CFEF7E6FCFB68002B87
:104DD00031D0FA680223134001D0042300E00023FD
:104DE000184A128813439AB2164B1A80FA6808239D
:104DF000134001D0802300E00023124A128813439D
:104E00009AB2104B1A80FB689AB2012313409AB2EF
:104E10000C4B1B8813439AB20A4B1A80FA6804237E
:104E2000134001D0022300E00023064A12881343F6
:104E30009AB2044B1A80FDF7ADFDBD4604B080BDAB
:104E4000100C0020BE00002080B582B000AF78605A
:104E5000044B1B88022213439AB2024B1A80BD46B0
:104E600002B080BDBE00002080B500AF034B034AF6
:104E7000526906218A435A61BD4680BD00F00F4049
:104E800080B500AF0A4B0A4A526810210A435A60A3
:104E9000074B074A926810218A439A60044B044AE0
:104EA0005269F6218A4310210A435A61BD4680BDEA
:104EB00080F00F4080B500AF0A4B0A4A526880214B
:104EC0008A435A60074B074A926880210A439A60D6
:104ED000044B044A5269C0218A4380210A435A6123
:104EE000BD4680BDC0F00F4080B500AF034B034A04
:104EF0005169034A0A405A61BD4680BD00F10F4026
:104F0000FEFFFFBF80B584B000AF7860104BFB6040
:104F1000FB687A681A600F4B0E4A526902210A43F5
:104F20005A610C4B0B4A126802210A431A600A4B61
:104F3000094A5168094A0A40802149000A435A60D7
:104F4000074BFA68DA60FB68181CBD4604B080BDE8
:104F5000EC02002040F00F4000A00440FFF8FFFEEC
:104F6000D402002080B582B000AF7860024B0222EC
:104F70009A60BD4602B080BD40F00FF880B582B0A7
:104F800000AF7860024B02225A60BD4602B080BD7D
:104F900040F00FF880B582B000AF7860FDF722FDD9
:104FA000BD4602B080BDC04680B584B000AF021CD3
:104FB000BB1D1A803B1C0F3300221A70BB1D002240
:104FC0009B5E002B02D1BB1D01221A803B1C0E33BD
:104FD000EFF3108072B6187006E03B1C0F331A789E
:104FE0003B1C0F3301321A703B1C0F331B78174ADE
:104FF000D35C002B04D13B1C0F331B78002BECD06F
:105000003B1C0F331B78002B0DD13B1C0F331B783F
:105010000E4A0021D1543B1C0F331A780C4B52001E
:10502000B91D0988D1523B1C0E33187880F31088C3
:105030003B1C0F331B78012B01D1FF2302E03B1CEB
:105040000F331B78181CBD4604B080BDF40200204D
:10505000F002002080B584B000AF021CFB1D1A7066
:10506000FB1D1B78FF2B01D1012319E03B1C0E33E4
:10507000EFF3108072B61870FB1D1A780A4B5200BD
:10508000D35A1BB25A425341DAB23B1C0F331A7047
:105090003B1C0E33187880F310883B1C0F331B78B1
:1050A000181CBD4604B080BDF002002080B582B05F
:1050B00000AFBB1DEFF3108072B61870FB1D00220D
:1050C0001A7017E0FB1D1A78104B5200D35A1BB20E
:1050D000002B0ADDFB1D1A780C4B5100CB5A9BB2FA
:1050E000013B99B2094B5200D152FB1D1A78FB1DAE
:1050F00001321A70FB1D1B78002BE3D0BB1D187802
:1051000080F31088BD4602B080BDC046F00200208A
:1051100080B582B000AFFB1D00221A700FE0FB1DAE
:105120001A780A4B52000021D152FB1D1B78084A05
:105130000121D154FB1D1A78FB1D01321A70FB1D91
:105140001B78002BEBD0BD4602B080BDF0020020E2
:10515000F402002080B584B000AF0A1CFB1D011CC6
:1051600019703B1D1A80FB1D1B78FF2B01D10023FA
:105170001CE03B1C0D33EFF3108072B61870FB1D62
:1051800019783B1C0E330C4A49008A5A1A80FB1DC1
:105190001A78094B5200391D0988D1523B1C0D3336
:1051A000187880F310883B1C0E331B881BB2181C28
:1051B000BD4604B080BDC046F002002080B584B07A
:1051C00000AF7860254B1B69002B36D1244BFB6068
:1051D000FB687A685A60FB6801221A70214BFA68F2
:1051E0001A60214A2049214BCB58012119431F4BFA
:1051F000D1501F4B80221A601D4B1E4A9A601C4BD7
:1052000003225A601C4A1C49C7239B00CB58FF212C
:105210008B4340211943C7239B00D150164B164A9C
:105220001268802149050A431A60114B41221A6015
:105230000A4BFA681A61FB680CE0084B1B69FB60BB
:10524000FB687A685A60FB681B780133DAB2FB6846
:105250001A70FB68181CBD4604B080BDD402002043
:10526000F802002000030020007004403810000005
:10527000000004405FEA000000E100E080B582B079
:1052800000AF084B1B687B60074B074A1268802100
:105290000A431A607B685B68181C00F02FF8BD4653
:1052A00002B080BD000300200000044080B584B03F
:1052B00000AF78600F4BFB60FB687A689A60FB6810
:1052C00001221A710C4BFA685A610020FFF776FF31
:1052D000021CFB681A60FB681B68002B04D1064B9C
:1052E00000225A61002300E0FB68181CBD4604B090
:1052F00080BDC04604030020D402002080B584B0E5
:1053000000AF7860054B5B69FB60FB689B68181C0D
:10531000FFF740FEBD4604B080BDC046D402002069
:1053200080B500AF584A5849584BCB588021C90224
:105330001943564BD150544A5349554BCB588021B1
:10534000C9021943524BD150524A52499423CB5C63
:10535000DBB202210B43D9B29423D1544D4A8023AE
:105360005B004021D1544B4BFF221A74494A8023E1
:10537000FF21D154474A8823FF21D154454A842331
:10538000FF21D154434A8C230021D154414A862322
:105390005B006021D1543F4B00221A753D4A98238F
:1053A0000021D1543B4AC0230021D154394AC4239F
:1053B0000021D154374AC8230021D154354ACC2387
:1053C0000021D154334AD0230021D154314AD4236F
:1053D0000021D1542F4AD8230021D1542D4ADC2357
:1053E0000021D1542B4AE0230021D154294AE4233F
:1053F0000021D154274AE8230021D154254AEC2327
:105400000021D154234AF0230021D154214AF4230E
:105410000021D1541F4AF8230021D1541D4AFC23F6
:105420000021D1541B4A1C4B1B0ADBB201218B43C8
:10543000D9B29C23D154174A174B1B0CD9B2B023B5
:10544000D154144A144B1B0ED9B2B423D154114A6F
:10545000AC230021D1540F4B00221A770D4A84232C
:105460005B000021D1540B4A0A499423CB5CDBB288
:10547000DBB22B218B43DBB201210B43DBB2D9B270
:105480009423D154BD4680BD007004400410000038
:105490003410000000200740000E002080B584B0CA
:1054A00000AF021CFB1D1A703B1C0F3300221A7048
:1054B0003B1C0E33EFF3108072B61870224B1B7832
:1054C000DBB20133DBB2204A191C1170012B04D16D
:1054D0003B1C0E331A781D4B1A701D4B1B78802B0A
:1054E00004D13B1C0F330B221A7018E0194B1B78A8
:1054F000194AF91D0978D154154B1B780133DAB2DA
:10550000134B1A70134B1B780133DAB2114B1A701C
:10551000104B1B78802B02D10E4B00221A700A4BC5
:105520001B78DBB2013BDBB2074A191C1170002B60
:1055300003D1064B187880F310883B1C0F331B787F
:10554000181CBD4604B080BDBD0000200C0C00201E
:1055500092030020900300201003002080B584B047
:1055600000AF78603B1C0F3300221A703B1C0E33D7
:10557000EFF3108072B61870224B1B78DBB2013348
:10558000DBB2204A191C1170012B04D13B1C0E33D5
:105590001A781D4B1A701D4B1B78002B04D13B1C35
:1055A0000F330A221A7018E0194B1B78194AD25C83
:1055B0007B681A70154B1B78013BDAB2134B1A70DB
:1055C000134B1B780133DAB2114B1A70104B1B7856
:1055D000802B02D10E4B00221A700A4B1B78DBB2D3
:1055E000013BDBB2074A191C1170002B03D1064B9B
:1055F000187880F310883B1C0F331B78181CBD46AD
:1056000004B080BDBD0000200C0C002092030020DF
:10561000910300201003002080B500AF024B1B78DF
:10562000181CBD4680BDC0469203002080B500AF67
:10563000044B1B7880225242D31ADBB2181CBD46A1
:1056400080BDC0469203002080B500AF054B00220C
:105650001A70054B00221A70044B00221A70BD46C6
:1056600080BDC046900300209103002092030020DB
:1056700080B584B000AF021CFB1D1A703B1C0F33B9
:1056800000221A703B1C0E33EFF3108072B61870B4
:10569000224B1B78DBB20133DBB2204A191C11709C
:1056A000012B04D13B1C0E331A781D4B1A701D4B75
:1056B0001B78802B04D13B1C0F330B221A7018E08F
:1056C000194B1B78194AF91D0978D154154B1B78D1
:1056D0000133DAB2134B1A70134B1B780133DAB271
:1056E000114B1A70104B1B78802B02D10E4B0022ED
:1056F0001A700A4B1B78DBB2013BDBB2074A191C5C
:105700001170002B03D1064B187880F310883B1CD6
:105710000F331B78181CBD4604B080BDBD000020AF
:105720000C0C002016040020140400209403002018
:1057300080B584B000AF78603B1C0F3300221A7034
:105740003B1C0E33EFF3108072B61870224B1B789F
:10575000DBB20133DBB2204A191C1170012B04D1DA
:105760003B1C0E331A781D4B1A701D4B1B78002BF7
:1057700004D13B1C0F330A221A7018E0194B1B7816
:10578000194AD25C7B681A70154B1B78013BDAB260
:10579000134B1A70134B1B780133DAB2114B1A708A
:1057A000104B1B78802B02D10E4B00221A700A4B33
:1057B0001B78DBB2013BDBB2074A191C1170002BCE
:1057C00003D1064B187880F310883B1C0F331B78ED
:1057D000181CBD4604B080BDBD0000200C0C00208C
:1057E00016040020150400209403002080B500AFAB
:1057F000024B1B78181CBD4680BDC0461604002015
:1058000080B500AF044B1B7880225242D31ADBB222
:10581000181CBD4680BDC0461604002080B500AFF0
:10582000054B00221A70054B00221A70044B00220F
:105830001A70BD4680BDC046140400201504002027
:1058400016040020C046C046C04670470020C0462F
:10585000C046C046C046C04601300928F7D9C046F8
:105860007047C04680B582B000AF021CBB1D1A80D5
:1058700006E0FFF7EBFFBB1DBA1D1288643A1A80E1
:10588000BB1D1B88642BF4D806E0FFF7DBFFBB1DB4
:10589000BA1D12880A3A1A80BB1D1B880A2BF4D83D
:1058A000BD4602B080BDC04680B582B000AF786012
:1058B00007E00A4B181CFFF7D5FF7B68084A9B18C6
:1058C0007B607A68054B9A42F3D87B689BB2181CC0
:1058D000FFF7C8FFBD4602B080BDC04660EA0000C9
:1058E000A015FFFF80B584B000AF021CBB1D1A805D
:1058F000094BFB6008E0FB68181CFFF7D5FFBB1DD8
:105900001A88BB1D013A1A80BB1D1B88002BF2D1DF
:10591000BD4604B080BDC04680BB0000034B802262
:105920005204191DCA671A607047C04600E100E0C2
:1059300070B5141C002902D1274B19704AE00229C6
:105940000AD10020021C031C012100F08DFB234A18
:1059500001231360204A3CE004292ED11E4B1B7802
:10596000012B37D11379527912021A43131C402AA2
:1059700000D940239EB20025B5420FD26378227829
:105980001B021343A27812041343E2781206134356
:10599000585D0135FFF782FDEDB2EDE7FFF746FEFA
:1059A0000E4C00233F2806D90020031C0121021CB5
:1059B00000F05AFB012323600CE0032903D1084BBC
:1059C00000221A7006E0052904D1034A002313704F
:1059D000044A137070BDC0461D0400201804002046
:1059E0001C0400201E040020F8B5061C00F05AF923
:1059F0001F4B0C201D78EDB2012D37D11D4F3C6897
:105A0000002C0AD1FFF712FE3F2806D9201C291CC2
:105A1000221C231C00F028FB3D60FFF7E7FE032853
:105A200001D8002022E0144D2C78E4B2002CF8D1EB
:105A3000FFF7DCFE03280CD9271DFFB23019FFF752
:105A400077FE002803D10134E4B2BC42F6D13F2CEA
:105A5000EED901232B7000200221321C231C01F0FF
:105A6000C9FA0028DDD000232B701220F8BDC046F3
:105A70001D040020180400201C04002008B5031C8D
:105A800000200449021C01F08FFA002800D0FEE734
:105A900008BDC0462155000008B5044B021C083261
:105AA00000781B680521984708BDC04620040020E7
:105AB00010B50121041C044A00F00EFF201C012136
:105AC000802200F023FF10BD2404002037B56D466E
:105AD000073501212A1C041C00F0FEFE2B78802BC8
:105AE00005D1034B201C1A78012100F00FFF37BDB0
:105AF0002404002008B5437902791B0213438279FC
:105B0000052112041343C279120613435A7800F098
:105B1000FDFE08BD73B501220024051C01260021ED
:105B200000F0BEFE331C0196281C211C009440226C
:105B300000F090FE281C211C221C00F0B1FE231C4A
:105B40000196281C211C0094402200F083FE311C89
:105B5000281C022200F0DAFE321C281C062100F06C
:105B6000D5FE281C221C902100F0D0FE034B287883
:105B70001B68211C221C984773BDC04620040020CE
:105B800008B54278002A06D1C1781023C90119430B
:105B9000C9B200F0BBFE08BD73B56C460E1CE071C7
:105BA00001F05AF91B4B0734051C1E6030D110213F
:105BB000194A207800F0E2FE1221051C174A2078CD
:105BC00000F0DCFE14210543154A207800F0D6FED3
:105BD000EDB205431321134A207800F0CFFEEDB259
:105BE00005431721104A207800F0C8FEEDB20543A6
:105BF00016210E4A207800F0C1FEEDB205430322C3
:105C0000201C012100F082FE094B0322EDB21A7024
:105C1000281C76BD2004002005570000E556000032
:105C2000A1560000BD5600007157000089560000C3
:105C300024040020F0B587B06C466D460F3416354D
:105C40006E46019220702A1C0F1C201C0121173661
:105C5000029300F041FE201C0621321C00F03CFEA5
:105C60002B78802B12D133789A070FD52078FCF748
:105C7000E3FF01280AD172B6201C00F013FB0022BA
:105C8000201C01212A7000F041FE62B62B78002012
:105C9000802B05D0201C391C019A029B00F0A0FA31
:105CA00007B0F0BD70470000031C00B5FF20062BB5
:105CB00012D89800C0B2012901D10230C0B212211D
:105CC00043084B43054A995CD3185A78044B120297
:105CD0000A439A4200D1FF2000BDC0463404002090
:105CE000FFFF0000F8B5324C324B0027902267705E
:105CF000920018700D1C3048FF2101F0E3FD2F4E7B
:105D00002F4B8022D200301C391C1E6001F0DAFDBE
:105D1000627B802313436373301C627B244B52B23B
:105D2000002AFADB274AFF2111705A7B40210A43DF
:105D30005A73254B8022596852040A435A60002D39
:105D400004D01968802212060A4302E01A68520041
:105D500052081A6059681D4A0A405A60010A012215
:105D600091431B4BC9B21970010C1A4BC9B219707F
:105D7000194B010E197080239B00C018174B10217E
:105D80001860174B61721A70164BBF20187060783C
:105D90007F2303406370144B187802431A701A78FB
:105DA000002011431970114B84221A77F8BDC046A8
:105DB000FF2007402C04002034040020000E0020A7
:105DC0003004002054F9FF1F00700440FFFFFFFE65
:105DD0009C200740B0200740B42007402804002042
:105DE000942007408020074084200740002007407F
:105DF000F0B5554889B0061C06AB0D788C7881CE7D
:105E000081C30879CB780002184380239B00984215
:105E100003D90023CB7002230B719520062D00D9E6
:105E200090E0AB00DBB2012C01D10233DBB21226D1
:105E30005B08734345481E5CC3185F7895203F029A
:105E40003743434EB7427DD14E78032E7AD8012C8A
:105E500078D8D87BFF2801D10020D8730E79C87874
:105E6000AD0036029A730595064362001E702A4300
:105E7000360ADD7B5E7001263540364EFF203768DE
:105E80002A4307409F7002973768D2B23D0A054007
:105E9000DD7003953D0C0540380EDA731D715871A5
:105EA0000495009048781C7458742B480F79CD786D
:105EB00000683F02D20082183D4395702F0A029D70
:105EC000D7701571039F049D57719571009F01252F
:105ED000D77108271770DA7BCF786A400D79D20026
:105EE0002D0282182F439770039D3F0AD770029F9F
:105EF0005571009D1771049FD571482597711570D4
:105F00000A79CD78376812022A43D2193260002C00
:105F100007D1DB7BDB00C018027880235B42134390
:105F2000037005980D4AA40083184A781834013A82
:105F30006D46511E8A41615918780A430243D2B214
:105F40001A70002009B0F0BDC874000034040020AD
:105F5000FFFF00002804002030040020C02007407C
:105F6000081C10B5111CFFF79FFEC423FF281AD090
:105F700040081223C0B258430C4B012418180C4B94
:105F80001A68C37BD90051186340DB000C78D31822
:105F90007F2214400C7019780A401A7001235B426A
:105FA0008372C3720023181C10BDC0463404002045
:105FB00030040020F7B56F46F8710C1C081C111C4A
:105FC000161CFFF771FE0737051C9620FF2D1FD00A
:105FD000211C321C381C6D08FFF7C2FFEDB21223E2
:105FE0005D430C490C4A4B1958786E5C00023043F3
:105FF0001668A400301A1060084A0020A418012274
:10600000524220706A545A709A70DA701A715A713A
:10601000FEBDC0463404002028040020C0200740F4
:10602000F8B5071C0E1C081C111C151CFFF73CFEC4
:1060300040081223C0B25843094B1818C47BFF2CE8
:106040000DD02A1C381C311CFFF78AFF054BE400D9
:106050001B681C1922787C235B4213432370F8BD14
:106060003404002030040020F0B5081C85B0002165
:106070001E1C151CFFF718FE41081223C9B2594314
:10608000364B5918CF7BFF2F65D0354B08781B68EE
:1060900001934B781B020343324883425BD00120BB
:1060A000019A7840C000145CE409E0B2844662467C
:1060B0009420002A50D1FF000297FF20002E16D115
:1060C000019CE21993701B0AD370CB7888781B026D
:1060D0000343087949790004090603430B43190A6D
:1060E00013715171190C1B0E9171D3712AE0B7B263
:1060F0003A1C3F0A27430240CF722F1C224307401D
:1061000027438A722A0A8F71171C07402743CF71D1
:106110002F0C384020430872280E9446021C22435C
:106120004A720C734C73019C029962189E4200D90A
:106130001E1CB6B296706346360AD670157153713E
:106140009771D071117840230B40782149420B435D
:106150001370002000E0942005B0F0BD340400204E
:1061600030040020FFFF000070B5061C0D1C081C49
:10617000111C141CFFF798FD40081223C0B25843AD
:10618000144B1818C27BFF2A22D01349AB005B18AE
:10619000002D0CD0407C0138411E8841C0B218212E
:1061A000012C00D11421014318780143197019788A
:1061B000022081431970094BD2001B680021D15481
:1061C0008C4205D1301C291C221C231CFFF74CFFDC
:1061D00070BDC04634040020C020074030040020B9
:1061E000F7B5081C0E1C0121151C1F1CFFF75CFDD8
:1061F0009322FF2840D04008C0B2122444431F4BD2
:106200001F491C19E37B0968DB00CB181978C90901
:1062100032D11C48B10009180878022101402BD165
:10622000BAB2100AE072280AE0718446280C207283
:106230000090280E21736173A2722178A57160729B
:1062400064780190240221438A4200DD0A1C9A707E
:10625000120ADA7062465A710098019A1D71DA7159
:106260009871C822002E05D0197840220A40782162
:1062700049420A431A700022101CFEBD340400205B
:1062800030040020C020074008B5044B04481970B2
:1062900001210A1C00F03AFB08BDC04698200740C7
:1062A0002C04002038B5134B7F225978124C0A4039
:1062B0005A70597B202291435973104B197811431E
:1062C00019700F4B1978914319700E4B19781D1CDA
:1062D000914319701A7804210A431A70013CA4B240
:1062E00000F08CFE002CF9D12B78042293432B7004
:1062F00038BDC046FF200740409C0000802007407A
:106300008420074094200740F0B5D548D54E027848
:10631000337889B01A40D448D44B02921C78FF22BB
:1063200003786D4605AF6A7411353B707A700023AF
:106330002A1C0121BB707B607B72BB72FB703B72BD
:1063400000F0CAFACA4BE4B25A7BD1070CD52B78BD
:10635000802B09D1C64BC64E5A787F2313407370E9
:10636000737B202293437373029E04231E420FD03B
:10637000C04AC1491278BA480978120203700A4328
:106380006B465A8212201233391C7B6000F0F8FAF7
:10639000029E01231E4241D0B14841210370B74BF8
:1063A000B74C494219702378022213432370B54B2E
:1063B00000251D70AE4B90225D70FF219200B24807
:1063C00001F080FAB14E8022291C3068D20001F021
:1063D00079FA32688026AE4BB60092191A60AD4B3E
:1063E000FF221A70237802208343A14923704B7B3C
:1063F000402213434B734122A74B5242994E1A70CD
:106400009F23337023782025AB4323701020391C41
:1064100000F0B6FA2378AB432370DAE1029E08223B
:10642000164200D178E18E48230902702240D11033
:10643000C9B27B70F970FF22062B07D86207D20F12
:106440009B00D218012901D10232D2B201218F4B17
:106450000C1C54401868E4B2E4000419D300CA408C
:106460000094D2B212245443874AC31814195A799B
:10647000187912020243987905AD00040243D879D5
:10648000009F000602436A60DE7898783602064371
:106490006E72360AAE72E67BFF204E40E6731E78BF
:1064A0007606F60F4E40B6013E70EF786E788F425A
:1064B00072D1784F002E10D13E78002E0DD1387059
:1064C000311C321C281CFFF74BFD0098311C067054
:1064D000321C281C331CFFF7C7FD3B78012B03D06F
:1064E0006B78002B00D10EE1A9680802000C019026
:1064F000637B227B1B021343C3189BB2E17A1A0A07
:1065000009026273A27A0F1C174322782373944600
:106510006178A2799F420DD80E020396FF26304083
:10652000039E0190604606430198B04226D1A07BAD
:10653000012823D1E079090200020243207A66464D
:1065400000040243607A314300060243D218FB1A6A
:106550008B4200DC99B2009F130A3A717B71130CD5
:10656000120EFA713A78BB714023134078225242DE
:10657000B9701343090AF9703B70C8E0E179090268
:106580000A43217A09040A43617A6B7209060A43B5
:106590001B0A6A60AB72B6E0002E1AD11F783D4B21
:1065A000BF063F0F0D2F04D1A9701278D2091A70BF
:1065B0000FE01A78012A0CD11870311C281CFFF743
:1065C000CFFC009F281C3E70311C321C331CFFF78F
:1065D0004BFDE77AA37A3F021F43304B9F4200D125
:1065E00091E0A868627B217B030212021B0C0A4324
:1065F0009A1892B2160A039666736678019222730D
:10660000227836021643B34202D1019887420BD852
:10661000002F65D0381C311CFCF750F989B20029D5
:106620005ED1A37B012B5BD101997F1AB74200DCBD
:10663000BEB2002E34D1E378A2781B021343227934
:10664000009F120413436279BE70120613431A0AA4
:106650003B717A711A0C1B0EBA71FB7136E0C046A1
:1066600080200740842007402C0400209020074011
:10667000FF200740A4200740A020074088200740B3
:106680009420074098200740340400203004002064
:106690002804002054F9FF1F8C200740FFFF000052
:1066A000E379A2791B021343227A019F1204134358
:1066B000627A12061343DB19009F1A0A3B717A7142
:1066C0001A0C1B0EBE70BA71FB71360AFE70009E6A
:1066D000402332781340782252421343337016E03D
:1066E000E379A2791B021343227A019F1204134318
:1066F000627A039E120613436B6001235B426F7242
:10670000AE72A372E3726878291C00F039F9324B3B
:1067100020211A788A431A70029F02231F4212D046
:106720002E482F4C03702F4B22781B7805A913405D
:1067300016200B7200F024F9BF232370264B202172
:106740001A788A431A70029E10231E4213D0234FD8
:1067500020243C7005A93B70142000F011F9224858
:106760002249437B2343437342788023134343707E
:106770000B781C430C70029E2024264209D0174F30
:1067800013203C7005A900F0FBF818480378A343D8
:106790000370029E73B2002B1BDA6D4605AC1235F6
:1067A000FF23201C10212A1C637000F095F82B7821
:1067B000012B02D100226270E370084F80233B70EE
:1067C000211C172000F0DCF8034B20211A788A43A3
:1067D0001A7009B0F0BDC0469420074080200740E1
:1067E000882007408C200740FF2007408420074076
:1067F00000B5094BFF211A78084B1A70084A00238C
:1068000099540133072BFBD1064A002305219954E3
:106810000133072BFBD100BD740600207C0600204D
:106820007D06002075060020C0467047013AD2B2AE
:1068300038B5051C1C1C9920062A07D8044B1A7071
:10684000FFF7D6FF281C211CFFF74CFA38BDC046C5
:1068500074060020F7B5051C104C08A8077809A895
:1068600006782078002802D19520002914D16846A6
:10687000C270120A8370017002714770321C28784E
:106880006946FFF7B5FA6A461378002B04D0002852
:1068900002D12378013B2370FEBDC0467C06002058
:1068A00038B50C1C0A4D0B49031C0978287888421E
:1068B00002D19620002C0AD11878211CFFF77AFB10
:1068C000002C04D0002802D12B7801332B7038BD66
:1068D0007C060020740600204B1EDBB200B5062BA0
:1068E00004D8084B591801390B7808E08220CB06F0
:1068F00007D50F231940062903D8034B5B5C13709F
:10690000002000BD7D060020750600204B1EDBB276
:10691000F7B5061C151C062B04D8164F791801393B
:106920000A7025E08220CB0623D50F240C40062CCC
:106930001FD8CF09012A05D1301C211C3A1CFFF7B2
:106940006FFB13E0002A11D10B4B1B5D0193012B50
:106950000CD1301C211C3A1CFFF706FC002C05D181
:10696000019A301C7A40211CFFF7FEFB024B1D559B
:106970000020FEBD7D060020750600200020704727
:1069800038B5041C0D1C102801D1FFF731FF044B52
:10699000A400E358002B01D0281C9847002038BDE4
:1069A0009475000030B585B069466C46C871151CF9
:1069B0000F34073102221A80081C221C0521FFF720
:1069C0008BFF034B22781A802B6005B030BDC04688
:1069D0008606002030B585B069466C46C871151C26
:1069E0000F34073101221A80081C221C0421FFF7F2
:1069F00073FF034B227800201A802B6005B030BD56
:106A000086060020F0B585B06C460022E0711A8041
:106A10008B78C9786D4609021943C0B2E981FCF749
:106A2000DFF807340E350426002818D02A88012103
:106A300053425A41D2B2201CFFF768FF311C2A781A
:106A4000201CFFF763FF074F01212A1C3B68061C2F
:106A50002078984720783B68022100229847301C14
:106A600005B0F0BDA406002037B56A46D0710024F9
:106A700007320D1C1C80101C01210422FFF746FF69
:106A8000AA78024B201C1A703EBDC0468406002026
:106A9000F0B585B06D46002207351A8028704B7816
:106AA0000A789B07DF0F03230E1C134036D1CA78E8
:106AB0008B781202012F16D11343013B9BB2CD24D8
:106AC000012B46D86A46281C06210F32FFF704FF27
:106AD000041E3ED1B2786946CB7B97403A1C1A43DC
:106AE000D2B2CA7314E01A430092CD24012A30D1E5
:106AF0006F460F37281C06213A1CFFF7EDFE041ED7
:106B000027D1B378009A9A40131C3A789A433A7086
:106B1000281C0621FFF7FAFE041C1AE0CD24022BE4
:106B200017D10B796E46102119430F36281C3A1CD9
:106B30003370FFF7EBFE0721041C002F04D13378DC
:106B40000821032B00D1C046034B28781B68321C58
:106B50009847201C05B0F0BDA4060020F7B5CD78FD
:106B60001F1C8B782D021D43161C2C0A032C05D1EB
:106B70004B790A791B021343EAB201E0034BFF226F
:106B800000960197211CFBF73FFFFEBDFFFF0000B1
:106B9000F0B589B06D460E1C049217350322694684
:106BA0000A76039328700023281C012106AA079364
:106BB000FFF792FE337803271F40284C24D16E46FE
:106BC00019360621321C281CFFF786FE3378032174
:106BD0000B40238007AB28780093023B01933A1CBB
:106BE0003B1C0221FBF710FF079BDA792388510633
:106BF00003D580225200134301E0194A1340039A3F
:106C000023800223138024E0012F0CD17379327981
:106C10001B02694613430A7E012A02D1DBB2002B14
:106C200016D10023EBE7022F13D131796E461023E2
:106C30001A361943321C281CFFF74EFE3378238086
:106C4000039B1F80228880235B001340238000E089
:106C5000CD2004990C6009B0F0BDC0468606002026
:106C6000FFFEFFFF10B500241C800A1C09780323D7
:106C700019400423012904D111799278FBF794FF7C
:106C8000231C181C10BD000038B50C78151C0322FD
:106C900022400424012A07D1044C1A800979221CBD
:106CA000FBF764FF2C60041C201C38BD8606002006
:106CB00073B56C4607342070CD2905D1201C902176
:106CC0000122FFF723FE18E00C491E88C8798D7950
:106CD000000228430D1C864200D918801B882078AA
:106CE00012680021FEF7A6FF2B787F2B05D9002123
:106CF000201C0A1C0B1CFFF7B7F973BD8806002087
:106D0000F0B585B06E46041C0936002000223070B4
:106D10000392201C0121321CFFF7DEFDA378012B1A
:106D200055D16179237909021943A379444D1B0494
:106D30001943E37908221B061943281C00F0B9FD0A
:106D4000EA79AB7912021A432B7801926F466022DE
:106D5000291C0A37134218D16B783A4A990088588F
:106D60008446002801D1CD212DE03278022AFAD8BC
:106D70005900CB1834499A18535C012BF3D1207871
:106D8000291C03AA3B1CE0471CE00198388000281E
:106D900010D05BB2002B0DDB2C4E291C301C0822BE
:106DA00000F087FD321C0832201C0021019BFFF7F8
:106DB0005BF943E0264B1D68002DD4D0207803AA50
:106DC0003B1CA847011C207803AA3B1C34E0337805
:106DD000042B13D123786D461E4CAB720A352178F3
:106DE000281CFFF751FA01210A1C281CFFF78EFD11
:106DF0002278281C0321FFF789FD1FE0104B1B7828
:106E00007F2B1BD8E378002B18D1114B6D461E68E1
:106E10000A35002E0CD0A37A627A1B021343083382
:106E20002B800A49207803AA2B1CB047011C00E0E4
:106E3000CD21207803AA2B1CFFF73AFF05B0F0BD47
:106E400088060020F47500002876000090060020D7
:106E5000A00600208406002008B5044B1960044BEE
:106E600000211A60034AFFF789FD08BDA40600202F
:106E7000A0060020F1680000084B07B51B68021C43
:106E8000002B09D0017A0078002902D008320521B0
:106E900001E003216A46984707BDC046A8060020C6
:106EA00007B5437901791B020B438179021C090460
:106EB0000B43C17909060B430093837A417A1B0285
:106EC0000B4369468B80074B1B68002B09D0017A66
:106ED0000078002902D00832052101E004216A4629
:106EE000984707BDA80600200020188070470000C2
:106EF000F0B587B06F461737039104923870FBF7EF
:106F0000A7FE039B041C022B09D0244B1B68002BFB
:106F100041D06A46D07D0399049A98473BE0051C0E
:106F2000002623789E4207DA6978EA78381CFFF752
:106F3000B7FC01360535F4E7651C002723789F422E
:106F4000E3DA2A79EB7868786E46120229781A43D8
:106F50001736AB78009000200190301CFFF77AFCC8
:106F60006B78022B09D1AB7829783078002B01D1CE
:106F70000B4A00E00B4AFFF701FD2B781021194363
:106F8000AB78301CDB011943C9B20022FFF7BEFC0D
:106F900001370535D2E707B0F0BDC046A80600208E
:106FA000916A0000696A0000F8B5041C0E1C151CEB
:106FB0001F1CFBF74DFE027800210132D2B2201CCB
:106FC0003B1CFFF733FC00280AD1201C0549064A68
:106FD000FEF7E2FD002803D1044A1660044A15605A
:106FE000F8BDC046E16A0000D96A0000A80600208A
:106FF000AC06002008B5FEF71DFE08BD024B20219F
:107000001A780A431A70704700F0074013B5FDF76D
:10701000C5F8FDF7FFF8FDF739F90028FBD06C46FD
:107020000734201CFCF7CAFF0028F4D12078F5288B
:10703000F1D1FDF737F8FDF729F9002806D1FDF762
:107040002FF9002802D1F520FDF72CF8FDF71EF9E5
:107050000028F0D0201CFCF7B1FF0028EBD12378EA
:10706000F42BE8D113BD0000054A08B513680433BA
:1070700013600F2B02DDF420FDF714F808BDC046A5
:10708000B0060020054A00B51368043313600F2BC7
:1070900002DD034B01221A6000BDC046BC06002081
:1070A000B8060020F7B5184E184C051CFDF7EEF891
:1070B000002828D06F460737381CFCF77FFF0028D0
:1070C00020D13B78F52B03D10F4B1860104B04E017
:1070D000F42B04D10F4B18600F4B186013E031688C
:1070E0004A1C32606354032AE0DD23782B706378F6
:1070F0006B70A378AB70E3783060EB70FFF7B4FF90
:10710000012000E00020FEBDC0060020B4060020E3
:10711000B0060020BC060020B806002038B5074B9A
:1071200000241B68051CA34206D1FDF7B9F8802393
:107130005B00181AA8426441201C38BDB806002024
:1071400010B5041CC0B2FCF7ADFF2004000EFCF724
:10715000A9FF2002000EFCF7A5FF200EFCF7A2FFFE
:10716000FFF790FF10BD0023037043708360C3607E
:107170007047031C081C0C30C0B230B5012800D881
:107180009DE0F72906D90F221A70002259709A70D3
:10719000DA7091E0F7291BD190681418A170411C96
:1071A0009160022905D0032905D001290BD10521C1
:1071B00002E0062100E00721197091785970D1781A
:1071C00099701179D970002313709360D36073E0C4
:1071D00048B200282CDB1078002870D0946815196C
:1071E000A970611CD4689160A14268D1F02807D1D0
:1071F0000421197091785970D1789970117913E040
:10720000EF2802D80009187009E0012901D10221F4
:1072100004E0022901D1032100E00F211970117847
:10722000597091789970D178D9700023936043E0B8
:107230000F200C1C8443201C0024B0280ED006D83C
:1072400090280BD0A02809D080280DD106E0D028A6
:1072500007D0E02802D0C02806D102E01170946067
:107260001BE0117094601DE0081CF0380024062813
:1072700024D8211CFBF7D4FA040C0E132222190087
:10728000F0231370032193700123D160936016E003
:10729000F12305E0F22313709460022303E0F3234B
:1072A000137091600123D36009E0147005221A70F5
:1072B000F6225A709C70DC70012001E014700020EE
:1072C00030BD73B5061C0C1C2369984700280ED0EE
:1072D0006D460735281C636998470028F4D1297842
:1072E000301C221CFFF745FF0028EDD0012076BDA1
:1072F00000230360704738B58B68041C4D689847BD
:107300002B1AD817E20FA342504138BD38B543B20B
:10731000051C0C1C0120002B18DA0F232A1C9A4391
:10732000F02A04D1F72D11D800230B600EE00B6872
:107330009D4206D02560207CA3690A219847012040
:1073400004E0087C4A6990470028F3D138BD00006A
:10735000F8B50F230340023B05040702DBB2061C0D
:107360000C1C2D0E3F0E0D2B28D801229A40131C09
:10737000134A134214D1134A134206D1124A13423C
:107380001CD0CB68281C984718E0281CFFF7BEFFCC
:10739000002802D0281CE3689847E368381CF2E70D
:1073A000281CFFF7B3FF002802D0281CE368984789
:1073B000E368381C9847300EE368E4E7F8BDC04640
:1073C000E6130000110C00000820000000230360F9
:1073D0000371704737B502680023041C9A420BD032
:1073E000816812118A4207DA9300C318596F04208A
:1073F0005B69984743424341002B44D1E168884789
:107400002368C01803283EDD002B10D12369201DFE
:1074100098470123236023791B09012B07DC9B007C
:10742000E318596F04205B69984700282BD0216826
:1074300001AD002903D1281CFEF790F803E0237961
:107440002B700023236068460530FEF787F86846F6
:107450000630FEF783F868460730FEF77FF82D7890
:10746000A3682D099D42C9DAAD0065196B6D002B2B
:1074700004D1696F6B6B01989847BFE701989847F3
:107480000028F6D0BAE737BD094B10B518681C1CA8
:10749000431C0CD0074B08491A6800F0C1F90028BA
:1074A00002D00020FBF7E8FB01235B42236010BD04
:1074B0005CF9FF1F58F9FF1F0008002010B5094CA8
:1074C0002368002B07D0FFF7DFFF00F069F9064AB9
:1074D000002323601360054A00231360044A1360ED
:1074E00010BDC0462407002020070020000C00200B
:1074F00028070020034A00231360034A1360034A4D
:10750000136070472C0700201C070020D0060020C5
:10751000044B01221A60044A00231360034A1360DB
:107520007047C0462C0700201C070020D006002012
:10753000F0B5514F041C386885B0012800D094E0A4
:107540004E490D68002D6DD0F72C00D192E063B24A
:10755000002B00DA89E04A4B4A4918681D1C0022BA
:10756000062803DC0C54013018607EE0231C885C84
:107570001341DB0103438B540132072AF6D1002665
:107580002E60414D414C2F68E01900F092F9F91D31
:10759000462969D1201C2E6000F083F9B04266D1E3
:1075A000221C4132231C117840331B7809025918E0
:1075B000374B1A681F1C914259D1231C42331A7849
:1075C000231C43331B78334E1B02D31832689B01B4
:1075D0000293314D002A06D100F0B0F80123336048
:1075E00000F00AF928602B68029A2C4E5B42019346
:1075F000134032680393934208D0FFF745FF039B83
:107600002A682748FF21336000F05CF9019A02984C
:10761000234B90431818211C402200F04AF93B6884
:1076200001331FE01F4B1A68032A1EDC561C1E6024
:107630001D4B9C54042E18D11A78F02A11D15A7877
:107640006F2A0ED19A786B2A0BD1DB785F2B01D190
:1076500008600AE0212B04D1FFF730FFFBF706FB9F
:1076600003E002233B6000E02960002002E0FFF716
:1076700025FF012005B0F0BD2C070020D00600201A
:10768000000C0020C806002028070020D406002097
:10769000200700202407002058F9FF1F5CF9FF1F76
:1076A000000800201C070020C4060020024B1869B7
:1076B0004006C00F7047C046C0F00F4037B5094DB7
:1076C0006C46A868FCF7F6FB073400232370201CE7
:1076D000FCF774FC0A28FAD0A868FCF7F7FB2078BE
:1076E0003EBDC046D402002008B5FCF757FD5A2025
:1076F000FCF7D8FCFFF7E2FF5A28F6D108BD0000DE
:1077000010B50C4CE068FDF72DFC0120FEF7EAF8FF
:10771000E068FDF733FCA068FCF7CCFB064C0023C7
:107720002360FFF7C3FF002802D123680133F7E786
:1077300010BDC046D4020020040C002010B5134C2C
:10774000A068FCF7C3FBFCF765FDFCF725FC104BBC
:107750000022DA70FCF7AEFD0E4B0F499869022249
:10776000084010439861D86901400A43DA61FDF787
:10777000A1FB0A4B80229A60FFF7C2FFFCF7FAFBDD
:10778000FFF7B2FFA068FCF7A1FB10BDD4020020F8
:1077900000A0064000C00440FCFFFFFEC0F00F4008
:1077A00008B5054B9868FCF791FBFCF783FDFCF7E7
:1077B000E1FBFFF7A5FF08BDD4020020F8B5051CCA
:1077C0000F1C141C1E1CFCF7E9FCEF19BD4206D06F
:1077D0002878FCF767FC0028FAD10135F6E7002E7F
:1077E00009D0A619B44206D0201CFCF7E7FB0A28F2
:1077F000FAD00134F6E7F8BD13B502240023221CA9
:1078000068460649019300F054F86846211C01AA15
:107810000423FFF7D3FF019816BDC046D0740000C3
:1078200073B503230024151C6A4600940E1C1370C4
:107830005580019008216846221C231CFFF7BEFFDB
:10784000FFF73CFF012815D1AC420EDA3019291B95
:10785000102900DD10210022131CFFF7AFFFFFF7F6
:107860002DFF012806D11034EEE7FFF727FF01288E
:1078700000D1002076BD30B5C3B20C1C000A651AD9
:1078800095420ADA25785B19FE2B00D9FF3BC01818
:10789000FE2800D9FF380134F1E70002034398B213
:1078A00030BD08B5031C0A1C0020191CFFF7E3FFBC
:1078B00008BD10B50023934203D0CC5CC4540133FF
:1078C000F9E710BD00B5031C8218934202D019706D
:1078D0000133FAE700BD00000800000004000000CA
:1078E000010100000201020040000202014000000C
:1078F00000000000000012008500000000000000F1
:10790000000000000000000000F8FF1F14F8FF1F37
:107910000000000000000000000000000000000067
:107920000000000004182004101A0E1822000000A5
:107930009CF8FF1FA0F8FF1FB8F8FF1FD8F8FF1F23
:10794000DCF8FF1FECF8FF1F08F9FF1F18F9FF1FF5
:1079500030F9FF1F9CF8FF1F040904207500001474
:1079600075000000000000000000000000000000A2
:10797000000100007A290000F428000060290000BE
:10798000BE290000E2290000E2290000E2290000EF
:10799000E2290000E2290000E2290000E2290000BB
:1079A00004290000F1680000916A0000696A000083
:1079B00019640000196400001964000019640000D3
:1079C00019640000196400001964000019640000C3
:1079D00019640000196400001964000019640000B3
:1079E000196400000557000019640000E556000006
:1079F000BD560000A1560000196400008956000021
:107A000071570000816700008166000000000000DF
:107A10008166000000000000596600004D6700000C
:107A200000000000C5650000F565000079680000F1
:107A3000556800009565000001010001010000008B
:107A4000000101000000000001010101010000002F
:107A5000010100010100010000010000010000001F
:107A6000F8B5C046F8BC08BC9E467047F8B5C0469D
:107A7000F8BC08BC9E467047412500001125000057
:107A80001201100100000040C016E40501000102CF
:107A90000001000009028500020100803209040093
:107AA0000000010100000924010001090001010991
:107AB0000401000201030000072401000143000645
:107AC0002402010106062402020206062402010322
:107AD0000706240202040709240301050101010429
:107AE000092403020601010104092403010701031B
:107AF00001050924030208010301050905010240EB
:107B00000000000006250102010309058202400071
:107B10000000000625010205070000000403090417
:107B200018036C00640030006400400069006B00C2
:107B300069002E0066006900200375007300620072
:107B40006D00690064006900320020006D00610072
:107B500073007400650072000403300010035500C8
:107B60005300420020004F00750074001A034500C6
:107B70007800740020004D004900440049002000B6
:107B80004F007500740000000E03550053004200C2
:107B9000200049006E0000001803450078007400C2
:107BA00020004D00490044004900200049006E00BB
:107BB00022034200410044002000530054005200C0
:107BC00049004E004700200049004E004400450097
:107BD00058000000FF00000000040000FFFFFFFF4E
:107BE0007076000000F8FF1F600100000000000038
:107BF0000000000000000000002934D00123002212
:107C000010B488422CD301242407A14204D281421B
:107C100002D209011B01F8E7E400A14204D281422B
:107C200002D249005B00F8E7884201D3401A1A43A8
:107C30004C08A04202D3001B5C0822438C08A042DF
:107C400002D3001B9C082243CC08A04202D3001B95
:107C5000DC082243002803D01B0901D00909E3E70F
:107C6000101C10BC7047002801D00020C04307B48E
:107C7000024802A14018029003BDC046190000004E
:107C80000029F0D003B5FFF7B9FF0EBC4243891AB3
:107C90001847C0467047C04608B5054B0548033332
:107CA0001B1A062B03D9044B002B00D0984708BDA4
:107CB00058F9FF1F58F9FF1F000000000648074948
:107CC00008B5091A8910CB0F5918491003D0044B75
:107CD000002B00D0984708BD58F9FF1F58F9FF1F27
:107CE00000000000084B10B51A781C1C002A09D1AE
:107CF000FFF7D2FF054B002B02D0054800E000BF84
:107D00000123237010BDC04600FAFF1F00000000D1
:107D100068B2000008B5094B002B03D00848094998
:107D200000E000BF08480368002B03D0074B002B7E
:107D300000D09847FFF7C2FF08BDC0460000000012
:107D400068B2000004FAFF1F58F9FF1F000000008E
:107D500080B500AFBD4680BD80B500AFBD4680BDDB
:107D600080B500AFBD4680BD80B500AFBD4680BDCB
:107D700080B500AFBD4680BD80B500AFBD4680BDBB
:107D800080B582B000AF064B7B6001F053F9012053
:107D900001F0E6FD01F034FD00F056F9FEE7C046C3
:107DA000B1A8718C90B585B000AF041C081C111CE3
:107DB0001A1CFB1D1C70BB1D18707B1D1970BB1C91
:107DC0001A80BB1D1B78032B00D075E0BB1C1B88E1
:107DD000002B07D1484A3B6A1A6004231A1C7B6AAD
:107DE0001A8084E03B1C0F3300221A703B1C0E33B8
:107DF00001221A7024E03B1C0F3319783F4A0B1CF8
:107E00009B005B185B00D1184979D3189B791B0242
:107E10000B439BB2BA1C12889A420AD17B1D1B7875
:107E2000072B05D83B1C0E337A1D12781A700CE014
:107E30000BE03B1C0F331A783B1C0F3301321A70D6
:107E40003B1C0F331B78002BD5D03B1C0F3319780C
:107E50002A4A0B1C9B005B185B00D118C979D0180B
:107E6000008900020143D3189B7A1B060B431A1C9E
:107E70003B1C0E331B789B00D3181A683B6A1A60B0
:107E80003B1C0F3319781D4A0B1C9B005B185B00D1
:107E9000D118C97AD018808900020143D3189B7B7E
:107EA0001B060B431A1C3B1C0E331B78D3181B7884
:107EB0001A1C7B6A1A801AE0BB1D1B78072B14D88A
:107EC000BB1D1A780E4B9200D2583B6A1A603B6A6F
:107ED0001B68002B01D1CD230AE0BB1D1A78094B8A
:107EE0005200D25A7B6A1A8001E0CD2300E00023C1
:107EF000181CBD4605B090BD9CF8FF1F8CB100005A
:107F00003CB100002CB1000080B582B000AF3A60F7
:107F1000FB1D021C1A70BB1D0A1C1A70BB1D1B78AE
:107F2000012B07D8BB1D1B78054AD25C3B681A7031
:107F3000002300E0CD23181CBD4602B080BDC04622
:107F40001CFAFF1F80B582B000AFFB1D1870BB1D6F
:107F500019707B1D1A70BB1D1B78012B07D8BB1D28
:107F60001B78054A791D0978D154002300E0CD2300
:107F7000181CBD4602B080BD1CFAFF1F80B584B03E
:107F800000AF0A1CFB1D011C19703B1D1A803B1C15
:107F90000F3300221A7011E03B1C0F331B780C4A80
:107FA000D35C3A1D12889A4201D101230CE03B1C9C
:107FB0000F331A783B1C0F3301321A703B1C0F33FE
:107FC0001B78012BE8D90023181CBD4604B080BDE6
:107FD000A8B1000080B582B000AF021CFB1D1A7072
:107FE0000123181CBD4602B080BDC04680B582B0DA
:107FF00000AF021CFB1D1A70024B181CBD4602B0DC
:1080000080BDC0461CB1000080B582B000AF786072
:1080100001F0D6FB031C032B13D93B1D1B78181C46
:1080200001F006FB3B1D5B78181C01F001FB3B1DBA
:108030009B78181C01F0FCFA3B1DDB78181C01F042
:10804000F7FABD4602B080BD80B5A8B000AF3B1CBA
:108050000833181C02F0EDFF3B1C08332F4ADA608E
:108060003B1C08332E4A1A613B1C083302229A60DB
:108070003B1C08332B4A5A613B1C08332A4A5A637B
:108080003B1C083300225A653B1C083300225A6708
:108090003B1C0833234A9A613B1C0833224A9A63EB
:1080A0003B1C083300229A653B1C083300229A6768
:1080B00002F01EFF1D4B181C402101F007FC031CA1
:1080C0000C2B0ED11A4B5B68181C00F061FC3B1C9A
:1080D0000833181C02F0ADFF01F096FA01F07CFBAA
:1080E00009E0134B5B68181C00F05EFC3B1C083376
:1080F000181C02F0A2FF3B1D181C02F039FF031CE4
:108100009C22D21913609C22D2191368002B04D030
:108110007B68181CFFF778FFCCE7CBE7DD95000004
