:10400000003000207DC2000071CD00007DCD000099
:104010007DCD00007DCD00007DCD00007DCD000078
:104020007DCD00007DCD00007DCD00007DCD000068
:104030007DCD00007DCD00007DCD00007DCD000058
:104040007DCD00007DCD00007DCD00007DCD000048
:104050007DCD00007DCD00007DCD00007DCD000038
:104060007DCD00007DCD00007DCD00007DCD000028
:10407000B5C600007DCD00007DCD00007DCD0000E7
:104080007DCD00007DCD00007DCD00007DCD000008
:104090007DCD00007DCD00007DCD00007DCD0000F8
:1040A000A1F200007DCD00007DCD00007DCD00009F
:1040B0007DCD00007DCD00007DCD00007DCD0000D8
:104400009B9EB15357430000104400007876000093
:10441000003000209153000039680000456800001A
:1044200045680000456800004568000045680000D8
:1044300045680000456800004568000045680000C8
:1044400045680000456800004568000045680000B8
:1044500045680000456800004568000045680000A8
:104460004568000045680000456800004568000098
:104470004568000045680000456800004568000088
:10448000B55D0000456800007D57000045680000EC
:104490004568000045680000456800004568000068
:1044A0004568000045680000456800004568000058
:1044B000DD94000045680000456800004568000084
:1044C0004568000045680000456800004568000038
:1044D000FFFFFFFFFFFFFFFFFFFFFFFFFFFFFFFFEC
:1044E000FFFFFFFFFFFFFFFFFFFFFFFFFFFFFFFFDC
:1044F000FFFFFFFFFFFFFFFFFFFFFFFFFFFFFFFFCC
:104810009B9EB1530100000000000000000000005A
:10482000002934D00123002210B488422CD3012463
:104830002407A14204D2814202D209011B01F8E7F8
:10484000E400A14204D2814202D249005B00F8E7B1
:10485000884201D3401A1A434C08A04202D3001BDD
:104860005C0822438C08A04202D3001B9C08224310
:10487000CC08A04202D3001BDC082243002803D04E
:104880001B0901D00909E3E7101C10BC7047002880
:1048900001D00020C04307B4024802A14018029092
:1048A00003BDC046190000000029F0D003B5FFF792
:1048B000B9FF0EBC4243891A1847C0467047C0462C
:1048C00008B5054B054803331B1A062B03D9044BC7
:1048D000002B00D0984708BD4CF1FF1F4CF1FF1F83
:1048E000000000000648074908B5091A8910CB0FD7
:1048F0005918491003D0044B002B00D0984708BD2D
:104900004CF1FF1F4CF1FF1F00000000084B10B5D9
:104910001A781C1C002A09D1FFF7D2FF054B002B87
:1049200002D0054800E000BF0123237010BDC0463F
:1049300000F2FF1F00000000F4B4000008B5094BAE
:10494000002B03D00848094900E000BF084803686D
:10495000002B03D0074B002B00D09847FFF7C2FF76
:1049600008BDC04600000000F4B4000004F2FF1FC0
:104970004CF1FF1F0000000080B500AFBD4680BDB8
:1049800080B500AFBD4680BD80B500AFBD4680BDDF
:1049900080B500AFBD4680BD80B500AFBD4680BDCF
:1049A00080B500AFBD4680BD80B500AFBD4680BDBF
:1049B00080B500AFBD4680BD80B500AFBD4680BDAF
:1049C00080B500AFBD4680BD80B500AFBD4680BD9F
:1049D00080B500AF02F00AFA012003F00FFA03F0ED
:1049E000F5F800F0A5FCFEE790B585B000AF041C1B
:1049F000081C111C1A1CFB1D1C70BB1D18707B1D94
:104A00001970BB1C1A80BB1D1B78032B00D075E0EE
:104A1000BB1C1B88002B07D1484A3B6A1A60042341
:104A20001A1C7B6A1A8084E03B1C0F3300221A7028
:104A30003B1C0E3301221A7024E03B1C0F33197803
:104A40003F4A0B1C9B005B185B00D1184979D318B7
:104A50009B791B020B439BB2BA1C12889A420AD163
:104A60007B1D1B78072B05D83B1C0E337A1D127853
:104A70001A700CE00BE03B1C0F331A783B1C0F3311
:104A800001321A703B1C0F331B78002BD5D03B1C16
:104A90000F3319782A4A0B1C9B005B185B00D11856
:104AA000C979D018008900020143D3189B7A1B06EC
:104AB0000B431A1C3B1C0E331B789B00D3181A683F
:104AC0003B6A1A603B1C0F3319781D4A0B1C9B0074
:104AD0005B185B00D118C97AD018808900020143A5
:104AE000D3189B7B1B060B431A1C3B1C0E331B78F5
:104AF000D3181B781A1C7B6A1A801AE0BB1D1B781E
:104B0000072B14D8BB1D1A780E4B9200D2583B6A63
:104B10001A603B6A1B68002B01D1CD230AE0BB1D44
:104B20001A78094B5200D25A7B6A1A8001E0CD23D1
:104B300000E00023181CBD4605B090BD88F0FF1FA3
:104B40008CB300003CB300002CB3000080B582B0F1
:104B500000AF3A60FB1D021C1A70BB1D0A1C1A70C4
:104B6000BB1D1B78012B07D8BB1D1B78054AD25CE7
:104B70003B681A70002300E0CD23181CBD4602B02C
:104B800080BDC0461CF2FF1F80B582B000AFFB1D88
:104B90001870BB1D19707B1D1A70BB1D1B78012B73
:104BA00007D8BB1D1B78054A791D0978D15400230D
:104BB00000E0CD23181CBD4602B080BD1CF2FF1FD3
:104BC00080B584B000AF0A1CFB1D011C19703B1D91
:104BD0001A803B1C0F3300221A7011E03B1C0F336C
:104BE0001B780C4AD35C3A1D12889A4201D10123EA
:104BF0000CE03B1C0F331A783B1C0F3301321A7048
:104C00003B1C0F331B78012BE8D90023181CBD4631
:104C100004B080BDA8B3000080B582B000AF021C14
:104C2000FB1D1A700123181CBD4602B080BDC04692
:104C300080B582B000AF021CFB1D1A70024B181C1D
:104C4000BD4602B080BDC0461CB3000080B500AFB9
:104C500002F0B8F9BD4680BD80B584B000AF786081
:104C60000123FB600023BB607B68002B04D0002382
:104C7000FB600323BB6016E015E00F4B9B68181C1C
:104C800001F092FBC82002F085FF0B4B9B68181CBB
:104C900001F07EFBC82002F07DFFFB68002B02D1F3
:104CA000BB68013BBB60FB68002BE6D1BB68002BF7
:104CB000E3DCBD4604B080BDA8FAFF1F80B582B01A
:104CC00000AF78603B1D1B781A1C0F231340043B78
:104CD0000B2B00D96DE09A003D4BD3181B689F4603
:104CE0003B1D5B78181C06F0CBFA06F055FA60E025
:104CF0003B1D5B78DBB25BB2002B1ADA3B1D5B78A5
:104D0000F02B02D0F72B08D00FE006F05DFA3B1D28
:104D10005B78181C06F0B4FA0AE03B1D5B78181C9F
:104D200006F0AEFA06F038FA02E006F035FA0AE0CC
:104D300009E0284B1B68002B05D03B1D5B78181C35
:104D400006F09EFA35E034E03B1D5B78181C06F057
:104D500097FA3B1D9B78181C06F092FA06F01CFA95
:104D600027E03B1D5B78F02B01D106F02DFA3B1DAF
:104D70005B78181C06F084FA3B1D9B78181C06F023
:104D80007FFA3B1DDB78181C06F07AFA11E03B1D18
:104D90005B78181C06F074FA3B1D9B78181C06F013
:104DA0006FFA3B1DDB78181C06F06AFA06F0F4F97E
:104DB000C046094B1B68002B03D1084B1B68002B16
:104DC00001D0012300E00023181CBD4602B080BDC5
:104DD000ACB3000074FEFF1F78FEFF1F60FEFF1FD4
:104DE00080B582B000AF78603B1D1B781A1C0F2382
:104DF00013400F2B0AD89A00074BD3181B689F4605
:104E0000012305E0022303E0032301E0C046002361
:104E1000181CBD4602B080BDDCB3000080B582B076
:104E200000AF7860C04601F095FD031C032B28D924
:104E30007B68181C01F030FB031C002B01D0002301
:104E400020E07B680133181C01F026FB031C002BBB
:104E500001D0002316E07B680233181C01F01CFB14
:104E6000031C002B01D000230CE07B680333181CCB
:104E700001F012FB031C002B01D0002302E00123F0
:104E800000E00023181CBD4602B080BD80B582B092
:104E900000AF786001F068FD031C80225200D11A37
:104EA0007A68002391425B41DBB2181CBD4602B018
:104EB00080BDC04680B582B000AF78603B1D1B78D6
:104EC000181C01F05DFB3B1D5B78181C01F058FBC2
:104ED0003B1D9B78181C01F053FB3B1DDB78181C15
:104EE00001F04EFBBD4602B080BDC04680B582B029
:104EF00000AF78607B6804221A70074B1A787B68D1
:104F00005A70054B5A787B689A70034B9A787B6885
:104F1000DA70BD4602B080BD8CFEFF1F80B582B046
:104F200000AF7860114B1B68022B08D0032B0AD00E
:104F3000012B00D017E07B6805221A7007E07B6820
:104F400006221A7003E07B6807221A70C046084BDD
:104F50001A787B685A70064B5A787B689A70044BB3
:104F60009A787B68DA70BD4602B080BD00F6FF1FFC
:104F70008CFEFF1F80B582B000AF7860274B1B7896
:104F8000EF2B06D8254B1B781B09DAB27B681A7009
:104F900034E0224B1B78F02B1DD1214B1B78F02BDA
:104FA00003D17B6804221A7028E01E4B1B68022B79
:104FB00008D0032B0AD0012B00D02BE07B68052200
:104FC0001A7007E07B6806221A7003E07B680722EC
:104FD0001A70C04612E0144B1B68012B03D17B688A
:104FE00002221A700AE0104B1B68022B03D17B6867
:104FF00003221A7002E07B680F221A70074B1A789E
:105000007B685A70064B1A787B689A70044B5A7802
:105010007B68DA70BD4602B080BDC04688FEFF1FC7
:105020008CFEFF1F00F6FF1F04F6FF1F80B582B045
:1050300000AF78600A1CFB1C1A70FB1C1B78F72B56
:105040000ED97B680F221A707B68FA1C12785A708E
:105050007B6800229A707B680022DA700123CCE022
:10506000FB1C1B78F72B19D1664B1B68664AF91C91
:105070000978D154634B1B685A1C624B1A607B68D9
:10508000181CFFF74BFF614B00221A705D4B00228A
:105090001A605F4B00221A600123AEE0FB1C1B78F4
:1050A0005BB2002B28DB594B1B78002B22D0554BD1
:1050B0001B68554AF91C0978D154524B1B685A1C7D
:1050C000504B1A604F4B1A68514B1B689A4211D1D2
:1050D0004E4B1B78F02B04D17B68181CFFF706FFA2
:1050E00003E07B68181CFFF745FF464B00221A605F
:1050F000012382E0002380E0FB1C1A78F023134098
:10510000B02B0ED006DC902B0BD0A02B09D0802B1F
:1051100007D01EE0D02B10D0E02B02D0C02B0CD03B
:1051200017E03A4BFA1C12781A70364B00221A60BC
:10513000374B02221A6000235FE0344BFA1C1278CE
:105140001A70304B00221A60314B01221A60002382
:1051500053E0FB1C1B78F03B062B4AD89A002D4BE2
:10516000D3181B689F46294BFA1C12781A70284BDB
:1051700003221A60244BFA1C12781A70214B012268
:105180001A60002339E0214BFA1C12781A701D4B6B
:1051900000221A601E4B01221A6000232DE01B4BD7
:1051A000FA1C12781A70174B00221A60184B022250
:1051B0001A60002321E0154BFA1C12781A70114B6B
:1051C00000221A60124B01221A60002315E00F4BD7
:1051D00000221A707B6805221A707B68FA1C12780C
:1051E0005A707B6800229A707B680022DA70012373
:1051F00003E0064B00221A700023181CBD4602B0C3
:1052000080BDC04600F6FF1F8CFEFF1F88FEFF1FFB
:1052100004F6FF1F1CB4000080B584B000AF7860B6
:1052200014E03B1C0F33181C01F0EAFE031C002B9A
:105230000CD13B1C0F331B787A68101C191CFFF72C
:10524000F5FE031C002B01D0012305E001F0C2FF95
:10525000031C002BE5D10023181CBD4604B080BD03
:1052600080B582B000AF786001F0BEFF031C8022E1
:105270005200D11A7A68002391425B41DBB2181CBC
:10528000BD4602B080BDC04680B582B000AF786038
:105290007B68181CFFF7A4FD031C022B0AD0032B0C
:1052A00013D0012B00D020E03B1D5B78181C01F0CF
:1052B0001BFF1AE03B1D5B78181C01F015FF3B1D1E
:1052C0009B78181C01F010FF0FE03B1D5B78181C49
:1052D00001F00AFF3B1D9B78181C01F005FF3B1DE8
:1052E000DB78181C01F000FFC046BD4602B080BD4F
:1052F00080B582B000AF786002F0DAFB031C032BAC
:1053000013D93B1D1B78181C02F00AFB3B1D5B7870
:10531000181C02F005FB3B1D9B78181C02F000FBDB
:105320003B1DDB78181C02F0FBFABD4602B080BDC5
:1053300080B58AB000AF00237B62FB1D00221A708B
:1053400001F01CFB01F084F8784B181C402102F09E
:105350004DFC031C0C2B05D1754B9B68181C01F0F0
:1053600017F897E0724B9B68181C01F01DF800239A
:105370003B627B6A002B1CD03B1C08331B781B094B
:10538000DBB2FB61FB69002B07D10420FFF77EFD38
:10539000031C5A425341DBB23B62FB69012B08D12B
:1053A0000420FFF75DFF031C5A425341DBB23B620E
:1053B00065E064E07B6A002B21D1FB1D181C02F024
:1053C00025FA01237B623B1C08331B781B09DBB2E7
:1053D000BB61BB69002B07D10420FFF757FD031CFD
:1053E0005A425341DBB23B62BB69012B07D1042017
:1053F000FFF736FF031C5A425341DBB23B623B6A64
:10540000002B3CD17B6A002B05D13B1C0833181CB8
:1054100002F0FCF906E0FB1D1A783B1C08331A70F9
:1054200000237B623B1C08330133181C02F0EEF9A9
:105430003B1C08330233181C02F0E8F93B1C08330C
:105440000333181C02F0E2F93B1C08331B781B09DC
:10545000DBB27B617B69002B0AD1BB68181CFFF7AC
:105460002DFC031C002B03D1BB68181CFFF722FD89
:105470007B69012B03D1BB68181CFFF705FF3B6A52
:10548000002B07D102F020FA031C1A1C7B6AD318E8
:10549000032B8FDC274B1B68002B21D1264B1B686D
:1054A000002B1DD13B1C0833181CFFF7B7FC031C55
:1054B0003B613B69002B13D03B1C08331B781A1C43
:1054C000F023134002D0102B05D009E0BB68181C54
:1054D000FFF70EFF04E0BB68181CFFF7D5FEC046BF
:1054E0003B1C0833181CFFF797FE031CFB60FB688E
:1054F000002B1AD03B1C08331A780F231340DAB262
:105500003B1C08331A703B1C08331B7810221343D2
:10551000DAB23B1C08331A70BB68181CFFF7E8FEB0
:10552000BB68181CFFF7C6FC0EE70DE700F4FF1F71
:10553000A8FAFF1F78FEFF1F60FEFF1F80B582B034
:1055400000AF78603960BD4602B080BD80B58AB0DA
:1055500000AFF860B9607A607B687B6204233B62CD
:105560000323FB610223BB6101237B6101233B61B8
:10557000FA68BB689A4202D07B68002B00D14DE0EC
:1055800049E0FB69BA68134018D1FB69FA68134017
:1055900014D13A6A7B6A9A4210D8FB68BA681268DA
:1055A0001A603B6AFA68D318FB603B6ABA68D31882
:1055B000BB603B6A7A6AD31A7B622CE07B69BA686B
:1055C000134018D17B69FA68134014D1BA697B6A19
:1055D0009A4210D8FB68BA6812881A80BB69FA68C8
:1055E000D318FB60BB69BA68D318BB60BB697A6A21
:1055F000D31A7B620FE0FB68BA6812781A703B69B5
:10560000FA68D318FB603B69BA68D318BB603B6982
:105610007A6AD31A7B627B6A002BB2D1BD460AB08C
:1056200080BDC04690B583B000AF2D4B002B00D19C
:1056300053E000237B6032E029497A68131C5B0049
:105640009B189B00CB18586825497A68131C5B008F
:105650009B189B005958224C7A68131C5B009B18BE
:105660009B00E31808331B681A1CFFF76FFF1C49E7
:105670007A68131C5B009B189B00CB18596818486C
:105680007A68131C5B009B189B00C31808331B68C7
:10569000081C191CFFF752FF7B6801337B6010491F
:1056A0007A68131C5B009B189B005B58002BC3D1CE
:1056B0000B497A68131C5B009B189B00CB185B6836
:1056C000002BB9D106497A68131C5B009B189B001C
:1056D000CB1808331B68002BAED1BD4603B090BD7C
:1056E00060B6000080B588B000AF274A274BD31AB8
:1056F000FB61264BBB6104237B6103233B610223D7
:10570000FB600123BB6001237B60FB69002B00D1A0
:1057100036E032E03B69BA6913400FD17A69FB6920
:105720009A420BD8BB6900221A607B69BA69D31808
:10573000BB617B69FA69D31AFB611EE0BB68BA6979
:1057400013400FD1FA68FB699A420BD8BB6900225B
:105750001A80FB68BA69D318BB61FB68FA69D31A6F
:10576000FB610AE0BB6900221A707B68BA69D31832
:10577000BB617B68FA69D31AFB61FB69002BC9D155
:10578000BD4608B080BDC0460416002000F2FF1FD1
:1057900080B500AFBD4680BD80B500AFBD4680BDC1
:1057A00080B582B000AF0E4B7B60FFF7F1FF01F0D8
:1057B00057FA7B68181C002805D0854681B0002068
:1057C000C043009001B0FFF78DFFFFF72BFFFFF7FD
:1057D000E3FF044B0020191CFFF7FAF8FEE7C04670
:1057E0000030002008F6FF1F80B584B000AF78605D
:1057F0004F4BFB60FB6800221A81FB6800221A8273
:10580000FB680022DA60FB6800225A82FB680022F3
:105810001A83FB6800225A61FB687A68DA61454B9B
:10582000FA681A60444A4449444BCB5880214901E4
:105830001943424BD150424B414A1169414A0A40F7
:10584000C02189000A431A613D4B3D4A51693D4AD6
:105850000A40C02189000A435A613B4A3A49C3239E
:105860009B00C958394B0B40802109041943C323BD
:105870009B00D150344B344A12688021C9010A433D
:105880001A60334B324AD278D2B208218A43D2B25C
:10589000DA702F4B2E4AD278D2B204218A43D2B288
:1058A000DA70FB6800221A80FB6800225A60284BDD
:1058B00000229A70264B00229A71254B00225A71C1
:1058C000234B234A1278D2B21F218A43D2B21A70D4
:1058D0001F4B30225A701E4B1D4AD278D2B2D2B220
:1058E00008210A43D2B2D2B2DA70194B184AD278E0
:1058F000D2B2D2B204210A43D2B2D2B2DA70144B7D
:10590000134AD278D2B220210A43D2B2DA70104BB5
:105910000F4A9279D2B20F210A43D2B29A710D4B3B
:10592000FA681A60FB68181CBD4604B080BDC0460A
:1059300030F6FF1F50F6FF1F0070044034100000C7
:1059400000C00440FFF8FFFE00E100E0FFFF00FFA1
:1059500000C00640A8FAFF1F80B586B000AFF8600F
:10596000B960BB1D1A80FB687B61BB1D1B88002BC7
:1059700001D1842333E07B691B8A002B01D00823EB
:105980002DE03B1C1333EFF3108072B61870164BEA
:105990001B78DBB20133DBB2134A191C1170012BE7
:1059A00004D13B1C13331A78104B1A707B69BA6808
:1059B000DA607B69BA1D12881A827B6900221A811B
:1059C000094B1B78DBB2013BDBB2074A191C117093
:1059D000002B03D1054B187880F310880023181C86
:1059E000BD4606B080BDC04691F8FF1F98FEFF1F60
:1059F00080B586B000AFF860B960BB1D1A80FB6847
:105A00007B61BB1D1B88002B01D1842348E07B698F
:105A10001B8B002B01D0082342E03B1C1333EFF318
:105A2000108072B61870204B1B78DBB20133DBB2EA
:105A30001D4A191C1170012B04D13B1C13331A7819
:105A40001A4B1A707B69BA685A617B69BA1D128851
:105A50001A837B6900225A827B691B8801221343C7
:105A60009AB27B691A80124B114AD278D2B2802145
:105A700049420A43D2B2DA700D4B0D4A9279D2B242
:105A80009A71094B1B78DBB2013BDBB2064A191C49
:105A90001170002B03D1054B187880F31088002378
:105AA000181CBD4606B080BD91F8FF1F98FEFF1F71
:105AB00000C0064090B583B000AF7860124BDB7930
:105AC000DBB21C1C7B681B8A002B1AD07B68DB684E
:105AD000591C7A68D160E2B21A707B681B89013365
:105AE0009AB27B681A817B681A897B681B8A9A4202
:105AF00007D17B6800221A827B68DB69181C01F0E1
:105B0000AFFBBD4603B090BD00C0064080B582B07B
:105B100000AF78607B685A8A7B681B8B9A421CD2E4
:105B200019497B685B69581C7A6850611B78CB7196
:105B30007B685B8A01339AB27B685A827B685A8A97
:105B40007B681B8B9A421CD17B6800221A837B687E
:105B5000DB69181C01F0E6FB13E00B4B0A4AD27814
:105B6000D1B27F220A40D2B2DA70074B064A92794C
:105B7000D2B29A717B681B88012293439AB27B68E8
:105B80001A80BD4602B080BD00C00640F0B5474651
:105B900080B482B000AF354B1B687B60344B1B79FF
:105BA000DBB21C1C002500260F23234044D0304BC1
:105BB000DB79DBB298460223234013D02023234015
:105BC0000DD04246002A0AD1331C0133DEB27B6875
:105BD0001B88022213439AB27B681A8002E00423D6
:105BE0002B439DB20823234002D001232B439DB2B7
:105BF0000123234002D002232B439DB204232340E0
:105C000002D008232B439DB27B685A682B1C1A4391
:105C10007B685A602023221C9A43131C1C1C002EF4
:105C200005D07B68DB69181C01F03AFC04E07B6856
:105C3000DB69181C01F0EAFB2023234003D07B68BA
:105C4000181CFFF737FF7B681B881A1C01231340C1
:105C500006D08023234003D07B68181CFFF756FF33
:105C6000BD4602B004BC9046F0BDC04650F6FF1FD2
:105C700000C0064080B584B000AF786039607B68B2
:105C8000FB603B1C0B33EFF3108072B61870144BA3
:105C90001B78DBB20133DBB2114A191C1170012BE6
:105CA00004D13B1C0B331A780E4B1A70FB685A68F0
:105CB0003B681A60FB6800225A60094B1B78DBB214
:105CC000013BDBB2064A191C1170002B03D1054BB6
:105CD000187880F310880023181CBD4604B080BDDE
:105CE00091F8FF1F98FEFF1F80B584B000AF786069
:105CF000604BFB60FB6800221A81FB6800221A825D
:105D0000FB680022DA60FB6800225A82FB680022EE
:105D10001A83FB6800225A61FB687A68DA61564B85
:105D2000FA681A60554A5549554BCB588021C9002D
:105D30001943534BD150534B524A9169524A0A402E
:105D4000C02189000A439A614E4B4E4AD1694E4A9E
:105D50000A40C02189000A43DA614C4A4B49C323F7
:105D60009B00CB58FF218B4380211943C3239B0009
:105D7000D150464B454A1268802149010A431A60B6
:105D8000434B434AD278D2B208218A43D2B2DA7066
:105D90003F4B3F4AD278D2B204218A43D2B2DA7062
:105DA000FB6800221A80FB6800225A60FB68002210
:105DB0009A70374B00229A70354B00229A71344BFF
:105DC00000229A72324B00225A712C4A2B49314BD5
:105DD000C958314B0B408021C90419432D4BD15078
:105DE0002B4B2B4A1278D2B21F218A43D2B21A709F
:105DF000274B02225A70264B254A927AD2B2D2B24F
:105E00001F218A43D2B203210A43D2B2D2B29A727C
:105E10001F4B1F4AD27AD2B2D2B202210A43D2B267
:105E2000D2B2DA721A4B1A4AD278D1B25F220A4041
:105E3000D2B2DA70164B164A9279D2B20F218A4347
:105E4000D2B29A71124B124AD278D2B208218A4346
:105E5000D2B2DA700E4B0E4AD278D2B204218A4303
:105E6000D2B2DA700D4BFA685A60FB68181CBD4656
:105E700004B080BD54F6FF1F74F6FF1F007004408D
:105E80003410000000C00440FFF8FFFE00E100E015
:105E900000A0064004100000FFFFFFF3A8FAFF1F58
:105EA00080B584B000AF78607B68FB60FB689B784E
:105EB000002B26D1FB6801229A70144B134AD2782A
:105EC000D2B2D2B208210A43D2B2D2B2DA700F4BA8
:105ED0000E4AD278D2B2D2B204210A43D2B2D2B29E
:105EE000DA700A4B094AD278D2B220210A43D2B2E0
:105EF000DA70064B054A9279D2B20F210A43D2B228
:105F00009A710023181CBD4604B080BD00A0064055
:105F100080B584B000AF78607B68FB60FB689B78DD
:105F2000002B22D0FB6800229A70124B114AD278C3
:105F3000D1B25F220A40D2B2DA700E4B0D4A92798A
:105F4000D2B20F218A43D2B29A710A4B094AD2784F
:105F5000D2B208218A43D2B2DA70064B054AD2780F
:105F6000D2B204218A43D2B2DA700023181CBD4693
:105F700004B080BD00A0064080B586B000AFF860D8
:105F8000B960BB1D1A80FB687B617B699B78002B25
:105F900001D1072339E0BB1D1B88002B01D18423CD
:105FA00033E07B691B8A002B01D008232DE03B1CCA
:105FB0001333EFF3108072B61870164B1B78DBB2F8
:105FC0000133DBB2134A191C1170012B04D13B1CA5
:105FD00013331A78104B1A707B69BA68DA607B69E0
:105FE000BA1D12881A827B6900221A81094B1B781C
:105FF000DBB2013BDBB2074A191C1170002B03D145
:10600000054B187880F310880023181CBD4606B095
:1060100080BDC04691F8FF1F98FEFF1F80B586B077
:1060200000AFF860B960BB1D1A80FB687B617B69BB
:106030009B78002B01D107234EE0BB1D1B88002B52
:1060400001D1842348E07B691B8B002B01D00823FE
:1060500042E03B1C1333EFF3108072B61870204BF4
:106060001B78DBB20133DBB21D4A191C1170012B06
:1060700004D13B1C13331A781A4B1A707B69BA6827
:106080005A617B69BA1D12881A837B6900225A8281
:106090007B691B88012213439AB27B691A80124BD9
:1060A000114AD278D2B2802149420A43D2B2DA7080
:1060B0000D4B0D4A9279D2B29A71094B1B78DBB223
:1060C000013BDBB2064A191C1170002B03D1054BB2
:1060D000187880F310880023181CBD4606B080BDD8
:1060E00091F8FF1F98FEFF1F00A0064090B583B0F7
:1060F00000AF7860124BDB79DBB21C1C7B681B8A1B
:10610000002B1AD07B68DB68591C7A68D160E2B238
:106110001A707B681B8901339AB27B681A817B688D
:106120001A897B681B8A9A4207D17B6800221A82EF
:106130007B68DB69181C00F057FCBD4603B090BDBE
:1061400000A0064080B582B000AF78607B685A8AB4
:106150007B681B8B9A421CD219497B685B69581C6F
:106160007A6850611B78CB717B685B8A01339AB285
:106170007B685A827B685A8A7B681B8B9A421CD147
:106180007B6800221A837B68DB69181C00F08EFC98
:1061900013E00B4B0A4AD278D1B27F220A40D2B226
:1061A000DA70074B064A9279D2B29A717B681B88E3
:1061B000012293439AB27B681A80BD4602B080BD2B
:1061C00000A00640F0B5474680B482B000AF364B21
:1061D0001B687B60354B1B79DBB21C1C002500263D
:1061E0000F23234047D0314B0F221A712F4BDB79FD
:1061F000DBB298460223234013D0202323400DD046
:106200004246002A0AD1331C0133DEB27B681B8868
:10621000022213439AB27B681A8002E004232B43C4
:106220009DB20823234002D001232B439DB20123BA
:10623000234002D002232B439DB20423234002D0EB
:1062400008232B439DB27B685A682B1C1A437B683A
:106250005A602023221C9A43131C1C1C002E05D0BC
:106260007B68DB69181C00F0DFFC04E07B68DB69FD
:10627000181C00F08FFC2023234003D07B68181CDF
:10628000FFF734FF7B681B881A1C0123134006D0DC
:106290008023234003D07B68181CFFF753FFBD46C3
:1062A00002B004BC9046F0BD74F6FF1F00A006408B
:1062B00080B584B000AF786039607B68FB60FB68B4
:1062C0009B78002B01D107232AE03B1C0B33EFF313
:1062D000108072B61870144B1B78DBB20133DBB23E
:1062E000114A191C1170012B04D13B1C0B331A7875
:1062F0000E4B1A70FB685A683B681A60FB680022F4
:106300005A60094B1B78DBB2013BDBB2064A191C11
:106310001170002B03D1054B187880F310880023EF
:10632000181CBD4604B080BD91F8FF1F98FEFF1FEA
:1063300080B584B000AF7860104BFB60FB687A6872
:106340001A600F4B0E4A526901210A435A610C4BE5
:106350000B4A126801218A431A600A4B094A1168E4
:10636000094A0A40802149000A431A60074BFA682B
:106370009A60FB68181CBD4604B080BD78F6FF1F0C
:1063800040F00F4000A00440FFF8FFFEA8FAFF1FF6
:1063900080B582B000AF7860024B01229A60BD46A2
:1063A00002B080BD40F00FF880B582B000AF7860D9
:1063B000024B01225A60BD4602B080BD40F00FF88A
:1063C00080B500AF1B4B1B78002B24D01A4B1B68E9
:1063D000181CFFF765FD184B1A68184B101C191C88
:1063E0000122FFF7C9FD164B1B88002B1FD0154B50
:1063F0001B88202213439AB2124B1A800E4B1A6844
:10640000114B1B88191C114BCB18101C191C012295
:10641000FFF704FE0BE00B4B1A88DF2313409AB200
:10642000084B1A80044B1B68181CFFF771FDBD4612
:1064300080BDC0467CF6FF1F94FEFF1F88F7FF1F3C
:106440008AF7FF1F7EF6FF1F8CF7FF1F90F7FF1FD5
:1064500080B500AF064B1B78002B04D1044B012202
:106460001A70FFF7ADFF0023181CBD4680BDC04663
:106470007CF6FF1F80B500AF064B1B78002B04D0C5
:10648000044B00221A70FFF79BFF0023181CBD4627
:1064900080BDC0467CF6FF1F80B584B000AF786039
:1064A0003B1C0F3300221A702D4B1B88002B4DD044
:1064B0003B1C0E33EFF3108072B61870294B1B781B
:1064C000DBB20133DBB2274A191C1170012B04D156
:1064D0003B1C0E331A78244B1A70214B1B88013B4E
:1064E0009AB21F4B1A80214B1B885A1C91B21F4A2B
:1064F00011801F4AD25C7B681A701C4B1B88FF2BD3
:1065000002D91A4B00221A801A4B1B881A1C1A4BEC
:10651000134001D0192300E000233A1C0F321370FE
:10652000144B1A88154B13409AB2124B1A800D4B1C
:106530001B78DBB2013BDBB20A4A191C1170002B3D
:1065400006D1094B187880F3108801E00A2302E095
:106550003B1C0F331B78181CBD4604B080BDC046E1
:1065600080F6FF1F91F8FF1F98FEFF1F82F6FF1FA6
:1065700088F6FF1F7EF6FF1F41080000B6F7FFFFF9
:1065800080B584B000AF021CFB1D1A70314B1A8815
:1065900080235B009A4201D10B2357E03B1C0F3351
:1065A000EFF3108072B618702B4B1B78DBB20133FF
:1065B000DBB2294A191C1170012B04D13B1C0F338B
:1065C0001A78264B1A70234B1B8801339AB2214B41
:1065D0001A80234B1B885A1C91B2214A1180214AF0
:1065E000F91D0978D1541E4B1B88FF2B02D91C4B77
:1065F00000221A801C4B1B78002B18D01B4B1B88C9
:106600001A1C2023134012D1184B1B88202213433D
:106610009AB2164B1A80164B1A68164B1B88191C17
:10662000104BCB18101C191C0122FFF7F7FC0A4B6A
:106630001B78DBB2013BDBB2074A191C1170002B3F
:1066400003D1064B187880F310880023181CBD4630
:1066500004B080BD8AF7FF1F91F8FF1F98FEFF1F4F
:106660008EF7FF1F90F7FF1F7CF6FF1F7EF6FF1FC0
:1066700094FEFF1F8CF7FF1FB0B584B000AFF86029
:106680007A603B1C0A330A1C1A800024002518E09B
:10669000FB685A1CFA60181CFFF7FEFE031C0A2B4D
:1066A00002D0192B08D009E0002C00D10A247B6805
:1066B0002A1C1A80231C0DE01924C0462B1C013310
:1066C0009DB23B1C0A331B88AB42E1D87B682A1C75
:1066D0001A80231C181CBD4604B0B0BD80B588B01C
:1066E00000AFF8607A603B1C0A330A1C1A803B1C1E
:1066F0001E3300221A80FB68BB613B1C17334F4AD4
:1067000012781A7079E03B1C1633EFF3108072B6E2
:1067100018704B4B1B78DBB20133DBB2484A191CB3
:106720001170012B04D13B1C16331A78454B1A709B
:10673000424B01221A70444B1B8801339AB2424BE0
:106740001A80424B1B885A1C91B2404A11801A1C75
:10675000BB69591CB96119783D4B99543B4B1B8857
:10676000FF2B02D9394B00221A803B1C1E331A889A
:106770003B1C1E3301321A803A1C1E323B1C0A336A
:1067800012881B889A4205D02F4B1A8880235B0001
:106790009A4207D13B1C17331B78002B02D1274BA1
:1067A00000221A702B4B1B78002B18D02A4B1B8809
:1067B0001A1C2023134012D1274B1B88202213437D
:1067C0009AB2254B1A80254B1A68254B1B88191C39
:1067D0001F4BCB18101C191C0122FFF71FFC184B74
:1067E0001B78DBB2013BDBB2154A191C1170002B80
:1067F00003D1144B187880F310883A1C1E323B1CCE
:106800000A3312881B889A4204D20F4B1B88FF2B35
:1068100000D878E77B683A1C1E3212881A803A1C2E
:106820001E323B1C0A3312881B889A4201D00B236C
:1068300000E00023181CBD4608B080BD90F8FF1F83
:1068400091F8FF1F98FEFF1F8AF7FF1F8EF7FF1FAB
:1068500090F7FF1F7CF6FF1F7EF6FF1F94FEFF1FC1
:106860008CF7FF1F80B582B000AFFB1DEFF31080E7
:1068700072B61870144B1B78DBB20133DBB2124ACC
:10688000191C1170012B03D1FB1D1A780F4B1A70C4
:106890000F4B00221A800F4B00221A800E4B002251
:1068A0001A80094B1B78DBB2013BDBB2064A191C8C
:1068B0001170002B03D1054B187880F3108800234A
:1068C000181CBD4602B080BD91F8FF1F98FEFF1F47
:1068D00080F6FF1F84F6FF1F82F6FF1F80B582B08F
:1068E00000AFFB1DEFF3108072B61870144B1B78CD
:1068F000DBB20133DBB2124A191C1170012B03D138
:10690000FB1D1A780F4B1A700F4B00221A800F4B89
:1069100000221A800E4B00221A80094B1B78DBB232
:10692000013BDBB2064A191C1170002B03D1054B49
:10693000187880F310880023181CBD4602B080BD73
:1069400091F8FF1F98FEFF1F8AF7FF1F8EF7FF1FAA
:106950008CF7FF1F80B500AF024B1B88181CBD468B
:1069600080BDC04680F6FF1F80B500AF024B1B887C
:10697000181CBD4680BDC0468AF7FF1F80B500AF1A
:10698000104B00221A80104B00221A700F4B00226D
:106990001A800F4B00221A800E4B00221A800E4BD9
:1069A00000221A800D4B00221A800D4B00221A8003
:1069B0000020FFF799F9021C0A4B1A60FFF700FD4F
:1069C000BD4680BD7EF6FF1F7CF6FF1F80F6FF1FD1
:1069D00082F6FF1F84F6FF1F8AF7FF1F8CF7FF1F49
:1069E0008EF7FF1F94FEFF1F90B583B000AF786055
:1069F0000024284B1B88FF2B23D8264B1B880133F0
:106A00009AB2244B1A80244B1B885A1C91B2224AFA
:106A10001180224A1178224AD1541F4B1B88FF2B28
:106A200002D91D4B00221A8004232343DCB2194BE8
:106A30001A8880235B009A420DD102232343DCB2E3
:106A400009E0184B1B88402213439AB2154B1A8059
:106A500001232343DCB2221C0123134002D0FDF7A3
:106A6000A3FF0BE0221C0423134001D0FDF7A0FF7D
:106A7000221C0223134001D0FDF7A2FF0A4B1A6823
:106A8000064B101C191C0122FFF776FABD4603B015
:106A900090BDC04680F6FF1F84F6FF1F88F7FF1FDA
:106AA00088F6FF1F7EF6FF1F94FEFF1F80B584B09F
:106AB00000AF78603B1C0E3300221A802F4B1B88DE
:106AC0001A1C2023134007D03B1C0E333A1C0E32F5
:106AD000128802210A431A80294B1B8801339AB27B
:106AE000274B1A80264B1B88FF2B02D9244B0022F0
:106AF0001A80244B1B88013B9AB2224B1A80214BEF
:106B00001B88002B13D01D4B1B88202213439AB2E5
:106B10001A4B1A801C4B1A68194B1B88191C1B4BEB
:106B2000CB18101C191C0122FFF778FA12E0134B46
:106B30001A88DF2313409AB2104B1A80144B1B782B
:106B4000002B07D13B1C0E333A1C0E321288012158
:106B50000A431A803B1C0E331A880223134001D0CB
:106B6000FDF72AFF3B1C0E331A880123134001D086
:106B7000FDF72AFFBD4604B080BDC0467EF6FF1F6C
:106B80008CF7FF1F8AF7FF1F94FEFF1F90F7FF1F70
:106B900090F8FF1F80B584B000AF7860204B1A6872
:106BA0003B1C0C33101C191CFFF782FBFB68002BED
:106BB00031D0FA680223134001D0042300E00023FF
:106BC000184A128813439AB2164B1A80FA6808239F
:106BD000134001D0802300E00023124A128813439F
:106BE0009AB2104B1A80FB689AB2012313409AB2F2
:106BF0000C4B1B8813439AB20A4B1A80FA68042381
:106C0000134001D0022300E00023064A12881343F8
:106C10009AB2044B1A80FDF7C7FEBD4604B080BD92
:106C200094FEFF1F7EF6FF1F80B582B000AF786034
:106C3000044B1B88022213439AB2024B1A80BD46B2
:106C400002B080BD7EF6FF1F80B500AFFDF794FE59
:106C5000BD4680BD80B500AFFFBEBD4680BDC0460D
:106C600080B500AF524A5349534BD150534A882301
:106C70005B010021D150514A514BC0218902D150B2
:106C80004E4A4E494F4BCB58F821890119434D4B81
:106C9000D1504D4B9B78DBB21A1C0823134007D010
:106CA000494B494A9278D2B208210A43D2B29A702B
:106CB000424A434B4549D150404A4049444BCB5846
:106CC000802149021943424BD1503C4B3B4A116849
:106CD000404A0A401A60394A38493D4BC9583E4B30
:106CE0000B40802149041943394BD1503B4B3B4A5F
:106CF000916C3B4A0A409A64384B384AD16C384A06
:106D00000A40DA64374B374A5278D2B2D2B2111CF9
:106D100040220A40D2B224210A43D2B2D2B25A70DF
:106D2000314B80221A702F4BA0221A702D4B2D4A06
:106D3000D278D1B21F220A40D2B2DA70294B052292
:106D40001A71284B18225A71C046264B9B79DBB228
:106D50001A1C10231340F8D1C046224B9B79DBB29A
:106D60001A1C0C231340082BF7D11E4B58225A71C2
:106D7000C0461C4B9B79DBB21A1C0C231340082B1A
:106D8000F7D1C046174B9B79DBB21A1C4023134046
:106D9000F8D0144B20221A70C046124B9B79DBB2FC
:106DA0001A1C0C2313400C2BF7D1BD4680BDC046E6
:106DB00000E000E000400000080D0000007004400A
:106DC000441000003810000000D0074000000110FF
:106DD00004100000FFFFF3FFFFFFFFFC00900440E2
:106DE000FFF8FFFE004006400050064080B500AFAF
:106DF000654A6549654BCB58E0218B4340211943D7
:106E0000624BD150624B624A1169624A0A40E021EA
:106E1000C9000A431A61604B5F4A5279D2B21F21FE
:106E20008A43D2B25A715C4B5B4A1279D2B20721C3
:106E30008A43D2B21A71594B584A1278D2B2D2B29E
:106E400073218A43D2B250210A43D2B2D2B21A700D
:106E5000524B524A5278D2B2D2B263218A43D2B252
:106E600040210A43D2B2D2B25A704C4B4B4A92786C
:106E7000D2B219218A43D2B29A70494B00221A70B9
:106E8000484B484A5169484A0A400421FF310A43A5
:106E90005A61444B434A9169434A0A400421FF31F5
:106EA0000A439A613F4B3F4A51683A4A0A4080215F
:106EB00049000A435A603B4B3A4A1169354A0A4035
:106EC000802149000A431A61384A3849C7239B0088
:106ED000CB581B02190AC7239B00D150344B344AAC
:106EE0001168314A0A400421FF310A431A602F4ACF
:106EF0002E49C6239B00CB58FF21181C8843011C38
:106F0000C6239B00D1502B4B2A4A91692A4A0A403A
:106F100002210A439A61234B224AD1681D4A0A4042
:106F2000A021C9000A43DA60194B194A116D194AA8
:106F30000A40E021C9000A431A651C4A1B49C123C3
:106F40009B00C9581D4B1940C1239B00D15000F034
:106F5000B7FA00F053F9FFF711FD00F0E5FA00F081
:106F6000B5FD00F0C9FC00F033FB0020FFF7E0F9AD
:106F7000134B9B68181CFFF70BFA002000F0E0FA97
:106F800062B6BD4680BDC0460070044004100000DB
:106F900000900440FFF8FFFE00F0074000D00740DB
:106FA00000E0074000B00440FCF8FFFE00E100E014
:106FB00000D0044000C00440FCFFFFFEFFFF00FFC4
:106FC000A8FAFF1F80B500AF024A034B0349D15016
:106FD000FEE7C04600E000E00C0D00000400FA05EA
:106FE00080B500AF044B1A68044B101C191C012219
:106FF000FEF7B2FCBD4680BD9CFEFF1F9CF9FF1F43
:1070000080B584B000AF78603B1C0F3300221A704B
:107010002D4B1B88002B4DD03B1C0E33EFF3108003
:1070200072B61870294B1B78DBB20133DBB2274AEA
:10703000191C1170012B04D13B1C0E331A78244B00
:107040001A70214B1B88013B9AB21F4B1A80214BAF
:107050001B885A1C91B21F4A11801F4AD25C7B6860
:107060001A701C4B1B88FF2B02D91A4B00221A8066
:107070001A4B1B881A1C1A4B134001D0192300E02D
:1070800000233A1C0F321370144B1A88154B13400F
:107090009AB2124B1A800D4B1B78DBB2013BDBB26C
:1070A0000A4A191C1170002B06D1094B187880F37D
:1070B000108801E00A2302E03B1C0F331B78181CE8
:1070C000BD4604B080BDC04694F8FF1F91F8FF1F75
:1070D00098FEFF1F96F8FF1F9CF8FF1F92F8FF1FF6
:1070E00041080000B6F7FFFF80B584B000AF021C76
:1070F000FB1D1A702F4B1A8880235B009A4201D126
:107100000B2353E03B1C0F33EFF3108072B6187063
:10711000294B1B78DBB20133DBB2274A191C1170F3
:10712000012B04D13B1C0F331A78244B1A70214BCE
:107130001B8801339AB21F4B1A80214B1B885A1CA3
:1071400091B21F4A11801F4AF91D0978D1541C4B76
:107150001B88FF2B02D91A4B00221A801A4B1B885E
:107160001A1C2023134012D1174B1B8820221343D3
:107170009AB2154B1A80154B1A68154B1B88191CAF
:10718000104BCB18101C191C0122FEF731FC0A4BC6
:107190001B78DBB2013BDBB2074A191C1170002BD4
:1071A00003D1064B187880F310880023181CBD46C5
:1071B00004B080BD9EF9FF1F91F8FF1F98FEFF1FCE
:1071C000A2F9FF1FA4F9FF1F92F8FF1F9CFEFF1FEB
:1071D000A0F9FF1F80B500AF024B1B88181CBD46ED
:1071E00080BDC04694F8FF1F80B500AF024B1B88DE
:1071F000181CBD4680BDC0469EF9FF1F80B500AF7C
:107200000F4B00221A800F4B00221A800E4B0022D7
:107210001A800E4B00221A800D4B00221A800D4B53
:1072200000221A800C4B00221A800020FEF7DCFAA4
:10723000021C0A4B1A60FFF7D3FEBD4680BDC04654
:1072400092F8FF1F94F8FF1F96F8FF1F98F8FF1F92
:107250009EF9FF1FA0F9FF1FA2F9FF1F9CFEFF1F51
:1072600090B583B000AF78600024284B1B88FF2BBB
:1072700023D8264B1B8801339AB2244B1A80244B07
:107280001B885A1C91B2224A1180224A1178224A44
:10729000D1541F4B1B88FF2B02D91D4B00221A8093
:1072A00004232343DCB2194B1A8880235B009A42E3
:1072B0000DD102232343DCB209E0184B1B88402286
:1072C00013439AB2154B1A8001232343DCB2221CCC
:1072D0000123134002D0FDF753FB0BE0221C0423D3
:1072E000134001D0FDF750FB221C0223134001D0B4
:1072F000FDF752FB0A4B1A68064B101C191C0122A1
:10730000FEF72AFBBD4603B090BDC04694F8FF1FB0
:1073100098F8FF1F9CF9FF1F9CF8FF1F92F8FF1FB2
:107320009CFEFF1F80B584B000AF78603B1C0E331D
:1073300000221A802F4B1B881A1C2023134007D0D1
:107340003B1C0E333A1C0E32128802210A431A806B
:10735000294B1B8801339AB2274B1A80264B1B8876
:10736000FF2B02D9244B00221A80244B1B88013B9F
:107370009AB2224B1A80214B1B88002B13D01D4B35
:107380001B88202213439AB21A4B1A801C4B1A688E
:10739000194B1B88191C1B4BCB18101C191C0122E4
:1073A000FEF726FB12E0134B1A88DF2313409AB234
:1073B000104B1A80144B1B78002B07D13B1C0E334B
:1073C0003A1C0E32128801210A431A803B1C0E33EC
:1073D0001A880223134001D0FDF7DAFA3B1C0E3362
:1073E0001A880123134001D0FDF7DAFABD4604B034
:1073F00080BDC04692F8FF1FA0F9FF1F9EF9FF1F36
:107400009CFEFF1FA4F9FF1FA4FAFF1F80B584B0E4
:1074100000AF7860204B1A683B1C0C33101C191C01
:10742000FEF728FCFB68002B31D0FA6802231340DA
:1074300001D0042300E00023184A128813439AB2B3
:10744000164B1A80FA680823134001D0802300E00D
:107450000023124A128813439AB2104B1A80FB6819
:107460009AB2012313409AB20C4B1B8813439AB271
:107470000A4B1A80FA680423134001D0022300E06B
:107480000023064A128813439AB2044B1A80FDF770
:1074900077FABD4604B080BD9CFEFF1F92F8FF1F27
:1074A00080B582B000AF7860044B1B880222134382
:1074B0009AB2024B1A80BD4602B080BD92F8FF1FFF
:1074C00080B500AF0A4B0A4A526810210A435A603D
:1074D000074B074A926810218A439A60044B044A7A
:1074E000526972218A4310210A435A61BD4680BD08
:1074F00080F00F4080B500AF0A4B0A4A52688021E5
:107500008A435A60074B074A926880210A439A606F
:10751000044B044A5269C0218A4380210A435A61BC
:10752000BD4680BDC0F00F4080B500AF034B034A9D
:10753000526901218A435A61BD4680BD00F10F4066
:1075400080B584B000AF7860104BFB60FB687A6850
:107550001A600F4B0E4A526902210A435A610C4BC2
:107560000B4A126802210A431A600A4B094A516801
:10757000094A0A40802149000A435A60074BFA68C9
:10758000DA60FB68181CBD4604B080BDB8FAFF1F66
:1075900040F00F4000A00440FFF8FFFEA8FAFF1FD4
:1075A00080B582B000AF7860024B02229A60BD467F
:1075B00002B080BD40F00FF880B582B000AF7860B7
:1075C000024B02225A60BD4602B080BD40F00FF867
:1075D00080B500AF584A5849584BCB588021C90252
:1075E0001943564BD150544A5349554BCB588021DF
:1075F000C9021943524BD150524A52499423CB5C91
:10760000DBB202210B43D9B29423D1544D4A8023DB
:107610005B004021D1544B4BFF221A74494A80230E
:10762000FF21D154474A8823FF21D154454A84235E
:10763000FF21D154434A8C230021D154414A86234F
:107640005B006021D1543F4B00221A753D4A9823BC
:107650000021D1543B4AC0230021D154394AC423CC
:107660000021D154374AC8230021D154354ACC23B4
:107670000021D154334AD0230021D154314AD4239C
:107680000021D1542F4AD8230021D1542D4ADC2384
:107690000021D1542B4AE0230021D154294AE4236C
:1076A0000021D154274AE8230021D154254AEC2354
:1076B0000021D154234AF0230021D154214AF4233C
:1076C0000021D1541F4AF8230021D1541D4AFC2324
:1076D0000021D1541B4A1C4B1B0ADBB201218B43F6
:1076E000D9B29C23D154174A174B1B0CD9B2B023E3
:1076F000D154144A144B1B0ED9B2B423D154114A9D
:10770000AC230021D1540F4B00221A770D4A842359
:107710005B000021D1540B4A0A499423CB5CDBB2B5
:10772000DBB22B218B43DBB201210B43DBB2D9B29D
:107730009423D154BD4680BD007004400410000065
:1077400034100000002007400000002080B584B005
:1077500000AF021CFB1D1A703B1C0F3300221A7075
:107760003B1C0E33EFF3108072B61870224B1B785F
:10777000DBB20133DBB2204A191C1170012B04D19A
:107780003B1C0E331A781D4B1A701D4B1B78802B37
:1077900004D13B1C0F330B221A7018E0194B1B78D5
:1077A000194AF91D0978D154154B1B780133DAB207
:1077B000134B1A70134B1B780133DAB2114B1A704A
:1077C000104B1B78802B02D10E4B00221A700A4BF3
:1077D0001B78DBB2013BDBB2074A191C1170002B8E
:1077E00003D1064B187880F310883B1C0F331B78AD
:1077F000181CBD4604B080BD91F8FF1F98FEFF1F06
:107800003EFBFF1F3CFBFF1FBCFAFF1F80B584B08F
:1078100000AF78603B1C0F3300221A703B1C0E3304
:10782000EFF3108072B61870224B1B78DBB2013375
:10783000DBB2204A191C1170012B04D13B1C0E3302
:107840001A781D4B1A701D4B1B78002B04D13B1C62
:107850000F330A221A7018E0194B1B78194AD25CB0
:107860007B681A70154B1B78013BDAB2134B1A7008
:10787000134B1B780133DAB2114B1A70104B1B7883
:10788000802B02D10E4B00221A700A4B1B78DBB200
:10789000013BDBB2074A191C1170002B03D1064BC8
:1078A000187880F310883B1C0F331B78181CBD46DA
:1078B00004B080BD91F8FF1F98FEFF1F3EFBFF1F25
:1078C0003DFBFF1FBCFAFF1F80B500AF024B1B78CA
:1078D000181CBD4680BDC0463EFBFF1F80B500AFF3
:1078E000044B1B7880225242D31ADBB2181CBD46CF
:1078F00080BDC0463EFBFF1F80B500AF054B002298
:107900001A70054B00221A70044B00221A70BD46F3
:1079100080BDC0463CFBFF1F3DFBFF1F3EFBFF1F22
:1079200080B584B000AF021CFB1D1A703B1C0F33E6
:1079300000221A703B1C0E33EFF3108072B61870E1
:10794000224B1B78DBB20133DBB2204A191C1170C9
:10795000012B04D13B1C0E331A781D4B1A701D4BA2
:107960001B78802B04D13B1C0F330B221A7018E0BC
:10797000194B1B78194AF91D0978D154154B1B78FE
:107980000133DAB2134B1A70134B1B780133DAB29E
:10799000114B1A70104B1B78802B02D10E4B00221A
:1079A0001A700A4B1B78DBB2013BDBB2074A191C89
:1079B0001170002B03D1064B187880F310883B1C04
:1079C0000F331B78181CBD4604B080BD91F8FF1F13
:1079D00098FEFF1FC2FBFF1FC0FBFF1F40FBFF1FE6
:1079E00080B584B000AF78603B1C0F3300221A7062
:1079F0003B1C0E33EFF3108072B61870224B1B78CD
:107A0000DBB20133DBB2204A191C1170012B04D107
:107A10003B1C0E331A781D4B1A701D4B1B78002B24
:107A200004D13B1C0F330A221A7018E0194B1B7843
:107A3000194AD25C7B681A70154B1B78013BDAB28D
:107A4000134B1A70134B1B780133DAB2114B1A70B7
:107A5000104B1B78802B02D10E4B00221A700A4B60
:107A60001B78DBB2013BDBB2074A191C1170002BFB
:107A700003D1064B187880F310883B1C0F331B781A
:107A8000181CBD4604B080BD91F8FF1F98FEFF1F73
:107A9000C2FBFF1FC1FBFF1F40FBFF1F80B500AFF4
:107AA000024B1B78181CBD4680BDC046C2FBFF1FA1
:107AB00080B500AF044B1B7880225242D31ADBB250
:107AC000181CBD4680BDC046C2FBFF1F80B500AF7D
:107AD000054B00221A70054B00221A70044B00223D
:107AE0001A70BD4680BDC046C0FBFF1FC1FBFF1F13
:107AF000C2FBFF1FC046C046C04670470020C046BC
:107B0000C046C046C046C04601300928F7D9C04625
:107B10007047C04680B582B000AF021CBB1D1A8002
:107B200006E0FFF7EBFFBB1DBA1D1288643A1A800E
:107B3000BB1D1B88642BF4D806E0FFF7DBFFBB1DE1
:107B4000BA1D12880A3A1A80BB1D1B880A2BF4D86A
:107B5000BD4602B080BDC04680B582B000AF78603F
:107B600007E00A4B181CFFF7D5FF7B68084A9B18F3
:107B70007B607A68054B9A42F3D87B689BB2181CED
:107B8000FFF7C8FFBD4602B080BDC04660EA0000F6
:107B9000A015FFFF80B584B000AF021CBB1D1A808A
:107BA000094BFB6008E0FB68181CFFF7D5FFBB1D05
:107BB0001A88BB1D013A1A80BB1D1B88002BF2D10D
:107BC000BD4604B080BDC04680BB000080B500AF9C
:107BD000054A802380214904D150034B802252045E
:107BE0001A60BD4680BDC04600E100E080B584B0AB
:107BF00000AF7860396000F055FB334B1B78DBB287
:107C0000012B5BD1314B1B68002B0DD1FFF766FEBA
:107C1000031C3F2B08D9002001210022002301F082
:107C2000CBF82A4B01221A60FFF738FF031C032B05
:107C300042D9274B1B78DBB2002B3DD13B1C0F33C5
:107C400000221A701AE00023BB6009E03B1C0F33CE
:107C50001A783B1C0F3301321A70BB680133BB60CA
:107C6000BB68032B0ADC3B1C0F331B787A68D318E4
:107C7000181CFFF7B5FE031C002BE7D03B1C0F338D
:107C80001B783F2B04D8FFF709FF031C032BDAD81E
:107C90000F4B01221A703B1C0F331B789BB27A6882
:107CA0000020022103F09CF8031C002B04D0084B99
:107CB00000221A70122302E0002300E00C23181C9B
:107CC000BD4604B080BDC046C3FBFF1FC8FBFF1FFD
:107CD000C5FBFF1F80B586B000AF3A60FB1D021CDC
:107CE0001A70BB1D0A1C1A70BB1D1B78002B03D118
:107CF0003E4B00221A7076E0BB1D1B78022B0CD184
:107D0000002001210022002301F056F8384B012207
:107D10001A60364B01221A7065E0BB1D1B78042BDC
:107D20004FD1324B1B78DBB2012B4AD13B683B6110
:107D30003B691A795B791B0213439BB23A1C0E32E2
:107D400099B2402900D9402313803B1C17330022ED
:107D50001A701AE03B691A78597809020A4399782F
:107D600009040A43DB781B0613431A1C3B1C173318
:107D70001B78D3181B78181CFFF7E8FC3B1C173343
:107D80001A783B1C173301321A703B1C17331B78CF
:107D90009BB23A1C0E3212889A42DBD8FFF79EFD46
:107DA000031C3F2B09D9002001210022002301F0F0
:107DB00003F80F4B01221A6015E00D4B00221A60E8
:107DC00011E0BB1D1B78032B03D10A4B00221A7054
:107DD00009E0BB1D1B78052B05D1044B00221A704E
:107DE000054B00221A70BD4606B080BDC3FBFF1FC5
:107DF000C8FBFF1FC5FBFF1FC4FBFF1F90B585B06D
:107E000000AF021CFB1D1A703C1C0F34084AFB1DFE
:107E10001B780020111C002202F08AFF031C237033
:107E20003B1C0F331B78002BFAD1BD4605B090BD2B
:107E3000C578000080B582B000AF78607A68084BE2
:107E4000101C01211A1C02F01FF87B68181C01216C
:107E5000802202F05BF8C046BD4602B080BDC0463D
:107E6000D0FBFF1F80B584B000AF78607A683B1C00
:107E70000F33101C01211A1C02F006F83B1C0F33B3
:107E80001B78802B07D17A68054B1B78101C0121C9
:107E90001A1C02F03BF8C046BD4604B080BDC04687
:107EA000D0FBFF1F80B582B000AF78607B685B7845
:107EB000002B0DD17A687B68DB78DB01DBB2102107
:107EC0000B43DBB2DBB2101C191C002202F01EF8BF
:107ED000C046BD4602B080BD80B584B000AF7860BA
:107EE0007B681A79597909020A43997909040A4386
:107EF000DB791B0613431A783B1C0E331A803B1C9C
:107F00000E333A1C0E32128812021A807B681A79DC
:107F1000597909020A43997909040A43DB791B0656
:107F2000134301331B78191C3B1C0E333A1C0E32D1
:107F300012880A431A807A683B1C0E331B88DBB216
:107F4000101C05211A1C01F0E1FFC046BD4604B01B
:107F500080BDC046B0B586B002AF78603B1C083328
:107F600001229A703B1C083300221A703B1C083314
:107F7000D97800220A4040210A43DA701979002298
:107F80000A401A713B1C083300225A7079683B1C66
:107F900008331A783B1C08339B783C1C0F34081CB0
:107FA000111C1A1C01F02EFF031C237078683B1C67
:107FB000083319783B1C0833DA781B791B0213430A
:107FC0009AB23B1C08339B783C1C083465783C1CF7
:107FD0000F3400950125019501F0B0FE031C2370BC
:107FE0003B1C083300229A7079683B1C08331A78CE
:107FF0003B1C08339B78081C111C1A1C01F002FF63
:1080000078683B1C083319783B1C0833DA781B79F5
:108010001B0213439AB23B1C08339B783C1C083468
:10802000647800940124019401F088FE7B68181C98
:108030000121022201F06AFF7B68181C062101223F
:1080400001F064FF7B68181C9021002201F05EFFA4
:10805000054B1B687A681278101C00210022984793
:10806000C046BD4604B0B0BDCCFBFF1F80B582B09A
:1080700000AF7860064B1B687A6811787A6808321E
:10808000081C05219847C046BD4602B080BDC046C9
:10809000CCFBFF1F90B587B000AFB9607A603B1C86
:1080A0000F33021C1A703B1C0F3319783C1C173419
:1080B000BA687B68081C111C1A1C01F0E9FF031C3C
:1080C0002370424BBA681A603B1C17331B78002B95
:1080D00075D13B1C0F331A783D4B101C10211A1C14
:1080E00001F09AFF031C191C3B1C17333A1C173272
:1080F00012780A431A703B1C0F331A78354B101C48
:1081000012211A1C01F088FF031C191C3B1C173399
:108110003A1C173212780A431A703B1C0F331A7834
:108120002D4B101C14211A1C01F076FF031C191C86
:108130003B1C17333A1C173212780A431A703B1C47
:108140000F331A78254B101C13211A1C01F064FF01
:10815000031C191C3B1C17333A1C173212780A43B4
:108160001A703B1C0F331A781D4B101C17211A1C58
:1081700001F052FF031C191C3B1C17333A1C173229
:1081800012780A431A703B1C0F331A78154B101CD7
:1081900016211A1C01F040FF031C191C3B1C17334D
:1081A0003A1C173212780A431A703B1C0F33181C02
:1081B0000121032201F0AAFE0B4B03221A703B1C83
:1081C00017331B78181CBD4607B090BDCCFBFF1FB2
:1081D000457B0000C97A0000257A0000557A00002E
:1081E000957A00005D7C0000D0FBFF1F90B585B044
:1081F00000AF3A601A1CFB1D1870BB1D19703B1DA7
:108200001A803B1C0F3300221A70FA1D3B1C0E33E0
:10821000101C01211A1C01F037FEFA1D3B1C0D3306
:10822000101C06211A1C01F02FFE3B1C0E331B787C
:10823000802B1ED13B1C0D331B781A1C02231340CC
:1082400017D0FB1D1B78181CFCF7E6FC031C012B48
:108250000FD172B6FB1D181C00F0C6FF3B1C0E337D
:1082600000221A70FB1D181C0121002201F04EFE95
:1082700062B63B1C0E331B78802B0BD03B1D1B883A
:108280003C1C0F34F81DBA1D11783A6800F0DEFE70
:10829000031C23703B1C0F331B78181CBD4605B014
:1082A00090BDC04680B500AFBD4680BD80B500AF73
:1082B0002D4A8823BF21D1542B4A2B499423CB5CD0
:1082C000DBB202210B43D9B29423D154264A98231E
:1082D0000021D154244A80235B000021D154234A39
:1082E00090239B00101C191CFF2201F0ABFC204BBB
:1082F0001A688023DB00101C191C002201F0A2FC6C
:108300001B4B1B68802189005A181A4B1A601A4BA4
:10831000FF221A70144A14499423CB5CDBB2022169
:108320008B43D9B29423D1540F4A0F4986235B0063
:10833000CB5CDBB240210B43D9B286235B00D15426
:10834000094A8C23BF21D154074A84239F21D15449
:10835000054A05499423CB5CDBB220218B43D9B27B
:108360009423D154BD4680BD00200740D8FBFF1F99
:10837000D4FBFF1F1CFEFF1F40F1FF1F80B584B020
:1083800000AFFB1D1870BB1D19707B1D1A703B1CC4
:108390000F33FF221A70FB1D1B78062B14D8FB1D10
:1083A0001B789B00D9B23B1C0F337A1D12788A18B8
:1083B0001A70BB1D1B78012B06D13B1C0F333A1CD6
:1083C0000F32127802321A703B1C0F331B78181CC4
:1083D000BD4604B080BDC04690B585B000AFFB1D62
:1083E0001870BB1D19707B1D1A703C1C0F34FB1DCF
:1083F0001978BB1D1A787B1D1B78081C111C1A1CD0
:10840000FFF7BCFF031C23703B1C0F331B78FF2BB3
:1084100012D03B1C0F331B785B08DBB21A1C0A49D5
:10842000131CDB009B185B005A5A084B9A4203D17D
:108430003B1C0F33FF221A703B1C0F331B78181C98
:10844000BD4605B090BDC046D8FBFF1FFFFF000032
:1084500090B585B000AF786039603B689A79D9797A
:1084600009020A43197A09040A435B7A1B0613437B
:108470001A1C3B68197B5B7B1B020B439BB2D31816
:10848000BB603B1C0E3300221A803B689A7ADB7A71
:108490001B0213439BB21A1C3B68197B5B7B1B02BC
:1084A0000B439BB2D21A3B6819785B781B020B43D3
:1084B0009BB29A4208DD3A1C0E323B6819785B7811
:1084C0001B020B4313800FE03B689A7ADB7A1B0296
:1084D000134399B23B681A7B5B7B1B0213439AB22E
:1084E0003B1C0E338A1A1A807B683A1C0E321178B4
:1084F0009C7800202040014399705278D878002160
:1085000001400A43DA70BA687B68FF2111401C7988
:108510000020204001431971100AFF2101405C79BD
:108520000020204001435971100CFF2101409C792B
:108530000020204001439971120ED879002101409A
:108540000A43DA71BD4605B090BDC04680B582B021
:1085500000AF0A1CFB1D011C1970BB1D1A705B4A81
:1085600080235B000021D154594BFA1D12781A70F8
:10857000584A90239B00101C191CFF2201F062FB3B
:10858000554B564A1A60544B1A688023DB00101C66
:10859000191C002201F056FB4C4A4C4986235B0013
:1085A000CB5CDBB2802149420B43D9B286235B000E
:1085B000D154C046454A86235B00D35CDBB2DBB2B4
:1085C0005BB2002BF6DB464BFF221A703F4A3F4955
:1085D00086235B00CB5CDBB240210B43D9B2862300
:1085E0005B00D1543F4B3F4A5268802149040A4303
:1085F0005A60BB1D1B78002B07D03A4B394A1268D2
:10860000802109060A431A6005E0364B354A126894
:10861000520052081A60334B324A5168324A0A40BB
:108620005A602A4A2C4B1B681B0ADBB201218B4380
:10863000D9B29C23D154254A274B1B681B0CD9B2B5
:10864000B023D154214A244B1B681B0ED9B2B4234A
:10865000D154214B1B68802189005A18234B1A6082
:108660001A4A84235B001021D154184A9423012113
:10867000D154164A8023BF21D154144A1349802370
:108680005B00CB5CD9B27F230B40D9B280235B0067
:10869000D1540E4A0D498423CB5CDBB201210B433C
:1086A000D9B28423D154094A08498423CB5CDBB274
:1086B00010210B43D9B28423D154044B84221A775E
:1086C0000023181CBD4602B080BDC04600200740F4
:1086D00018FEFF1FD8FBFF1FD4FBFF1F0000002068
:1086E00040F1FF1F00700440FFFFFFFE1CFEFF1F54
:1086F00090B589B000AF3960FB1D011C1970BB1D1E
:108700001A703B1C1F333A6812781A703B1C1E33D8
:108710003A6892781A703B1C0C33C64A03CA03C3EA
:108720003B68DA781B791B0213439AB280239B00C3
:108730009A420AD93B68D97800220A40DA7019793E
:1087400000220A4002210A431A713C1C1D343B1CC2
:108750001F331A783B1C1E331B78101C191C002277
:10876000FFF70CFE031C23703B1C1C333A1C1D320C
:10877000127852081A703B1C1D331B78FF2B13D044
:108780003B1C1C331A78AC49131CDB009B185B00A4
:108790005A5AAA4B9A4207D13B685B78032B03D8FD
:1087A0003B689B78012B01D995233EE13B1C1C3390
:1087B0001A78131CDB009B185B009F4A9B18BB6157
:1087C000BB69DB7BFF2B02D1BB690022DA733B68FC
:1087D000DA781B791B0213439AB2BB69FF2111405F
:1087E0001C780020204001431970120A92B2587878
:1087F000002101400A435A70BB69BA1D12789A736E
:10880000BB69DA7B01231340DAB2BB69DA73BB6957
:10881000DB7BDAB23B1C1E331B785B00D9B23B1CFE
:108820001F331B789B00DBB20B43DBB21343DBB27D
:10883000DAB2BB69DA73824B1A68BB69FF21114057
:108840009C780020204001439970100AFF210140CC
:10885000DC78002020400143D970100CFF2101403A
:108860001C790020204001431971120E5879002113
:1088700001400A435A713B685A78BB695A74BB6914
:108880003A1C1E3212781A746E4B1A68BB69DB7B75
:10889000DB00D3187B613B68DA781B791B0213433A
:1088A0009AB27B69FF2111409C780020204001434F
:1088B0009970120A92B2D878002101400A43DA7006
:1088C0005F4B1A687B69FF2111401C790020204012
:1088D00001431971100AFF2101405C7900202040FA
:1088E00001435971100CFF2101409C790020204068
:1088F00001439971120ED879002101400A43DA71BF
:108900007B6908221A704F4B1A68BB69DB7B012117
:108910004B40DBB2DB00D3187B613B68DA781B7914
:108920001B0213439AB27B69FF2111409C780020FF
:10893000204001439970120A92B2D8780021014078
:108940000A43DA703E4B1A687B69FF2111401C799B
:108950000020204001431971100AFF2101405C7979
:108960000020204001435971100CFF2101409C79E7
:108970000020204001439971120ED8790021014056
:108980000A43DA717B6948221A703B68DA781B79EE
:108990001B0213439BB21A1C294B1B68D218284B8D
:1089A0001A603B1C1E331B78002B0ED1254B1A6816
:1089B000BB69DB7BDB00D3187B617B691B78802282
:1089C00052421343DAB27B691A703B1C1E331A7889
:1089D0003B1C1E3319783B1C0C338900C9583B687B
:1089E0005B78012B01D0012300E0002319433B1CDD
:1089F0000C339200D1503B1C1F331B789B00124A52
:108A00009B183A1C1F32127892000F4812181278E5
:108A1000D1B23A1C1E3210783A1C0C3280008258B7
:108A2000D2B20A43D2B21A700023181CBD4609B054
:108A300090BDC04610B30000D8FBFF1FFFFF000031
:108A40001CFEFF1FD4FBFF1FC020074090B587B05E
:108A500000AF7860FB1C1970BB1C1A703B1C1733ED
:108A6000C4221A703C1C1634FB1C1A78BB1C1B78E1
:108A7000101C191C0022FFF7AFFC031C23703B1CC9
:108A800015333A1C1632127852081A703B1C1633F2
:108A90001B78FF2B37D03B1C15331A78131CDB00D7
:108AA0009B185B001B4A9B183B611B4B1A683B6978
:108AB000DB7BDB00D318FB60174B1A683B69DB7B61
:108AC00001214B40DBB2DB00D318BB60FB681A7896
:108AD0007F231340DAB2FB681A70BB681A787F23D1
:108AE0001340DAB2BB681A703B699A7A0121494295
:108AF0000A439A72DA7A012149420A43DA723B1C2C
:108B0000173300221A703B1C17331B78181CBD4604
:108B100007B090BDD8FBFF1FD4FBFF1F90B585B0F9
:108B200000AFFB1D1870BB1D19707B1D1A703C1C1B
:108B30000F34BB1D1A787B1D1B78101C191C0022DA
:108B4000FFF74AFC031C23703B1C0E333A1C0F3208
:108B5000127852081A703B1C0F331B78FF2B01D17F
:108B600096233EE0F91DBB1D1A787B1D1B78081C5F
:108B7000111C1A1CFFF76AFF1C4B19683B1C0E33B3
:108B80001A781B48131CDB009B185B001B5ACA1A7F
:108B9000164B1A60BB1D1B789B00164A9B180022BF
:108BA0001A703B1C0E331A781149131CDB009B18FA
:108BB0005B00012252425A523B1C0E3319780C4A78
:108BC0000B1CDB005B185B00D11848880124644251
:108BD00020434880D3189A88012149420A439A8049
:108BE0000023181CBD4605B090BDC0461CFEFF1FEB
:108BF000D8FBFF1FC020074090B585B000AF78605C
:108C0000FB1C1970BB1C1A703C1C0F34FB1C1A781F
:108C1000BB1C1B78101C191C0022FFF7DDFB031C7A
:108C200023703B1C0F331B785B08DBB21A1C131C30
:108C3000DB009B185B00164A9B18BB603B1C0F3384
:108C4000BA68D27B1A703B1C0F331B78FF2B1BD0EA
:108C50007968FB1C1A78BB1C1B78081C111C1A1C99
:108C6000FFF7F4FE0B4B1A683B1C0F331878094BC7
:108C70001B68391C0F310978C900CB5C7C21494243
:108C80000B43D9B2C3009954C046BD4605B090BD50
:108C9000D8FBFF1FD4FBFF1F90B587B000AF7860F3
:108CA000FB1C1970BB1C1A703C1C1734FB1C1A7877
:108CB000BB1C1B78101C191C0022FFF78DFB031C2A
:108CC00023703B1C17331B785B08DBB21A1C131C88
:108CD000DB009B185B00354A9B183B613B1C17333C
:108CE0003A69D27B1A703B1C17331B78FF2B58D084
:108CF000FB1C1B789B002E4A9B18FB60FB1C1B78FF
:108D0000002B23D03B695B7C012B01D0012300E0C9
:108D100000233A1C0B321370BB1C1B78012B01D1B2
:108D2000142300E018233A1C0B3211781A1C0B1C78
:108D30001343DAB23B1C0B331A70FB681A783B1CE6
:108D40000B331B781343DAB2FB681A70FB681A788E
:108D500002218A431A70174B1A683B1C1733187884
:108D6000144B1B68391C17310978C900C95C7B2377
:108D70000B40D9B2C30099540E4B1B683A1C1732F2
:108D80001278D2000021D154BB1C1B78002B08D1D3
:108D90007A68FB1C1B78101C191C0022002300F0B1
:108DA0000BF8C046BD4607B090BDC046D8FBFF1FBC
:108DB000C0200740D4FBFF1F90B589B000AFF8601A
:108DC0007A603B603B1C0B330A1C1A703B1C1F3340
:108DD00094221A703C1C1E343B1C0B331B78181C4D
:108DE00000210022FFF7F8FA031C23703B1C1E33FE
:108DF0001B785B08DBB21A1C131CDB009B185B00A2
:108E00008F4A9B18BB613B1C1E33BA69D27B1A7018
:108E10003B1C1E331B78FF2B00D10AE1894B1A68DB
:108E20003B1C1E331B7801214B40DBB2DB00D31807
:108E30007B6100233B61BB691A785B781B0213439B
:108E40009AB2814B9A4200D1F3E07B691B781B06F2
:108E5000DB0FDBB2002B00D0EBE03B68002B56D1E0
:108E6000784B1A683B1C1E331B78DB00D3183B6120
:108E7000BB691A785B781B0213439AB23B69FF21E6
:108E800011409C780020204001439970120A92B250
:108E9000D878002101400A43DA70BB699A78D97802
:108EA00009020A43197909040A435B791B06134333
:108EB0001A1C3B69FF2111401C790020204001430E
:108EC0001971100AFF2101405C7900202040014304
:108ED0005971100CFF2101409C7900202040014372
:108EE0009971120ED879002101400A43DA713B6969
:108EF0001B785B06DB0FDBB29B01DBB278225242B0
:108F00001343DBB2DAB23B691A70002394E03B688A
:108F10009AB2BB69FF2111409C7A00202040014396
:108F20009972120A92B2D87A002101400A43DA7289
:108F3000BB693A1D12789879002101400A439A7161
:108F40007A1D1278D879002101400A43DA71BA1DDE
:108F50001278187A002101400A431A72FA1D127819
:108F6000587A002101400A435A72BB691A785B782B
:108F70001B0213439BB21A1C3B689A4206D2BB6980
:108F80001A785B781B0213439BB23B60BB69197B69
:108F900000220A401A73597B00220A405A73294B57
:108FA0001A683B1C1E331B78DB00D3183B613B68FF
:108FB0009AB23B69FF2111409C7800202040014378
:108FC0009970120A92B2D878002101400A43DA70EF
:108FD0007A683B69FF2111401C7900202040014341
:108FE0001971100AFF2101405C79002020400143E3
:108FF0005971100CFF2101409C7900202040014351
:109000009971120ED879002101400A43DA713B6947
:109010001B785B06DB0FDBB29B01DBB2782252428E
:109020001343DBB2DAB23B691A703B1C1F330022D8
:109030001A703B1C1F331B78181CBD4609B090BD2D
:10904000D8FBFF1FD4FBFF1FFFFF000090B589B0C6
:1090500000AFF8607A603B603B1C0B330A1C1A704F
:109060003B1C1F3393221A703C1C1E343B1C0B33D9
:109070001B78181C01210022FFF7AEF9031C237096
:109080003B1C1E331B785B08DBB21A1C131CDB0075
:109090009B185B00444A9B18BB613B1C1E331B782A
:1090A000FF2B01D193237AE03B1C1E33BA69D27B9C
:1090B0001A703E4B1A683B1C1E331B78DB00D3181A
:1090C0007B617B691B781B06DB0FDBB2002B63D156
:1090D0003B1C0B331B789B00354A9B181B78DBB27B
:1090E0001A1C0223134057D13B689AB2BB69FF2177
:1090F00011409C7A0020204001439972120A92B2DA
:10910000D87A002101400A43DA72BB693A1D12780D
:109110009879002101400A439A717A1D1278D87912
:10912000002101400A43DA71BA1D1278187A002131
:1091300001400A431A72FA1D1278587A0021014040
:109140000A435A72BB69197B00220A401A73597B81
:1091500000220A405A737A69BB69101C191CFFF778
:1091600077F93B1C0B331B78002B03D17B69C8229A
:109170001A700DE07B691B785B06DB0FDBB29B018D
:10918000DBB2782252421343DBB2DAB27B691A7047
:109190003B1C1F3300221A703B1C1F331B78181C0A
:1091A000BD4609B090BDC046D8FBFF1FD4FBFF1FD2
:1091B000C020074080B582B000AF78600A1CFB1C5D
:1091C0001A70074AF91C98230978D154054B181CCA
:1091D0000121012200F09AFEC046BD4602B080BDCA
:1091E0000020074018FEFF1F80B584B000AF7860F4
:1091F0002F4A2F4980235B00CB5CD9B27F230B40E1
:10920000D9B280235B00D154294A294986235B00C7
:10921000CB5CDBB220218B43D9B286235B00D154D7
:10922000234A23498023CB5CDBB220210B43D9B2F4
:109230008023D1541E4A1E498423CB5CDBB22021FB
:109240008B43D9B28423D154194A19499423CB5C56
:10925000DBB220218B43D9B29423D154144A144950
:109260009423CB5CDBB204210B43D9B29423D154B9
:109270003B1C0E330F4A1A803B1C0E331A883B1CD2
:109280000E33013A1A8001F0CFFD3B1C0E331B88D0
:10929000002BF1D1064A06499423CB5CDBB20421B2
:1092A0008B43D9B29423D154C046BD4604B080BD8F
:1092B00000200740409CFFFF90B589B000AF021C22
:1092C0003960FB1D1A703B1C1F3300221A700023EB
:1092D000BB6100237B6100233B61FB1D1A780423E3
:1092E00013409A103B1C0F331A70FB1D1A78082389
:1092F0001340DB10DAB23B68DA703B6859783B68A0
:10930000DA783C1C1F343B1C0F331B78081C111CE3
:109310001A1CFFF733F8031C2370A94B1A683B1C77
:109320001F331B78DB00D318BB61A54B1A683B1CAD
:109330001F331B7801214B40DBB2DB00D3187B616C
:109340003B1C1F331B785B08DBB21A1C131CDB00B1
:109350009B185B009B4A9B183B61BB691A79597942
:1093600009020A43997909040A43DB791B0613436E
:109370001A1C3B68FF2111401C790020204001434A
:109380001971100AFF2101405C790020204001433F
:109390005971100CFF2101409C79002020400143AD
:1093A0009971120ED879002101400A43DA71BB6924
:1093B0009A78DB781B0213439AB23B68FF21114075
:1093C0005C7A0020204001435972120A92B2987AC6
:1093D000002101400A439A723B69DA7B3B1C1F3330
:1093E00001214A401A703B693A1C1F321278DA7325
:1093F000BB691B785B06DB0FDBB201225340DBB29B
:109400009B01DAB27B691A703B68DB78012B00D0D4
:10941000B7E03B685B78002B16D16B4B1B78002BB9
:1094200012D1694BFF221A703B68181C00210022E0
:10943000FFF70CFB7B6900221A703B68181C0021A7
:1094400000220023FFF7B8FC5F4B1B78012B04D0F0
:109450003B685B78002B00D138E23B691A7B5B7B71
:109460001B0213439AB23B68597A9B7A1B020B4347
:109470009BB2D3189AB23B69FF2111401C7B00209C
:10948000204001431973120A92B2587B0021014017
:109490000A435A733B699A7ADB7A1B0213439AB2E6
:1094A0003B69197B5B7B1B020B439BB29A4213D82F
:1094B0003B685A7A9B7A1B0213439BB2DBB21A1C9D
:1094C0003B6919785B781B020B439BB29A4218D117
:1094D0003B699B7B012B14D17A693B69101C191CD9
:1094E000FEF7B6FF7B691B785B06DB0FDBB29B01E7
:1094F000DBB2782252421343DBB2DAB27B691A70D4
:10950000ECE13B699A79D97909020A43197A09048D
:109510000A435B7A1B0613431A1C3B68FF21114068
:109520001C790020204001431971100AFF210140DD
:109530005C790020204001435971100CFF2101404B
:109540009C790020204001439971120ED8790021A6
:1095500001400A43DA713B691A7B5B7B1B021343B0
:109560009AB23B68FF2111405C7A00202040014301
:109570005972120A92B2987A002101400A439A72F3
:10958000A4E13B685B78002B37D1BB691B789B0655
:109590001B0FDBB20D2B19D13B6801229A703B687F
:1095A0001A79597909020A43997909040A43DB793E
:1095B0001B0613431B78DB09DAB2034B1A701CE05D
:1095C000D4FBFF1FD8FBFF1F40F1FF1FC54B1B78CB
:1095D000012B12D1C34BFF221A703B68181C0021CB
:1095E0000122FFF733FA7B6900221A703B68181CCE
:1095F000002100220023FFF7DFFB3B699A7ADB7A28
:109600001B0213439AB2B84B9A4200D15EE13A1C56
:109610000C323B68597A9B7A1B020B4313803B69DF
:109620001A7B5B7B1B0213439AB23B1C0C331B88D7
:10963000D3189AB23B69FF2111401C7B00202040C7
:1096400001431973120A92B2587B002101400A4368
:109650005A733B691A785B781B0213439BB23A1C1E
:109660000C3212889A420DD13B699A7ADB7A1B023E
:1096700013439AB23B69197B5B7B1B020B439BB282
:109680009A4222D83B699A7ADB7A1B0213439BB237
:10969000002B00D1D0E03B699A7ADB7A1B0213439E
:1096A0009AB23B6919785B781B020B439BB2101C82
:1096B000191CFBF7F9F80B1C9BB2002B00D0BBE088
:1096C0003B699B7B012B00D0B6E03B699A7ADB7A41
:1096D0001B0213439BB21A1C3B69197B5B7B1B0269
:1096E0000B439BB2D21A3B6919785B781B020B4380
:1096F0009BB29A4206DD3B691A785B781B021343E2
:109700009BB20DE03B699A7ADB7A1B0213439AB253
:109710003B69197B5B7B1B020B439BB2D31A9BB249
:109720003A1C0A3213803B1C0A331B88002B33D1AE
:109730003B699A78D97809020A43197909040A43DE
:109740005B791B0613431A1C7B69FF2111401C79AE
:109750000020204001431971100AFF2101405C796B
:109760000020204001435971100CFF2101409C79D9
:109770000020204001439971120ED8790021014048
:109780000A43DA717B69997800220A409A70D97885
:1097900000220A40DA7040E03B699A79D9790902DF
:1097A0000A43197A09040A435B7A1B0613431A1CFD
:1097B0003B69197B5B7B1B020B439BB2D3181A1CC2
:1097C0007B69FF2111401C79002020400143197161
:1097D000100AFF2101405C790020204001435971AB
:1097E000100CFF2101409C79002020400143997119
:1097F000120ED879002101400A43DA717B693A1CC4
:109800000A3211789C7800202040014399705278E8
:10981000D878002101400A43DA707B691B785B0627
:10982000DB0FDBB29B01DBB2782252421343DBB287
:10983000DAB27B691A7051E03B699A79D9790902E9
:109840000A43197A09040A435B7A1B0613431A1C5C
:109850003B68FF2111401C79002020400143197111
:10986000100AFF2101405C7900202040014359711A
:10987000100CFF2101409C79002020400143997188
:10988000120ED879002101400A43DA713B691A7B34
:109890005B7B1B0213439AB23B68FF2111405C7A49
:1098A0000020204001435972120A92B2987A002196
:1098B00001400A439A723B699A7A012149420A435C
:1098C0009A72DA7A012149420A43DA723B685A787D
:1098D0003B68101C191C00F0AFFBC046BD4609B028
:1098E00090BDC04640F1FF1FFFFF000080B588B06B
:1098F00000AFD2493B1C1F3380228A5C1A70CF49CB
:109900003B1C1E3384228A5C1A703B1C1D333A1C9C
:109910001F32391C1E31127809780A401A70C74963
:109920003B1C1C3390228A5C1A70FB1DFF221A70AC
:10993000C34B1A783B1C08331A703B1C08330022B7
:109940009A703B1C083300225A603B1C0833597A3A
:1099500000220A405A72997A00220A409A723B1CED
:1099600008330022DA703B1C083300221A723B1CB9
:109970000833FF225A70B24AFB1D101C01211A1C29
:1099800000F082FAAD4A86235B00D35CDBB21A1C7E
:10999000012313401BD0FB1D1B78802B17D1A74A36
:1099A000A64980235B00CB5CD9B27F230B40D9B2A0
:1099B00080235B00D154A14AA04986235B00CB5C85
:1099C000DBB220218B43D9B286235B00D1543B1CF0
:1099D0001D331A780423134031D0984AA423D35C52
:1099E000DAB23B1C1A331A803B1C183308221A8047
:1099F000924AA023D35CDAB23B1C16331A808F4AFA
:109A000080230421D1543B1C1A331A883B1C183381
:109A10001B88111C99400B1C9AB23B1C16331B88E7
:109A200013439BB29AB23B1D1A803B1C08333A1D6C
:109A30005A603B1C08331220191C00F0FDFA3B1C35
:109A40001D331A780123134016D07C4A802301214C
:109A5000D154FEF72BFC3B1C08331020191C00F0DE
:109A6000EBFA764A75499423CB5CDBB220218B4319
:109A7000D9B29423D154DDE03B1C1D331A7808235E
:109A800013401ED06D4A80230821D1543B1C1C3347
:109A90001B781B09DAB23B1C08335A703B1C1C3381
:109AA0001A783B1C0833101C191CFFF705FC634A8D
:109AB00062499423CB5CDBB220218B43D9B294233F
:109AC000D1543B1C1D331A78022313402ED05B4A1D
:109AD00080230221D15459493B1C1F3388228A5CC0
:109AE0001A7056493B1C1E338C228A5C1A703B1C30
:109AF0001F333A1C1E321B7812781340DAB23B1C1B
:109B000008331A723B1C08331620191C00F094FA13
:109B10004A4A8823BF21D154484A48499423CB5C00
:109B2000DBB220218B43D9B29423D1543B1C1D338B
:109B30001A781023134030D0404A80232021D1547A
:109B40003E4A80231021D1543B1C08331420191C99
:109B500000F072FA394A394986235B00CB5CDBB2EC
:109B600020210B43D9B286235B00D154334A3349B9
:109B700080235B00CB5CDBB2802149420B43D9B22E
:109B800080235B00D1542D4A2C498423CB5CDBB26B
:109B900020210B43D9B28423D1543B1C1D331A78A6
:109BA0002023134013D0254A80232021D1543B1C6D
:109BB00008331320191C00F03FFA204A1F49842360
:109BC000CB5CDBB220218B43D9B28423D1543B1C24
:109BD0001D331B785BB2002B2BDA3B1C0833FF22B2
:109BE0005A703A1C0832FB1C101C10211A1C00F081
:109BF0004BF9FB1C1B78012B07D13B1C08330022BF
:109C00005A703B1C08330122DA700C4A80238021F1
:109C1000D1543B1C08331720191C00F00DFA074AD9
:109C200006499423CB5CDBB220218B43D9B2942329
:109C3000D154C046BD4608B080BDC0460020074094
:109C400018FEFF1F80B584B000AFF860B960FB1D3F
:109C50001A70FB1D1A78F968BB68081C111C1A1CC5
:109C600001F055FDC046BD4604B080BD80B582B050
:109C700000AFFB1D00221A70154B1A78154B1A7095
:109C8000FB1D00221A7009E0FB1D1B78124AFF2100
:109C9000D154FB1D1A78FB1D01321A70FB1D1B7875
:109CA000062BF1D9FB1D00221A7009E0FB1D1B7861
:109CB0000A4A0521D154FB1D1A78FB1D01321A7086
:109CC000FB1D1B78062BF1D9BD4602B080BDC046F6
:109CD00031FEFF1F30FEFF1F20FEFF1F28FEFF1F6B
:109CE00080B582B000AF3960111C1A1CFB1D1870C2
:109CF000BB1D19707B1D1A70BB1D1B78072B03D869
:109D0000BB1D1B78002B01D1992310E0BB1D1B78D4
:109D1000013BDAB2084B1A70FFF7A8FFFB1D1A7857
:109D20007B1D1B78101C191CFEF710FC031C181C53
:109D3000BD4602B080BDC04631FEFF1F90B585B064
:109D400000AF7860081C111C1A1CFB1C18703B1C0F
:109D50001980BB1C1A703B1C0F3300221A70284B51
:109D60001B78002B05D1FB1C1B78002B01D0952301
:109D700041E03B1C0833BA1C12789A703B1C083334
:109D8000FA1C12781A703B1C08333A1C1178DC78E4
:109D9000002020400143D9705278187900210140F9
:109DA0000A431A713B1C08333A1C203212785A704D
:109DB0007B6819783C1C0F343A1C08323B1C243356
:109DC0001B78081C111C1A1CFEF792FC031C237044
:109DD0003B1C08331B78002B0AD03B1C0F331B782D
:109DE000002B05D1064B1B78013BDAB2044B1A70ED
:109DF0003B1C0F331B78181CBD4605B090BDC046F8
:109E000030FEFF1F90B585B000AF7860FB1C197065
:109E1000BB1C1A703B1C0F3300221A70184B1A78A7
:109E2000184B1B789A4205D1FB1C1B78002B01D0E4
:109E3000962320E07B6819783C1C0F34FB1C1A78B1
:109E4000BB1C1B78081C111C1A1CFEF767FE031CA8
:109E50002370FB1C1B78002B0AD03B1C0F331B7894
:109E6000002B05D1064B1B780133DAB2044B1A7074
:109E70003B1C0F331B78181CBD4605B090BDC04677
:109E800030FEFF1F31FEFF1F80B586B000AFF860C7
:109E90007A603B1C0B330A1C1A703B1C17333A1CAC
:109EA0000B3211780F220A401A703B1C0B331B78BF
:109EB000072B0DD83B1C0B331B78002B08D03B1C09
:109EC0000B331B78013B0F4AD25C7B681A7014E09D
:109ED0003B1C0B331A78102313400CD03B1C173358
:109EE0001B78062B07D83B1C17331B78064AD25C1D
:109EF0007B681A7001E0822300E00023181CBD4635
:109F000006B080BD20FEFF1F28FEFF1F80B584B075
:109F100000AF7860FB1C1970BB1C1A703B1C0F3320
:109F2000FA1C11780F220A401A70FB1C1B78072BB1
:109F30000BD8FB1C1B78002B07D0FB1C1B78013BAC
:109F4000334AB91C0978D1545DE0FB1C1A78102300
:109F5000134056D03B1C0F331B78062B51D83B1CAB
:109F60000E33FA1C1278D2091A70BB1C1B78012B15
:109F70000CD179683B1C0F331A783B1C0E331B78CD
:109F8000081C111C1A1CFEF737FE32E0BB1C1B78A4
:109F9000002B2ED13B1C0F331B781E4AD35C012BA8
:109FA00027D179683B1C0F331A783B1C0E331B7882
:109FB000081C111C1A1CFEF76FFE3B1C0F331B788C
:109FC000002B16D13B1C0E331B78013B5A1E9341CC
:109FD000DBB21A1C3B1C0E331A7079683B1C0F3322
:109FE0001A783B1C0E331B78081C111C1A1CFEF738
:109FF00053FE3B1C0F331B78064AB91C0978D15419
:10A0000001E0822300E00023181CBD4604B080BD9F
:10A0100020FEFF1F28FEFF1F80B582B000AF3A6010
:10A02000FB1D021C1A70BB1D0A1C1A700023181C91
:10A03000BD4602B080BDC04680B582B000AF021CF4
:10A040003960FB1D1A70FB1D1B78102B01D1FFF727
:10A050000DFEFB1D1A78094B9200D358002B07D038
:10A06000FB1D1A78054B9200D3583A68101C98478C
:10A070000023181CBD4602B080BDC04638B40000A5
:10A0800080B582B000AF7860C046BD4602B080BDEA
:10A0900090B587B000AFB9607A603B1C0F33021CEB
:10A0A0001A703B1C173300221A700D4BBA681A60E5
:10A0B0000C4B7A681A603C1C17343B1C0F331A781F
:10A0C000094B101C00211A1CFFF7A6FF031C23706C
:10A0D0003B1C17331B78181CBD4607B090BDC0460B
:10A0E00040FEFF1F44FEFF1FDD9C0000B0B588B09E
:10A0F00002AF78603B1C163300221A703B1C1733EA
:10A10000CD221A7000233B617A683B1C1633101C69
:10A1100001211A1CFFF7B8FE7B689B78012B00D049
:10A1200092E07B681A79597909020A4399790904FE
