:1040000000300020C9A00000BDAB0000C9AB00001B
:10401000C9AB0000C9AB0000C9AB0000C9AB0000D0
:10402000C9AB0000C9AB0000C9AB0000C9AB0000C0
:10403000C9AB0000C9AB0000C9AB0000C9AB0000B0
:10404000C9AB0000C9AB0000C9AB0000C9AB0000A0
:10405000C9AB0000C9AB0000C9AB0000C9AB000090
:10406000C9AB0000C9AB0000C9AB0000C9AB000080
:1040700001A50000C9AB0000C9AB0000C9AB00003E
:10408000C9AB0000C9AB0000C9AB0000C9AB000060
:10409000C9AB0000C9AB0000C9AB0000C9AB000050
:1040A000B9BD0000C9AB0000C9AB0000C9AB00003E
:1040B000C9AB0000C9AB0000C9AB0000C9AB000030
:10440000E8CA26CF6964000010440000C4540000CC
:1044100000300020BD530000796600008566000072
:1044200085660000856600008566000085660000E0
:1044300085660000856600008566000085660000D0
:1044400085660000856600008566000085660000C0
:1044500085660000856600008566000085660000B0
:1044600085660000856600008566000085660000A0
:104470008566000085660000856600008566000090
:10448000E15D000085660000A95700008566000018
:104490008566000085660000856600008566000070
:1044A0008566000085660000856600008566000060
:1044B000E97F0000856600008566000085660000D3
:1044C0008566000085660000856600008566000040
:1044D000FFFFFFFFFFFFFFFFFFFFFFFFFFFFFFFFEC
:1044E000FFFFFFFFFFFFFFFFFFFFFFFFFFFFFFFFDC
:1044F000FFFFFFFFFFFFFFFFFFFFFFFFFFFFFFFFCC
:10481000E8CA26CF010000000000000000000000F0
:10482000002934D00123002210B488422CD3012463
:104830002407A14204D2814202D209011B01F8E7F8
:10484000E400A14204D2814202D249005B00F8E7B1
:10485000884201D3401A1A434C08A04202D3001BDD
:104860005C0822438C08A04202D3001B9C08224310
:10487000CC08A04202D3001BDC082243002803D04E
:104880001B0901D00909E3E7101C10BC7047002880
:1048900001D00020C04307B4024802A14018029092
:1048A00003BDC046190000000029F0D003B5FFF792
:1048B000B9FF0EBC4243891A1847C0467047C0462C
:1048C00008B5054B054803331B1A062B03D9044BC7
:1048D000002B00D0984708BD4CF1FF1F4CF1FF1F83
:1048E000000000000648074908B5091A8910CB0FD7
:1048F0005918491003D0044B002B00D0984708BD2D
:104900004CF1FF1F4CF1FF1F00000000084B10B5D9
:104910001A781C1C002A09D1FFF7D2FF054B002B87
:1049200002D0054800E000BF0123237010BDC0463F
:1049300000F2FF1F000000004093000008B5094B83
:10494000002B03D00848094900E000BF084803686D
:10495000002B03D0074B002B00D09847FFF7C2FF76
:1049600008BDC046000000004093000004F2FF1F95
:104970004CF1FF1F0000000080B500AFBD4680BDB8
:1049800080B500AFBD4680BD80B500AFBD4680BDDF
:1049900080B500AFBD4680BD80B500AFBD4680BDCF
:1049A00080B500AFBD4680BD80B500AFBD4680BDBF
:1049B00080B500AFBD4680BD80B500AFBD4680BDAF
:1049C00080B500AFBD4680BD80B500AFBD4680BD9F
:1049D00080B500AF02F02AF9012003F0C7F803F018
:1049E00015F800F0BBFCFEE790B585B000AF041CE5
:1049F000081C111C1A1CFB1D1C70BB1D18707B1D94
:104A00001970BB1C1A80BB1D1B78032B00D075E0EE
:104A1000BB1C1B88002B07D1484A3B6A1A60042341
:104A20001A1C7B6A1A8084E03B1C0F3300221A7028
:104A30003B1C0E3301221A7024E03B1C0F33197803
:104A40003F4A0B1C9B005B185B00D1184979D318B7
:104A50009B791B020B439BB2BA1C12889A420AD163
:104A60007B1D1B78072B05D83B1C0E337A1D127853
:104A70001A700CE00BE03B1C0F331A783B1C0F3311
:104A800001321A703B1C0F331B78002BD5D03B1C16
:104A90000F3319782A4A0B1C9B005B185B00D11856
:104AA000C979D018008900020143D3189B7A1B06EC
:104AB0000B431A1C3B1C0E331B789B00D3181A683F
:104AC0003B6A1A603B1C0F3319781D4A0B1C9B0074
:104AD0005B185B00D118C97AD018808900020143A5
:104AE000D3189B7B1B060B431A1C3B1C0E331B78F5
:104AF000D3181B781A1C7B6A1A801AE0BB1D1B781E
:104B0000072B14D8BB1D1A780E4B9200D2583B6A63
:104B10001A603B6A1B68002B01D1CD230AE0BB1D44
:104B20001A78094B5200D25A7B6A1A8001E0CD23D1
:104B300000E00023181CBD4605B090BD88F0FF1FA3
:104B4000D8910000889100007891000080B582B073
:104B500000AF3A60FB1D021C1A70BB1D0A1C1A70C4
:104B6000BB1D1B78012B07D8BB1D1B78054AD25CE7
:104B70003B681A70002300E0CD23181CBD4602B02C
:104B800080BDC0461CF2FF1F80B582B000AFFB1D88
:104B90001870BB1D19707B1D1A70BB1D1B78012B73
:104BA00007D8BB1D1B78054A791D0978D15400230D
:104BB00000E0CD23181CBD4602B080BD1CF2FF1FD3
:104BC00080B584B000AF0A1CFB1D011C19703B1D91
:104BD0001A803B1C0F3300221A7011E03B1C0F336C
:104BE0001B780C4AD35C3A1D12889A4201D10123EA
:104BF0000CE03B1C0F331A783B1C0F3301321A7048
:104C00003B1C0F331B78012BE8D90023181CBD4631
:104C100004B080BDF491000080B582B000AF021CEA
:104C2000FB1D1A700123181CBD4602B080BDC04692
:104C300080B582B000AF021CFB1D1A70024B181C1D
:104C4000BD4602B080BDC0466891000080B500AF8F
:104C500002F0D8F8BD4680BD80B584B000AF786062
:104C60000123FB600023BB607B68002B04D0002382
:104C7000FB600323BB6016E015E00F4B9B68181C1C
:104C800001F0A8FBC82002F0A5FE0B4B9B68181C86
:104C900001F094FBC82002F09DFEFB68002B02D1BE
:104CA000BB68013BBB60FB68002BE6D1BB68002BF7
:104CB000E3DCBD4604B080BDA8FAFF1F80B584B018
:104CC00000AF78600023FB603B1D1B781A1C0F238C
:104CD0001340043B0B2B00D97BE09A00474BD318C1
:104CE0001B689F463B1D5B78181C04F063FA012388
:104CF000FB606EE03B1D5B78DBB25BB2002B1ADA27
:104D00003B1D5B78F02B02D0F72B08D00FE004F0AE
:104D10003DFA3B1D5B78181C04F04CFA0AE03B1D81
:104D20005B78181C04F046FA0123FB6002E00123C3
:104D3000FB60C0460BE0324B1B68002B07D03B1DCD
:104D40005B78181C04F036FA031CFB6041E040E07D
:104D50003B1D5B78181C04F02DFA3B1D9B78181C3A
:104D600004F028FA0123FB6033E03B1D5B78F02B55
:104D700001D104F00BFA3B1D5B78181C04F01AFA01
:104D8000031CFA681343FB603B1D9B78181C04F05E
:104D900011FA031CFA681343FB603B1DDB78181CF7
:104DA00004F008FA031CFA681343FB6011E03B1D92
:104DB0005B78181C04F0FEF93B1D9B78181C04F06E
:104DC000F9F93B1DDB78181C04F0F4F90123FB60B2
:104DD000C046FB68002B01D004F0C6F9094B1B68E4
:104DE000002B03D1084B1B68002B01D0012300E0EE
:104DF0000023181CBD4604B080BDC046F8910000D9
:104E0000C4FEFF1F68FEFF1FBCFEFF1F80B582B0FF
:104E100000AF78603B1D1B781A1C0F2313400F2B2B
:104E20000AD89A00074BD3181B689F46012305E058
:104E3000022303E0032301E0C0460023181CBD4603
:104E400002B080BD2892000080B582B000AF7860CB
:104E5000C04601F09FFC031C032B28D97B68181C5B
:104E600001F030FB031C002B01D0002320E07B6805
:104E70000133181C01F026FB031C002B01D000237A
:104E800016E07B680233181C01F01CFB031C002B8E
:104E900001D000230CE07B680333181C01F012FBE7
:104EA000031C002B01D0002302E0012300E00023BB
:104EB000181CBD4602B080BD80B582B000AF7860DE
:104EC00001F072FC031C80225200D11A7A68002380
:104ED00091425B41DBB2181CBD4602B080BDC046AA
:104EE00080B582B000AF78603B1D1B78181C01F0C4
:104EF0005DFB3B1D5B78181C01F058FB3B1D9B784C
:104F0000181C01F053FB3B1DDB78181C01F04EFB15
:104F1000BD4602B080BDC04680B582B000AF7860AB
:104F20007B6804221A70074B1A787B685A70054B0D
:104F30005A787B689A70034B9A787B68DA70BD4622
:104F400002B080BD0C04002080B582B000AF786054
:104F5000114B1B68022B08D0032B0AD0012B00D069
:104F600017E07B6805221A7007E07B6806221A703A
:104F700003E07B6807221A70C046084B1A787B68EA
:104F80005A70064B5A787B689A70044B9A787B6803
:104F9000DA70BD4602B080BD00F6FF1F0C04002091
:104FA00080B582B000AF7860274B1B78EF2B06D816
:104FB000254B1B781B09DAB27B681A7034E0224B50
:104FC0001B78F02B1DD1214B1B78F02B03D17B6874
:104FD00004221A7028E01E4B1B68022B08D0032BFA
:104FE0000AD0012B00D02BE07B6805221A7007E065
:104FF0007B6806221A7003E07B6807221A70C0469D
:1050000012E0144B1B68012B03D17B6802221A703B
:105010000AE0104B1B68022B03D17B6803221A7035
:1050200002E07B680F221A70074B1A787B685A706F
:10503000064B1A787B689A70044B5A787B68DA7052
:10504000BD4602B080BDC046080400200C0400200C
:1050500000F6FF1F04F6FF1F80B582B000AF786036
:105060000A1CFB1C1A70FB1C1B78F72B0ED97B68E3
:105070000F221A707B68FA1C12785A707B68002223
:105080009A707B680022DA700123CCE0FB1C1B784D
:10509000F72B19D1664B1B68664AF91C0978D15465
:1050A000634B1B685A1C624B1A607B68181CFFF725
:1050B0004BFF614B00221A705D4B00221A605F4B60
:1050C00000221A600123AEE0FB1C1B785BB2002BB0
:1050D00028DB594B1B78002B22D0554B1B68554AB7
:1050E000F91C0978D154524B1B685A1C504B1A605A
:1050F0004F4B1A68514B1B689A4211D14E4B1B788B
:10510000F02B04D17B68181CFFF706FF03E07B68D7
:10511000181CFFF745FF464B00221A60012382E06E
:10512000002380E0FB1C1A78F0231340B02B0ED034
:1051300006DC902B0BD0A02B09D0802B07D01EE0D3
:10514000D02B10D0E02B02D0C02B0CD017E03A4B64
:10515000FA1C12781A70364B00221A60374B022262
:105160001A6000235FE0344BFA1C12781A70304B3F
:1051700000221A60314B01221A60002353E0FB1C0D
:105180001B78F03B062B4AD89A002D4BD3181B688E
:105190009F46294BFA1C12781A70284B03221A607A
:1051A000244BFA1C12781A70214B01221A6000233A
:1051B00039E0214BFA1C12781A701D4B00221A603C
:1051C0001E4B01221A6000232DE01B4BFA1C1278A3
:1051D0001A70174B00221A60184B02221A60002323
:1051E00021E0154BFA1C12781A70114B00221A603C
:1051F000124B01221A60002315E00F4B00221A7097
:105200007B6805221A707B68FA1C12785A707B68DA
:1052100000229A707B680022DA70012303E0064BBB
:1052200000221A700023181CBD4602B080BDC04683
:1052300000F6FF1F0C0400200804002004F6FF1FE6
:105240006892000080B584B000AF786014E03B1C29
:105250000F33181C01F0F4FD031C002B0CD13B1C78
:105260000F331B787A68101C191CFFF7F5FE031C1E
:10527000002B01D0012305E001F0CCFE031C002B24
:10528000E5D10023181CBD4604B080BD80B582B0B6
:1052900000AF786001F0C8FE031C80225200D11AD2
:1052A0007A68002391425B41DBB2181CBD4602B014
:1052B00080BDC04680B582B000AF78607B68181CA6
:1052C000FFF7A4FD031C022B0AD0032B13D0012BE4
:1052D00000D020E03B1D5B78181C01F025FE1AE091
:1052E0003B1D5B78181C01F01FFE3B1D9B78181CB2
:1052F00001F01AFE0FE03B1D5B78181C01F014FE54
:105300003B1D9B78181C01F00FFE3B1DDB78181C21
:1053100001F00AFEC046BD4602B080BD80B582B035
:1053200000AF786002F0E4FA031C032B13D93B1D95
:105330001B78181C02F014FA3B1D5B78181C02F055
:105340000FFA3B1D9B78181C02F00AFA3B1DDB7814
:10535000181C02F005FABD4602B080BD80B58AB0C7
:1053600000AF00237B62FB1D00221A7001F026FAB9
:1053700001F084F8784B181C402102F0ADFB031CAF
:105380000C2B05D1754B9B68181C01F017F897E0A2
:10539000724B9B68181C01F01DF800233B627B6A6E
:1053A000002B1CD03B1C08331B781B09DBB2FB61B4
:1053B000FB69002B07D10420FFF77EFD031C5A4236
:1053C0005341DBB23B62FB69012B08D10420FFF79C
:1053D0005DFF031C5A425341DBB23B6265E064E06F
:1053E0007B6A002B21D1FB1D181C02F02FF9012331
:1053F0007B623B1C08331B781B09DBB2BB61BB69BA
:10540000002B07D10420FFF757FD031C5A425341DC
:10541000DBB23B62BB69012B07D10420FFF736FFEB
:10542000031C5A425341DBB23B623B6A002B3CD126
:105430007B6A002B05D13B1C0833181C02F006F9CF
:1054400006E0FB1D1A783B1C08331A7000237B62B0
:105450003B1C08330133181C02F0F8F83B1C0833DE
:105460000233181C02F0F2F83B1C08330333181CFB
:1054700002F0ECF83B1C08331B781B09DBB27B61A4
:105480007B69002B0AD1BB68181CFFF717FC031CB3
:10549000002B03D1BB68181CFFF722FD7B69012B91
:1054A00003D1BB68181CFFF705FF3B6A002B07D12F
:1054B00002F02AF9031C1A1C7B6AD318032B8FDC19
:1054C000274B1B68002B21D1264B1B68002B1DD1BD
:1054D0003B1C0833181CFFF7B7FC031C3B613B69FE
:1054E000002B13D03B1C08331B781A1CF0231340ED
:1054F00002D0102B05D009E0BB68181CFFF70EFF87
:1055000004E0BB68181CFFF7D5FEC0463B1C0833FF
:10551000181CFFF797FE031CFB60FB68002B1AD0DA
:105520003B1C08331A780F231340DAB23B1C0833B4
:105530001A703B1C08331B7810221343DAB23B1C51
:1055400008331A70BB68181CFFF7E8FEBB68181C0C
:10555000FFF7C6FC0EE70DE700F4FF1FA8FAFF1FD8
:1055600068FEFF1FBCFEFF1F80B582B000AF7860F1
:105570003960BD4602B080BD80B58AB000AFF8602A
:10558000B9607A607B687B6204233B620323FB6122
:105590000223BB6101237B6101233B61FA68BB6885
:1055A0009A4202D07B68002B00D14DE049E0FB69B4
:1055B000BA68134018D1FB69FA68134014D13A6AEB
:1055C0007B6A9A4210D8FB68BA6812681A603B6A14
:1055D000FA68D318FB603B6ABA68D318BB603B6AB1
:1055E0007A6AD31A7B622CE07B69BA68134018D1BF
:1055F0007B69FA68134014D1BA697B6A9A4210D861
:10560000FB68BA6812881A80BB69FA68D318FB6015
:10561000BB69BA68D318BB60BB697A6AD31A7B626C
:105620000FE0FB68BA6812781A703B69FA68D31801
:10563000FB603B69BA68D318BB603B697A6AD31ACE
:105640007B627B6A002BB2D1BD460AB080BDC046EA
:1056500090B583B000AF2D4B002B00D153E0002359
:105660007B6032E029497A68131C5B009B189B0021
:10567000CB18586825497A68131C5B009B189B005F
:105680005958224C7A68131C5B009B189B00E31846
:1056900008331B681A1CFFF76FFF1C497A68131C3C
:1056A0005B009B189B00CB18596818487A68131C3C
:1056B0005B009B189B00C31808331B68081C191C4F
:1056C000FFF752FF7B6801337B6010497A68131C37
:1056D0005B009B189B005B58002BC3D10B497A6879
:1056E000131C5B009B189B00CB185B68002BB9D187
:1056F00006497A68131C5B009B189B00CB18083383
:105700001B68002BAED1BD4603B090BDAC94000029
:1057100080B588B000AF274A274BD31AFB61264BD0
:10572000BB6104237B6103233B610223FB600123F4
:10573000BB6001237B60FB69002B00D136E032E0C7
:105740003B69BA6913400FD17A69FB699A420BD859
:10575000BB6900221A607B69BA69D318BB617B6997
:10576000FA69D31AFB611EE0BB68BA6913400FD116
:10577000FA68FB699A420BD8BB6900221A80FB6861
:10578000BA69D318BB61FB68FA69D31AFB610AE0F6
:10579000BB6900221A707B68BA69D318BB617B6849
:1057A000FA69D31AFB61FB69002BC9D1BD4608B069
:1057B00080BDC046000A002000F2FF1F80B500AF88
:1057C000BD4680BD80B500AFBD4680BD80B582B00E
:1057D00000AF0E4B7B60FFF7F1FF01F061F97B68D2
:1057E000181C002805D0854681B00020C0430090D9
:1057F00001B0FFF78DFFFFF72BFFFFF7E3FF044B2F
:105800000020191CFFF7E4F8FEE7C0460030002036
:1058100008F6FF1F80B584B000AF78604F4BFB6087
:10582000FB6800221A81FB6800221A82FB680022B2
:10583000DA60FB6800225A82FB6800221A83FB6848
:1058400000225A61FB687A68DA61454BFA681A608F
:10585000444A4449444BCB58802149011943424BA7
:10586000D150424B414A1169414A0A40C021890046
:105870000A431A613D4B3D4A51693D4A0A40C021E5
:1058800089000A435A613B4A3A49C3239B00C958DD
:10589000394B0B40802109041943C3239B00D1508D
:1058A000344B344A12688021C9010A431A60334BD1
:1058B000324AD278D2B208218A43D2B2DA702F4B60
:1058C0002E4AD278D2B204218A43D2B2DA70FB686F
:1058D00000221A80FB6800225A60284B00229A702E
:1058E000264B00229A71254B00225A71234B234AE2
:1058F0001278D2B21F218A43D2B21A701F4B3022C3
:105900005A701E4B1D4AD278D2B2D2B208210A4335
:10591000D2B2D2B2DA70194B184AD278D2B2D2B21D
:1059200004210A43D2B2D2B2DA70144B134AD278AD
:10593000D2B220210A43D2B2DA70104B0F4A9279C8
:10594000D2B20F210A43D2B29A710D4BFA681A6093
:10595000FB68181CBD4604B080BDC04630F6FF1F72
:1059600050F6FF1F007004403410000000C00440D7
:10597000FFF8FFFE00E100E0FFFF00FF00C006406F
:10598000A8FAFF1F80B586B000AFF860B960BB1DF4
:105990001A80FB687B61BB1D1B88002B01D184230F
:1059A00033E07B691B8A002B01D008232DE03B1CD0
:1059B0001333EFF3108072B61870164B1B78DBB2FE
:1059C0000133DBB2134A191C1170012B04D13B1CAB
:1059D00013331A78104B1A707B69BA68DA607B69E6
:1059E000BA1D12881A827B6900221A81094B1B7822
:1059F000DBB2013BDBB2074A191C1170002B03D14B
:105A0000054B187880F310880023181CBD4606B09B
:105A100080BDC04691F8FF1F1804002080B586B0F5
:105A200000AFF860B960BB1D1A80FB687B61BB1DCD
:105A30001B88002B01D1842348E07B691B8B002B42
:105A400001D0082342E03B1C1333EFF3108072B601
:105A50001870204B1B78DBB20133DBB21D4A191CD6
:105A60001170012B04D13B1C13331A781A4B1A7096
:105A70007B69BA685A617B69BA1D12881A837B698F
:105A800000225A827B691B88012213439AB27B69E8
:105A90001A80124B114AD278D2B2802149420A436D
:105AA000D2B2DA700D4B0D4A9279D2B29A71094B8B
:105AB0001B78DBB2013BDBB2064A191C1170002BCC
:105AC00003D1054B187880F310880023181CBD46BD
:105AD00006B080BD91F8FF1F1804002000C00640EA
:105AE00090B583B000AF7860124BDB79DBB21C1C41
:105AF0007B681B8A002B1AD07B68DB68591C7A688C
:105B0000D160E2B21A707B681B8901339AB27B685C
:105B10001A817B681A897B681B8A9A4207D17B6845
:105B200000221A827B68DB69181C01F0B9FABD46B5
:105B300003B090BD00C0064080B582B000AF786071
:105B40007B685A8A7B681B8B9A421CD219497B68F6
:105B50005B69581C7A6850611B78CB717B685B8AE3
:105B600001339AB27B685A827B685A8A7B681B8BA6
:105B70009A421CD17B6800221A837B68DB69181C5F
:105B800001F0F0FA13E00B4B0A4AD278D1B27F222F
:105B90000A40D2B2DA70074B064A9279D2B29A71B1
:105BA0007B681B88012293439AB27B681A80BD46AA
:105BB00002B080BD00C00640F0B5474680B482B058
:105BC00000AF354B1B687B60344B1B79DBB21C1C70
:105BD000002500260F23234044D0304BDB79DBB275
:105BE00098460223234013D0202323400DD0424661
:105BF000002A0AD1331C0133DEB27B681B880222E3
:105C000013439AB27B681A8002E004232B439DB2AF
:105C10000823234002D001232B439DB201232340BC
:105C200002D002232B439DB20423234002D0082339
:105C30002B439DB27B685A682B1C1A437B685A60C1
:105C40002023221C9A43131C1C1C002E05D07B68A9
:105C5000DB69181C01F044FB04E07B68DB69181C5D
:105C600001F0F4FA2023234003D07B68181CFFF7CF
:105C700037FF7B681B881A1C0123134006D0802342
:105C8000234003D07B68181CFFF756FFBD4602B0C7
:105C900004BC9046F0BDC04650F6FF1F00C0064051
:105CA00080B584B000AF786039607B68FB603B1CD6
:105CB0000B33EFF3108072B61870144B1B78DBB205
:105CC0000133DBB2114A191C1170012B04D13B1CAA
:105CD0000B331A780E4B1A70FB685A683B681A60CF
:105CE000FB6800225A60094B1B78DBB2013BDBB238
:105CF000064A191C1170002B03D1054B187880F34C
:105D000010880023181CBD4604B080BD91F8FF1F09
:105D10001804002080B584B000AF7860604BFB6051
:105D2000FB6800221A81FB6800221A82FB680022AD
:105D3000DA60FB6800225A82FB6800221A83FB6843
:105D400000225A61FB687A68DA61564BFA681A6079
:105D5000554A5549554BCB588021C9001943534BDF
:105D6000D150534B524A9169524A0A40C02189008E
:105D70000A439A614E4B4E4AD1694E4A0A40C021AD
:105D800089000A43DA614C4A4B49C3239B00CB5834
:105D9000FF218B4380211943C3239B00D150464BE5
:105DA000454A1268802149010A431A60434B434A1D
:105DB000D278D2B208218A43D2B2DA703F4B3F4A3E
:105DC000D278D2B204218A43D2B2DA70FB680022C0
:105DD0001A80FB6800225A60FB6800229A70374BD9
:105DE00000229A70354B00229A71344B00229A722D
:105DF000324B00225A712C4A2B49314BC958314B36
:105E00000B408021C90419432D4BD1502B4B2B4AF9
:105E10001278D2B21F218A43D2B21A70274B0222C3
:105E20005A70264B254A927AD2B2D2B21F218A43A7
:105E3000D2B203210A43D2B2D2B29A721F4B1F4A86
:105E4000D27AD2B2D2B202210A43D2B2D2B2DA723A
:105E50001A4B1A4AD278D1B25F220A40D2B2DA7013
:105E6000164B164A9279D2B20F218A43D2B29A7156
:105E7000124B124AD278D2B208218A43D2B2DA70D7
:105E80000E4B0E4AD278D2B204218A43D2B2DA70D3
:105E90000D4BFA685A60FB68181CBD4604B080BD03
:105EA00054F6FF1F74F6FF1F00700440341000000A
:105EB00000C00440FFF8FFFE00E100E000A0064043
:105EC00004100000FFFFFFF3A8FAFF1F80B584B0A5
:105ED00000AF78607B68FB60FB689B78002B26D165
:105EE000FB6801229A70144B134AD278D2B2D2B214
:105EF00008210A43D2B2D2B2DA700F4B0E4AD278DE
:105F0000D2B2D2B204210A43D2B2D2B2DA700A4B70
:105F1000094AD278D2B220210A43D2B2DA70064BB3
:105F2000054A9279D2B20F210A43D2B29A71002364
:105F3000181CBD4604B080BD00A0064080B584B0EA
:105F400000AF78607B68FB60FB689B78002B22D0F9
:105F5000FB6800229A70124B114AD278D1B25F22AC
:105F60000A40D2B2DA700E4B0D4A9279D2B20F21AA
:105F70008A43D2B29A710A4B094AD278D2B2082126
:105F80008A43D2B2DA70064B054AD278D2B20421E3
:105F90008A43D2B2DA700023181CBD4604B080BD1B
:105FA00000A0064080B586B000AFF860B960BB1DA8
:105FB0001A80FB687B617B699B78002B01D10723EA
:105FC00039E0BB1D1B88002B01D1842333E07B69A2
:105FD0001B8A002B01D008232DE03B1C1333EFF369
:105FE000108072B61870164B1B78DBB20133DBB22F
:105FF000134A191C1170012B04D13B1C13331A785E
:10600000104B1A707B69BA68DA607B69BA1D128816
:106010001A827B6900221A81094B1B78DBB2013B93
:10602000DBB2074A191C1170002B03D1054B1878FD
:1060300080F310880023181CBD4606B080BDC04602
:1060400091F8FF1F1804002080B586B000AFF860FB
:10605000B960BB1D1A80FB687B617B699B78002B54
:1060600001D107234EE0BB1D1B88002B01D18423E7
:1060700048E07B691B8B002B01D0082342E03B1CCE
:106080001333EFF3108072B61870204B1B78DBB21D
:106090000133DBB21D4A191C1170012B04D13B1CCA
:1060A00013331A781A4B1A707B69BA685A617B6984
:1060B000BA1D12881A837B6900225A827B691B8869
:1060C000012213439AB27B691A80124B114AD2788B
:1060D000D2B2802149420A43D2B2DA700D4B0D4A46
:1060E0009279D2B29A71094B1B78DBB2013BDBB2D9
:1060F000064A191C1170002B03D1054B187880F348
:1061000010880023181CBD4606B080BD91F8FF1F03
:106110001804002000A0064090B583B000AF78605E
:10612000124BDB79DBB21C1C7B681B8A002B1AD05C
:106130007B68DB68591C7A68D160E2B21A707B68B0
:106140001B8901339AB27B681A817B681A897B6844
:106150001B8A9A4207D17B6800221A827B68DB691E
:10616000181C00F061FBBD4603B090BD00A00640C6
:1061700080B582B000AF78607B685A8A7B681B8BE1
:106180009A421CD219497B685B69581C7A68506135
:106190001B78CB717B685B8A01339AB27B685A8229
:1061A0007B685A8A7B681B8B9A421CD17B680022D1
:1061B0001A837B68DB69181C00F098FB13E00B4B1B
:1061C0000A4AD278D1B27F220A40D2B2DA70074BA3
:1061D000064A9279D2B29A717B681B880122934356
:1061E0009AB27B681A80BD4602B080BD00A006400E
:1061F000F0B5474680B482B000AF364B1B687B6079
:10620000354B1B79DBB21C1C002500260F232340D5
:1062100047D0314B0F221A712F4BDB79DBB29846F6
:106220000223234013D0202323400DD04246002ACE
:106230000AD1331C0133DEB27B681B880222134370
:106240009AB27B681A8002E004232B439DB2082394
:10625000234002D001232B439DB20123234002D0CF
:1062600002232B439DB20423234002D008232B4357
:106270009DB27B685A682B1C1A437B685A602023A6
:10628000221C9A43131C1C1C002E05D07B68DB6962
:10629000181C00F0E9FB04E07B68DB69181C00F0C7
:1062A00099FB2023234003D07B68181CFFF734FFA1
:1062B0007B681B881A1C0123134006D080232340CF
:1062C00003D07B68181CFFF753FFBD4602B004BC27
:1062D0009046F0BD74F6FF1F00A0064080B584B064
:1062E00000AF786039607B68FB60FB689B78002BAF
:1062F00001D107232AE03B1C0B33EFF3108072B669
:106300001870144B1B78DBB20133DBB2114A191C35
:106310001170012B04D13B1C0B331A780E4B1A70F1
:10632000FB685A683B681A60FB6800225A60094B98
:106330001B78DBB2013BDBB2064A191C1170002B43
:1063400003D1054B187880F310880023181CBD4634
:1063500004B080BD91F8FF1F1804002080B584B000
:1063600000AF7860104BFB60FB687A681A600F4BD7
:106370000E4A526901210A435A610C4B0B4A1268BA
:1063800001218A431A600A4B094A1168094A0A40E6
:10639000802149000A431A60074BFA689A60FB683B
:1063A000181CBD4604B080BD78F6FF1F40F00F40BA
:1063B00000A00440FFF8FFFEA8FAFF1F80B582B0DE
:1063C00000AF7860024B01229A60BD4602B080BDEA
:1063D00040F00FF880B582B000AF7860024B012228
:1063E0005A60BD4602B080BD40F00FF880B500AFE6
:1063F0001B4B1B78002B24D01A4B1B68181CFFF773
:1064000065FD184B1A68184B101C191C0122FFF768
:10641000C9FD164B1B88002B1FD0154B1B88202253
:1064200013439AB2124B1A800E4B1A68114B1B88F9
:10643000191C114BCB18101C191C0122FFF704FE6C
:106440000BE00B4B1A88DF2313409AB2084B1A80DB
:10645000044B1B68181CFFF771FDBD4680BDC0468C
:106460007CF6FF1F1404002088F7FF1F8AF7FF1F28
:106470007EF6FF1F8CF7FF1F90F7FF1F80B500AF60
:10648000064B1B78002B04D1044B01221A70FFF736
:10649000ADFF0023181CBD4680BDC0467CF6FF1F23
:1064A00080B500AF064B1B78002B04D0044B0022B4
:1064B0001A70FFF79BFF0023181CBD4680BDC04625
:1064C0007CF6FF1F80B584B000AF78603B1C0F33B3
:1064D00000221A702D4B1B88002B4DD03B1C0E3315
:1064E000EFF3108072B61870294B1B78DBB20133C2
:1064F000DBB2274A191C1170012B04D13B1C0E334F
:106500001A78244B1A70214B1B88013B9AB21F4BFF
:106510001A80214B1B885A1C91B21F4A11801F4AB6
:10652000D25C7B681A701C4B1B88FF2B02D91A4B5C
:1065300000221A801A4B1B881A1C1A4B134001D0D8
:10654000192300E000233A1C0F321370144B1A88F1
:10655000154B13409AB2124B1A800D4B1B78DBB2CD
:10656000013BDBB20A4A191C1170002B06D1094B02
:10657000187880F3108801E00A2302E03B1C0F33F7
:106580001B78181CBD4604B080BDC04680F6FF1FB6
:1065900091F8FF1F1804002082F6FF1F88F6FF1FE6
:1065A0007EF6FF1F41080000B6F7FFFF80B584B0FC
:1065B00000AF021CFB1D1A70314B1A8880235B0050
:1065C0009A4201D10B2357E03B1C0F33EFF31080AD
:1065D00072B618702B4B1B78DBB20133DBB2294A41
:1065E000191C1170012B04D13B1C0F331A78264B58
:1065F0001A70234B1B8801339AB2214B1A80234B0C
:106600001B885A1C91B2214A1180214AF91D097830
:10661000D1541E4B1B88FF2B02D91C4B00221A8021
:106620001C4B1B78002B18D01B4B1B881A1C2023DB
:10663000134012D1184B1B88202213439AB2164BD9
:106640001A80164B1A68164B1B88191C104BCB1856
:10665000101C191C0122FFF7F7FC0A4B1B78DBB258
:10666000013BDBB2074A191C1170002B03D1064B0A
:10667000187880F310880023181CBD4604B080BD34
:106680008AF7FF1F91F8FF1F180400208EF7FF1FE5
:1066900090F7FF1F7CF6FF1F7EF6FF1F14040020FB
:1066A0008CF7FF1F80B582B000AFFB1DEFF31080A9
:1066B00072B61870144B1B78DBB20133DBB2124A8E
:1066C000191C1170012B03D1FB1D1A780F4B1A7086
:1066D0000F4B00221A800F4B00221A800E4B002213
:1066E0001A80094B1B78DBB2013BDBB2064A191C4E
:1066F0001170002B03D1054B187880F3108800230C
:10670000181CBD4602B080BD91F8FF1F1804002080
:1067100080F6FF1F84F6FF1F82F6FF1F80B582B050
:1067200000AFFB1DEFF3108072B61870144B1B788E
:10673000DBB20133DBB2124A191C1170012B03D1F9
:10674000FB1D1A780F4B1A700F4B00221A800F4B4B
:1067500000221A800E4B00221A80094B1B78DBB2F4
:10676000013BDBB2064A191C1170002B03D1054B0B
:10677000187880F310880023181CBD4602B080BD35
:1067800091F8FF1F180400208AF7FF1F8EF7FF1FE4
:106790008CF7FF1F80B500AF024B1B88181CBD464D
:1067A00080BDC04680F6FF1F80B500AF024B1B883E
:1067B000181CBD4680BDC0468AF7FF1F80B500AFDC
:1067C000104B00221A80104B00221A700F4B00222F
:1067D0001A800F4B00221A800E4B00221A800E4B9B
:1067E00000221A800D4B00221A800D4B00221A80C5
:1067F0000020FFF78FFA021C0A4B1A60FFF7F6FD24
:10680000BD4680BD7EF6FF1F7CF6FF1F80F6FF1F92
:1068100082F6FF1F84F6FF1F8AF7FF1F8CF7FF1F0A
:106820008EF7FF1F1404002090B583B000AF78608E
:106830000024284B1B88FF2B23D8264B1B880133B1
:106840009AB2244B1A80244B1B885A1C91B2224ABC
:106850001180224A1178224AD1541F4B1B88FF2BEA
:1068600002D91D4B00221A8004232343DCB2194BAA
:106870001A8880235B009A420DD102232343DCB2A5
:1068800009E0184B1B88402213439AB2154B1A801B
:1068900001232343DCB2221C0123134002D0FEF764
:1068A00083F80BE0221C0423134001D0FEF780F88C
:1068B000221C0223134001D0FEF782F80A4B1A680B
:1068C000064B101C191C0122FFF76CFBBD4603B0E0
:1068D00090BDC04680F6FF1F84F6FF1F88F7FF1F9C
:1068E00088F6FF1F7EF6FF1F1404002080B584B0D9
:1068F00000AF78603B1C0E3300221A802F4B1B88A0
:106900001A1C2023134007D03B1C0E333A1C0E32B6
:10691000128802210A431A80294B1B8801339AB23C
:10692000274B1A80264B1B88FF2B02D9244B0022B1
:106930001A80244B1B88013B9AB2224B1A80214BB0
:106940001B88002B13D01D4B1B88202213439AB2A7
:106950001A4B1A801C4B1A68194B1B88191C1B4BAD
:10696000CB18101C191C0122FFF76EFB12E0134B11
:106970001A88DF2313409AB2104B1A80144B1B78ED
:10698000002B07D13B1C0E333A1C0E32128801211A
:106990000A431A803B1C0E331A880223134001D08D
:1069A000FEF70AF83B1C0E331A880123134001D06E
:1069B000FEF70AF8BD4604B080BDC0467EF6FF1F54
:1069C0008CF7FF1F8AF7FF1F1404002090F7FF1FAA
:1069D00090F8FF1F80B584B000AF7860204B1A6834
:1069E0003B1C0C33101C191CFFF778FCFB68002BB8
:1069F00031D0FA680223134001D0042300E00023C1
:106A0000184A128813439AB2164B1A80FA68082360
:106A1000134001D0802300E00023124A1288134360
:106A20009AB2104B1A80FB689AB2012313409AB2B3
:106A30000C4B1B8813439AB20A4B1A80FA68042342
:106A4000134001D0022300E00023064A12881343BA
:106A50009AB2044B1A80FDF7A7FFBD4604B080BD73
:106A6000140400207EF6FF1F80B582B000AF78606E
:106A7000044B1B88022213439AB2024B1A80BD4674
:106A800002B080BD7EF6FF1F80B500AFFDF774FF3A
:106A9000BD4680BD80B500AFFFBEBD4680BDC046CF
:106AA00080B500AF524A5349534BD150534A8823C3
:106AB0005B010021D150514A514BC0218902D15074
:106AC0004E4A4E494F4BCB58F821890119434D4B43
:106AD000D1504D4B9B78DBB21A1C0823134007D0D2
:106AE000494B494A9278D2B208210A43D2B29A70ED
:106AF000424A434B4549D150404A4049444BCB5808
:106B0000802149021943424BD1503C4B3B4A11680A
:106B1000404A0A401A60394A38493D4BC9583E4BF1
:106B20000B40802149041943394BD1503B4B3B4A20
:106B3000916C3B4A0A409A64384B384AD16C384AC7
:106B40000A40DA64374B374A5278D2B2D2B2111CBB
:106B500040220A40D2B224210A43D2B2D2B25A70A1
:106B6000314B80221A702F4BA0221A702D4B2D4AC8
:106B7000D278D1B21F220A40D2B2DA70294B052254
:106B80001A71284B18225A71C046264B9B79DBB2EA
:106B90001A1C10231340F8D1C046224B9B79DBB25C
:106BA0001A1C0C231340082BF7D11E4B58225A7184
:106BB000C0461C4B9B79DBB21A1C0C231340082BDC
:106BC000F7D1C046174B9B79DBB21A1C4023134008
:106BD000F8D0144B20221A70C046124B9B79DBB2BE
:106BE0001A1C0C2313400C2BF7D1BD4680BDC046A8
:106BF00000E000E000400000080D000000700440CC
:106C0000441000003810000000D0074000000110C0
:106C100004100000FFFFF3FFFFFFFFFC00900440A3
:106C2000FFF8FFFE004006400050064080B500AF70
:106C3000654A6549654BCB58E0218B434021194398
:106C4000624BD150624B624A1169624A0A40E021AC
:106C5000C9000A431A61604B5F4A5279D2B21F21C0
:106C60008A43D2B25A715C4B5B4A1279D2B2072185
:106C70008A43D2B21A71594B584A1278D2B2D2B260
:106C800073218A43D2B250210A43D2B2D2B21A70CF
:106C9000524B524A5278D2B2D2B263218A43D2B214
:106CA00040210A43D2B2D2B25A704C4B4B4A92782E
:106CB000D2B219218A43D2B29A70494B00221A707B
:106CC000484B484A5169484A0A400421FF310A4367
:106CD0005A61444B434A9169434A0A400421FF31B7
:106CE0000A439A613F4B3F4A51683A4A0A40802121
:106CF00049000A435A603B4B3A4A1169354A0A40F7
:106D0000802149000A431A61384A3849C7239B0049
:106D1000CB581B02190AC7239B00D150344B344A6D
:106D20001168314A0A400421FF310A431A602F4A90
:106D30002E49C6239B00CB58FF21181C8843011CF9
:106D4000C6239B00D1502B4B2A4A91692A4A0A40FC
:106D500002210A439A61234B224AD1681D4A0A4004
:106D6000A021C9000A43DA60194B194A116D194A6A
:106D70000A40E021C9000A431A651C4A1B49C12385
:106D80009B00C9581D4B1940C1239B00D15000F0F6
:106D9000B7FA00F053F9FFF711FD00F0E5FA00F043
:106DA000B5FD00F0C9FC00F033FB0020FFF7D6FA78
:106DB000134B9B68181CFFF701FB002000F0E0FA62
:106DC00062B6BD4680BDC04600700440041000009D
:106DD00000900440FFF8FFFE00F0074000D007409D
:106DE00000E0074000B00440FCF8FFFE00E100E0D6
:106DF00000D0044000C00440FCFFFFFEFFFF00FF86
:106E0000A8FAFF1F80B500AF024A034B0349D150D7
:106E1000FEE7C04600E000E00C0D00000400FA05AB
:106E200080B500AF044B1A68044B101C191C0122DA
:106E3000FEF7A8FDBD4680BD1C0400209CF9FF1F85
:106E400080B584B000AF78603B1C0F3300221A700D
:106E50002D4B1B88002B4DD03B1C0E33EFF31080C5
:106E600072B61870294B1B78DBB20133DBB2274AAC
:106E7000191C1170012B04D13B1C0E331A78244BC2
:106E80001A70214B1B88013B9AB21F4B1A80214B71
:106E90001B885A1C91B21F4A11801F4AD25C7B6822
:106EA0001A701C4B1B88FF2B02D91A4B00221A8028
:106EB0001A4B1B881A1C1A4B134001D0192300E0EF
:106EC00000233A1C0F321370144B1A88154B1340D1
:106ED0009AB2124B1A800D4B1B78DBB2013BDBB22E
:106EE0000A4A191C1170002B06D1094B187880F33F
:106EF000108801E00A2302E03B1C0F331B78181CAA
:106F0000BD4604B080BDC04694F8FF1F91F8FF1F36
:106F10001804002096F8FF1F9CF8FF1F92F8FF1F2F
:106F200041080000B6F7FFFF80B584B000AF021C37
:106F3000FB1D1A702F4B1A8880235B009A4201D1E7
:106F40000B2353E03B1C0F33EFF3108072B6187025
:106F5000294B1B78DBB20133DBB2274A191C1170B5
:106F6000012B04D13B1C0F331A78244B1A70214B90
:106F70001B8801339AB21F4B1A80214B1B885A1C65
:106F800091B21F4A11801F4AF91D0978D1541C4B38
:106F90001B88FF2B02D91A4B00221A801A4B1B8820
:106FA0001A1C2023134012D1174B1B882022134395
:106FB0009AB2154B1A80154B1A68154B1B88191C71
:106FC000104BCB18101C191C0122FEF727FD0A4B91
:106FD0001B78DBB2013BDBB2074A191C1170002B96
:106FE00003D1064B187880F310880023181CBD4687
:106FF00004B080BD9EF9FF1F91F8FF1F1804002008
:10700000A2F9FF1FA4F9FF1F92F8FF1F1C04002024
:10701000A0F9FF1F80B500AF024B1B88181CBD46AE
:1070200080BDC04694F8FF1F80B500AF024B1B889F
:10703000181CBD4680BDC0469EF9FF1F80B500AF3D
:107040000F4B00221A800F4B00221A800E4B002299
:107050001A800E4B00221A800D4B00221A800D4B15
:1070600000221A800C4B00221A800020FEF7D2FB6F
:10707000021C0A4B1A60FFF7D3FEBD4680BDC04616
:1070800092F8FF1F94F8FF1F96F8FF1F98F8FF1F54
:107090009EF9FF1FA0F9FF1FA2F9FF1F1C0400208B
:1070A00090B583B000AF78600024284B1B88FF2B7D
:1070B00023D8264B1B8801339AB2244B1A80244BC9
:1070C0001B885A1C91B2224A1180224A1178224A06
:1070D000D1541F4B1B88FF2B02D91D4B00221A8055
:1070E00004232343DCB2194B1A8880235B009A42A5
:1070F0000DD102232343DCB209E0184B1B88402248
:1071000013439AB2154B1A8001232343DCB2221C8D
:107110000123134002D0FDF733FC0BE0221C0423B3
:10712000134001D0FDF730FC221C0223134001D094
:10713000FDF732FC0A4B1A68064B101C191C012281
:10714000FEF720FCBD4603B090BDC04694F8FF1F7B
:1071500098F8FF1F9CF9FF1F9CF8FF1F92F8FF1F74
:107160001C04002080B584B000AF78603B1C0E3357
:1071700000221A802F4B1B881A1C2023134007D093
:107180003B1C0E333A1C0E32128802210A431A802D
:10719000294B1B8801339AB2274B1A80264B1B8838
:1071A000FF2B02D9244B00221A80244B1B88013B61
:1071B0009AB2224B1A80214B1B88002B13D01D4BF7
:1071C0001B88202213439AB21A4B1A801C4B1A6850
:1071D000194B1B88191C1B4BCB18101C191C0122A6
:1071E000FEF71CFC12E0134B1A88DF2313409AB2FF
:1071F000104B1A80144B1B78002B07D13B1C0E330D
:107200003A1C0E32128801210A431A803B1C0E33AD
:107210001A880223134001D0FDF7BAFB3B1C0E3342
:107220001A880123134001D0FDF7BAFBBD4604B014
:1072300080BDC04692F8FF1FA0F9FF1F9EF9FF1FF7
:107240001C040020A4F9FF1FA4FAFF1F80B584B01E
:1072500000AF7860204B1A683B1C0C33101C191CC3
:10726000FEF71EFDFB68002B31D0FA6802231340A5
:1072700001D0042300E00023184A128813439AB275
:10728000164B1A80FA680823134001D0802300E0CF
:107290000023124A128813439AB2104B1A80FB68DB
:1072A0009AB2012313409AB20C4B1B8813439AB233
:1072B0000A4B1A80FA680423134001D0022300E02D
:1072C0000023064A128813439AB2044B1A80FDF732
:1072D00057FBBD4604B080BD1C04002092F8FF1F80
:1072E00080B582B000AF7860044B1B880222134344
:1072F0009AB2024B1A80BD4602B080BD92F8FF1FC1
:1073000080B500AF0A4B0A4A526810210A435A60FE
:10731000074B074A926810218A439A60044B044A3B
:10732000526972218A4310210A435A61BD4680BDC9
:1073300080F00F4080B500AF0A4B0A4A52688021A6
:107340008A435A60074B074A926880210A439A6031
:10735000044B044A5269C0218A4380210A435A617E
:10736000BD4680BDC0F00F4080B500AF034B034A5F
:10737000526901218A435A61BD4680BD00F10F4028
:1073800080B584B000AF7860104BFB60FB687A6812
:107390001A600F4B0E4A526902210A435A610C4B84
:1073A0000B4A126802210A431A600A4B094A5168C3
:1073B000094A0A40802149000A435A60074BFA688B
:1073C000DA60FB68181CBD4604B080BDB8FAFF1F28
:1073D00040F00F4000A00440FFF8FFFEA8FAFF1F96
:1073E00080B582B000AF7860024B02229A60BD4641
:1073F00002B080BD40F00FF880B582B000AF786079
:10740000024B02225A60BD4602B080BD40F00FF828
:1074100080B500AF584A5849584BCB588021C90213
:107420001943564BD150544A5349554BCB588021A0
:10743000C9021943524BD150524A52499423CB5C52
:10744000DBB202210B43D9B29423D1544D4A80239D
:107450005B004021D1544B4BFF221A74494A8023D0
:10746000FF21D154474A8823FF21D154454A842320
:10747000FF21D154434A8C230021D154414A862311
:107480005B006021D1543F4B00221A753D4A98237E
:107490000021D1543B4AC0230021D154394AC4238E
:1074A0000021D154374AC8230021D154354ACC2376
:1074B0000021D154334AD0230021D154314AD4235E
:1074C0000021D1542F4AD8230021D1542D4ADC2346
:1074D0000021D1542B4AE0230021D154294AE4232E
:1074E0000021D154274AE8230021D154254AEC2316
:1074F0000021D154234AF0230021D154214AF423FE
:107500000021D1541F4AF8230021D1541D4AFC23E5
:107510000021D1541B4A1C4B1B0ADBB201218B43B7
:10752000D9B29C23D154174A174B1B0CD9B2B023A4
:10753000D154144A144B1B0ED9B2B423D154114A5E
:10754000AC230021D1540F4B00221A770D4A84231B
:107550005B000021D1540B4A0A499423CB5CDBB277
:10756000DBB22B218B43DBB201210B43DBB2D9B25F
:107570009423D154BD4680BD007004400410000027
:1075800034100000002007400006002080B584B0C1
:1075900000AF021CFB1D1A703B1C0F3300221A7037
:1075A0003B1C0E33EFF3108072B61870224B1B7821
:1075B000DBB20133DBB2204A191C1170012B04D15C
:1075C0003B1C0E331A781D4B1A701D4B1B78802BF9
:1075D00004D13B1C0F330B221A7018E0194B1B7897
:1075E000194AF91D0978D154154B1B780133DAB2C9
:1075F000134B1A70134B1B780133DAB2114B1A700C
:10760000104B1B78802B02D10E4B00221A700A4BB4
:107610001B78DBB2013BDBB2074A191C1170002B4F
:1076200003D1064B187880F310883B1C0F331B786E
:10763000181CBD4604B080BD91F8FF1F180400203F
:107640003EFBFF1F3CFBFF1FBCFAFF1F80B584B051
:1076500000AF78603B1C0F3300221A703B1C0E33C6
:10766000EFF3108072B61870224B1B78DBB2013337
:10767000DBB2204A191C1170012B04D13B1C0E33C4
:107680001A781D4B1A701D4B1B78002B04D13B1C24
:107690000F330A221A7018E0194B1B78194AD25C72
:1076A0007B681A70154B1B78013BDAB2134B1A70CA
:1076B000134B1B780133DAB2114B1A70104B1B7845
:1076C000802B02D10E4B00221A700A4B1B78DBB2C2
:1076D000013BDBB2074A191C1170002B03D1064B8A
:1076E000187880F310883B1C0F331B78181CBD469C
:1076F00004B080BD91F8FF1F180400203EFBFF1F5F
:107700003DFBFF1FBCFAFF1F80B500AF024B1B788B
:10771000181CBD4680BDC0463EFBFF1F80B500AFB4
:10772000044B1B7880225242D31ADBB2181CBD4690
:1077300080BDC0463EFBFF1F80B500AF054B002259
:107740001A70054B00221A70044B00221A70BD46B5
:1077500080BDC0463CFBFF1F3DFBFF1F3EFBFF1FE4
:1077600080B584B000AF021CFB1D1A703B1C0F33A8
:1077700000221A703B1C0E33EFF3108072B61870A3
:10778000224B1B78DBB20133DBB2204A191C11708B
:10779000012B04D13B1C0E331A781D4B1A701D4B64
:1077A0001B78802B04D13B1C0F330B221A7018E07E
:1077B000194B1B78194AF91D0978D154154B1B78C0
:1077C0000133DAB2134B1A70134B1B780133DAB260
:1077D000114B1A70104B1B78802B02D10E4B0022DC
:1077E0001A700A4B1B78DBB2013BDBB2074A191C4B
:1077F0001170002B03D1064B187880F310883B1CC6
:107800000F331B78181CBD4604B080BD91F8FF1FD4
:1078100018040020C2FBFF1FC0FBFF1F40FBFF1F1F
:1078200080B584B000AF78603B1C0F3300221A7023
:107830003B1C0E33EFF3108072B61870224B1B788E
:10784000DBB20133DBB2204A191C1170012B04D1C9
:107850003B1C0E331A781D4B1A701D4B1B78002BE6
:1078600004D13B1C0F330A221A7018E0194B1B7805
:10787000194AD25C7B681A70154B1B78013BDAB24F
:10788000134B1A70134B1B780133DAB2114B1A7079
:10789000104B1B78802B02D10E4B00221A700A4B22
:1078A0001B78DBB2013BDBB2074A191C1170002BBD
:1078B00003D1064B187880F310883B1C0F331B78DC
:1078C000181CBD4604B080BD91F8FF1F18040020AD
:1078D000C2FBFF1FC1FBFF1F40FBFF1F80B500AFB6
:1078E000024B1B78181CBD4680BDC046C2FBFF1F63
:1078F00080B500AF044B1B7880225242D31ADBB212
:10790000181CBD4680BDC046C2FBFF1F80B500AF3E
:10791000054B00221A70054B00221A70044B0022FE
:107920001A70BD4680BDC046C0FBFF1FC1FBFF1FD4
:10793000C2FBFF1FC046C046C04670470020C0467D
:10794000C046C046C046C04601300928F7D9C046E7
:107950007047C04680B582B000AF021CBB1D1A80C4
:1079600006E0FFF7EBFFBB1DBA1D1288643A1A80D0
:10797000BB1D1B88642BF4D806E0FFF7DBFFBB1DA3
:10798000BA1D12880A3A1A80BB1D1B880A2BF4D82C
:10799000BD4602B080BDC04680B582B000AF786001
:1079A00007E00A4B181CFFF7D5FF7B68084A9B18B5
:1079B0007B607A68054B9A42F3D87B689BB2181CAF
:1079C000FFF7C8FFBD4602B080BDC04660EA0000B8
:1079D000A015FFFF80B584B000AF021CBB1D1A804C
:1079E000094BFB6008E0FB68181CFFF7D5FFBB1DC7
:1079F0001A88BB1D013A1A80BB1D1B88002BF2D1CF
:107A0000BD4604B080BDC04680BB0000034B802251
:107A10005204191DCA671A607047C04600E100E0B1
:107A200070B5141C002902D1274B19704AE00229B5
:107A30000AD10020021C031C012100F08DFB234A07
:107A400001231360204A3CE004292ED11E4B1B78F1
:107A5000012B37D11379527912021A43131C402A91
:107A600000D940239EB20025B5420FD26378227818
:107A70001B021343A27812041343E2781206134345
:107A8000585D0135FFF782FDEDB2EDE7FFF746FEE9
:107A90000E4C00233F2806D90020031C0121021CA4
:107AA00000F05AFB012323600CE0032903D1084BAB
:107AB00000221A7006E0052904D1034A002313703E
:107AC000044A137070BDC046C9FBFF1FC4FBFF1FF3
:107AD000C8FBFF1FCAFBFF1FF8B5061C00F05AF9D0
:107AE0001F4B0C201D78EDB2012D37D11D4F3C6886
:107AF000002C0AD1FFF712FE3F2806D9201C291CB2
:107B0000221C231C00F028FB3D60FFF7E7FE032842
:107B100001D8002022E0144D2C78E4B2002CF8D1DA
:107B2000FFF7DCFE03280CD9271DFFB23019FFF741
:107B300077FE002803D10134E4B2BC42F6D13F2CD9
:107B4000EED901232B7000200221321C231C01F0EE
:107B5000C9FA0028DDD000232B701220F8BDC046E2
:107B6000C9FBFF1FC4FBFF1FC8FBFF1F08B5031C99
:107B700000200449021C01F08FFA002800D0FEE723
:107B800008BDC0461176000008B5044B021C08323F
:107B900000781B680521984708BDC046CCFBFF1F35
:107BA00010B50121041C044A00F00EFF201C012125
:107BB000802200F023FF10BDD0FBFF1F37B56D46BC
:107BC000073501212A1C041C00F0FEFE2B78802BB7
:107BD00005D1034B201C1A78012100F00FFF37BD9F
:107BE000D0FBFF1F08B5437902791B02134382794A
:107BF000052112041343C279120613435A7800F088
:107C0000FDFE08BD73B501220024051C01260021DC
:107C100000F0BEFE331C0196281C211C009440225B
:107C200000F090FE281C211C221C00F0B1FE231C39
:107C30000196281C211C0094402200F083FE311C78
:107C4000281C022200F0DAFE321C281C062100F05B
:107C5000D5FE281C221C902100F0D0FE034B287872
:107C60001B68211C221C984773BDC046CCFBFF1F1C
:107C700008B54278002A06D1C1781023C9011943FA
:107C8000C9B200F0BBFE08BD73B56C460E1CE071B6
:107C900001F05AF91B4B0734051C1E6030D110212E
:107CA000194A207800F0E2FE1221051C174A2078BC
:107CB00000F0DCFE14210543154A207800F0D6FEC2
:107CC000EDB205431321134A207800F0CFFEEDB248
:107CD00005431721104A207800F0C8FEEDB2054395
:107CE00016210E4A207800F0C1FEEDB205430322B2
:107CF000201C012100F082FE094B0322EDB21A7014
:107D0000281C76BDCCFBFF1FF5770000D57700005F
:107D100091770000AD77000061780000797700006E
:107D2000D0FBFF1FF0B587B06C466D460F3416359B
:107D30006E46019220702A1C0F1C201C0121173650
:107D4000029300F041FE201C0621321C00F03CFE94
:107D50002B78802B12D133789A070FD52078FCF737
:107D60005BFF01280AD172B6201C00F013FB002231
:107D7000201C01212A7000F041FE62B62B78002001
:107D8000802B05D0201C391C019A029B00F0A0FA20
:107D900007B0F0BD70470000031C00B5FF20062BA4
:107DA00012D89800C0B2012901D10230C0B212210C
:107DB00043084B43054A995CD3185A78044B120286
:107DC0000A439A4200D1FF2000BDC046E0FBFF1FDE
:107DD000FFFF0000F8B5324C324B0027902267704D
:107DE000920018700D1C3048FF2101F0B5FB2F4E9A
:107DF0002F4B8022D200301C391C1E6001F0ACFBDE
:107E0000627B802313436373301C627B244B52B22A
:107E1000002AFADB274AFF2111705A7B40210A43CE
:107E20005A73254B8022596852040A435A60002D28
:107E300004D01968802212060A4302E01A68520030
:107E400052081A6059681D4A0A405A60010A012204
:107E500091431B4BC9B21970010C1A4BC9B219706E
:107E6000194B010E197080239B00C018174B10216D
:107E70001860174B61721A70164BBF20187060782B
:107E80007F2303406370144B187802431A701A78EA
:107E9000002011431970114B84221A77F8BDC04697
:107EA000FF200740D8FBFF1FE0FBFF1F000600205C
:107EB000DCFBFF1F40F1FF1F00700440FFFFFFFECF
:107EC0009C200740B0200740B4200740D4FBFF1F90
:107ED000942007408020074084200740002007406E
:107EE000F0B5554889B0061C06AB0D788C7881CE6C
:107EF00081C30879CB780002184380239B00984205
:107F000003D90023CB7002230B719520062D00D9D5
:107F100090E0AB00DBB2012C01D10233DBB21226C0
:107F20005B08734345481E5CC3185F7895203F0289
:107F30003743434EB7427DD14E78032E7AD8012C79
:107F400078D8D87BFF2801D10020D8730E79C87863
:107F5000AD0036029A730595064362001E702A43EF
:107F6000360ADD7B5E7001263540364EFF203768CD
:107F70002A4307409F7002973768D2B23D0A0540F6
:107F8000DD7003953D0C0540380EDA731D71587194
:107F90000495009048781C7458742B480F79CD785C
:107FA00000683F02D20082183D4395702F0A029D5F
:107FB000D7701571039F049D57719571009F01251E
:107FC000D77108271770DA7BCF786A400D79D20015
:107FD0002D0282182F439770039D3F0AD770029F8E
:107FE0005571009D1771049FD571482597711570C3
:107FF0000A79CD78376812022A43D2193260002CF0
:1080000007D1DB7BDB00C018027880235B4213437F
:10801000037005980D4AA40083184A781834013A71
:108020006D46511E8A41615918780A430243D2B203
:108030001A70002009B0F0BD5C910000E0FBFF1F4A
:10804000FFFF0000D4FBFF1FDCFBFF1FC020074029
:10805000081C10B5111CFFF79FFEC423FF281AD07F
:1080600040081223C0B258430C4B012418180C4B83
:108070001A68C37BD90051186340DB000C78D31811
:108080007F2214400C7019780A401A7001235B4259
:108090008372C3720023181C10BDC046E0FBFF1F93
:1080A000DCFBFF1FF7B56F46F8710C1C081C111C98
:1080B000161CFFF771FE0737051C9620FF2D1FD0F9
:1080C000211C321C381C6D08FFF7C2FFEDB21223D1
:1080D0005D430C490C4A4B1958786E5C00023043E2
:1080E0001668A400301A1060084A0020A418012263
:1080F000524220706A545A709A70DA701A715A712A
:10810000FEBDC046E0FBFF1FD4FBFF1FC0200740A1
:10811000F8B5071C0E1C081C111C151CFFF73CFEB3
:1081200040081223C0B25843094B1818C47BFF2CD7
:108130000DD02A1C381C311CFFF78AFF054BE400C8
:108140001B681C1922787C235B4213432370F8BD03
:10815000E0FBFF1FDCFBFF1FF0B5081C85B0002112
:108160001E1C151CFFF718FE41081223C9B2594303
:10817000364B5918CF7BFF2F65D0354B08781B68DD
:1081800001934B781B020343324883425BD00120AA
:10819000019A7840C000145CE409E0B2844662466B
:1081A0009420002A50D1FF000297FF20002E16D104
:1081B000019CE21993701B0AD370CB7888781B025C
:1081C0000343087949790004090603430B43190A5C
:1081D00013715171190C1B0E9171D3712AE0B7B252
:1081E0003A1C3F0A27430240CF722F1C224307400C
:1081F00027438A722A0A8F71171C07402743CF71C1
:108200002F0C384020430872280E9446021C22434B
:108210004A720C734C73019C029962189E4200D9F9
:108220001E1CB6B296706346360AD670157153712D
:108230009771D071117840230B40782149420B434C
:108240001370002000E0942005B0F0BDE0FBFF1F9C
:10825000DCFBFF1FFFFF000070B5061C0D1C081C97
:10826000111C141CFFF798FD40081223C0B258439C
:10827000144B1818C27BFF2A22D01349AB005B189D
:10828000002D0CD0407C0138411E8841C0B218211D
:10829000012C00D114210143187801431970197879
:1082A000022081431970094BD2001B680021D15470
:1082B0008C4205D1301C291C221C231CFFF74CFFCB
:1082C00070BDC046E0FBFF1FC0200740DCFBFF1F66
:1082D000F7B5081C0E1C0121151C1F1CFFF75CFDC7
:1082E0009322FF2840D04008C0B2122444431F4BC1
:1082F0001F491C19E37B0968DB00CB181978C909F1
:1083000032D11C48B10009180878022101402BD154
:10831000BAB2100AE072280AE0718446280C207272
:108320000090280E21736173A2722178A57160728A
:1083300064780190240221438A4200DD0A1C9A706D
:10834000120ADA7062465A710098019A1D71DA7148
:108350009871C822002E05D0197840220A40782151
:1083600049420A431A700022101CFEBDE0FBFF1FA9
:10837000DCFBFF1FC020074008B5044B0448197000
:1083800001210A1C00F03AFB08BDC04698200740B6
:10839000D8FBFF1F38B5134B7F225978124C0A4087
:1083A0005A70597B202291435973104B197811430D
:1083B00019700F4B1978914319700E4B19781D1CC9
:1083C000914319701A7804210A431A70013CA4B22F
:1083D00000F08CFE002CF9D12B78042293432B70F3
:1083E00038BDC046FF200740409C00008020074069
:1083F0008420074094200740F0B5D548D54E027838
:10840000337889B01A40D448D44B02921C78FF22AA
:1084100003786D4605AF6A7411353B707A7000239E
:108420002A1C0121BB707B607B72BB72FB703B72AC
:1084300000F0CAFACA4BE4B25A7BD1070CD52B78AC
:10844000802B09D1C64BC64E5A787F2313407370D8
:10845000737B202293437373029E04231E420FD02A
:10846000C04AC1491278BA480978120203700A4317
:108470006B465A8212201233391C7B6000F0F8FAE6
:10848000029E01231E4241D0B14841210370B74BE7
:10849000B74C494219702378022213432370B54B1D
:1084A00000251D70AE4B90225D70FF219200B248F6
:1084B00001F052F8B14E8022291C3068D20001F040
:1084C0004BF832688026AE4BB60092191A60AD4B5D
:1084D000FF221A70237802208343A14923704B7B2B
:1084E000402213434B734122A74B5242994E1A70BC
:1084F0009F23337023782025AB4323701020391C31
:1085000000F0B6FA2378AB432370DAE1029E08222A
:10851000164200D178E18E48230902702240D11022
:10852000C9B27B70F970FF22062B07D86207D20F01
:108530009B00D218012901D10232D2B201218F4B06
:108540000C1C54401868E4B2E4000419D300CA407B
:108550000094D2B212245443874AC31814195A798A
:10856000187912020243987905AD00040243D879C4
:10857000009F000602436A60DE7898783602064360
:108580006E72360AAE72E67BFF204E40E6731E78AE
:108590007606F60F4E40B6013E70EF786E788F4249
:1085A00072D1784F002E10D13E78002E0DD1387048
:1085B000311C321C281CFFF74BFD0098311C067043
:1085C000321C281C331CFFF7C7FD3B78012B03D05E
:1085D0006B78002B00D10EE1A9680802000C019015
:1085E000637B227B1B021343C3189BB2E17A1A0AF6
:1085F00009026273A27A0F1C1743227823739446F0
:108600006178A2799F420DD80E020396FF26304072
:10861000039E0190604606430198B04226D1A07B9C
:10862000012823D1E079090200020243207A66463C
:1086300000040243607A314300060243D218FB1A59
:108640008B4200DC99B2009F130A3A717B71130CC4
:10865000120EFA713A78BB714023134078225242CD
:10866000B9701343090AF9703B70C8E0E179090257
:108670000A43217A09040A43617A6B7209060A43A4
:108680001B0A6A60AB72B6E0002E1AD11F783D4B10
:10869000BF063F0F0D2F04D1A9701278D2091A70AE
:1086A0000FE01A78012A0CD11870311C281CFFF732
:1086B000CFFC009F281C3E70311C321C331CFFF77E
:1086C0004BFDE77AA37A3F021F43304B9F4200D114
:1086D00091E0A868627B217B030212021B0C0A4313
:1086E0009A1892B2160A03966673667801922273FC
:1086F000227836021643B34202D1019887420BD842
:10870000002F65D0381C311CFCF7CEF889B2002947
:108710005ED1A37B012B5BD101997F1AB74200DCAC
:10872000BEB2002E34D1E378A2781B021343227923
:10873000009F120413436279BE70120613431A0A93
:108740003B717A711A0C1B0EBA71FB7136E0C04690
:108750008020074084200740D8FBFF1F902007405F
:10876000FF200740A4200740A020074088200740A2
:108770009420074098200740E0FBFF1FDCFBFF1F11
:10878000D4FBFF1F40F1FF1F8C200740FFFF0000BC
:10879000E379A2791B021343227A019F1204134347
:1087A000627A12061343DB19009F1A0A3B717A7131
:1087B0001A0C1B0EBE70BA71FB71360AFE70009E59
:1087C000402332781340782252421343337016E02C
:1087D000E379A2791B021343227A019F1204134307
:1087E000627A039E120613436B6001235B426F7231
:1087F000AE72A372E3726878291C00F039F9324B2B
:1088000020211A788A431A70029F02231F4212D035
:108810002E482F4C03702F4B22781B7805A913404C
:1088200016200B7200F024F9BF232370264B202161
:108830001A788A431A70029E10231E4213D0234FC7
:1088400020243C7005A93B70142000F011F9224847
:108850002249437B2343437342788023134343706D
:108860000B781C430C70029E2024264209D0174F1F
:1088700013203C7005A900F0FBF818480378A343C7
:108880000370029E73B2002B1BDA6D4605AC1235E5
:10889000FF23201C10212A1C637000F095F82B7810
:1088A000012B02D100226270E370084F80233B70DD
:1088B000211C172000F0DCF8034B20211A788A4392
:1088C0001A7009B0F0BDC0469420074080200740D0
:1088D000882007408C200740FF2007408420074065
:1088E00000B5094BFF211A78084B1A70084A00237B
:1088F00099540133072BFBD1064A002305219954D3
:108900000133072BFBD100BD20FEFF1F28FEFF1FF8
:1089100029FEFF1F21FEFF1FC0467047013AD2B259
:1089200038B5051C1C1C9920062A07D8044B1A7060
:10893000FFF7D6FF281C211CFFF74CFA38BDC046B4
:1089400020FEFF1FF7B5051C104C08A8077809A8E2
:1089500006782078002802D19520002914D1684695
:10896000C270120A8370017002714770321C28783D
:108970006946FFF7B5FA6A461378002B04D0002841
:1089800002D12378013B2370FEBDC04628FEFF1FA5
:1089900038B50C1C0A4D0B49031C0978287888420D
:1089A00002D19620002C0AD11878211CFFF77AFBFF
:1089B000002C04D0002802D12B7801332B7038BD55
:1089C00028FEFF1F20FEFF1F4B1EDBB200B5062B4B
:1089D00004D8084B591801390B7808E08220CB06DF
:1089E00007D50F231940062903D8034B5B5C13708E
:1089F000002000BD29FEFF1F21FEFF1F4B1EDBB222
:108A0000F7B5061C151C062B04D8164F791801392A
:108A10000A7025E08220CB0623D50F240C40062CBB
:108A20001FD8CF09012A05D1301C211C3A1CFFF7A1
:108A30006FFB13E0002A11D10B4B1B5D0193012B3F
:108A40000CD1301C211C3A1CFFF706FC002C05D170
:108A5000019A301C7A40211CFFF7FEFB024B1D558A
:108A60000020FEBD29FEFF1F21FEFF1F00207047D2
:108A700038B5041C0D1C102801D1FFF731FF044B41
:108A8000A400E358002B01D0281C9847002038BDD3
:108A90008492000030B585B069466C46C871151CDB
:108AA0000F34073102221A80081C221C0521FFF70F
:108AB0008BFF034B22781A802B6005B030BDC04677
:108AC00032FEFF1F30B585B069466C46C871151C73
:108AD0000F34073101221A80081C221C0421FFF7E1
:108AE00073FF034B227800201A802B6005B030BD45
:108AF00032FEFF1FF0B585B06C460022E0711A808F
:108B00008B78C9786D4609021943C0B2E981FCF738
:108B100057F807340E350426002818D02A8801217A
:108B200053425A41D2B2201CFFF768FF311C2A7809
:108B3000201CFFF763FF074F01212A1C3B68061C1E
:108B40002078984720783B68022100229847301C03
:108B500005B0F0BD50FEFF1F37B56A46D071002446
:108B600007320D1C1C80101C01210422FFF746FF58
:108B7000AA78024B201C1A703EBDC04630FEFF1F73
:108B8000F0B585B06D46002207351A8028704B7805
:108B90000A789B07DF0F03230E1C134036D1CA78D7
:108BA0008B781202012F16D11343013B9BB2CD24C7
:108BB000012B46D86A46281C06210F32FFF704FF16
:108BC000041E3ED1B2786946CB7B97403A1C1A43CB
:108BD000D2B2CA7314E01A430092CD24012A30D1D4
:108BE0006F460F37281C06213A1CFFF7EDFE041EC6
:108BF00027D1B378009A9A40131C3A789A433A7076
:108C0000281C0621FFF7FAFE041C1AE0CD24022BD3
:108C100017D10B796E46102119430F36281C3A1CC8
:108C20003370FFF7EBFE0721041C002F04D13378CB
:108C30000821032B00D1C046034B28781B68321C47
:108C40009847201C05B0F0BD50FEFF1FF7B5CD784A
:108C50001F1C8B782D021D43161C2C0A032C05D1DA
:108C60004B790A791B021343EAB201E0034BFF225E
:108C700000960197211CFBF7B7FEFEBDFFFF000029
:108C8000F0B589B06D460E1C049217350322694673
:108C90000A76039328700023281C012106AA079353
:108CA000FFF792FE337803271F40284C24D16E46ED
:108CB00019360621321C281CFFF786FE3378032163
:108CC0000B40238007AB28780093023B01933A1CAA
:108CD0003B1C0221FBF788FE079BDA7923885106AB
:108CE00003D580225200134301E0194A1340039A2E
:108CF00023800223138024E0012F0CD17379327971
:108D00001B02694613430A7E012A02D1DBB2002B03
:108D100016D10023EBE7022F13D131796E461023D1
:108D20001A361943321C281CFFF74EFE3378238075
:108D3000039B1F80228880235B001340238000E078
:108D4000CD2004990C6009B0F0BDC04632FEFF1F73
:108D5000FFFEFFFF10B500241C800A1C09780323C6
:108D600019400423012904D111799278FBF70CFFF3
:108D7000231C181C10BD000038B50C78151C0322EC
:108D800022400424012A07D1044C1A800979221CAC
:108D9000FBF7DCFE2C60041C201C38BD32FEFF1FDC
:108DA00073B56C4607342070CD2905D1201C902165
:108DB0000122FFF723FE18E00C491E88C8798D793F
:108DC000000228430D1C864200D918801B88207899
:108DD00012680021FEF7A6FF2B787F2B05D9002112
:108DE000201C0A1C0B1CFFF7B7F973BD34FEFF1FD4
:108DF000F0B585B06E46041C0936002000223070A4
:108E00000392201C0121321CFFF7DEFDA378012B09
:108E100055D16179237909021943A379444D1B0483
:108E20001943E37908221B061943281C00F08BFB29
:108E3000EA79AB7912021A432B7801926F466022CD
:108E4000291C0A37134218D16B783A4A990088587E
:108E50008446002801D1CD212DE03278022AFAD8AB
:108E60005900CB1834499A18535C012BF3D1207860
:108E7000291C03AA3B1CE0471CE00198388000280D
:108E800010D05BB2002B0DDB2C4E291C301C0822AD
:108E900000F059FB321C0832201C0021019BFFF717
:108EA0005BF943E0264B1D68002DD4D0207803AA3F
:108EB0003B1CA847011C207803AA3B1C34E03378F4
:108EC000042B13D123786D461E4CAB720A352178E2
:108ED000281CFFF751FA01210A1C281CFFF78EFD00
:108EE0002278281C0321FFF789FD1FE0104B1B7817
:108EF0007F2B1BD8E378002B18D1114B6D461E68D1
:108F00000A35002E0CD0A37A627A1B021343083371
:108F10002B800A49207803AA2B1CB047011C00E0D3
:108F2000CD21207803AA2B1CFFF73AFF05B0F0BD36
:108F300034FEFF1FE4920000189300003CFEFF1F68
:108F40004CFEFF1F30FEFF1F08B5044B1960044B99
:108F500000211A60034AFFF789FD08BD50FEFF1F7C
:108F60004CFEFF1FE1890000084B07B51B68021C7F
:108F7000002B09D0017A0078002902D0083205219F
:108F800001E003216A46984707BDC04654FEFF1F13
:108F900007B5437901791B020B438179021C09044F
:108FA0000B43C17909060B430093837A417A1B0274
:108FB0000B4369468B80074B1B68002B09D0017A55
:108FC0000078002902D00832052101E004216A4618
:108FD000984707BD54FEFF1F00201880704700000F
:108FE000F0B587B06F461737039104923870FBF7DE
:108FF0001FFE039B041C022B09D0244B1B68002B73
:1090000041D06A46D07D0399049A98473BE0051CFD
:10901000002623789E4207DA6978EA78381CFFF741
:10902000B7FC01360535F4E7651C002723789F421D
:10903000E3DA2A79EB7868786E46120229781A43C7
:109040001736AB78009000200190301CFFF77AFCB7
:109050006B78022B09D1AB7829783078002B01D1BD
:109060000B4A00E00B4AFFF701FD2B781021194352
:10907000AB78301CDB011943C9B20022FFF7BEFCFC
:1090800001370535D2E707B0F0BDC04654FEFF1FDB
:10909000818B0000598B0000F8B5041C0E1C151CB8
:1090A0001F1CFBF7C5FD027800210132D2B2201C43
:1090B0003B1CFFF733FC00280AD1201C0549064A57
:1090C000FEF7E2FD002803D1044A1660044A156049
:1090D000F8BDC046D18B0000C98B000054FEFF1FB5
:1090E00058FEFF1F08B5FEF71DFE08BD024B2021EC
:1090F0001A780A431A70704700F00740094B10B500
:1091000018681C1C431C0CD0074B08491A6800F057
:10911000D1F9002802D00020FBF79EFD01235B421D
:10912000236010BD48F1FF1F44F1FF1F0000002025
:1091300010B5094C2368002B07D0FFF7DFFF00F0C4
:1091400079F9064A002323601360054A002313605F
:10915000044A136010BDC046BCFEFF1FB8FEFF1FCF
:1091600000040020C0FEFF1F044A00231360044ACD
:109170001360044A1360044A13607047C4FEFF1F63
:10918000B4FEFF1F68FEFF1FC8FEFF1F054B012234
:109190001A60054A00231360044A1360044A1360EE
:1091A0007047C046C4FEFF1FB4FEFF1F68FEFF1FCE
:1091B000C8FEFF1FF0B5544B85B01B68002B00D1D3
:1091C0009BE0524E3368002B00D096E0504C216853
:1091D00000296ED0F72800D193E042B2002A00DACD
:1091E0008BE04C4C4C492568271C1A1C062D03DCCF
:1091F00048550135256080E0031C8C5C1341DB0180
:1092000023438B540132072AF6D1444D00263E6099
:10921000434C2F68E01900F096F9F91D46296BD1EF
:10922000201C2E6000F087F9B04268D1221C413228
:10923000231C117840331B7809025918394B1A68DE
:109240001F1C91425BD1231C42331A78231C4333E9
:109250001B78354E1B02D31832689B010293334DA5
:10926000002A06D100F0B4F80123336000F00EF9B3
:1092700028602B68029A2E4E5B420193134032689D
:109280000393934208D0FFF739FF039B2A682948CC
:10929000FF21336000F060F9019A0298254B90435A
:1092A0001818211C402200F04EF93B6801333B6046
:1092B00023E0214B1A68032A1FDC551C1D601F4B3D
:1092C0009854042D19D11A78F02A12D15A786F2A9D
:1092D0000FD19A786B2A0CD1DB785F2B02D1012356
:1092E00023600AE0212B04D1FFF722FFFBF7AEFC3D
:1092F00003E00123336000E02960002002E0FFF773
:1093000017FF012005B0F0BDC4FEFF1FC8FEFF1F00
:1093100068FEFF1F0004002060FEFF1FC0FEFF1F4D
:109320006CFEFF1FB8FEFF1FBCFEFF1F44F1FF1FB6
:1093300048F1FF1F00000020B4FEFF1F5CFEFF1F6E
:10934000024B18694006C00F7047C046C0F00F407E
:1093500037B5094D6C46A868FDF730F8073400238F
:109360002370201CFDF7AEF80A28FAD0A868FDF794
:1093700031F820783EBDC046A8FAFF1F08B5FDF7BA
:1093800091F95A20FDF712F9FFF7E2FF5A28F6D1BA
:1093900008BD000010B50C4CE068FEF721F8012074
:1093A000FEF718FBE068FEF727F8A068FDF706F85F
:1093B000064C00232360FFF7C3FF002802D1236877
:1093C0000133F7E710BDC046A8FAFF1F04040020D0
:1093D00010B5134CA068FCF7FDFFFDF79FF9FDF7F2
:1093E0005FF8104B0022DA70FDF7E8F90E4B0F49D9
:1093F00098690222084010439861D86901400A43E5
:10940000DA61FDF797FF0A4B80229A60FFF7C2FFEF
:10941000FDF734F8FFF7B2FFA068FCF7DBFF10BDE3
:10942000A8FAFF1F00A0064000C00440FCFFFFFE9A
:10943000C0F00F4008B5054B9868FCF7CBFFFDF76F
:10944000BDF9FDF71BF8FFF7A5FF08BDA8FAFF1F40
:10945000F8B5051C0F1C141C1E1CFDF723F9EF1991
:10946000BD4206D02878FDF7A1F80028FAD10135D1
:10947000F6E7002E09D0A619B44206D0201CFDF74D
:1094800021F80A28FAD00134F6E7F8BD13B5022412
:109490000023221C68460649019300F054F86846F0
:1094A000211C01AA0423FFF7D3FF019816BDC04673
:1094B0006491000073B503230024151C6A460094D0
:1094C0000E1C13705580019008216846221C231C35
:1094D000FFF7BEFFFFF73CFF012815D1AC420EDAC3
:1094E0003019291B102900DD10210022131CFFF761
:1094F000AFFFFFF72DFF012806D11034EEE7FFF78D
:1095000027FF012800D1002076BD30B5C3B20C1C66
:10951000000A651A95420ADA25785B19FE2B00D9F4
:10952000FF3BC018FE2800D9FF380134F1E70002E4
:10953000034398B230BD08B5031C0A1C0020191C57
:10954000FFF7E3FF08BD10B50023934203D0CC5CC6
:10955000C4540133F9E710BD00B5031C82189342CF
:1095600002D019700133FAE700BD000008000000C6
:10957000040000000101000002010200400002029C
:109580000140000000000000000012007300000015
:1095900000000000000000000000000000F0FF1FBD
:1095A00014F0FF1F00000000000000000000000099
:1095B000000000000000000004182004101A0E181B
:1095C0002200000088F0FF1F8CF0FF1FA4F0FF1F97
:1095D000C4F0FF1FC8F0FF1FD8F0FF1FF4F0FF1FFB
:1095E00004F1FF1F1CF1FF1F88F0FF1F040904B4E2
:1095F000910000A8910000000000000000000000A1
:1096000000000000000100005A490000D44800009A
:10961000404900009E490000C2490000C2490000C4
:10962000C2490000C2490000C2490000C24900000E
:10963000C2490000E4480000284A0000284A00000F
:10964000204A0000244A0000244A00001C4A00006E
:10965000204A0000244A0000244A0000244A000056
:10966000244A0000244A0000204A0000204A00004A
:10967000244A00001C4A0000824D0000A24D000058
:10968000BA4D0000D24D00000E4E00000E4E0000FC
:10969000EA4D0000E1890000818B0000598B000039
:1096A0000985000009850000098500000985000082
:1096B0000985000009850000098500000985000072
:1096C0000985000009850000098500000985000062
:1096D00009850000F577000009850000D5770000B6
:1096E000AD770000917700000985000079770000D0
:1096F00061780000718800007187000000000000A0
:109700007187000000000000498700003D880000CC
:1097100000000000B5860000E586000069890000B1
:10972000458900008586000001010001010000005C
:109730000001010000000000010101010100000022
:109740000101000101000100000100000100000012
:10975000F8B5C046F8BC08BC9E467047F8B5C04690
:10976000F8BC08BC9E4670472D450000FD44000033
:109770001201000200000040C016E405000A0102C8
:109780000301000009027300010100803209040096
:109790000002010300000724010001430006240227
:1097A0000101040624020202040624020103050644
:1097B000240202040509240301050102010609240B
:1097C0000302060101010609240301070102020741
:1097D00009240302080101020709050102400000F3
:1097E0000000062501020103090582024000000075
:1097F00000062501020507000403090418036C0094
:10980000640030006400400069006B0069002E00B5
:109810006600690020037500730062006D00690036
:1098200064006900320020006D0061007300740064
:10983000650072000403300010035500530042001D
:1098400020004F00750074001A0345007800740072
:1098500020004D0049004400490020004F007500E1
:10986000740000000E035500530042002000490020
:109870006E000000180345007800740020004D00C1
:10988000490044004900200049006E0022034200C4
:1098900041004400200053005400520049004E0093
:1098A0004700200049004E004400450058000000D9
:1098B000FF00000000040000FFFFFFFF60930000B6
:1098C00000F0FF1F4C01000000000000000000003D
:1098D00000000000002934D00123002210B4884287
:1098E0002CD301242407A14204D2814202D20901CF
:1098F0001B01F8E7E400A14204D2814202D24900F0
:109900005B00F8E7884201D3401A1A434C08A04292
:1099100002D3001B5C0822438C08A04202D3001B28
:109920009C082243CC08A04202D3001BDC0822433F
:10993000002803D01B0901D00909E3E7101C10BC63
:109940007047002801D00020C04307B4024802A19C
:109950004018029003BDC046190000000029F0D055
:1099600003B5FFF7B9FF0EBC4243891A1847C0463A
:109970007047C04608B5054B054803331B1A062B34
:1099800003D9044B002B00D0984708BD44F1FF1FBA
:1099900044F1FF1F000000000648074908B5091AF6
:1099A0008910CB0F5918491003D0044B002B00D05D
:1099B000984708BD44F1FF1F44F1FF1F000000005D
:1099C000084B10B51A781C1C002A09D1FFF7D2FFEA
:1099D000054B002B02D0054800E000BF0123237097
:1099E00010BDC04600F2FF1F0000000034CC000094
:1099F00008B5094B002B03D00848094900E000BF17
:109A000008480368002B03D0074B002B00D0984771
:109A1000FFF7C2FF08BDC0460000000034CC0000C4
:109A200004F2FF1F44F1FF1F0000000080B500AFEB
:109A3000BD4680BD80B500AFBD4680BD80B500AFDE
:109A4000BD4680BD80B500AFBD4680BD80B500AFCE
:109A5000BD4680BD80B500AFBD4680BD80B582B03B
:109A600000AF064B7B6001F073F9012001F05EFD51
:109A700001F0ACFC00F0AAF9FEE7C046E8CA26CF28
:109A800090B585B000AF041C081C111C1A1CFB1DEE
:109A90001C70BB1D18707B1D1970BB1C1A80BB1D70
:109AA0001B78032B00D075E0BB1C1B88002B07D153
:109AB000484A3B6A1A6004231A1C7B6A1A8084E0B5
:109AC0003B1C0F3300221A703B1C0E3301221A700C
:109AD00024E03B1C0F3319783F4A0B1C9B005B189A
:109AE0005B00D1184979D3189B791B020B439BB2B9
:109AF000BA1C12889A420AD17B1D1B78072B05D805
:109B00003B1C0E337A1D12781A700CE00BE03B1CE4
:109B10000F331A783B1C0F3301321A703B1C0F3382
:109B20001B78002BD5D03B1C0F3319782A4A0B1C0D
:109B30009B005B185B00D118C979D018008900021E
:109B40000143D3189B7A1B060B431A1C3B1C0E3394
:109B50001B789B00D3181A683B6A1A603B1C0F33B2
:109B600019781D4A0B1C9B005B185B00D118C97A41
:109B7000D018808900020143D3189B7B1B060B433E
:109B80001A1C3B1C0E331B78D3181B781A1C7B6ADB
:109B90001A801AE0BB1D1B78072B14D8BB1D1A783E
:109BA0000E4B9200D2583B6A1A603B6A1B68002B2E
:109BB00001D1CD230AE0BB1D1A78094B5200D25ABD
:109BC0007B6A1A8001E0CD2300E00023181CBD460B
:109BD00005B090BD88F0FF1F58CB000008CB0000F7
:109BE000F8CA000080B582B000AF3A60FB1D021CCD
:109BF0001A70BB1D0A1C1A70BB1D1B78012B07D8DD
:109C0000BB1D1B78054AD25C3B681A70002300E03C
:109C1000CD23181CBD4602B080BDC0461CF2FF1FFC
:109C200080B582B000AFFB1D1870BB1D19707B1D85
:109C30001A70BB1D1B78012B07D8BB1D1B78054A6A
:109C4000791D0978D154002300E0CD23181CBD46AE
:109C500002B080BD1CF2FF1F80B584B000AF0A1CAB
:109C6000FB1D011C19703B1D1A803B1C0F33002289
:109C70001A7011E03B1C0F331B780C4AD35C3A1D61
:109C800012889A4201D101230CE03B1C0F331A7851
:109C90003B1C0F3301321A703B1C0F331B78012B16
:109CA000E8D90023181CBD4604B080BD74CB000069
:109CB00080B582B000AF021CFB1D1A700123181C76
:109CC000BD4602B080BDC04680B582B000AF021C68
:109CD000FB1D1A70024B181CBD4602B080BDC04669
:109CE000E8CA000080B582B000AF7860C04600F0DE
:109CF000F9FD031C032B28D97B68181C00F008FD14
:109D0000031C002B01D0002320E07B680133181CCA
:109D100000F0FEFC031C002B01D0002316E07B6842
:109D20000233181C00F0F4FC031C002B01D00023AC
:109D30000CE07B680333181C00F0EAFC031C002BCA
:109D400001D0002302E0012300E00023181CBD46DF
:109D500002B080BD80B582B000AF78603B1D1B783B
:109D6000181C00F049FD3B1D5B78181C00F044FDF9
:109D70003B1D9B78181C00F03FFD3B1DDB78181C39
:109D800000F03AFDBD4602B080BDC04680B582B04D
:109D900000AF786001F0FAFA031C032B13D93B1DC6
:109DA0001B78181C01F02AFA3B1D5B78181C01F087
:109DB00025FA3B1D9B78181C01F020FA3B1DDB782F
:109DC000181C01F01BFABD4602B080BD80B582B000
:109DD00000AF224B181C402101F05EFB031C0C2B32
:109DE00005D11F4B5B68181C00F06AFC26E01C4B79
:109DF0005B68181C00F070FC01F0D6F9031C032B03
:109E00001CD916E03B1C181C01F070F93B1C0133F7
:109E1000181C01F06BF93B1C0233181C01F066F9A9
:109E20003B1C0333181C01F061F93B68181CFFF759
:109E300091FF01F0B9F9031C032BE3D83B1C181C5C
:109E4000FFF750FF031C7B607B68002B04D03B684E
:109E5000181CFFF79BFFBCE7BBE7C04600F4FF1FE1
:109E600064F8FF1F80B582B000AF78603960BD46EE
:109E700002B080BD80B58AB000AFF860B9607A608A
:109E80007B687B6204233B620323FB610223BB618B
:109E900001237B6101233B61FA68BB689A4202D0CF
:109EA0007B68002B00D14DE049E0FB69BA681340A4
:109EB00018D1FB69FA68134014D13A6A7B6A9A4256
:109EC00010D8FB68BA6812681A603B6AFA68D3183F
:109ED000FB603B6ABA68D318BB603B6A7A6AD31AE4
:109EE0007B622CE07B69BA68134018D17B69FA6801
:109EF000134014D1BA697B6A9A4210D8FB68BA68D9
:109F000012881A80BB69FA68D318FB60BB69BA680B
:109F1000D318BB60BB697A6AD31A7B620FE0FB6817
:109F2000BA6812781A703B69FA68D318FB603B690B
:109F3000BA68D318BB603B697A6AD31A7B627B6AC2
:109F4000002BB2D1BD460AB080BDC04690B583B0EB
:109F500000AF2D4B002B00D153E000237B6032E09B
:109F600029497A68131C5B009B189B00CB18586822
:109F700025497A68131C5B009B189B005958224C9A
:109F80007A68131C5B009B189B00E31808331B685E
:109F90001A1CFFF76FFF1C497A68131C5B009B18A3
:109FA0009B00CB18596818487A68131C5B009B18F3
:109FB0009B00C31808331B68081C191CFFF752FFCD
:109FC0007B6801337B6010497A68131C5B009B1827
:109FD0009B005B58002BC3D10B497A68131C5B00B4
:109FE0009B189B00CB185B68002BB9D106497A6897
:109FF000131C5B009B189B00CB1808331B68002BBD
:10A00000AED1BD4603B090BD98CD000080B588B0FC
:10A0100000AF274A274BD31AFB61264BBB610423B1
:10A020007B6103233B610223FB600123BB600123AF
:10A030007B60FB69002B00D136E032E03B69BA69F6
:10A0400013400FD17A69FB699A420BD8BB69002291
:10A050001A607B69BA69D318BB617B69FA69D31A44
:10A06000FB611EE0BB68BA6913400FD1FA68FB6957
:10A070009A420BD8BB6900221A80FB68BA69D318D0
:10A08000BB61FB68FA69D31AFB610AE0BB69002275
:10A090001A707B68BA69D318BB617B68FA69D31AF6
:10A0A000FB61FB69002BC9D1BD4608B080BDC0462D
:10A0B0000000002000F2FF1F80B500AFBD4680BD4C
:10A0C00080B500AFBD4680BD80B582B000AF0E4BFD
:10A0D0007B60FFF7F1FF00F07DFD7B68181C002816
:10A0E00005D0854681B00020C043009001B0FFF745
:10A0F0008DFFFFF72BFFFFF7E3FF044B0020191C38
:10A10000FFF7ACFCFEE7C0460030002000F6FF1F62
:10A1100080B584B000AF7860614BFB60FB680022C3
:10A120001A81FB6800221A82FB680022DA60FB6851
