:10200000001800208188000089930000959300004B
:102010009593000095930000959300009593000020
:102020009593000095930000959300009593000010
:102030009593000095930000959300009593000000
:1020400095930000959300009593000095930000F0
:1020500095930000959300009593000095930000E0
:1020600095930000959300009593000095930000D0
:10207000B98C0000959300009593000095930000A3
:1020800095930000959300009593000095930000B0
:1020900095930000959300009593000095930000A0
:1020A000D5A600009593000095930000959300003D
:1020B0009593000095930000959300009593000080
:10240000C7D43FA32E8C000010240000CC5A00003B
:1024100000180020B9350000754800008148000010
:102420008148000081480000814800008148000088
:102430008148000081480000814800008148000078
:102440008148000081480000814800008148000068
:102450008148000081480000814800008148000058
:102460008148000081480000814800008148000048
:102470008148000081480000814800008148000038
:10248000DD3F000081480000A539000081480000C0
:102490008148000081480000814800008148000018
:1024A0008148000081480000814800008148000008
:1024B000FD6500008148000081480000814800005F
:1024C00071550000814800008148000081480000EB
:1024D000FFFFFFFFFFFFFFFFFFFFFFFFFFFFFFFF0C
:1024E000FFFFFFFFFFFFFFFFFFFFFFFFFFFFFFFFFC
:1024F000FFFFFFFFFFFFFFFFFFFFFFFFFFFFFFFFEC
:10250000FFFFFFFFFFFFFFFFFFFFFFFFFFFFFFFFDB
:10281000C7D43FA30100000000000000000000003A
:10282000002934D00123002210B488422CD3012483
:102830002407A14204D2814202D209011B01F8E718
:10284000E400A14204D2814202D249005B00F8E7D1
:10285000884201D3401A1A434C08A04202D3001BFD
:102860005C0822438C08A04202D3001B9C08224330
:10287000CC08A04202D3001BDC082243002803D06E
:102880001B0901D00909E3E7101C10BC70470028A0
:1028900001D00020C04307B4024802A140180290B2
:1028A00003BDC046190000000029F0D003B5FFF7B2
:1028B000B9FF0EBC4243891A1847C0467047C0464C
:1028C00008B5054B054803331B1A062B03D9044BE7
:1028D000002B00D0984708BD60F9FF1F60F9FF1F6B
:1028E000000000000648074908B5091A8910CB0FF7
:1028F0005918491003D0044B002B00D0984708BD4D
:1029000060F9FF1F60F9FF1F00000000084B10B5C1
:102910001A781C1C002A09D1FFF7D2FF054B002BA7
:1029200002D0054800E000BF0123237010BDC0465F
:1029300000FAFF1F000000003479000008B5094BC1
:10294000002B03D00848094900E000BF084803688D
:10295000002B03D0074B002B00D09847FFF7C2FF96
:1029600008BDC046000000003479000004FAFF1FD3
:1029700060F9FF1F0000000080B500AFBD4680BDBC
:1029800080B500AFBD4680BD80B500AFBD4680BDFF
:1029900080B500AFBD4680BD80B500AFBD4680BDEF
:1029A00080B500AFBD4680BD80B500AFBD4680BDDF
:1029B00080B500AFBD4680BD80B500AFBD4680BDCF
:1029C00080B500AFBD4680BD80B500AFBD4680BDBF
:1029D00080B500AF02F0ECFEBD4680BD80B500AF13
:1029E00002F028FA012003F0CBFB03F019FB00F002
:1029F00095FDFEE790B585B000AF041C081C111CC6
:102A00001A1CFB1D1C70BB1D18707B1D1970BB1C94
:102A10001A80BB1D1B78032B00D075E0BB1C1B88E4
:102A2000002B07D1484A3B6A1A6004231A1C7B6AB0
:102A30001A8084E03B1C0F3300221A703B1C0E33BB
:102A400001221A7024E03B1C0F3319783F4A0B1CFB
:102A50009B005B185B00D1184979D3189B791B0246
:102A60000B439BB2BA1C12889A420AD17B1D1B7879
:102A7000072B05D83B1C0E337A1D12781A700CE018
:102A80000BE03B1C0F331A783B1C0F3301321A70DA
:102A90003B1C0F331B78002BD5D03B1C0F33197810
:102AA0002A4A0B1C9B005B185B00D118C979D0180F
:102AB000008900020143D3189B7A1B060B431A1CA2
:102AC0003B1C0E331B789B00D3181A683B6A1A60B4
:102AD0003B1C0F3319781D4A0B1C9B005B185B00D5
:102AE000D118C97AD018808900020143D3189B7B82
:102AF0001B060B431A1C3B1C0E331B78D3181B7888
:102B00001A1C7B6A1A801AE0BB1D1B78072B14D88D
:102B1000BB1D1A780E4B9200D2583B6A1A603B6A72
:102B20001B68002B01D1CD230AE0BB1D1A78094B8D
:102B30005200D25A7B6A1A8001E0CD2300E00023C4
:102B4000181CBD4605B090BD9CF8FF1FCC77000057
:102B50007C7700006C77000080B582B000AF3A60EF
:102B6000FB1D021C1A70BB1D0A1C1A70BB1D1B78B2
:102B7000012B07D8BB1D1B78054AD25C3B681A7035
:102B8000002300E0CD23181CBD4602B080BDC04626
:102B90001CFAFF1F80B582B000AFFB1D1870BB1D73
:102BA00019707B1D1A70BB1D1B78012B07D8BB1D2C
:102BB0001B78054A791D0978D154002300E0CD2304
:102BC000181CBD4602B080BD1CFAFF1F80B584B042
:102BD00000AF0A1CFB1D011C19703B1D1A803B1C19
:102BE0000F3300221A7011E03B1C0F331B780C4A84
:102BF000D35C3A1D12889A4201D101230CE03B1CA0
:102C00000F331A783B1C0F3301321A703B1C0F3301
:102C10001B78012BE8D90023181CBD4604B080BDE9
:102C2000E877000080B582B000AF021CFB1D1A706F
:102C30000123181CBD4602B080BDC04680B582B0DD
:102C400000AF021CFB1D1A70024B181CBD4602B0DF
:102C500080BDC0465C77000080B500AF02F008FA86
:102C6000BD4680BD80B584B000AF78600123FB60B5
:102C70000023BB607B68002B04D00023FB60032390
:102C8000BB6016E015E00F4B9B68181C01F0A0FC20
:102C9000C82003F0A9F90B4B9B68181C01F08CFCB1
:102CA000C82003F0A1F9FB68002B02D1BB68013BEF
:102CB000BB60FB68002BE6D1BB68002BE3DCBD46A4
:102CC00004B080BDBC02002080B584B000AF786045
:102CD0000023FB603B1D1B781A1C0F231340043B91
:102CE0000B2B00D97BE09A00474BD3181B689F46FB
:102CF0003B1D5B78181C04F05FFD0123FB606EE058
:102D00003B1D5B78DBB25BB2002B1ADA3B1D5B78B4
:102D1000F02B02D0F72B08D00FE004F03DFD3B1D57
:102D20005B78181C04F048FD0AE03B1D5B78181C1A
:102D300004F042FD0123FB6002E00123FB60C0467A
:102D40000BE0324B1B68002B07D03B1D5B78181C37
:102D500004F032FD031CFB6041E040E03B1D5B786A
:102D6000181C04F029FD3B1D9B78181C04F024FD61
:102D70000123FB6033E03B1D5B78F02B01D104F0B5
:102D80000BFD3B1D5B78181C04F016FD031CFA6854
:102D90001343FB603B1D9B78181C04F00DFD031CC6
:102DA000FA681343FB603B1DDB78181C04F004FD3C
:102DB000031CFA681343FB6011E03B1D5B78181C91
:102DC00004F0FAFC3B1D9B78181C04F0F5FC3B1D3D
:102DD000DB78181C04F0F0FC0123FB60C046FB68A4
:102DE000002B01D004F0CAFC094B1B68002B03D157
:102DF000084B1B68002B01D0012300E00023181CA6
:102E0000BD4604B080BDC046EC770000000700203E
:102E1000A4060020F806002080B582B000AF7860DC
:102E20003B1D1B781A1C0F2313400F2B0AD89A0046
:102E3000074BD3181B689F46012305E0022303E0DC
:102E4000032301E0C0460023181CBD4602B080BD2C
:102E50001C78000080B500AF064B1B681A1D054B9F
:102E60001A60044B1B680F2B02DDF42001F09CFC60
:102E7000BD4680BD08FEFF1F80B500AF064B1B6836
:102E80001A1D054B1A60044B1B680F2B02DD034B08
:102E900001221A60BD4680BD04FEFF1F00FEFF1F19
:102EA00080B584B000AF786048E03B1C0F33181C3D
:102EB00001F006FC031C002B01D0002344E03B1C66
:102EC0000F331B78F52B07D1214B00221A60214BC1
:102ED00000221A60002337E03B1C0F331B78F42BD1
:102EE00007D11D4B00221A601C4B00221A600023E0
:102EF0002AE0174B1B68591C154A11603A1C0F3207
:102F00001178174AD154124B1B68032B16DD144B52
:102F10001A787B681A70124B5A787B685A70104B7B
:102F20009A787B689A700E4BDA787B68DA70084B77
:102F300000221A60FFF78EFF012305E001F028FD53
:102F4000031C002BB1D10023181CBD4604B080BD6A
:102F50000CFEFF1F08FEFF1F04FEFF1F00FEFF1FE9
:102F6000140C002080B582B000AF78600A4B1B685B
:102F7000002B01D000230AE001F014FD031C802285
:102F80005200D11A7A68002391425B41DBB2181CCF
:102F9000BD4602B080BDC04600FEFF1F80B582B0B6
:102FA00000AF78603B1D1B78181C01F0FDFB3B1D3A
:102FB0005B78181C01F0F8FB3B1D9B78181C01F096
:102FC000F3FB3B1DDB78181C01F0EEFBFFF754FF11
:102FD000BD4602B080BDC04680B582B000AF78600B
:102FE0007B6804221A70074B1A787B685A70054B6D
:102FF0005A787B689A70034B9A787B68DA70BD4682
:1030000002B080BD0C0C002080B582B000AF7860AB
:10301000114B1B68022B08D0032B0AD0012B00D0C8
:1030200017E07B6805221A7007E07B6806221A7099
:1030300003E07B6807221A70C046084B1A787B6849
:103040005A70064B5A787B689A70044B9A787B6862
:10305000DA70BD4602B080BD10FEFF1F0C0C0020D0
:1030600080B582B000AF7860274B1B78EF2B06D875
:10307000254B1B781B09DAB27B681A7034E0224BAF
:103080001B78F02B1DD1214B1B78F02B03D17B68D3
:1030900004221A7028E01E4B1B68022B08D0032B59
:1030A0000AD0012B00D02BE07B6805221A7007E0C4
:1030B0007B6806221A7003E07B6807221A70C046FC
:1030C00012E0144B1B68012B03D17B6802221A709B
:1030D0000AE0104B1B68022B03D17B6803221A7095
:1030E00002E07B680F221A70074B1A787B685A70CF
:1030F000064B1A787B689A70044B5A787B68DA70B2
:10310000BD4602B080BDC046080C00200C0C00205B
:1031100010FEFF1F14FEFF1F80B582B000AF786065
:103120000A1CFB1C1A70FB1C1B78F42B03D0FB1C25
:103130001B78F52B01D10023DFE0FB1C1B78F72B5C
:103140000ED97B680F221A707B68FA1C12785A70AD
:103150007B6800229A707B680022DA700123CCE041
:10316000FB1C1B78F72B19D1664B1B68664AF91CB0
:103170000978D154634B1B685A1C624B1A607B68F8
:10318000181CFFF741FF614B00221A705D4B0022B3
:103190001A605F4B00221A600123AEE0FB1C1B7813
:1031A0005BB2002B28DB594B1B78002B22D0554BF0
:1031B0001B68554AF91C0978D154524B1B685A1C9C
:1031C000504B1A604F4B1A68514B1B689A4211D1F1
:1031D0004E4B1B78F02B04D17B68181CFFF7FCFECC
:1031E00003E07B68181CFFF73BFF464B00221A6088
:1031F000012382E0002380E0FB1C1A78F0231340B7
:10320000B02B0ED006DC902B0BD0A02B09D0802B3E
:1032100007D01EE0D02B10D0E02B02D0C02B0CD05A
:1032200017E03A4BFA1C12781A70364B00221A60DB
:10323000374B02221A6000235FE0344BFA1C1278ED
:103240001A70304B00221A60314B01221A600023A1
:1032500053E0FB1C1B78F03B062B4AD89A002D4B01
:10326000D3181B689F46294BFA1C12781A70284BFA
:1032700003221A60244BFA1C12781A70214B012287
:103280001A60002339E0214BFA1C12781A701D4B8A
:1032900000221A601E4B01221A6000232DE01B4BF6
:1032A000FA1C12781A70174B00221A60184B02226F
:1032B0001A60002321E0154BFA1C12781A70114B8A
:1032C00000221A60124B01221A60002315E00F4BF6
:1032D00000221A707B6805221A707B68FA1C12782B
:1032E0005A707B6800229A707B680022DA70012392
:1032F00003E0064B00221A700023181CBD4602B0E2
:1033000080BDC04610FEFF1F0C0C0020080C0020E2
:1033100014FEFF1F5C78000080B584B000AF7860B9
:1033200014E03B1C0F33181C01F0C0FE031C002BE3
:103330000CD13B1C0F331B787A68101C191CFFF74B
:10334000EBFE031C002B01D0012305E001F098FFE8
:10335000031C002BE5D10023181CBD4604B080BD22
:1033600080B582B000AF786001F094FF031C80222A
:103370005200D11A7A68002391425B41DBB2181CDB
:10338000BD4602B080BDC04680B500AF024B0022F2
:103390001A60BD4680BDC04618FEFF1F80B582B0D2
:1033A00000AF021CFB1D1A70FB1D1B785BB2002BCB
:1033B00001DB012328E0FB1D1A78F0231340F02BDA
:1033C00007D1FB1D1B78F72B01D8FFF7DDFF012389
:1033D0001AE0FB1D1A780E4B1B689A4209D10D4B5F
:1033E0001B78181C02F0B8F9031C002B01D1002334
:1033F0000AE0FB1D1A78064B1A60064B1B78181C56
:103400000A2102F029FA0123181CBD4602B080BD32
:1034100018FEFF1F100C002080B582B000AF78604E
:103420007B68181CFFF7F8FC031C022B0AD0032B47
:103430001BD0012B00D030E03B1D5B78181C01F045
:10344000A9FE2AE03B1D5B78181CFFF7A7FF031CB1
:10345000002B04D03B1D5B78181C01F09BFE3B1D2C
:103460009B78181C01F096FE17E03B1D5B78181C3A
:10347000FFF794FF031C002B04D03B1D5B78181C46
:1034800001F088FE3B1D9B78181C01F083FE3B1D5C
:10349000DB78181C01F07EFEC046BD4602B080BD40
:1034A00080B582B000AF786002F02CFD031C032BC6
:1034B00013D93B1D1B78181C02F05CFC3B1D5B788C
:1034C000181C02F057FC3B1D9B78181C02F052FCA4
:1034D0003B1DDB78181C02F04DFCBD4602B080BDE0
:1034E00080B582B000AF00E0C04601F051FA031C85
:1034F000002BF9D0FB1D181C01F0E2F8031C002B77
:1035000007D1FB1D1B78F52B03D1F52001F04CF9F9
:1035100000E0E9E7BD4602B080BDC04680B58AB094
:1035200000AF00237B62FB1D00221A70012002F015
:10353000BDF8031C1A1C864B1A7001F03DFA01F00D
:103540009BF8FFF7CDFF834B181C402102F0CEFD06
:10355000031C0C2B0BD1804B9B68181C01F02CF822
:1035600000237B6202F0F2FB02F0DAFC97E07A4B78
:103570009B68181C01F02CF800233B627B6A002B2F
:103580001CD03B1C08331B781B09DBB2FB61FB69B9
:10359000002B07D10420FFF7E5FC031C5A425341DE
:1035A000DBB23B62FB69012B08D10420FFF7D8FE98
:1035B000031C5A425341DBB23B6265E064E07B6A24
:1035C000002B21D1FB1D181C02F04AFB01237B625A
:1035D0003B1C08331B781B09DBB2BB61BB69002BAA
:1035E00007D10420FFF7BEFC031C5A425341DBB253
:1035F0003B62BB69012B07D10420FFF7B1FE031C1E
:103600005A425341DBB23B623B6A002B3CD17B6A9E
:10361000002B05D13B1C0833181C02F021FB06E0EF
:10362000FB1D1A783B1C08331A7000237B623B1C7D
:1036300008330133181C02F013FB3B1C0833023320
:10364000181C02F00DFB3B1C08330333181C02F05E
:1036500007FB3B1C08331B781B09DBB27B617B69D2
:10366000002B0AD1BB68181CFFF72EFB031C002B94
:1036700003D1BB68181CFFF791FC7B69012B03D1B8
:10368000BB68181CFFF7C8FE3B6A002B07D102F08D
:1036900045FB031C1A1C7B6AD318032B8FDC2F4BB2
:1036A0001B68002B28D12E4B1B68002B24D13B1C00
:1036B0000833181CFFF7F4FB031C3B613B69002B2C
:1036C0001AD03B1C08331B781A1CF023134002D07D
:1036D000102B05D010E0BB68181CFFF7E1FE0BE0D3
:1036E0000420FFF73DFE031C002B04D0BB68181C10
:1036F000FFF792FEFFE7C0463B1C0833181CFFF79C
:103700000BFE031CFB60FB68002B20D03B1C083326
:103710001A780F231340DAB23B1C08331A703B1C93
:1037200008331B7810221343DAB23B1C08331A709B
:10373000BB68181CFFF7B4FE0420FFF713FC031C42
:10374000002B04D0BB68181CFFF728FCFBE6FAE648
:10375000100C002000FCFF1FBC020020A40600206B
:10376000F806002080B582B000AF78603960BD46B1
:1037700002B080BD80B58AB000AFF860B9607A60F1
:103780007B687B6204233B620323FB610223BB61F2
:1037900001237B6101233B61FA68BB689A4202D036
:1037A0007B68002B00D14DE049E0FB69BA6813400B
:1037B00018D1FB69FA68134014D13A6A7B6A9A42BD
:1037C00010D8FB68BA6812681A603B6AFA68D318A6
:1037D000FB603B6ABA68D318BB603B6A7A6AD31A4B
:1037E0007B622CE07B69BA68134018D17B69FA6868
:1037F000134014D1BA697B6A9A4210D8FB68BA6840
:1038000012881A80BB69FA68D318FB60BB69BA6872
:10381000D318BB60BB697A6AD31A7B620FE0FB687E
:10382000BA6812781A703B69FA68D318FB603B6972
:10383000BA68D318BB603B697A6AD31A7B627B6A29
:10384000002BB2D1BD460AB080BDC04690B583B052
:1038500000AF2D4B002B00D153E000237B6032E002
:1038600029497A68131C5B009B189B00CB18586889
:1038700025497A68131C5B009B189B005958224C01
:103880007A68131C5B009B189B00E31808331B68C5
:103890001A1CFFF76FFF1C497A68131C5B009B180A
:1038A0009B00CB18596818487A68131C5B009B185A
:1038B0009B00C31808331B68081C191CFFF752FF34
:1038C0007B6801337B6010497A68131C5B009B188E
:1038D0009B005B58002BC3D10B497A68131C5B001B
:1038E0009B189B00CB185B68002BB9D106497A68FE
:1038F000131C5B009B189B00CB1808331B68002B24
:10390000AED1BD4603B090BDB47A000080B588B09A
:1039100000AF274A274BD31AFB61264BBB61042318
:103920007B6103233B610223FB600123BB60012316
:103930007B60FB69002B00D136E032E03B69BA695D
:1039400013400FD17A69FB699A420BD8BB690022F8
:103950001A607B69BA69D318BB617B69FA69D31AAB
:10396000FB611EE0BB68BA6913400FD1FA68FB69BE
:103970009A420BD8BB6900221A80FB68BA69D31837
:10398000BB61FB68FA69D31AFB610AE0BB690022DC
:103990001A707B68BA69D318BB617B68FA69D31A5D
:1039A000FB61FB69002BC9D1BD4608B080BDC04694
:1039B0000012002000FAFF1F80B500AFBD4680BD99
:1039C00080B500AFBD4680BD80B582B000AF0E4B64
:1039D0007B60FFF7F1FF01F061F97B68181C00289C
:1039E00005D0854681B00020C043009001B0FFF7AC
:1039F0008DFFFFF72BFFFFF7E3FF044B0020191C9F
:103A0000FEF7ECFFFEE7C046001800201CFEFF1F7B
:103A100080B584B000AF78604F4BFB60FB6800223C
:103A20001A81FB6800221A82FB680022DA60FB68B8
:103A300000225A82FB6800221A83FB6800225A6126
:103A4000FB687A68DA61454BFA681A60444A44496F
:103A5000444BCB58802149011943424BD150424B32
:103A6000414A1169414A0A40C02189000A431A614A
:103A70003D4B3D4A51693D4A0A40C02189000A43F5
:103A80005A613B4A3A49C3239B00C958394B0B4002
:103A9000802109041943C3239B00D150344B344A7D
:103AA00012688021C9010A431A60334B324AD27826
:103AB000D2B208218A43D2B2DA702F4B2E4AD27882
:103AC000D2B204218A43D2B2DA70FB6800221A8093
:103AD000FB6800225A60284B00229A70264B002275
:103AE0009A71254B00225A71234B234A1278D2B285
:103AF0001F218A43D2B21A701F4B30225A701E4BBC
:103B00001D4AD278D2B2D2B208210A43D2B2D2B27E
:103B1000DA70194B184AD278D2B2D2B204210A43D1
:103B2000D2B2D2B2DA70144B134AD278D2B2202178
:103B30000A43D2B2DA70104B0F4A9279D2B20F21F7
:103B40000A43D2B29A710D4BFA681A60FB68181CCE
:103B5000BD4604B080BDC04644FEFF1F64FEFF1F8B
:103B6000007004403410000000C00440FFF8FFFE65
:103B700000E100E0FFFF00FF00C00640BC020020A3
:103B800080B586B000AFF860B960BB1D1A80FB68D5
:103B90007B61BB1D1B88002B01D1842333E07B6933
:103BA0001B8A002B01D008232DE03B1C1333EFF3BD
:103BB000108072B61870164B1B78DBB20133DBB283
:103BC000134A191C1170012B04D13B1C13331A78B2
:103BD000104B1A707B69BA68DA607B69BA1D12886B
:103BE0001A827B6900221A81094B1B78DBB2013BE8
:103BF000DBB2074A191C1170002B03D1054B187852
:103C000080F310880023181CBD4606B080BDC04656
:103C1000A5000020200C002080B586B000AFF86021
:103C2000B960BB1D1A80FB687B61BB1D1B88002B24
:103C300001D1842348E07B691B8B002B01D0082332
:103C400042E03B1C1333EFF3108072B61870204B28
:103C50001B78DBB20133DBB21D4A191C1170012B3A
:103C600004D13B1C13331A781A4B1A707B69BA685B
:103C70005A617B69BA1D12881A837B6900225A82B5
:103C80007B691B88012213439AB27B691A80124B0D
:103C9000114AD278D2B2802149420A43D2B2DA70B4
:103CA0000D4B0D4A9279D2B29A71094B1B78DBB257
:103CB000013BDBB2064A191C1170002B03D1054BE6
:103CC000187880F310880023181CBD4606B080BD0C
:103CD000A5000020200C002000C0064090B583B055
:103CE00000AF7860124BDB79DBB21C1C7B681B8A4F
:103CF000002B1AD07B68DB68591C7A68D160E2B26D
:103D00001A707B681B8901339AB27B681A817B68C1
:103D10001A897B681B8A9A4207D17B6800221A8223
:103D20007B68DB69181C01F0F1FABD4603B090BD59
:103D300000C0064080B582B000AF78607B685A8AC8
:103D40007B681B8B9A421CD219497B685B69581CA3
:103D50007A6850611B78CB717B685B8A01339AB2B9
:103D60007B685A827B685A8A7B681B8B9A421CD17B
:103D70007B6800221A837B68DB69181C01F028FB32
:103D800013E00B4B0A4AD278D1B27F220A40D2B25A
:103D9000DA70074B064A9279D2B29A717B681B8817
:103DA000012293439AB27B681A80BD4602B080BD5F
:103DB00000C00640F0B5474680B482B000AF354B36
:103DC0001B687B60344B1B79DBB21C1C0025002672
:103DD0000F23234044D0304BDB79DBB298460223DB
:103DE000234013D0202323400DD04246002A0AD17D
:103DF000331C0133DEB27B681B88022213439AB264
:103E00007B681A8002E004232B439DB208232340E1
:103E100002D001232B439DB20123234002D0022371
:103E20002B439DB20423234002D008232B439DB291
:103E30007B685A682B1C1A437B685A602023221C1B
:103E40009A43131C1C1C002E05D07B68DB69181CD0
:103E500001F07CFB04E07B68DB69181C01F02CFBA3
:103E60002023234003D07B68181CFFF737FF7B68B3
:103E70001B881A1C0123134006D08023234003D043
:103E80007B68181CFFF756FFBD4602B004BC904685
:103E9000F0BDC04664FEFF1F00C0064080B584B080
:103EA00000AF786039607B68FB603B1C0B33EFF33D
:103EB000108072B61870144B1B78DBB20133DBB282
:103EC000114A191C1170012B04D13B1C0B331A78B9
:103ED0000E4B1A70FB685A683B681A60FB68002238
:103EE0005A60094B1B78DBB2013BDBB2064A191C56
:103EF0001170002B03D1054B187880F31088002334
:103F0000181CBD4604B080BDA5000020200C002078
:103F100080B584B000AF7860604BFB60FB68002226
:103F20001A81FB6800221A82FB680022DA60FB68B3
:103F300000225A82FB6800221A83FB6800225A6121
:103F4000FB687A68DA61564BFA681A60554A554937
:103F5000554BCB588021C9001943534BD150534B7B
:103F6000524A9169524A0A40C02189000A439A6123
:103F70004E4B4E4AD1694E4A0A40C02189000A433D
:103F8000DA614C4A4B49C3239B00CB58FF21181CD4
:103F90008843011CC3239B00D150464B454A1268FD
:103FA000802149010A431A60434B434AD278D2B276
:103FB00008218A43D2B2DA703F4B3F4AD278D2B25C
:103FC00004218A43D2B2DA70FB6800221A80FB68AF
:103FD00000225A60FB6800229A70374B00229A70C8
:103FE000354B00229A71344B00229A72324B0022D8
:103FF0005A712C4A2B49314BC958314B0B40802107
:10400000C90419432D4BD1502B4B2B4A1278D2B2F5
:104010001F218A43D2B21A70274B02225A70264BB4
:10402000254A927AD2B2D2B21F218A43D2B2032158
:104030000A43D2B2D2B29A721F4B1F4AD27AD2B27C
:10404000D2B202210A43D2B2D2B2DA721A4B1A4A5F
:10405000D278D1B25F220A40D2B2DA70164B164A39
:104060009279D2B20F218A43D2B29A71124B124A7C
:10407000D278D2B208218A43D2B2DA700E4B0E4AFD
:10408000D278D2B204218A43D2B2DA700D4BFA68E8
:104090005A60FB68181CBD4604B080BD68FEFF1F57
:1040A00088FEFF1F007004403410000000C0044070
:1040B000FFF8FFFE00E100E000A006400410000051
:1040C000FFFFFFF3BC02002080B584B000AF786032
:1040D0007B68FB60FB689B78002B26D1FB68012284
:1040E0009A70144B134AD278D2B2D2B208210A4342
:1040F000D2B2D2B2DA700F4B0E4AD278D2B2D2B26A
:1041000004210A43D2B2D2B2DA700A4B094AD278F9
:10411000D2B220210A43D2B2DA70064B054A927914
:10412000D2B20F210A43D2B29A710023181CBD46A5
:1041300004B080BD00A0064080B584B000AF7860B8
:104140007B68FB60FB689B78002B22D0FB68002219
:104150009A70124B114AD278D1B25F220A40D2B281
:10416000DA700E4B0D4A9279D2B20F218A43D2B245
:104170009A710A4B094AD278D2B208218A43D2B244
:10418000DA70064B054AD278D2B204218A43D2B201
:10419000DA700023181CBD4604B080BD00A00640A4
:1041A00080B586B000AFF860B960BB1D1A80FB68AF
:1041B0007B617B699B78002B01D1072339E0BB1D14
:1041C0001B88002B01D1842333E07B691B8A002BE1
:1041D00001D008232DE03B1C1333EFF3108072B69F
:1041E0001870164B1B78DBB20133DBB2134A191C73
:1041F0001170012B04D13B1C13331A78104B1A7029
:104200007B69BA68DA607B69BA1D12881A827B6999
:1042100000221A81094B1B78DBB2013BDBB2074A53
:10422000191C1170002B03D1054B187880F31088EE
:104230000023181CBD4606B080BDC046A500002066
:10424000200C002080B586B000AFF860B960BB1DBF
:104250001A80FB687B617B699B78002B01D1072367
:104260004EE0BB1D1B88002B01D1842348E07B69F5
:104270001B8B002B01D0082342E03B1C1333EFF3D0
:10428000108072B61870204B1B78DBB20133DBB2A2
:104290001D4A191C1170012B04D13B1C13331A78D1
:1042A0001A4B1A707B69BA685A617B69BA1D128809
:1042B0001A837B6900225A827B691B88012213437F
:1042C0009AB27B691A80124B114AD278D2B28021FD
:1042D00049420A43D2B2DA700D4B0D4A9279D2B2FA
:1042E0009A71094B1B78DBB2013BDBB2064A191C01
:1042F0001170002B03D1054B187880F31088002330
:10430000181CBD4606B080BDA5000020200C002072
:1043100000A0064090B583B000AF7860124BDB7907
:10432000DBB21C1C7B681B8A002B1AD07B68DB6805
:10433000591C7A68D160E2B21A707B681B8901331C
:104340009AB27B681A817B681A897B681B8A9A42B9
:1043500007D17B6800221A827B68DB69181C00F099
:1043600061FBBD4603B090BD00A0064080B582B0A1
:1043700000AF78607B685A8A7B681B8B9A421CD29C
:1043800019497B685B69581C7A6850611B78CB714E
:104390007B685B8A01339AB27B685A827B685A8A4F
:1043A0007B681B8B9A421CD17B6800221A837B6836
:1043B000DB69181C00F098FB13E00B4B0A4AD2781B
:1043C000D1B27F220A40D2B2DA70074B064A927904
:1043D000D2B29A717B681B88012293439AB27B68A0
:1043E0001A80BD4602B080BD00A00640F0B5474629
:1043F00080B482B000AF364B1B687B60354B1B79B5
:10440000DBB21C1C002500260F23234047D0314B74
:104410000F221A712F4BDB79DBB29846022323401F
:1044200013D0202323400DD04246002A0AD1331C4A
:104430000133DEB27B681B88022213439AB27B6889
:104440001A8002E004232B439DB20823234002D0AC
:1044500001232B439DB20123234002D002232B438F
:104460009DB20423234002D008232B439DB27B68D6
:104470005A682B1C1A437B685A602023221C9A43DB
:10448000131C1C1C002E05D07B68DB69181C00F077
:10449000E9FB04E07B68DB69181C00F099FB202332
:1044A000234003D07B68181CFFF734FF7B681B8810
:1044B0001A1C0123134006D08023234003D07B68BD
:1044C000181CFFF753FFBD4602B004BC9046F0BD78
:1044D00088FEFF1F00A0064080B584B000AF786062
:1044E00039607B68FB60FB689B78002B01D1072358
:1044F0002AE03B1C0B33EFF3108072B61870144B9C
:104500001B78DBB20133DBB2114A191C1170012B8D
:1045100004D13B1C0B331A780E4B1A70FB685A6897
:104520003B681A60FB6800225A60094B1B78DBB2BB
:10453000013BDBB2064A191C1170002B03D1054B5D
:10454000187880F310880023181CBD4604B080BD85
:10455000A5000020200C002080B584B000AF78605A
:10456000104BFB60FB687A681A600F4B0E4A526969
:1045700001210A435A610C4B0B4A126801218A43FC
:104580001A600A4B094A1168094A0A408021490009
:104590000A431A60074BFA689A60FB68181CBD460C
:1045A00004B080BD8CFEFF1F40F00F4000A004400F
:1045B000FFF8FFFEBC02002080B582B000AF78603B
:1045C000024B01229A60BD4602B080BD40F00FF858
:1045D00080B582B000AF7860024B01225A60BD46C0
:1045E00002B080BD40F00FF880B500AF1B4B1B78C8
:1045F000002B24D01A4B1B68181CFFF765FD184BC5
:104600001A68184B101C191C0122FFF7C9FD164B24
:104610001B88002B1FD0154B1B88202213439AB2F6
:10462000124B1A800E4B1A68114B1B88191C114B28
:10463000CB18101C191C0122FFF704FE0BE00B4BDA
:104640001A88DF2313409AB2084B1A80044B1B6868
:10465000181CFFF771FDBD4680BDC04690FEFF1FD0
:104660001C0C00209CFFFF1F9EFFFF1F92FEFF1FE0
:10467000A0FFFF1FA4FFFF1F80B500AF064B1B78F4
:10468000002B04D1044B01221A70FFF7ADFF002369
:10469000181CBD4680BDC04690FEFF1F80B500AF10
:1046A000064B1B78002B04D0044B00221A70FFF736
:1046B0009BFF0023181CBD4680BDC04690FEFF1F17
:1046C00080B584B000AF78603B1C0F3300221A70B5
:1046D0002D4B1B88002B4DD03B1C0E33EFF310806D
:1046E00072B61870294B1B78DBB20133DBB2274A54
:1046F000191C1170012B04D13B1C0E331A78244B6A
:104700001A70214B1B88013B9AB21F4B1A80214B18
:104710001B885A1C91B21F4A11801F4AD25C7B68C9
:104720001A701C4B1B88FF2B02D91A4B00221A80CF
:104730001A4B1B881A1C1A4B134001D0192300E096
:1047400000233A1C0F321370144B1A88154B134078
:104750009AB2124B1A800D4B1B78DBB2013BDBB2D5
:104760000A4A191C1170002B06D1094B187880F3E6
:10477000108801E00A2302E03B1C0F331B78181C51
:10478000BD4604B080BDC04694FEFF1FA5000020BA
:10479000200C002096FEFF1F9CFEFF1F92FEFF1FB5
:1047A00041080000B6F7FFFF80B584B000AF021CDF
:1047B000FB1D1A70314B1A8880235B009A4201D18D
:1047C0000B2357E03B1C0F33EFF3108072B61870C9
:1047D0002B4B1B78DBB20133DBB2294A191C117059
:1047E000012B04D13B1C0F331A78264B1A70234B34
:1047F0001B8801339AB2214B1A80234B1B885A1C09
:1048000091B2214A1180214AF91D0978D1541E4BD9
:104810001B88FF2B02D91C4B00221A801C4B1B78D3
:10482000002B18D01B4B1B881A1C2023134012D1BD
:10483000184B1B88202213439AB2164B1A80164B32
:104840001A68164B1B88191C104BCB18101C191C0E
:104850000122FFF7F7FC0A4B1B78DBB2013BDBB20E
:10486000074A191C1170002B03D1064B187880F3EE
:1048700010880023181CBD4604B080BD9EFFFF1F9A
:10488000A5000020200C0020A2FFFF1FA4FFFF1F97
:1048900090FEFF1F92FEFF1F1C0C0020A0FFFF1FB9
:1048A00080B582B000AFFB1DEFF3108072B61870B8
:1048B000144B1B78DBB20133DBB2124A191C1170A6
:1048C000012B03D1FB1D1A780F4B1A700F4B0022DE
:1048D0001A800F4B00221A800E4B00221A80094BBF
:1048E0001B78DBB2013BDBB2064A191C1170002BAE
:1048F00003D1054B187880F310880023181CBD469F
:1049000002B080BDA5000020200C002094FEFF1FF7
:1049100098FEFF1F96FEFF1F80B582B000AFFB1D03
:10492000EFF3108072B61870144B1B78DBB20133B2
:10493000DBB2124A191C1170012B03D1FB1D1A782E
:104940000F4B1A700F4B00221A800F4B00221A8057
:104950000E4B00221A80094B1B78DBB2013BDBB205
:10496000064A191C1170002B03D1054B187880F3EF
:1049700010880023181CBD4602B080BDA500002091
:10498000200C00209EFFFF1FA2FFFF1FA0FFFF1FA4
:1049900080B500AF024B1B88181CBD4680BDC046C9
:1049A00094FEFF1F80B500AF024B1B88181CBD464C
:1049B00080BDC0469EFFFF1F80B500AF104B002298
:1049C0001A80104B00221A700F4B00221A800F4BD6
:1049D00000221A800E4B00221A800E4B00221A80F1
:1049E0000D4B00221A800D4B00221A800020FFF789
:1049F0008FFA021C0A4B1A60FFF7F6FDBD4680BD18
:104A000092FEFF1F90FEFF1F94FEFF1F96FEFF1FEA
:104A100098FEFF1F9EFFFF1FA0FFFF1FA2FFFF1FAB
:104A20001C0C002090B583B000AF78600024284BA8
:104A30001B88FF2B23D8264B1B8801339AB2244BAB
:104A40001A80244B1B885A1C91B2224A1180224A98
:104A50001178224AD1541F4B1B88FF2B02D91D4BC2
:104A600000221A8004232343DCB2194B1A888023C6
:104A70005B009A420DD102232343DCB209E0184BBC
:104A80001B88402213439AB2154B1A8001232343FB
:104A9000DCB2221C0123134002D0FDF785FF0BE09E
:104AA000221C0423134001D0FDF782FF221C0223A5
:104AB000134001D0FDF784FF0A4B1A68064B101C07
:104AC000191C0122FFF76CFBBD4603B090BDC04628
:104AD00094FEFF1F98FEFF1F9CFFFF1F9CFEFF1F01
:104AE00092FEFF1F1C0C002080B584B000AF7860E0
:104AF0003B1C0E3300221A802F4B1B881A1C2023CC
:104B0000134007D03B1C0E333A1C0E321288022190
:104B10000A431A80294B1B8801339AB2274B1A800B
:104B2000264B1B88FF2B02D9244B00221A80244BD2
:104B30001B88013B9AB2224B1A80214B1B88002B09
:104B400013D01D4B1B88202213439AB21A4B1A8094
:104B50001C4B1A68194B1B88191C1B4BCB18101CBB
:104B6000191C0122FFF76EFB12E0134B1A88DF239A
:104B700013409AB2104B1A80144B1B78002B07D1AC
:104B80003B1C0E333A1C0E32128801210A431A8054
:104B90003B1C0E331A880223134001D0FDF70CFF93
:104BA0003B1C0E331A880123134001D0FDF70CFF84
:104BB000BD4604B080BDC04692FEFF1FA0FFFF1F90
:104BC0009EFFFF1F1C0C0020A4FFFF1FA40000205D
:104BD00080B584B000AF7860204B1A683B1C0C3362
:104BE000101C191CFFF778FCFB68002B31D0FA6809
:104BF0000223134001D0042300E00023184A128846
:104C000013439AB2164B1A80FA680823134001D056
:104C1000802300E00023124A128813439AB2104BFB
:104C20001A80FB689AB2012313409AB20C4B1B887E
:104C300013439AB20A4B1A80FA680423134001D036
:104C4000022300E00023064A128813439AB2044B61
:104C50001A80FDF7A9FEBD4604B080BD1C0C0020E3
:104C600092FEFF1F80B582B000AF7860044B1B88B6
:104C7000022213439AB2024B1A80BD4602B080BD95
:104C800092FEFF1F80B500AFFDF776FEBD4680BDEA
:104C900080B500AFFFBEBD4680BDC04680B500AF49
:104CA000564A5749574BD150574A88235B01002138
:104CB000D150554A554BC0218902D150524A5249D0
:104CC000534BCB58F82189011943514BD1504E4ACF
:104CD0004D494F4BCB58012119434D4BD1504D4BB2
:104CE0009B78DBB21A1C0823134007D0494B494A72
:104CF0009278D2B208210A43D2B29A70424A434B08
:104D00004549D150404A4049444BCB588021490243
:104D10001943424BD1503C4B3B4A1268C021090316
:104D20000A431A60384A38493C4BC9583C4B0B403F
:104D3000802149041943394BD1503A4B394A916C7F
:104D4000394A0A409A64374B364AD16C364A0A408F
:104D5000DA64364B354A5278D2B2D2B2111C4022B4
:104D60000A40D2B224210A43D2B2D2B25A70304B96
:104D700080221A702D4BA0221A702C4B2B4AD2780D
:104D8000D1B21F220A40D2B2DA70284B02221A7125
:104D9000264B00225A71C046244B9B79DBB21A1C69
:104DA00010231340F8D1C046204B9B79DBB21A1C6C
:104DB0000C231340082BF7D11C4B40225A71C046DC
:104DC0001A4B9B79DBB21A1C0C231340082BF7D12A
:104DD000C046164B9B79DBB21A1C40231340F8D017
:104DE000124B20221A70C046104B9B79DBB21A1C62
:104DF0000C2313400C2BF7D1BD4680BD00E000E032
:104E000000200000080D0000007004404410000065
:104E10003810000000D0074000000110041000000E
:104E2000FFFFFFFC00900440FFF8FFFE004006403B
:104E30000050064080B500AF7E4A7E497E4BCB587D
:104E4000E0218B43402119437B4BD1507B4B7B4A64
:104E500011697B4A0A40E021C9000A431A61794B73
:104E6000784A5279D2B21F218A43D2B25A71754B15
:104E7000744A1279D2B207218A43D2B21A71724BA4
:104E8000714A1278D2B2D2B273218A43D2B250217F
:104E90000A43D2B2D2B21A706B4B6B4A5278D2B27A
:104EA000D2B263218A43D2B240210A43D2B2D2B2F3
:104EB0005A70654B644A9278D2B219218A43D2B2B1
:104EC0009A70624B00221A70614B614A9168614A84
:104ED0000A4002210A439A605D4B5D4A51695E4A6D
:104EE0000A400421FF310A435A61594B584A9169DB
:104EF000594A0A400421FF310A439A61544B544AEB
:104F0000D169554A0A40812149000A43DA61504B70
:104F10004F4A51684A4A0A40802149000A435A6070
:104F20004B4B4B4A1169464A0A40802149000A43CB
:104F30001A614A4A4949C7239B00CB581B04190CE4
:104F4000C7239B00D150464B454A1168424A0A404C
:104F50000421FF310A431A60414B414A916F3E4A96
:104F60000A40812149000A439A673C4A3B49C623CB
:104F70009B00CB58FF218B4340211943C6239B0044
:104F8000D150384B374A9169324A0A4002210A43CC
:104F90009A612A4B294A51682F4A0A4081214900C7
:104FA0000A435A60254B254A91682B4A0A408121C1
:104FB00049000A439A60264B254AD168204A0A4094
:104FC000A021C9000A43DA601C4B1C4A116D1C4A1F
:104FD0000A40E021C9000A431A65204A1F49C1233B
:104FE0009B00C958204B1940C1239B00D15000F0B1
:104FF000C9FA00F059F9FFF7DFFC00F0F7FA00F00A
:105000008FFF00F0A3FE00F00DFD0020FFF7A4FAD3
:10501000164B9B68181CFFF7CFFA002000F0F4FA3B
:1050200000F0F8FB002000F0C3FC00F09FFA62B62D
:10503000BD4680BD00700440041000000090044094
:10504000FFF8FFFE00F0074000D0074000E00740F7
:1050500000B00440FCFFFFFEFCF8FFFE00E100E0B2
:1050600000D0044000C00440FFFF00FFBC0200204D
:1050700080B500AF024A034B0349D150FEE7C0465A
:1050800000E000E00C0D00000400FA0580B500AF60
:10509000044B1A68044B101C191C0122FEF770FD0A
:1050A000BD4680BD240C0020B001002080B584B036
:1050B00000AF78603B1C0F3300221A702D4B1B8809
:1050C000002B4DD03B1C0E33EFF3108072B61870DE
:1050D000294B1B78DBB20133DBB2274A191C117054
:1050E000012B04D13B1C0E331A78244B1A70214B30
:1050F0001B88013B9AB21F4B1A80214B1B885A1CFC
:1051000091B21F4A11801F4AD25C7B681A701C4BF7
:105110001B88FF2B02D91A4B00221A801A4B1B88BE
:105120001A1C1A4B134001D0192300E000233A1C2B
:105130000F321370144B1A88154B13409AB2124B4E
:105140001A800D4B1B78DBB2013BDBB20A4A191CFB
:105150001170002B06D1094B187880F3108801E0FC
:105160000A2302E03B1C0F331B78181CBD4604B019
:1051700080BDC046A8000020A5000020200C002013
:10518000AA000020B0000020A60000204108000076
:10519000B6F7FFFF80B584B000AF021CFB1D1A708C
:1051A0002F4B1A8880235B009A4201D10B2353E0D6
:1051B0003B1C0F33EFF3108072B61870294B1B782D
:1051C000DBB20133DBB2274A191C1170012B04D169
:1051D0003B1C0F331A78244B1A70214B1B88013368
:1051E0009AB21F4B1A80214B1B885A1C91B21F4A3E
:1051F00011801F4AF91D0978D1541C4B1B88FF2BC5
:1052000002D91A4B00221A801A4B1B881A1C202321
:10521000134012D1174B1B88202213439AB2154B0F
:105220001A80154B1A68154B1B88191C104BCB188C
:10523000101C191C0122FEF7EFFC0A4B1B78DBB295
:10524000013BDBB2074A191C1170002B03D1064B3E
:10525000187880F310880023181CBD4604B080BD68
:10526000B2010020A5000020200C0020B601002083
:10527000B8010020A6000020240C0020B40100206A
:1052800080B500AF024B1B88181CBD4680BDC046D0
:10529000A800002080B500AF024B1B88181CBD463B
:1052A00080BDC046B201002080B500AF0F4B002288
:1052B0001A800F4B00221A800E4B00221A800E4BD0
:1052C00000221A800D4B00221A800D4B00221A80FA
:1052D0000C4B00221A800020FEF79AFB021C0A4B9E
:1052E0001A60FFF7D3FEBD4680BDC046A600002071
:1052F000A8000020AA000020AC000020B20100207D
:10530000B4010020B6010020240C002090B583B029
:1053100000AF78600024284B1B88FF2B23D8264B36
:105320001B8801339AB2244B1A80244B1B885A1CC9
:1053300091B2224A1180224A1178224AD1541F4B3D
:105340001B88FF2B02D91D4B00221A800423234304
:10535000DCB2194B1A8880235B009A420DD10223DC
:105360002343DCB209E0184B1B88402213439AB256
:10537000154B1A8001232343DCB2221C0123134066
:1053800002D0FDF7FDFA0BE0221C0423134001D0EC
:10539000FDF7FAFA221C0223134001D0FDF7FCFAB4
:1053A0000A4B1A68064B101C191C0122FEF7E8FB79
:1053B000BD4603B090BDC046A8000020AC00002050
:1053C000B0010020B0000020A6000020240C002026
:1053D00080B584B000AF78603B1C0E3300221A8089
:1053E0002F4B1B881A1C2023134007D03B1C0E3365
:1053F0003A1C0E32128802210A431A80294B1B885C
:1054000001339AB2274B1A80264B1B88FF2B02D9F7
:10541000244B00221A80244B1B88013B9AB2224B5A
:105420001A80214B1B88002B13D01D4B1B88202278
:1054300013439AB21A4B1A801C4B1A68194B1B88DB
:10544000191C1B4BCB18101C191C0122FEF7E4FB86
:1054500012E0134B1A88DF2313409AB2104B1A80C4
:10546000144B1B78002B07D13B1C0E333A1C0E3219
:10547000128801210A431A803B1C0E331A8802232A
:10548000134001D0FDF784FA3B1C0E331A88012328
:10549000134001D0FDF784FABD4604B080BDC0467C
:1054A000A6000020B4010020B2010020240C00203E
:1054B000B8010020B802002080B584B000AF786049
:1054C000204B1A683B1C0C33101C191CFEF7E6FC21
:1054D000FB68002B31D0FA680223134001D004236B
:1054E00000E00023184A128813439AB2164B1A8020
:1054F000FA680823134001D0802300E00023124AF9
:10550000128813439AB2104B1A80FB689AB2012397
:1055100013409AB20C4B1B8813439AB20A4B1A8061
:10552000FA680423134001D0022300E00023064A56
:10553000128813439AB2044B1A80FDF721FABD4634
:1055400004B080BD240C0020A600002080B582B0ED
:1055500000AF7860044B1B88022213439AB2024BBF
:105560001A80BD4602B080BDA600002080B500AF05
:10557000034B034A526906218A435A61BD4680BDE6
:1055800000F00F4080B500AF0A4B0A4A5268102164
:105590000A435A60074B074A926810218A439A606F
:1055A000044B044A5269F6218A4310210A435A6186
:1055B000BD4680BD80F00F4080B500AF0A4B0A4A5F
:1055C000526880218A435A60074B074A92688021BB
:1055D0000A439A60044B044A5269C0218A438021DD
:1055E0000A435A61BD4680BDC0F00F4080B500AF90
:1055F000034B034A5169034A0A405A61BD4680BDC4
:1056000000F10F40FEFFFFBF80B584B000AF7860AF
:10561000104BFB60FB687A681A600F4B0E4A5269A8
:1056200002210A435A610C4B0B4A126802210A43B9
:105630001A600A4B094A5168094A0A408021490008
:105640000A435A60074BFA68DA60FB68181CBD46CB
:1056500004B080BDD402002040F00F4000A0044000
:10566000FFF8FFFEBC02002080B582B000AF78607A
:10567000024B02229A60BD4602B080BD40F00FF896
:1056800080B582B000AF7860024B02225A60BD46FE
:1056900002B080BD40F00FF880B582B000AF7860F6
:1056A000FDF796F9BD4602B080BDC04680B584B016
:1056B00000AF021CBB1D1A803B1C0F3300221A7066
:1056C000BB1D00229B5E002B02D1BB1D01221A8054
:1056D0003B1C0E33EFF3108072B6187006E03B1CD3
:1056E0000F331A783B1C0F3301321A703B1C0F33F7
:1056F0001B78174AD35C002B04D13B1C0F331B785B
:10570000002BECD03B1C0F331B78002B0DD13B1C26
:105710000F331B780E4A0021D1543B1C0F331A78EB
:105720000C4B5200B91D0988D1523B1C0E3318781E
:1057300080F310883B1C0F331B78012B01D1FF2312
:1057400002E03B1C0F331B78181CBD4604B080BD23
:10575000DC020020D802002080B584B000AF021C1B
:10576000FB1D1A70FB1D1B78FF2B01D1012319E0D3
:105770003B1C0E33EFF3108072B61870FB1D1A78C5
:105780000A4B5200D35A1BB25A425341DAB23B1C65
:105790000F331A703B1C0E33187880F310883B1CB3
:1057A0000F331B78181CBD4604B080BDD802002002
:1057B00080B582B000AFBB1DEFF3108072B61870D9
:1057C000FB1D00221A7017E0FB1D1A78104B5200C7
:1057D000D35A1BB2002B0ADDFB1D1A780C4B51006B
:1057E000CB5A9BB2013B99B2094B5200D152FB1DDF
:1057F0001A78FB1D01321A70FB1D1B78002BE3D0B9
:10580000BB1D187880F31088BD4602B080BDC0462D
:10581000D802002080B582B000AFFB1D00221A70B4
:105820000FE0FB1D1A780A4B52000021D152FB1DDC
:105830001B78084A0121D154FB1D1A78FB1D013247
:105840001A70FB1D1B78002BEBD0BD4602B080BD4B
:10585000D8020020DC02002080B584B000AF0A1C12
:10586000FB1D011C19703B1D1A80FB1D1B78FF2BB3
:1058700001D100231CE03B1C0D33EFF3108072B606
:105880001870FB1D19783B1C0E330C4A49008A5ACC
:105890001A80FB1D1A78094B5200391D0988D15214
:1058A0003B1C0D33187880F310883B1C0E331B888B
:1058B0001BB2181CBD4604B080BDC046D8020020F3
:1058C00080B584B000AF7860254B1B69002B36D1C2
:1058D000244BFB60FB687A685A60FB6801221A70EF
:1058E000214BFA681A60214A2049214BCB580121EB
:1058F00019431F4BD1501F4B80221A601D4B1E4A6B
:105900009A601C4B03225A601C4A1C49C7239B0007
:10591000CB58FF218B4340211943C7239B00D15013
:10592000164B164A1268802149050A431A60114B2A
:1059300041221A600A4BFA681A61FB680CE0084BB6
:105940001B69FB60FB687A685A60FB681B7801334F
:10595000DAB2FB681A70FB68181CBD4604B080BD43
:10596000BC020020E0020020E80200200070044099
:1059700038100000000004405FEA000000E100E091
:1059800080B582B000AF084B1B687B60074B074AAD
:10599000126880210A431A607B685B68181C00F05B
:1059A0002FF8BD4602B080BDE80200200000044090
:1059B00080B584B000AF78600F4BFB60FB687A68FD
:1059C0009A60FB6801221A710C4BFA685A61002038
:1059D000FFF776FF021CFB681A60FB681B68002B50
:1059E00004D1064B00225A61002300E0FB68181C1A
:1059F000BD4604B080BDC046EC020020BC020020C1
:105A000080B584B000AF7860054B5B69FB60FB68D4
:105A10009B68181CFFF740FEBD4604B080BDC04621
:105A2000BC02002080B500AF584A5849584BCB58AB
:105A30008021C9021943564BD150544A5349554B02
:105A4000CB588021C9021943524BD150524A524976
:105A50009423CB5CDBB202210B43D9B29423D15403
:105A60004D4A80235B004021D1544B4BFF221A74D6
:105A7000494A8023FF21D154474A8823FF21D1542A
:105A8000454A8423FF21D154434A8C230021D15419
:105A9000414A86235B006021D1543F4B00221A7596
:105AA0003D4A98230021D1543B4AC0230021D154C0
:105AB000394AC4230021D154374AC8230021D15484
:105AC000354ACC230021D154334AD0230021D1546C
:105AD000314AD4230021D1542F4AD8230021D15454
:105AE0002D4ADC230021D1542B4AE0230021D1543C
:105AF000294AE4230021D154274AE8230021D15424
:105B0000254AEC230021D154234AF0230021D1540B
:105B1000214AF4230021D1541F4AF8230021D154F3
:105B20001D4AFC230021D1541B4A1C4B1B0ADBB22B
:105B300001218B43D9B29C23D154174A174B1B0C1C
:105B4000D9B2B023D154144A144B1B0ED9B2B4238A
:105B5000D154114AAC230021D1540F4B00221A77A3
:105B60000D4A84235B000021D1540B4A0A49942337
:105B7000CB5CDBB2DBB22B218B43DBB201210B43CD
:105B8000DBB2D9B29423D154BD4680BD007004402D
:105B9000041000003410000000200740000E002018
:105BA00080B584B000AF021CFB1D1A703B1C0F3384
:105BB00000221A703B1C0E33EFF3108072B618707F
:105BC000224B1B78DBB20133DBB2204A191C117067
:105BD000012B04D13B1C0E331A781D4B1A701D4B40
:105BE0001B78802B04D13B1C0F330B221A7018E05A
:105BF000194B1B78194AF91D0978D154154B1B789C
:105C00000133DAB2134B1A70134B1B780133DAB23B
:105C1000114B1A70104B1B78802B02D10E4B0022B7
:105C20001A700A4B1B78DBB2013BDBB2074A191C26
:105C30001170002B03D1064B187880F310883B1CA1
:105C40000F331B78181CBD4604B080BDA500002092
:105C5000200C00207A03002078030020F8020020A6
:105C600080B584B000AF78603B1C0F3300221A70FF
:105C70003B1C0E33EFF3108072B61870224B1B786A
:105C8000DBB20133DBB2204A191C1170012B04D1A5
:105C90003B1C0E331A781D4B1A701D4B1B78002BC2
:105CA00004D13B1C0F330A221A7018E0194B1B78E1
:105CB000194AD25C7B681A70154B1B78013BDAB22B
:105CC000134B1A70134B1B780133DAB2114B1A7055
:105CD000104B1B78802B02D10E4B00221A700A4BFE
:105CE0001B78DBB2013BDBB2074A191C1170002B99
:105CF00003D1064B187880F310883B1C0F331B78B8
:105D0000181CBD4604B080BDA5000020200C00205A
:105D10007A03002079030020F802002080B500AF4C
:105D2000024B1B78181CBD4680BDC0467A0300207C
:105D300080B500AF044B1B7880225242D31ADBB2ED
:105D4000181CBD4680BDC0467A03002080B500AF58
:105D5000054B00221A70054B00221A70044B0022DA
:105D60001A70BD4680BDC04678030020790300202C
:105D70007A03002080B584B000AF021CFB1D1A70AE
:105D80003B1C0F3300221A703B1C0E33EFF31080C4
:105D900072B61870224B1B78DBB20133DBB2204A9B
:105DA000191C1170012B04D13B1C0E331A781D4BAA
:105DB0001A701D4B1B78802B04D13B1C0F330B2218
:105DC0001A7018E0194B1B78194AF91D0978D1543B
:105DD000154B1B780133DAB2134B1A70134B1B7837
:105DE0000133DAB2114B1A70104B1B78802B02D1A1
:105DF0000E4B00221A700A4B1B78DBB2013BDBB260
:105E0000074A191C1170002B03D1064B187880F338
:105E100010883B1C0F331B78181CBD4604B080BD96
:105E2000A5000020200C0020FE030020FC03002021
:105E30007C03002080B584B000AF78603B1C0F333A
:105E400000221A703B1C0E33EFF3108072B61870EC
:105E5000224B1B78DBB20133DBB2204A191C1170D4
:105E6000012B04D13B1C0E331A781D4B1A701D4BAD
:105E70001B78002B04D13B1C0F330A221A7018E048
:105E8000194B1B78194AD25C7B681A70154B1B782A
:105E9000013BDAB2134B1A70134B1B780133DAB2A1
:105EA000114B1A70104B1B78802B02D10E4B002225
:105EB0001A700A4B1B78DBB2013BDBB2074A191C94
:105EC0001170002B03D1064B187880F310883B1C0F
:105ED0000F331B78181CBD4604B080BDA500002000
:105EE000200C0020FE030020FD0300207C03002086
:105EF00080B500AF024B1B78181CBD4680BDC04664
:105F0000FE03002080B500AF044B1B788022524274
:105F1000D31ADBB2181CBD4680BDC046FE0300206C
:105F200080B500AF054B00221A70054B00221A7095
:105F3000044B00221A70BD4680BDC046FC03002001
:105F4000FD030020FE030020C046C046C046704747
:105F50000020C046C046C046C046C04601300928A1
:105F6000F7D9C0467047C04680B582B000AF021C6A
:105F7000BB1D1A8006E0FFF7EBFFBB1DBA1D1288A0
:105F8000643A1A80BB1D1B88642BF4D806E0FFF727
:105F9000DBFFBB1DBA1D12880A3A1A80BB1D1B8885
:105FA0000A2BF4D8BD4602B080BDC04680B582B091
:105FB00000AF786007E00A4B181CFFF7D5FF7B683D
:105FC000084A9B187B607A68054B9A42F3D87B6835
:105FD0009BB2181CFFF7C8FFBD4602B080BDC0468B
:105FE00060EA0000A015FFFF80B584B000AF021C7E
:105FF000BB1D1A80094BFB6008E0FB68181CFFF70B
:10600000D5FFBB1D1A88BB1D013A1A80BB1D1B881A
:10601000002BF2D1BD4604B080BDC04680BB00005D
:10602000034B80225204191DCA671A607047C0468C
:1060300000E100E070B5141C002902D1274B197053
:106040004AE002290AD10020021C031C012100F0B1
:106050008DFB234A01231360204A3CE004292ED102
:106060001E4B1B78012B37D11379527912021A4338
:10607000131C402A00D940239EB20025B5420FD2FE
:10608000637822781B021343A27812041343E27848
:1060900012061343585D0135FFF782FDEDB2EDE7BF
:1060A000FFF746FE0E4C00233F2806D90020031CB4
:1060B0000121021C00F05AFB012323600CE003299C
:1060C00003D1084B00221A7006E0052904D1034AC7
:1060D00000231370044A137070BDC04605040020ED
:1060E000000400200404002006040020F8B5061C6B
:1060F00000F05AF91F4B0C201D78EDB2012D37D15D
:106100001D4F3C68002C0AD1FFF712FE3F2806D92C
:10611000201C291C221C231C00F028FB3D60FFF7DB
:10612000E7FE032801D8002022E0144D2C78E4B2C9
:10613000002CF8D1FFF7DCFE03280CD9271DFFB295
:106140003019FFF777FE002803D10134E4B2BC42D6
:10615000F6D13F2CEED901232B7000200221321CF6
:10616000231C01F0C9FA0028DDD000232B70122077
:10617000F8BDC046050400200004002004040020EF
:1061800008B5031C00200449021C01F08FFA002806
:1061900000D0FEE708BDC046255C000008B5044BF2
:1061A000021C083200781B680521984708BDC046CC
:1061B0000804002010B50121041C044A00F00EFF61
:1061C000201C0121802200F023FF10BD0C040020C0
:1061D00037B56D46073501212A1C041C00F0FEFE70
:1061E0002B78802B05D1034B201C1A78012100F05D
:1061F0000FFF37BD0C04002008B5437902791B025C
:1062000013438279052112041343C2791206134302
:106210005A7800F0FDFE08BD73B501220024051C6C
:106220000126002100F0BEFE331C0196281C211C13
:106230000094402200F090FE281C211C221C00F03B
:10624000B1FE231C0196281C211C0094402200F062
:1062500083FE311C281C022200F0DAFE321C281CAE
:10626000062100F0D5FE281C221C902100F0D0FE53
:10627000034B28781B68211C221C984773BDC0461D
:106280000804002008B54278002A06D1C1781023FE
:10629000C9011943C9B200F0BBFE08BD73B56C4615
:1062A0000E1CE07101F05AF91B4B0734051C1E60EF
:1062B00030D11021194A207800F0E2FE1221051C8D
:1062C000174A207800F0DCFE14210543154A207897
:1062D00000F0D6FEEDB205431321134A207800F0FA
:1062E000CFFEEDB205431721104A207800F0C8FE1A
:1062F000EDB2054316210E4A207800F0C1FEEDB242
:1063000005430322201C012100F082FE094B0322D9
:10631000EDB21A70281C76BD08040020095E00004A
:10632000E95D0000A55D0000C15D0000755E000034
:106330008D5D00000C040020F0B587B06C466D4602
:106340000F3416356E46019220702A1C0F1C201C3B
:1063500001211736029300F041FE201C0621321C59
:1063600000F03CFE2B78802B12D133789A070FD5A2
:106370002078FCF757FC01280AD172B6201C00F0E7
:1063800013FB0022201C01212A7000F041FE62B69E
:106390002B780020802B05D0201C391C019A029BF1
:1063A00000F0A0FA07B0F0BD70470000031C00B574
:1063B000FF20062B12D89800C0B2012901D102306B
:1063C000C0B2122143084B43054A995CD3185A784E
:1063D000044B12020A439A4200D1FF2000BDC0467E
:1063E0001C040020FFFF0000F8B5324C324B0027A0
:1063F00090226770920018700D1C3048FF2101F048
:10640000A5FB2F4E2F4B8022D200301C391C1E6062
:1064100001F09CFB627B802313436373301C627B1F
:10642000244B52B2002AFADB274AFF2111705A7B13
:1064300040210A435A73254B8022596852040A436B
:106440005A60002D04D01968802212060A4302E027
:106450001A68520052081A6059681D4A0A405A6068
:10646000010A012291431B4BC9B21970010C1A4B4E
:10647000C9B21970194B010E197080239B00C01806
:10648000174B10211860174B61721A70164BBF2002
:10649000187060787F2303406370144B18780243B0
:1064A0001A701A78002011431970114B84221A7740
:1064B000F8BDC046FF200740140400201C04002043
:1064C000000E00201804002054F9FF1F0070044043
:1064D000FFFFFFFE9C200740B0200740B42007408C
:1064E00010040020942007408020074084200740AB
:1064F00000200740F0B5554889B0061C06AB0D7862
:106500008C7881CE81C30879CB7800021843802330
:106510009B00984203D90023CB7002230B71952076
:10652000062D00D990E0AB00DBB2012C01D1023383
:10653000DBB212265B08734345481E5CC3185F78C4
:1065400095203F023743434EB7427DD14E78032E0C
:106550007AD8012C78D8D87BFF2801D10020D873B5
:106560000E79C878AD0036029A730595064362002D
:106570001E702A43360ADD7B5E7001263540364E9A
:10658000FF2037682A4307409F7002973768D2B2CE
:106590003D0A0540DD7003953D0C0540380EDA7369
:1065A0001D7158710495009048781C7458742B48DC
:1065B0000F79CD7800683F02D20082183D43957074
:1065C0002F0A029DD7701571039F049D5771957115
:1065D000009F0125D77108271770DA7BCF786A40B2
:1065E0000D79D2002D0282182F439770039D3F0A28
:1065F000D770029F5571009D1771049FD571482572
:10660000977115700A79CD78376812022A43D2192A
:106610003260002C07D1DB7BDB00C01802788023BE
:106620005B421343037005980D4AA40083184A780F
:106630001834013A6D46511E8A41615918780A434F
:106640000243D2B21A70002009B0F0BD50770000AA
:106650001C040020FFFF000010040020180400208C
:10666000C0200740081C10B5111CFFF79FFEC42373
:10667000FF281AD040081223C0B258430C4B012403
:1066800018180C4B1A68C37BD90051186340DB0003
:106690000C78D3187F2214400C7019780A401A70B5
:1066A00001235B428372C3720023181C10BDC046D5
:1066B0001C04002018040020F7B56F46F8710C1C6C
:1066C000081C111C161CFFF771FE0737051C9620CD
:1066D000FF2D1FD0211C321C381C6D08FFF7C2FF94
:1066E000EDB212235D430C490C4A4B1958786E5C8D
:1066F000000230431668A400301A1060084A0020D7
:10670000A4180122524220706A545A709A70DA70AA
:106710001A715A71FEBDC0461C04002010040020EE
:10672000C0200740F8B5071C0E1C081C111C151CC6
:10673000FFF73CFE40081223C0B25843094B18181B
:10674000C47BFF2C0DD02A1C381C311CFFF78AFF9C
:10675000054BE4001B681C1922787C235B42134321
:106760002370F8BD1C04002018040020F0B5081C9C
:1067700085B000211E1C151CFFF718FE41081223CE
:10678000C9B25943364B5918CF7BFF2F65D0354BD3
:1067900008781B6801934B781B02034332488342FD
:1067A0005BD00120019A7840C000145CE409E0B29B
:1067B000844662469420002A50D1FF000297FF20B1
:1067C000002E16D1019CE21993701B0AD370CB786E
:1067D00088781B02034308794979000409060343BA
:1067E0000B43190A13715171190C1B0E9171D3715E
:1067F0002AE0B7B23A1C3F0A27430240CF722F1C4F
:106800002243074027438A722A0A8F71171C0740C8
:106810002743CF712F0C384020430872280E94462E
:10682000021C22434A720C734C73019C0299621839
:106830009E4200D91E1CB6B296706346360AD670C8
:10684000157153719771D071117840230B407821E5
:1068500049420B431370002000E0942005B0F0BDC6
:106860001C04002018040020FFFF000070B5061C67
:106870000D1C081C111C141CFFF798FD4008122366
:10688000C0B25843144B1818C27BFF2A22D01349B8
:10689000AB005B18002D0CD0407C0138411E8841B4
:1068A000C0B21821012C00D11421014318780143F2
:1068B00019701978022081431970094BD2001B68A6
:1068C0000021D1548C4205D1301C291C221C231CD0
:1068D000FFF74CFF70BDC0461C040020C0200740DD
:1068E00018040020F7B5081C0E1C0121151C1F1CE4
:1068F000FFF75CFD9322FF2840D04008C0B212246D
:1069000044431F4B1F491C19E37B0968DB00CB186C
:106910001978C90932D11C48B10009180878022138
:1069200001402BD1BAB2100AE072280AE071844605
:10693000280C20720090280E21736173A2722178B6
:10694000A571607264780190240221438A4200DDBF
:106950000A1C9A70120ADA7062465A710098019AFB
:106960001D71DA719871C822002E05D01978402265
:106970000A40782149420A431A700022101CFEBDC9
:106980001C04002018040020C020074008B5044B58
:106990000448197001210A1C00F03AFB08BDC046EA
:1069A000982007401404002038B5134B7F225978F3
:1069B000124C0A405A70597B202291435973104B54
:1069C0001978114319700F4B1978914319700E4BB8
:1069D00019781D1C914319701A7804210A431A7002
:1069E000013CA4B200F08CFE002CF9D12B780422DB
:1069F00093432B7038BDC046FF200740409C0000E9
:106A0000802007408420074094200740F0B5D548F7
:106A1000D54E0278337889B01A40D448D44B0292CC
:106A20001C78FF2203786D4605AF6A7411353B7000
:106A30007A7000232A1C0121BB707B607B72BB72C1
:106A4000FB703B7200F0CAFACA4BE4B25A7BD10722
:106A50000CD52B78802B09D1C64BC64E5A787F2394
:106A600013407370737B202293437373029E04233D
:106A70001E420FD0C04AC1491278BA4809781202A2
:106A800003700A436B465A8212201233391C7B6012
:106A900000F0F8FA029E01231E4241D0B148412184
:106AA0000370B74BB74C4942197023780222134345
:106AB0002370B54B00251D70AE4B90225D70FF21F9
:106AC0009200B24801F042F8B14E8022291C306891
:106AD000D20001F03BF832688026AE4BB600921926
:106AE0001A60AD4BFF221A70237802208343A1491C
:106AF00023704B7B402213434B734122A74B5242DE
:106B0000994E1A709F23337023782025AB4323704E
:106B10001020391C00F0B6FA2378AB432370DAE179
:106B2000029E0822164200D178E18E4823090270A5
:106B30002240D110C9B27B70F970FF22062B07D812
:106B40006207D20F9B00D218012901D10232D2B2C2
:106B500001218F4B0C1C54401868E4B2E400041966
:106B6000D300CA400094D2B212245443874AC318B7
:106B700014195A79187912020243987905AD000464
:106B80000243D879009F000602436A60DE78987855
:106B9000360206436E72360AAE72E67BFF204E4026
:106BA000E6731E787606F60F4E40B6013E70EF781B
:106BB0006E788F4272D1784F002E10D13E78002E21
:106BC0000DD13870311C321C281CFFF74BFD00988A
:106BD000311C0670321C281C331CFFF7C7FD3B78A4
:106BE000012B03D06B78002B00D10EE1A9680802BD
:106BF000000C0190637B227B1B021343C3189BB2E2
:106C0000E17A1A0A09026273A27A0F1C17432278EA
:106C1000237394466178A2799F420DD80E020396A1
:106C2000FF263040039E0190604606430198B04223
:106C300026D1A07B012823D1E0790902000202437A
:106C4000207A664600040243607A3143000602431C
:106C5000D218FB1A8B4200DC99B2009F130A3A71DA
:106C60007B71130C120EFA713A78BB7140231340FA
:106C700078225242B9701343090AF9703B70C8E098
:106C8000E17909020A43217A09040A43617A6B72A5
:106C900009060A431B0A6A60AB72B6E0002E1AD1DD
:106CA0001F783D4BBF063F0F0D2F04D1A9701278FE
:106CB000D2091A700FE01A78012A0CD11870311C11
:106CC000281CFFF7CFFC009F281C3E70311C321C93
:106CD000331CFFF74BFDE77AA37A3F021F43304B8B
:106CE0009F4200D191E0A868627B217B03021202DF
:106CF0001B0C0A439A1892B2160A039666736678BA
:106D000001922273227836021643B34202D10198CF
:106D100087420BD8002F65D0381C311CFBF7C4FD0F
:106D200089B200295ED1A37B012B5BD101997F1A27
:106D3000B74200DCBEB2002E34D1E378A2781B0249
:106D400013432279009F120413436279BE70120626
:106D500013431A0A3B717A711A0C1B0EBA71FB713C
:106D600036E0C046802007408420074014040020FD
:106D700090200740FF200740A4200740A0200740A4
:106D80008820074094200740982007401C040020DA
:106D9000180400201004002054F9FF1F8C20074025
:106DA000FFFF0000E379A2791B021343227A019FBF
:106DB00012041343627A12061343DB19009F1A0A66
:106DC0003B717A711A0C1B0EBE70BA71FB71360AD8
:106DD000FE70009E402332781340782252421343C3
:106DE000337016E0E379A2791B021343227A019FE4
:106DF00012041343627A039E120613436B6001234D
:106E00005B426F72AE72A372E3726878291C00F065
:106E100039F9324B20211A788A431A70029F0223D3
:106E20001F4212D02E482F4C03702F4B22781B7814
:106E300005A9134016200B7200F024F9BF2323701C
:106E4000264B20211A788A431A70029E10231E4274
:106E500013D0234F20243C7005A93B70142000F070
:106E600011F922482249437B23434373427880230C
:106E7000134343700B781C430C70029E202426425F
:106E800009D0174F13203C7005A900F0FBF81848F3
:106E90000378A3430370029E73B2002B1BDA6D4686
:106EA00005AC1235FF23201C10212A1C637000F052
:106EB00095F82B78012B02D100226270E370084F05
:106EC00080233B70211C172000F0DCF8034B2021AD
:106ED0001A788A431A7009B0F0BDC0469420074062
:106EE00080200740882007408C200740FF20074073
:106EF0008420074000B5094BFF211A78084B1A700F
:106F0000084A002399540133072BFBD1064A00237A
:106F1000052199540133072BFBD100BD5C060020ED
:106F200064060020650600205D060020C04670470C
:106F3000013AD2B238B5051C1C1C9920062A07D884
:106F4000044B1A70FFF7D6FF281C211CFFF74CFAE0
:106F500038BDC0465C060020F7B5051C104C08A8DB
:106F6000077809A806782078002802D19520002902
:106F700014D16846C270120A8370017002714770A2
:106F8000321C28786946FFF7B5FA6A461378002B59
:106F900004D0002802D12378013B2370FEBDC046F7
:106FA0006406002038B50C1C0A4D0B49031C0978F7
:106FB0002878884202D19620002C0AD11878211C0A
:106FC000FFF77AFB002C04D0002802D12B78013384
:106FD0002B7038BD640600205C0600204B1EDBB21F
:106FE00000B5062B04D8084B591801390B7808E076
:106FF0008220CB0607D50F231940062903D8034B5F
:107000005B5C1370002000BD650600205D0600205B
:107010004B1EDBB2F7B5061C151C062B04D8164F09
:10702000791801390A7025E08220CB0623D50F2478
:107030000C40062C1FD8CF09012A05D1301C211C79
:107040003A1CFFF76FFB13E0002A11D10B4B1B5DBD
:107050000193012B0CD1301C211C3A1CFFF706FCBC
:10706000002C05D1019A301C7A40211CFFF7FEFB51
:10707000024B1D550020FEBD650600205D06002068
:107080000020704738B5041C0D1C102801D1FFF7F3
:1070900031FF044BA400E358002B01D0281C984773
:1070A000002038BD7878000030B585B069466C4660
:1070B000C871151C0F34073102221A80081C221CCB
:1070C0000521FFF78BFF034B22781A802B6005B058
:1070D00030BDC0466E06002030B585B069466C46AE
:1070E000C871151C0F34073101221A80081C221C9C
:1070F0000421FFF773FF034B227800201A802B60D6
:1071000005B030BD6E060020F0B585B06C4600229B
:10711000E0711A808B78C9786D4609021943C0B2B4
:10712000E981FBF753FD07340E350426002818D0FB
:107130002A88012153425A41D2B2201CFFF768FF2E
:10714000311C2A78201CFFF763FF074F01212A1CFE
:107150003B68061C2078984720783B680221002273
:107160009847301C05B0F0BD8C06002037B56A4644
:10717000D071002407320D1C1C80101C0121042238
:10718000FFF746FFAA78024B201C1A703EBDC0468E
:107190006C060020F0B585B06D46002207351A80D8
:1071A00028704B780A789B07DF0F03230E1C1340CF
:1071B00036D1CA788B781202012F16D11343013BC6
:1071C0009BB2CD24012B46D86A46281C06210F32DB
:1071D000FFF704FF041E3ED1B2786946CB7B97408F
:1071E0003A1C1A43D2B2CA7314E01A430092CD2457
:1071F000012A30D16F460F37281C06213A1CFFF7B1
:10720000EDFE041E27D1B378009A9A40131C3A78F9
:107210009A433A70281C0621FFF7FAFE041C1AE074
:10722000CD24022B17D10B796E46102119430F364E
:10723000281C3A1C3370FFF7EBFE0721041C002FBB
:1072400004D133780821032B00D1C046034B2878A2
:107250001B68321C9847201C05B0F0BD8C0600202E
:10726000F7B5CD781F1C8B782D021D43161C2C0AF8
:10727000032C05D14B790A791B021343EAB201E0D2
:10728000034BFF2200960197211CFBF7B3FBFEBDC9
:10729000FFFF0000F0B589B06D460E1C0492173553
:1072A000032269460A76039328700023281C0121D3
:1072B00006AA0793FFF792FE337803271F40284C56
:1072C00024D16E4619360621321C281CFFF786FE93
:1072D000337803210B40238007AB28780093023BCF
:1072E00001933A1C3B1C0221FBF784FB079BDA79D4
:1072F0002388510603D580225200134301E0194A26
:107300001340039A23800223138024E0012F0CD121
:10731000737932791B02694613430A7E012A02D12E
:10732000DBB2002B16D10023EBE7022F13D131790A
:107330006E4610231A361943321C281CFFF74EFEE6
:1073400033782380039B1F80228880235B001340B7
:10735000238000E0CD2004990C6009B0F0BDC04648
:107360006E060020FFFEFFFF10B500241C800A1CE3
:107370000978032319400423012904D11179927853
:10738000FBF708FC231C181C10BD000038B50C7856
:10739000151C032222400424012A07D1044C1A8020
:1073A0000979221CFBF7D8FB2C60041C201C38BD7B
:1073B0006E06002073B56C4607342070CD2905D1C8
:1073C000201C90210122FFF723FE18E00C491E88A3
:1073D000C8798D79000228430D1C864200D9188097
:1073E0001B88207812680021FEF7A6FF2B787F2BE0
:1073F00005D90021201C0A1C0B1CFFF7B7F973BD2F
:1074000070060020F0B585B06E46041C09360020D9
:10741000002230700392201C0121321CFFF7DEFD98
:10742000A378012B55D16179237909021943A379F6
:10743000444D1B041943E37908221B061943281CF9
:1074400000F07BFBEA79AB7912021A432B780192A8
:107450006F466022291C0A37134218D16B783A4ACA
:10746000990088588446002801D1CD212DE032783A
:10747000022AFAD85900CB1834499A18535C012BC8
:10748000F3D12078291C03AA3B1CE0471CE001989B
:107490003880002810D05BB2002B0DDB2C4E291C4D
:1074A000301C082200F049FB321C0832201C00214D
:1074B000019BFFF75BF943E0264B1D68002DD4D0FC
:1074C000207803AA3B1CA847011C207803AA3B1C78
:1074D00034E03378042B13D123786D461E4CAB7205
:1074E0000A352178281CFFF751FA01210A1C281CB3
:1074F000FFF78EFD2278281C0321FFF789FD1FE08E
:10750000104B1B787F2B1BD8E378002B18D1114B25
:107510006D461E680A35002E0CD0A37A627A1B02D3
:10752000134308332B800A49207803AA2B1CB04749
:10753000011C00E0CD21207803AA2B1CFFF73AFFA5
:1075400005B0F0BD70060020D87800000C7900006E
:1075500078060020880600206C06002008B5044B41
:107560001960044B00211A60034AFFF789FD08BD2A
:107570008C06002088060020F56F0000084B07B538
:107580001B68021C002B09D0017A0078002902D068
:107590000832052101E003216A46984707BDC0462D
:1075A0009006002007B5437901791B020B438179CE
:1075B000021C09040B43C17909060B430093837A2B
:1075C000417A1B020B4369468B80074B1B68002BDB
:1075D00009D0017A0078002902D00832052101E0A3
:1075E00004216A46984707BD9006002000201880B5
:1075F00070470000F0B587B06F46173703910492CB
:107600003870FBF71BFB039B041C022B09D0244B97
:107610001B68002B41D06A46D07D0399049A984795
:107620003BE0051C002623789E4207DA6978EA7859
:10763000381CFFF7B7FC01360535F4E7651C002759
:1076400023789F42E3DA2A79EB7868786E46120253
:1076500029781A431736AB78009000200190301C2F
:10766000FFF77AFC6B78022B09D1AB782978307858
:10767000002B01D10B4A00E00B4AFFF701FD2B78EC
:1076800010211943AB78301CDB011943C9B2002229
:10769000FFF7BEFC01370535D2E707B0F0BDC046A5
:1076A00090060020957100006D710000F8B5041C73
:1076B0000E1C151C1F1CFBF7C1FA027800210132B9
:1076C000D2B2201C3B1CFFF733FC00280AD1201C3F
:1076D0000549064AFEF7E2FD002803D1044A166078
:1076E000044A1560F8BDC046E5710000DD71000078
:1076F000900600209406002008B5FEF71DFE08BD88
:10770000024B20211A780A431A70704700F0074094
:10771000094B10B518681C1C431C0CD0074B0849BA
:107720001A6800F0C1F9002802D00020FBF79AFA8D
:1077300001235B42236010BD5CF9FF1F58F9FF1F56
:107740000008002010B5094C2368002B07D0FFF774
:10775000DFFF00F069F9064A002323601360054A41
:1077600000231360044A136010BDC046F8060020D1
:10777000F4060020000C0020FC060020034A002331
:107780001360034A1360034A136070470007002028
:10779000F0060020A4060020044B01221A60044ACF
:1077A00000231360034A13607047C046000700209F
:1077B000F0060020A4060020F0B5514F041C3868E4
:1077C00085B0012800D094E04E490D68002D6DD0A1
:1077D000F72C00D192E063B2002B00DA89E04A4B2B
:1077E0004A4918681D1C0022062803DC0C5401308D
:1077F00018607EE0231C885C1341DB0103438B543B
:107800000132072AF6D100262E60414D414C2F68E7
:10781000E01900F092F9F91D462969D1201C2E606B
:1078200000F083F9B04266D1221C4132231C11784A
:1078300040331B7809025918374B1A681F1C9142B4
:1078400059D1231C42331A78231C43331B78334EFF
:107850001B02D31832689B010293314D002A06D1D6
:1078600000F0B0F80123336000F00AF928602B68BB
:10787000029A2C4E5B420193134032680393934269
:1078800008D0FFF745FF039B2A682748FF21336094
:1078900000F05CF9019A0298234B90431818211CC0
:1078A000402200F04AF93B6801331FE01F4B1A6881
:1078B000032A1EDC561C1E601D4B9C54042E18D13E
:1078C0001A78F02A11D15A786F2A0ED19A786B2A39
:1078D0000BD1DB785F2B01D108600AE0212B04D1AA
:1078E000FFF730FFFBF7B8F903E002233B6000E04D
:1078F0002960002002E0FFF725FF012005B0F0BD60
:1079000000070020A4060020000C00209C06002098
:10791000FC060020A8060020F4060020F80600203F
:1079200058F9FF1F5CF9FF1F00080020F006002037
:1079300098060020024B18694006C00F7047C046E9
:10794000C0F00F4037B5094D6C46A868FCF734FE0F
:10795000073400232370201CFCF7B2FE0A28FAD05B
:10796000A868FCF735FE20783EBDC046BC0200206A
:1079700008B5FCF795FF5A20FCF716FFFFF7E2FF6A
:107980005A28F6D108BD000010B50C4CE068FDF790
:107990006BFE0120FEF728FBE068FDF771FEA06892
:1079A000FCF70AFE064C00232360FFF7C3FF002804
:1079B00002D123680133F7E710BDC046BC020020A6
:1079C000040C002010B5134CA068FCF701FEFCF776
:1079D000A3FFFCF763FE104B0022DA70FCF7ECFF0C
:1079E0000E4B0F4998690222084010439861D869EC
:1079F00001400A43DA61FDF7DFFD0A4B80229A60FD
:107A0000FFF7C2FFFCF738FEFFF7B2FFA068FCF7F4
:107A1000DFFD10BDBC02002000A0064000C00440F5
:107A2000FCFFFFFEC0F00F4008B5054B9868FCF75F
:107A3000CFFDFCF7C1FFFCF71FFEFFF7A5FF08BD58
:107A4000BC020020F8B5051C0F1C141C1E1CFCF702
:107A500027FFEF19BD4206D02878FCF7A5FE0028C5
:107A6000FAD10135F6E7002E09D0A619B44206D0A6
:107A7000201CFCF725FE0A28FAD00134F6E7F8BDF1
:107A800013B502240023221C68460649019300F026
:107A900054F86846211C01AA0423FFF7D3FF01987C
:107AA00016BDC0465877000073B503230024151C8B
:107AB0006A4600940E1C1370558001900821684698
:107AC000221C231CFFF7BEFFFFF73CFF012815D146
:107AD000AC420EDA3019291B102900DD10210022DA
:107AE000131CFFF7AFFFFFF72DFF012806D110345D
:107AF000EEE7FFF727FF012800D1002076BD30B563
:107B0000C3B20C1C000A651A95420ADA25785B1983
:107B1000FE2B00D9FF3BC018FE2800D9FF380134E6
:107B2000F1E70002034398B230BD08B5031C0A1CFC
:107B30000020191CFFF7E3FF08BD10B50023934296
:107B400003D0CC5CC4540133F9E710BD00B5031C6D
:107B50008218934202D019700133FAE700BD000089
:107B60000800000004000000010100000201020002
:107B7000400002020140000000000000000012006E
:107B80008500000000000000000000000000000070
:107B900000F8FF1F14F8FF1F0000000000000000A5
:107BA0000000000000000000000000000418200495
:107BB000101A0E18220000009CF8FF1FA0F8FF1FEB
:107BC000B8F8FF1FD8F8FF1FDCF8FF1FECF8FF1F05
:107BD00008F9FF1F18F9FF1F30F9FF1F9CF8FF1F5E
:107BE000040904A87700009C770000000000000052
:107BF00000000000000000000001000066290000F5
:107C0000E02800004C290000AA290000CE2900002D
:107C1000CE290000CE290000CE290000CE29000088
:107C2000CE290000CE290000F0280000342A0000F0
:107C3000342A00002C2A0000302A0000302A0000DC
:107C4000282A00002C2A0000302A0000302A0000D8
:107C5000302A0000302A0000302A00002C2A0000C0
:107C60002C2A0000302A0000282A0000562E00008E
:107C7000762E00008E2E0000A62E0000E22E0000C0
:107C8000E22E0000BE2E0000F56F0000957100008E
:107C90006D7100001D6B00001D6B00001D6B00006E
:107CA0001D6B00001D6B00001D6B00001D6B0000B4
:107CB0001D6B00001D6B00001D6B00001D6B0000A4
:107CC0001D6B00001D6B0000095E00001D6B0000B5
:107CD000E95D0000C15D0000A55D00001D6B0000B6
:107CE0008D5D0000755E0000856E0000856D0000F2
:107CF00000000000856D0000000000005D6D0000C8
:107D0000516E000000000000C96C0000F96C00001A
:107D10007D6F0000596F0000996C000001010001A7
:107D2000010000000001010000000000010101014C
:107D3000010000000101000101000100000100003C
:107D400001000000F8B5C046F8BC08BC9E4670476C
:107D5000F8B5C046F8BC08BC9E4670472D2500000B
:107D6000FD2400001201100100000040C016E405CF
:107D700001000102000100000902850002010080EB
:107D8000320904000000010100000924010001097A
:107D900000010109040100020103000007240100A1
:107DA000014300062402010106062402020206061F
:107DB0002402010307062402020407092403010523
:107DC000010101040924030206010101040924033D
:107DD0000107010301050924030208010301050944
:107DE000050102400000000006250102010309050B
:107DF0008202400000000006250102050700000085
:107E00000403090418036C0064003000640040009F
:107E100069006B0069002E00660069002003750090
:107E2000730062006D006900640069003200200088
:107E30006D0061007300740065007200040330007F
:107E4000100355005300420020004F0075007400DD
:107E50001A0345007800740020004D0049004400DA
:107E6000490020004F007500740000000E0355000B
:107E700053004200200049006E0000001803450036
:107E80007800740020004D004900440049002000A3
:107E900049006E00220342004100440020005300CC
:107EA0005400520049004E004700200049004E0097
:107EB0004400450058000000FF00000000040000DE
:107EC000FFFFFFFF5479000000F8FF1F6001000072
:107ED000000000000000000000000000002934D075
:107EE0000123002210B488422CD301242407A1428C
:107EF00004D2814202D209011B01F8E7E400A14249
:107F000004D2814202D249005B00F8E7884201D3E3
:107F1000401A1A434C08A04202D3001B5C082243BB
:107F20008C08A04202D3001B9C082243CC08A0422C
:107F300002D3001BDC082243002803D01B0901D018
:107F40000909E3E7101C10BC7047002801D000208D
:107F5000C04307B4024802A14018029003BDC046C6
:107F6000190000000029F0D003B5FFF7B9FF0EBCDF
:107F70004243891A1847C0467047C04608B5054BAA
:107F8000054803331B1A062B03D9044B002B00D0E2
:107F9000984708BD58F9FF1F58F9FF1F000000005F
:107FA0000648074908B5091A8910CB0F5918491016
:107FB00003D0044B002B00D0984708BD58F9FF1F91
:107FC00058F9FF1F00000000084B10B51A781C1C60
:107FD000002A09D1FFF7D2FF054B002B02D005483C
:107FE00000E000BF0123237010BDC04600FAFF1F50
:107FF0000000000050B5000008B5094B002B03D06D
:108000000848094900E000BF08480368002B03D076
:10801000074B002B00D09847FFF7C2FF08BDC046B2
:108020000000000050B5000004FAFF1F58F9FF1FC0
:108030000000000080B500AFBD4680BD80B500AF38
:10804000BD4680BD80B500AFBD4680BD80B500AFE8
:10805000BD4680BD80B500AFBD4680BD80B500AFD8
:10806000BD4680BD80B582B000AF064B7B6001F09D
:1080700055FA012001F0E8FE01F036FE00F042FA68
:10808000FEE7C046C7D43FA390B585B000AF041C3F
:10809000081C111C1A1CFB1D1C70BB1D18707B1DBD
:1080A0001970BB1C1A80BB1D1B78032B00D075E018
:1080B000BB1C1B88002B07D1484A3B6A1A6004236B
:1080C0001A1C7B6A1A8084E03B1C0F3300221A7052
:1080D0003B1C0E3301221A7024E03B1C0F3319782D
:1080E0003F4A0B1C9B005B185B00D1184979D318E1
:1080F0009B791B020B439BB2BA1C12889A420AD18D
:108100007B1D1B78072B05D83B1C0E337A1D12787C
:108110001A700CE00BE03B1C0F331A783B1C0F333A
