:102000000018002039A3000055AF00005DAF0000AC
:102010005DAF00005DAF00005DAF00005DAF000090
:102020005DAF00005DAF00005DAF00005DAF000080
:102030005DAF00005DAF00005DAF00005DAF000070
:102040005DAF00005DAF0000C9B500005DAF0000EE
:102050005DAF00005DAF00005DAF00005DAF000050
:102060005DAF00005DAF00005DAF00005DAF000040
:10207000A1A5000091AA00001DA800005DAF00000E
:102080005DAF00005DAF00005DAF00005DAF000020
:102090005DAF00005DAF00005DAF00005DAF000010
:1020A00049CD00005DAF00005DAF00005DAF0000F6
:1020B00039BE00005DAF00005DAF00005DAF000005
:102400008C34B8A94E4900001024000084780000E4
:1024100000180020A5320000514A00005D4A00006B
:102420005D4A00005D4A00005D4A00005D4A000010
:102430005D4A00005D4A00005D4A00005D4A000000
:102440005D4A00005D4A00005D4A00005D4A0000F0
:102450005D4A00005D4A0000695800005D4A0000C6
:102460005D4A00005D4A00005D4A00005D4A0000D0
:102470005D4A00005D4A00005D4A00005D4A0000C0
:10248000C93C0000DD410000913600005D4A0000BB
:102490005D4A00005D4A00005D4A00005D4A0000A0
:1024A0005D4A00005D4A00005D4A00005D4A000090
:1024B000418000005D4A00005D4A00005D4A000066
:1024C000416900005D4A00005D4A00005D4A00006D
:1024D000FFFFFFFFFFFFFFFFFFFFFFFFFFFFFFFF0C
:1024E000FFFFFFFFFFFFFFFFFFFFFFFFFFFFFFFFFC
:1024F000FFFFFFFFFFFFFFFFFFFFFFFFFFFFFFFFEC
:10250000FFFFFFFFFFFFFFFFFFFFFFFFFFFFFFFFDB
:102810008C34B8A901000000000000000000000096
:10282000002934D00123002210B488422CD3012483
:102830002407A14204D2814202D209011B01F8E718
:10284000E400A14204D2814202D249005B00F8E7D1
:10285000884201D3401A1A434C08A04202D3001BFD
:102860005C0822438C08A04202D3001B9C08224330
:10287000CC08A04202D3001BDC082243002803D06E
:102880001B0901D00909E3E7101C10BC70470028A0
:1028900001D00020C04307B4024802A140180290B2
:1028A00003BDC046190000000029F0D003B5FFF7B2
:1028B000B9FF0EBC4243891A1847C0467047C0464C
:1028C00008B5054B054803331B1A062B03D9044BE7
:1028D000002B00D0984708BD2CFAFF1F2CFAFF1FD1
:1028E000000000000648074908B5091A8910CB0FF7
:1028F0005918491003D0044B002B00D0984708BD4D
:102900002CFAFF1F2CFAFF1F00000000084B10B527
:102910001A781C1C002A09D1FFF7D2FF054B002BA7
:1029200002D0054800E000BF0123237010BDC0465F
:1029300000FCFF1F000000002096000008B5094BB6
:10294000002B03D00848094900E000BF084803688D
:10295000002B03D0074B002B00D09847FFF7C2FF96
:1029600008BDC046000000002096000004FCFF1FC8
:102970002CFAFF1F0000000080B500AFBD4680BDEF
:1029800080B500AFBD4680BD80B500AFBD4680BDFF
:1029900080B500AFBD4680BD80B500AFBD4680BDEF
:1029A00080B500AFBD4680BD80B500AFBD4680BDDF
:1029B00080B500AFBD4680BD80B500AFBD4680BDCF
:1029C00080B500AFBD4680BD80B500AFBD4680BDBF
:1029D00080B500AF04F0D4F8BD4680BD80B500AF2F
:1029E000BD4680BD80B500AFBD4680BD80B500AF9F
:1029F000BD4680BD80B500AFBD4680BD80B500AF8F
:102A0000BD4680BD80B500AF02F002FB012005F09D
:102A10005DF804F0FDFE00F061FAFEE790B585B0C8
:102A200000AF041C081C111C1A1CFB1D1C70BB1DD4
:102A300018707B1D1970BB1C1A80BB1D1B78032BE3
:102A400000D075E0BB1C1B88002B07D1484A3B6AAD
:102A50001A6004231A1C7B6A1A8084E03B1C0F3323
:102A600000221A703B1C0E3301221A7024E03B1C1A
:102A70000F3319783F4A0B1C9B005B185B00D11881
:102A80004979D3189B791B020B439BB2BA1C12885D
:102A90009A420AD17B1D1B78072B05D83B1C0E33AD
:102AA0007A1D12781A700CE00BE03B1C0F331A7879
:102AB0003B1C0F3301321A703B1C0F331B78002B69
:102AC000D5D03B1C0F3319782A4A0B1C9B005B188E
:102AD0005B00D118C979D018008900020143D318CE
:102AE0009B7A1B060B431A1C3B1C0E331B789B0066
:102AF000D3181A683B6A1A603B1C0F3319781D4AB9
:102B00000B1C9B005B185B00D118C97AD018808918
:102B100000020143D3189B7B1B060B431A1C3B1C72
:102B20000E331B78D3181B781A1C7B6A1A801AE0A4
:102B3000BB1D1B78072B14D8BB1D1A780E4B9200B7
:102B4000D2583B6A1A603B6A1B68002B01D1CD2327
:102B50000AE0BB1D1A78094B5200D25A7B6A1A80D0
:102B600001E0CD2300E00023181CBD4605B090BD58
:102B70005CF9FF1FF8940000A894000098940000EE
:102B800080B582B000AF3A60FB1D021C1A70BB1DFD
:102B90000A1C1A70BB1D1B78012B07D8BB1D1B78A4
:102BA000054AD25C3B681A70002300E0CD23181C54
:102BB000BD4602B080BDC0461CFCFF1F80B582B080
:102BC00000AFFB1D1870BB1D19707B1D1A70BB1D5B
:102BD0001B78012B07D8BB1D1B78054A791D097886
:102BE000D154002300E0CD23181CBD4602B080BDA7
:102BF0001CFCFF1F80B584B000AF0A1CFB1D011C2C
:102C000019703B1D1A803B1C0F3300221A7011E013
:102C10003B1C0F331B780C4AD35C3A1D12889A4236
:102C200001D101230CE03B1C0F331A783B1C0F33FE
:102C300001321A703B1C0F331B78012BE8D900239B
:102C4000181CBD4604B080BD1495000080B582B04C
:102C500000AF021CFB1D1A700123181CBD4602B0F8
:102C600080BDC04680B582B000AF021CFB1D1A704B
:102C7000024B181CBD4602B080BDC04688940000BF
:102C800080B500AF03F082F9BD4680BD80B584B049
:102C900000AF78600123FB600023BB607B68002BE2
:102CA00004D00023FB600323BB6016E015E00F4B4C
:102CB0009B68181C01F084FDC82004F073FB0B4BCB
:102CC0009B68181C01F070FDC82004F06BFBFB68CA
:102CD000002B02D1BB68013BBB60FB68002BE6D137
:102CE000BB68002BE3DCBD4604B080BDB00500200E
:102CF00080B584B000AF78600023FB603B1D1B787B
:102D00001A1C0F231340043B0B2B00D97BE09A00C5
:102D1000444BD3181B689F463B1D5B78181C04F07E
:102D2000B1FB0123FB606EE03B1D5B78DBB25BB265
:102D3000002B1ADA3B1D5B78F02B02D0F72B08D062
:102D40000FE004F08FFB3B1D5B78181C04F09AFB2E
:102D50000AE03B1D5B78181C04F094FB0123FB6028
:102D600002E00123FB60C0460BE02F4B1B68002BE9
:102D700007D03B1D5B78181C04F084FB031CFB6030
:102D800041E040E03B1D5B78181C04F07BFB3B1DE1
:102D90009B78181C04F076FB0123FB6033E03B1D9D
:102DA0005B78F02B01D104F05DFB3B1D5B78181CB8
:102DB00004F068FB031CFA681343FB603B1D9B781F
:102DC000181C04F05FFB031CFA681343FB603B1DF7
:102DD000DB78181C04F056FB031CFA681343FB60F5
:102DE00011E03B1D5B78181C04F04CFB3B1D9B78ED
:102DF000181C04F047FB3B1DDB78181C04F042FB59
:102E00000123FB60C046FB68002B01D004F01CFBD3
:102E1000064B1A68064B1B681343181CBD4604B0CA
:102E200080BDC046189500007407002018070020D8
:102E30006C07002080B582B000AF786039600E4B1F
:102E40001B78181C03F070FE031C002B06D004F046
:102E50002DFA031C002B01D0002309E004F030FA06
:102E6000031C191C01237A68914200DC0023DBB2A9
:102E7000181CBD4602B080BD200F002080B582B076
:102E800000AF7860396004F01BFA031C032B13D9E0
:102E90003B1D1B78181C04F04BF93B1D5B78181C7C
:102EA00004F046F93B1D9B78181C04F041F93B1DCA
:102EB000DB78181C04F03CF9BD4602B080BDC0466A
:102EC00080B582B000AF78607B68181C04F0B0F861
:102ED000031C181CBD4602B080BDC04680B5D0B0F2
:102EE00000AF022003F0CAFD031C1A1CE84B1A7045
:102EF000E84B181C06F0E2FAE64BE74A1A61E54B8C
:102F0000E64A5A61E64B181C06F0D8FAE44BE54A4B
:102F10001A61E34BE44A5A61E44B181C06F08CFB3F
:102F2000E24B80225A60E14BE14A9A60DF4BE14A72
:102F3000DA60DE4BE04A5A61DC4BE04A9A610A20D3
:102F400003F09CFD031C1A1CD84B1A74DC4B181C94
:102F500006F072FBD54B80225A60D44BD94A9A6056
:102F6000D24BD94ADA60D14BD34A5A61CF4BD34ABC
:102F70009A610A2003F082FD031C1A1CCB4B1A74C1
:102F80003B1CA033181C06F0D3FB3B1CA033CF4ADC
:102F9000DA603B1CA03305221A603B1CA033CC4AEC
:102FA0001A613B1CA033CB4A5A613B1CA033C94A6F
:102FB0009A613B1CA033C64ADA613B1CA033C44A69
:102FC0001A623B1CA033C44A1A633B1CA033C34A99
:102FD0005A633B1CA033C14A9A633B1CA033BE4AD0
:102FE000DA633B1CA033BC4A1A643B1CA033BC4AC6
:102FF0001A653B1CA03300225A653B1CA0330022FB
:103000009A653B1CA0330022DA653B1CA0330022EA
:103010001A663B1CA03300221A673B1CA033A34A4C
:103020005A673B1CA033A64A9A673B1CA033002278
:10303000DA673A1CA03280230021D1503B1C0833B0
:10304000181C06F075FBA74BA0214900C919CB1825
:10305000A54ADA60A34BA0225200D219D318052248
:103060001A60A04BA0214900C919CB189F4A1A61C8
:103070009C4BA0225200D219D318964A5A61994B00
:10308000A0214900C919CB18924A9A61954BA022F8
:103090005200D219D318954ADA61924BA021490007
:1030A000C919CB18914A1A628E4BA0225200D2192C
:1030B000D3188F4A1A638B4BA0214900C919CB182A
:1030C000864A5A63874BA0225200D219D318834AEA
:1030D0009A63844BA0214900C919CB18844ADA634A
:1030E000804BA0225200D219D318814A1A647D4B1A
:1030F000A0214900C919CB1800221A65794BA022DA
:103100005200D219D31800225A65764BA0214900EB
:10311000C919CB1800229A65724BA0225200D2190D
:10312000D3180022DA656F4BA0214900C919CB18CA
:1031300000221A666B4BA0225200D219D31800222B
:103140001A67684BA0214900C919CB18574A5A671A
:10315000644BA0225200D219D318594A9A67614B86
:10316000A0214900C919CB180022DA675D4BA021C4
:103170004900C919CA1880230021D15001F00AFD65
:103180005C4BDB69181C02F063FE5A4BDB69181CB0
:1031900002F070FE584B584AD27AD2B220210A432C
:1031A000D2B2DA7201F060FB06F094F8534B181CAF
:1031B000402104F001FC031C0C2B0ED14D4B9B68ED
:1031C000181C01F0F1FA3B1CA033181C06F0B0FAF1
:1031D00003F09AFF04F082F813E0464B9B68181C3A
:1031E00001F0EEFA464B1A68464B1B68134303D0B6
:1031F0003B1CA03300221A613B1CA033181C06F0B4
:103200009BFA234B1B78181C03F08EFC031C002B2D
:103210002AD03D4BA0225200D219D318EFF31080D0
:1032200072B61870394B1B78DBB20133DBB2374A08
:10323000191C1170012B07D1334BA0214900C9196A
:10324000CB181A78324B1A7004F048F82F4B1B78C1
:10325000DBB2013BDBB22D4A191C1170002B03D1EC
:103260002B4B187880F31088254B1B68002B08D156
:10327000244B1B68002B04D13B1C0833181C06F0A0
:103280005BFA01239E225200D2191360D1E0C0469E
:10329000200F002000000020895D0000B95B0000C5
:1032A00018000020616200009160000030000020E2
:1032B0009D5D0000A15C0000196700001968000016
:1032C0004C0000207562000079610000B12A000006
:1032D00059900000319200007D900000499200005A
:1032E000E1280000C8FEFFFF998F0000252A00009A
:1032F0006D2A0000B005002000A0064000FEFF1F60
:10330000180700206C070020C3FEFFFF15030020F4
:10331000280F002000239E214900C9190B603A1D87
:10332000484B101C191C06F0CFF8031C9C225200BD
:10333000D21913609C214900C9190B68002B33D0A6
:1033400001239E225200D21913603F4BA021490055
:10335000C919CB181A780F231340DAB23A4BA021BF
:103360004900C919CB181A70374BA0225200D21944
:10337000D3181B7810221343DAB2334BA021490033
:10338000C919CB181A7004200021FFF753FD031C44
:10339000002B04D07B68181C0021FFF76FFD7B68B1
:1033A000181C002106F072F83A1D284B101C191C3D
:1033B00006F08AF8031C9C225200D21913609C214B
:1033C0004900C9190B68002B33D001239E225200FB
:1033D000D21913601C4BA0214900C919CB181A78C7
:1033E0000F231340DAB2184BA0214900C919CB189A
:1033F0001A70154BA0225200D219D3181B78202224
:103400001343DAB2104BA0214900C919CB181A7026
:1034100004200021FFF70EFD031C002B04D07B6865
:10342000181C0021FFF72AFD7B68181C002106F0FC
:103430002DF89E225200D2191368002B00D069E7A4
:10344000B4E6C04600000020C4FEFFFF18000020C4
:1034500080B582B000AF78603960BD4602B080BDF3
:1034600080B58AB000AFF860B9607A607B687B6233
:1034700004233B620323FB610223BB6101237B61C5
:1034800001233B61FA68BB689A4202D07B68002B3B
:1034900000D14DE049E0FB69BA68134018D1FB69DF
:1034A000FA68134014D13A6A7B6A9A4210D8FB68D2
:1034B000BA6812681A603B6AFA68D318FB603B6A04
:1034C000BA68D318BB603B6A7A6AD31A7B622CE075
:1034D0007B69BA68134018D17B69FA68134014D12C
:1034E000BA697B6A9A4210D8FB68BA6812881A8057
:1034F000BB69FA68D318FB60BB69BA68D318BB60B4
:10350000BB697A6AD31A7B620FE0FB68BA681278EB
:103510001A703B69FA68D318FB603B69BA68D31824
:10352000BB603B697A6AD31A7B627B6A002BB2D19B
:10353000BD460AB080BDC04690B583B000AF2D4BEC
:10354000002B00D153E000237B6032E029497A68E8
:10355000131C5B009B189B00CB18586825497A68A0
:10356000131C5B009B189B005958224C7A68131C53
:103570005B009B189B00E31808331B681A1CFFF7BD
:103580006FFF1C497A68131C5B009B189B00CB18CB
:10359000596818487A68131C5B009B189B00C31875
:1035A00008331B68081C191CFFF752FF7B680133A6
:1035B0007B6010497A68131C5B009B189B005B586A
:1035C000002BC3D10B497A68131C5B009B189B002E
:1035D000CB185B68002BB9D106497A68131C5B00D5
:1035E0009B189B00CB1808331B68002BAED1BD463F
:1035F00003B090BD6C98000080B588B000AF274A3A
:10360000274BD31AFB61264BBB6104237B61032349
:103610003B610223FB600123BB6001237B60FB69EC
:10362000002B00D136E032E03B69BA6913400FD17C
:103630007A69FB699A420BD8BB6900221A607B69E0
:10364000BA69D318BB617B69FA69D31AFB611EE0C2
:10365000BB68BA6913400FD1FA68FB699A420BD86C
:10366000BB6900221A80FB68BA69D318BB61FB688A
:10367000FA69D31AFB610AE0BB6900221A707B6801
:10368000BA69D318BB617B68FA69D31AFB61FB691D
:10369000002BC9D1BD4608B080BDC04680140020B3
:1036A00000FCFF1F80B500AFBD4680BD80B500AFF8
:1036B000BD4680BD80B582B000AF0E4B7B60FFF78A
:1036C000F1FF01F0D9FB7B68181C002805D0854666
:1036D00081B00020C043009001B0FFF78DFFFFF7DD
:1036E0002BFFFFF7E3FF044B0020191CFFF78AF9BB
:1036F000FEE7C046001800206800002080B584B0B6
:1037000000AF78604F4BFB60FB6800221A81FB68BA
:1037100000221A82FB680022DA60FB6800225A82CB
:10372000FB6800221A83FB6800225A61FB687A68F2
:10373000DA61454BFA681A60444A4449444BCB5815
:10374000802149011943424BD150424B414A1169F2
:10375000414A0A40C02189000A431A613D4B3D4A53
:1037600051693D4A0A40C02189000A435A613B4AD7
:103770003A49C3239B00C958394B0B4080210904A7
:103780001943C3239B00D150344B344A1268802123
:10379000C9010A431A60334B324AD278D2B20821A7
:1037A0008A43D2B2DA702F4B2E4AD278D2B2042199
:1037B0008A43D2B2DA70FB6800221A80FB680022CA
:1037C0005A60284B00229A70264B00229A71254B92
:1037D00000225A71234B234A1278D2B21F218A4306
:1037E000D2B21A701F4B30225A701E4B1D4AD2782B
:1037F000D2B2D2B208210A43D2B2D2B2DA70194B95
:10380000184AD278D2B2D2B204210A43D2B2D2B28A
:10381000DA70144B134AD278D2B220210A43D2B2C2
:10382000DA70104B0F4A9279D2B20F210A43D2B20A
:103830009A710D4BFA681A60FB68181CBD4604B0FB
:1038400080BDC04690000020B00000200070044001
:103850003410000000C00440FFF8FFFE00E100E06B
:10386000FFFF00FF00C00640B005002080B586B015
:1038700000AFF860B960BB1D1A80FB687B61BB1D9F
:103880001B88002B01D1842333E07B691B8A002B2A
:1038900001D008232DE03B1C1333EFF3108072B6E8
:1038A0001870164B1B78DBB20133DBB2134A191CBC
:1038B0001170012B04D13B1C13331A78104B1A7072
:1038C0007B69BA68DA607B69BA1D12881A827B69E3
:1038D00000221A81094B1B78DBB2013BDBB2074A9D
:1038E000191C1170002B03D1054B187880F3108838
:1038F0000023181CBD4606B080BDC046150300203D
:10390000280F002080B586B000AFF860B960BB1DFD
:103910001A80FB687B61BB1D1B88002B01D18423AF
:1039200048E07B691B8B002B01D0082342E03B1C45
:103930001333EFF3108072B61870204B1B78DBB294
:103940000133DBB21D4A191C1170012B04D13B1C41
:1039500013331A781A4B1A707B69BA685A617B69FB
:10396000BA1D12881A837B6900225A827B691B88E0
:10397000012213439AB27B691A80124B114AD27802
:10398000D2B2802149420A43D2B2DA700D4B0D4ABD
:103990009279D2B29A71094B1B78DBB2013BDBB250
:1039A000064A191C1170002B03D1054B187880F3BF
:1039B00010880023181CBD4606B080BD15030020EA
:1039C000280F002000C0064090B583B000AF78609B
:1039D000124BDB79DBB21C1C7B681B8A002B1AD0D4
:1039E0007B68DB68591C7A68D160E2B21A707B6828
:1039F0001B8901339AB27B681A817B681A897B68BC
:103A00001B8A9A4207D17B6800221A827B68DB6995
:103A1000181C02F007FCBD4603B090BD00C0064074
:103A200080B582B000AF78607B685A8A7B681B8B58
:103A30009A421CD219497B685B69581C7A685061AC
:103A40001B78CB717B685B8A01339AB27B685A82A0
:103A50007B685A8A7B681B8B9A421CD17B68002248
:103A60001A837B68DB69181C02F03CFC13E00B4BEB
:103A70000A4AD278D1B27F220A40D2B2DA70074B1A
:103A8000064A9279D2B29A717B681B8801229343CD
:103A90009AB27B681A80BD4602B080BD00C0064065
:103AA000F0B5474680B482B000AF354B1B687B60F1
:103AB000344B1B79DBB21C1C002500260F2323404E
:103AC00044D0304BDB79DBB298460223234013D03D
:103AD000202323400DD04246002A0AD1331C013353
:103AE000DEB27B681B88022213439AB27B681A807D
:103AF00002E004232B439DB20823234002D001237C
:103B00002B439DB20123234002D002232B439DB2BD
:103B10000423234002D008232B439DB27B685A68BC
:103B20002B1C1A437B685A602023221C9A43131CC7
:103B30001C1C002E05D07B68DB69181C02F090FC71
:103B400004E07B68DB69181C02F040FC2023234062
:103B500003D07B68181CFFF737FF7B681B881A1C93
:103B60000123134006D08023234003D07B68181C18
:103B7000FFF756FFBD4602B004BC9046F0BDC046FC
:103B8000B000002000C0064080B584B000AF78606F
:103B900039607B68FB603B1C0B33EFF3108072B61F
:103BA0001870144B1B78DBB20133DBB2114A191CBD
:103BB0001170012B04D13B1C0B331A780E4B1A7079
:103BC000FB685A683B681A60FB6800225A60094B20
:103BD0001B78DBB2013BDBB2064A191C1170002BCB
:103BE00003D1054B187880F310880023181CBD46BC
:103BF00004B080BD15030020280F002080B584B0DC
:103C000000AF7860604BFB60FB6800221A81FB68A4
:103C100000221A82FB680022DA60FB6800225A82C6
:103C2000FB6800221A83FB6800225A61FB687A68ED
:103C3000DA61564BFA681A60554A5549554BCB58CC
:103C40008021C9001943534BD150534B524A9169BB
:103C5000524A0A40C02189000A439A614E4B4E4A9B
:103C6000D1694E4A0A40C02189000A43DA614C4AB0
:103C70004B49C3239B00CB58FF21181C8843011CD0
:103C8000C3239B00D150464B454A1268802149010D
:103C90000A431A60434B434AD278D2B208218A437E
:103CA000D2B2DA703F4B3F4AD278D2B204218A4373
:103CB000D2B2DA70FB6800221A80FB6800225A60D8
:103CC000FB6800229A70374B00229A70354B002215
:103CD0009A71344B00229A72324B00225A712C4A4C
:103CE0002B49314BC958314B0B408021C904194332
:103CF0002D4BD1502B4B2B4A1278D2B21F218A4325
:103D0000D2B21A70274B02225A70264B254A927A59
:103D1000D2B2D2B21F218A43D2B203210A43D2B215
:103D2000D2B29A721F4B1F4AD27AD2B2D2B20221B9
:103D30000A43D2B2D2B2DA721A4B1A4AD278D1B24C
:103D40005F220A40D2B2DA70164B164A9279D2B28A
:103D50000F218A43D2B29A71124B124AD278D2B250
:103D600008218A43D2B2DA700E4B0E4AD278D2B210
:103D700004218A43D2B2DA700D4BFA685A60FB68AC
:103D8000181CBD4604B080BDB4000020D400002043
:103D9000007004403410000000C00440FFF8FFFE33
:103DA00000E100E000A0064004100000FFFFFFF368
:103DB000B005002080B584B000AF78607B68FB6000
:103DC000FB689B78002B26D1FB6801229A70144B6C
:103DD000134AD278D2B2D2B208210A43D2B2D2B2B6
:103DE000DA700F4B0E4AD278D2B2D2B204210A4313
:103DF000D2B2D2B2DA700A4B094AD278D2B22021BA
:103E00000A43D2B2DA70064B054A9279D2B20F2138
:103E10000A43D2B29A710023181CBD4604B080BD7B
:103E200000A0064080B584B000AF78607B68FB607E
:103E3000FB689B78002B22D0FB6800229A70124B03
:103E4000114AD278D1B25F220A40D2B2DA700E4B58
:103E50000D4A9279D2B20F218A43D2B29A710A4B9B
:103E6000094AD278D2B208218A43D2B2DA70064B1C
:103E7000054AD278D2B204218A43D2B2DA70002342
:103E8000181CBD4604B080BD00A0064080B586B0B9
:103E900000AFF860B960BB1D1A80FB687B617B696D
:103EA0009B78002B01D1072339E0BB1D1B88002B19
:103EB00001D1842333E07B691B8A002B01D00823C6
:103EC0002DE03B1C1333EFF3108072B61870164BC5
:103ED0001B78DBB20133DBB2134A191C1170012BC2
:103EE00004D13B1C13331A78104B1A707B69BA68E3
:103EF000DA607B69BA1D12881A827B6900221A81F6
:103F0000094B1B78DBB2013BDBB2074A191C11706D
:103F1000002B03D1054B187880F310880023181C60
:103F2000BD4606B080BDC04615030020280F002006
:103F300080B586B000AFF860B960BB1D1A80FB6821
:103F40007B617B699B78002B01D107234EE0BB1D71
:103F50001B88002B01D1842348E07B691B8B002B3D
:103F600001D0082342E03B1C1333EFF3108072B6FC
:103F70001870204B1B78DBB20133DBB21D4A191CD1
:103F80001170012B04D13B1C13331A781A4B1A7091
:103F90007B69BA685A617B69BA1D12881A837B698A
:103FA00000225A827B691B88012213439AB27B69E3
:103FB0001A80124B114AD278D2B2802149420A4368
:103FC000D2B2DA700D4B0D4A9279D2B29A71094B86
:103FD0001B78DBB2013BDBB2064A191C1170002BC7
:103FE00003D1054B187880F310880023181CBD46B8
:103FF00006B080BD15030020280F002000A0064059
:1040000090B583B000AF7860124BDB79DBB21C1C3B
:104010007B681B8A002B1AD07B68DB68591C7A6886
:10402000D160E2B21A707B681B8901339AB27B6857
:104030001A817B681A897B681B8A9A4207D17B6840
:1040400000221A827B68DB69181C00F0D9FDBD468E
:1040500003B090BD00A0064080B582B000AF78608C
:104060007B685A8A7B681B8B9A421CD219497B68F1
:104070005B69581C7A6850611B78CB717B685B8ADE
:1040800001339AB27B685A827B685A8A7B681B8BA1
:104090009A421CD17B6800221A837B68DB69181C5A
:1040A00000F010FE13E00B4B0A4AD278D1B27F2207
:1040B0000A40D2B2DA70074B064A9279D2B29A71AC
:1040C0007B681B88012293439AB27B681A80BD46A5
:1040D00002B080BD00A00640F0B5474680B482B073
:1040E00000AF364B1B687B60354B1B79DBB21C1C69
:1040F000002500260F23234047D0314B0F221A7191
:104100002F4BDB79DBB298460223234013D02023C8
:1041100023400DD04246002A0AD1331C0133DEB2BF
:104120007B681B88022213439AB27B681A8002E0E4
:1041300004232B439DB20823234002D001232B43A9
:104140009DB20123234002D002232B439DB20423BE
:10415000234002D008232B439DB27B685A682B1C56
:104160001A437B685A602023221C9A43131C1C1C90
:10417000002E05D07B68DB69181C00F061FE04E0AE
:104180007B68DB69181C00F011FE2023234003D05C
:104190007B68181CFFF734FF7B681B881A1C0123FF
:1041A000134006D08023234003D07B68181CFFF700
:1041B00053FFBD4602B004BC9046F0BDD4000020C1
:1041C00000A0064080B584B000AF786039607B689D
:1041D000FB60FB689B78002B01D107232AE03B1C86
:1041E0000B33EFF3108072B61870144B1B78DBB2F0
:1041F0000133DBB2114A191C1170012B04D13B1C95
:104200000B331A780E4B1A70FB685A683B681A60B9
:10421000FB6800225A60094B1B78DBB2013BDBB222
:10422000064A191C1170002B03D1054B187880F336
:1042300010880023181CBD4604B080BD1503002063
:10424000280F002080B584B000AF78604F4BFB6032
:10425000FB6800221A81FB6800221A82FB68002298
:10426000DA60FB6800225A82FB6800221A83FB682E
:1042700000225A61FB687A68DA61454BFA681A6075
:10428000444A4449444BCB58802109011943424BCD
:10429000D150424B414AD168414A0A40C02189006D
:1042A0000A43DA603F4B3F4A11683D4A0A40C02149
:1042B00089000A431A603C4A3B49C3239B00C95802
:1042C0003A4B0B40802109021943C3239B00D15074
:1042D000354B354A1268802189010A431A60344BF4
:1042E000334AD278D2B208218A43D2B2DA70304B44
:1042F0002F4AD278D2B204218A43D2B2DA70FB6854
:1043000000221A80FB6800225A60294B00229A7012
:10431000274B00229A71264B00225A71244B244AC3
:104320001278D2B21F218A43D2B21A70204B3022A7
:104330005A701F4B1E4AD278D2B2D2B208210A4319
:10434000D2B2D2B2DA701A4B194AD278D2B2D2B201
:1043500004210A43D2B2D2B2DA70154B144AD27891
:10436000D2B220210A43D2B2DA70114B104A9279AC
:10437000D2B20F210A43D2B29A710E4BFA681A6276
:10438000FB68181CBD4604B080BDC046D8000020A4
:10439000F8000020007004403410000000B0044019
:1043A000FFF8FFFE00D0044000E100E0FF00FFFF47
:1043B00000B00640B005002080B586B000AFF860C0
:1043C000B960BB1D1A80FB687B61BB1D1B88002B7D
:1043D00001D1842333E07B691B8A002B01D00823A1
:1043E0002DE03B1C1333EFF3108072B61870164BA0
:1043F0001B78DBB20133DBB2134A191C1170012B9D
:1044000004D13B1C13331A78104B1A707B69BA68BD
:10441000DA607B69BA1D12881A827B6900221A81D0
:10442000094B1B78DBB2013BDBB2074A191C117048
:10443000002B03D1054B187880F310880023181C3B
:10444000BD4606B080BDC04615030020280F0020E1
:1044500080B586B000AFF860B960BB1D1A80FB68FC
:104460007B61BB1D1B88002B01D1842348E07B6945
:104470001B8B002B01D0082342E03B1C1333EFF3CE
:10448000108072B61870204B1B78DBB20133DBB2A0
:104490001D4A191C1170012B04D13B1C13331A78CF
:1044A0001A4B1A707B69BA685A617B69BA1D128807
:1044B0001A837B6900225A827B691B88012213437D
:1044C0009AB27B691A80124B114AD278D2B28021FB
:1044D00049420A43D2B2DA700D4B0D4A9279D2B2F8
:1044E0009A71094B1B78DBB2013BDBB2064A191CFF
:1044F0001170002B03D1054B187880F3108800232E
:10450000181CBD4606B080BD15030020280F0020F2
:1045100000B0064090B583B000AF7860124BDB79F5
:10452000DBB21C1C7B681B8A002B1AD07B68DB6803
:10453000591C7A68D160E2B21A707B681B8901331A
:104540009AB27B681A817B681A897B681B8A9A42B7
:1045500007D17B6800221A827B68DB69181C02F095
:10456000CDF8BD4603B090BD00B0064080B582B026
:1045700000AF78607B685A8A7B681B8B9A421CD29A
:1045800019497B685B69581C7A6850611B78CB714C
:104590007B685B8A01339AB27B685A827B685A8A4D
:1045A0007B681B8B9A421CD17B6800221A837B6834
:1045B000DB69181C02F002F913E00B4B0A4AD278AF
:1045C000D1B27F220A40D2B2DA70074B064A927902
:1045D000D2B29A717B681B88012293439AB27B689E
:1045E0001A80BD4602B080BD00B00640F0B5474617
:1045F00080B482B000AF354B1B687B60344B1B79B5
:10460000DBB21C1C002500260F23234044D0304B76
:10461000DB79DBB298460223234013D020232340CA
:104620000DD04246002A0AD1331C0133DEB27B682A
:104630001B88022213439AB27B681A8002E004238B
:104640002B439DB20823234002D001232B439DB26C
:104650000123234002D002232B439DB20423234095
:1046600002D008232B439DB27B685A682B1C1A4347
:104670007B685A602023221C9A43131C1C1C002EAA
:1046800005D07B68DB69181C02F056F904E07B68F2
:10469000DB69181C02F006F92023234003D07B6855
:1046A000181CFFF737FF7B681B881A1C0123134077
:1046B00006D08023234003D07B68181CFFF756FFE9
:1046C000BD4602B004BC9046F0BDC046F8000020D4
:1046D00000B0064080B584B000AF786039607B6878
:1046E000FB603B1C0B33EFF3108072B61870144B59
:1046F0001B78DBB20133DBB2114A191C1170012B9C
:1047000004D13B1C0B331A780E4B1A70FB685A68A5
:104710003B681A60FB6800225A60094B1B78DBB2C9
:10472000013BDBB2064A191C1170002B03D1054B6B
:10473000187880F310880023181CBD4604B080BD93
:1047400015030020280F002080B584B000AF7860EA
:10475000104BFB60FB687A681A600F4B0E4A526977
:1047600001210A435A610C4B0B4A126801218A430A
:104770001A600A4B094A1168094A0A408021490017
:104780000A431A60074BFA689A60FB68181CBD461A
:1047900004B080BDFC00002040F00F4000A00440A9
:1047A000FFF8FFFEB005002080B582B000AF786052
:1047B000024B01229A60BD4602B080BD40F00FF866
:1047C00080B582B000AF7860024B01225A60BD46CE
:1047D00002B080BD40F00FF880B500AF1B4B1B78D6
:1047E000002B24D01A4B1B68181CFFF7E3FA184B58
:1047F0001A68184B101C191C0122FFF747FB164BB7
:104800001B88002B1FD0154B1B88202213439AB204
:10481000124B1A800E4B1A68114B1B88191C114B36
:10482000CB18101C191C0122FFF782FB0BE00B4B6D
:104830001A88DF2313409AB2084B1A80044B1B6876
:10484000181CFFF7EFFABD4680BDC04600010020EE
:10485000240F00200C0200200E0200200201002084
:10486000100200201402002080B500AF064B1B7818
:10487000002B04D1044B01221A70FFF7ADFF002377
:10488000181CBD4680BDC0460001002080B500AFA9
:10489000064B1B78002B04D0044B00221A70FFF744
:1048A0009BFF0023181CBD4680BDC04600010020B0
:1048B00080B584B000AF78603B1C0F3300221A70C3
:1048C0002D4B1B88002B4DD03B1C0E33EFF310807B
:1048D00072B61870294B1B78DBB20133DBB2274A62
:1048E000191C1170012B04D13B1C0E331A78244B78
:1048F0001A70214B1B88013B9AB21F4B1A80214B27
:104900001B885A1C91B21F4A11801F4AD25C7B68D7
:104910001A701C4B1B88FF2B02D91A4B00221A80DD
:104920001A4B1B881A1C1A4B134001D0192300E0A4
:1049300000233A1C0F321370144B1A88154B134086
:104940009AB2124B1A800D4B1B78DBB2013BDBB2E3
:104950000A4A191C1170002B06D1094B187880F3F4
:10496000108801E00A2302E03B1C0F331B78181C5F
:10497000BD4604B080BDC0460401002015030020E0
:10498000280F0020060100200C0100200201002059
:1049900041080000B6F7FFFF80B584B000AF021CED
:1049A000FB1D1A70314B1A8880235B009A4201D19B
:1049B0000B2357E03B1C0F33EFF3108072B61870D7
:1049C0002B4B1B78DBB20133DBB2294A191C117067
:1049D000012B04D13B1C0F331A78264B1A70234B42
:1049E0001B8801339AB2214B1A80234B1B885A1C17
:1049F00091B2214A1180214AF91D0978D1541E4BE8
:104A00001B88FF2B02D91C4B00221A801C4B1B78E1
:104A1000002B18D01B4B1B881A1C2023134012D1CB
:104A2000184B1B88202213439AB2164B1A80164B40
:104A30001A68164B1B88191C104BCB18101C191C1C
:104A40000122FFF775FA0A4B1B78DBB2013BDBB2A0
:104A5000074A191C1170002B03D1064B187880F3FC
:104A600010880023181CBD4604B080BD0E02002033
:104A700015030020280F002012020020140200203D
:104A80000001002002010020240F0020100200205D
:104A900080B582B000AFFB1DEFF3108072B61870C6
:104AA000144B1B78DBB20133DBB2124A191C1170B4
:104AB000012B03D1FB1D1A780F4B1A700F4B0022EC
:104AC0001A800F4B00221A800E4B00221A80094BCD
:104AD0001B78DBB2013BDBB2064A191C1170002BBC
:104AE00003D1054B187880F310880023181CBD46AD
:104AF00002B080BD15030020280F00200401002013
:104B0000080100200601002080B582B000AFFB1D27
:104B1000EFF3108072B61870144B1B78DBB20133C0
:104B2000DBB2124A191C1170012B03D1FB1D1A783C
:104B30000F4B1A700F4B00221A800F4B00221A8065
:104B40000E4B00221A80094B1B78DBB2013BDBB213
:104B5000064A191C1170002B03D1054B187880F3FD
:104B600010880023181CBD4602B080BD150300202C
:104B7000280F00200E020020120200201002002048
:104B800080B500AF024B1B88181CBD4680BDC046D7
:104B90000E02002080B500AF104B00221A80104B8F
:104BA00000221A700F4B00221A800F4B00221A802D
:104BB0000E4B00221A800E4B00221A800D4B002251
:104BC0001A800D4B00221A800020FFF717F8021CF4
:104BD0000A4B1A60FFF700FEBD4680BD02010020AF
:104BE000000100200401002006010020080100202F
:104BF0000E0200201002002012020020240F0020CC
:104C000090B583B000AF78600024284B1B88FF2B41
:104C100023D8264B1B8801339AB2244B1A80244B8D
:104C20001B885A1C91B2224A1180224A1178224ACA
:104C3000D1541F4B1B88FF2B02D91D4B00221A8019
:104C400004232343DCB2194B1A8880235B009A4269
:104C50000DD102232343DCB209E0184B1B8840220C
:104C600013439AB2154B1A8001232343DCB2221C52
:104C70000123134002D0FDF797FE0BE0221C042312
:104C8000134001D0FDF794FE221C0223134001D0F3
:104C9000FDF796FE0A4B1A68064B101C191C0122E0
:104CA000FFF7F4F8BD4603B090BDC04604010020F4
:104CB000080100200C0200200C010020020100204D
:104CC000240F002080B584B000AF78603B1C0E3309
:104CD00000221A802F4B1B881A1C2023134007D058
:104CE0003B1C0E333A1C0E32128802210A431A80F2
:104CF000294B1B8801339AB2274B1A80264B1B88FD
:104D0000FF2B02D9244B00221A80244B1B88013B25
:104D10009AB2224B1A80214B1B88002B13D01D4BBB
:104D20001B88202213439AB21A4B1A801C4B1A6814
:104D3000194B1B88191C1B4BCB18101C191C01226A
:104D4000FFF7F6F812E0134B1A88DF2313409AB2EC
:104D5000104B1A80144B1B78002B07D13B1C0E33D1
:104D60003A1C0E32128801210A431A803B1C0E3372
:104D70001A880223134001D0FDF71EFE3B1C0E33A0
:104D80001A880123134001D0FDF71EFEBD4604B072
:104D900080BDC04602010020100200200E0200204B
:104DA000240F0020140200201403002080B584B0DA
:104DB00000AF7860204B1A683B1C0C33101C191C88
:104DC000FFF700FAFB68002B31D0FA68022313408A
:104DD00001D0042300E00023184A128813439AB23A
:104DE000164B1A80FA680823134001D0802300E094
:104DF0000023124A128813439AB2104B1A80FB68A0
:104E00009AB2012313409AB20C4B1B8813439AB2F7
:104E10000A4B1A80FA680423134001D0022300E0F1
:104E20000023064A128813439AB2044B1A80FDF7F6
:104E3000BBFDBD4604B080BD240F00200201002050
:104E400080B582B000AF7860044B1B880222134308
:104E50009AB2024B1A80BD4602B080BD020100200A
:104E600080B500AFFDF788FDBD4680BD80B500AFC1
:104E7000FFBEBD4680BDC04680B500AF564A57490B
:104E8000574BD150574A88235B010021D150554AD6
:104E9000554BC0218902D150524A5249534BCB58ED
:104EA000F82189011943514BD1504E4A4D494F4B7E
:104EB000CB58012119434D4BD1504D4B9B78DBB260
:104EC0001A1C0823134007D0494B494A9278D2B2A2
:104ED00008210A43D2B29A70424A434B4549D15005
:104EE000404A4049444BCB58802149021943424B28
:104EF000D1503C4B3B4A1268C02109030A431A6057
:104F0000384A38493C4BC9583C4B0B408021490436
:104F10001943394BD1503A4B394A916C394A0A40BE
:104F20009A64374B364AD16C364A0A40DA64364BBB
:104F3000354A5278D2B2D2B2111C40220A40D2B2C3
:104F400024210A43D2B2D2B25A70304B80221A7056
:104F50002D4BA0221A702C4B2B4AD278D1B21F2293
:104F60000A40D2B2DA70284B02221A71264B002274
:104F70005A71C046244B9B79DBB21A1C1023134094
:104F8000F8D1C046204B9B79DBB21A1C0C2313408E
:104F9000082BF7D11C4B40225A71C0461A4B9B7903
:104FA000DBB21A1C0C231340082BF7D1C046164B5A
:104FB0009B79DBB21A1C40231340F8D0124B2022FD
:104FC0001A70C046104B9B79DBB21A1C0C2313409D
:104FD0000C2BF7D1BD4680BD00E000E000200000B2
:104FE000080D00000070044044100000381000005C
:104FF00000D007400000011004100000FFFFFFFC7C
:1050000000900440FFF8FFFE0040064000500640BC
:1050100080B500AF7A4B7A4A11697A4A0A40E0219A
:10502000C9000A431A61784B774A5279D2B21F21DC
:105030008A43D2B25A71744B734A1279D2B20721A1
:105040008A43D2B21A71714B704A1278D2B2D2B27C
:1050500073218A43D2B250210A43D2B2D2B21A701B
:105060006A4B6A4A5278D2B2D2B263218A43D2B230
:1050700040210A43D2B2D2B25A70644B634A92784A
:10508000D2B219218A43D2B29A70614B00221A70AF
:10509000604B604A9168604A0A4002210A439A6064
:1050A0005C4B5C4A51695D4A0A400421FF310A4366
:1050B0005A61584B574A9169584A0A400421FF31B6
:1050C0000A439A61534B534AD169544A0A40812199
:1050D00049000A43DA614F4B4E4A5168494A0A4037
:1050E000802149000A435A604D4A4D49C7239B001D
:1050F000CB581B04190CC7239B00D150494B494A7C
:10510000916F464A0A40812149000A439A67444AFE
:105110004349C6239B00CB58FF218B4340211943B1
:10512000C6239B00D150404B3F4A91693A4A0A40FE
:1051300002210A439A61324B314A5168374A0A4088
:10514000812149000A435A602D4B2D4A9168334A08
:105150000A40812149000A439A602E4B2D4A116969
:10516000284A0A40A021C9000A431A612C4A2C4946
:10517000C5239B00CB581B02190AC5239B00D150A5
:105180001F4B1F4A116D1F4A0A40E021C9000A4304
:105190001A65234A2249C1239B00C958234B194051
:1051A000C1239B00D15001F0E3FB01F009F8FFF7A8
:1051B000F1FC01F003FC02F091F801F0A5FF01F011
:1051C00019FE0020FFF7C0FA194B9B68181CFFF767
:1051D000EBFA002001F000FC01F004FD002001F0DA
:1051E000CFFD01F0B9FB002000F024F8002000F012
:1051F0008DFD00F051FE01F04FFA62B6BD4680BD54
:1052000000900440FFF8FFFE00F0074000D0074088
:1052100000E0074000B00440FCFFFFFEFCF8FFFE8A
:1052200000E100E000D0044000C00440FFFF00FFA8
:10523000B005002090B587B000AF78605D4B3B6152
:105240003B697A68DA615C4A5B4982235B01CB582F
:1052500080214900194382235B01D150564A5649A7
:10526000564BCB5802211943544BD150544B3A69F9
:105270001A60544A5349C0239B00C958524B0B40F3
:10528000802109041943C0239B00D1504D4B4D4A46
:10529000126804210A431A603B1C173300221A705B
:1052A00028E04A493B1C17331A7884235B0012011B
:1052B0008A18D31800225A6044483B1C17331978C7
:1052C000424C3B1C17331A7884235B001201A2184E
:1052D000D3181B68802252041A4384235B000901FF
:1052E0004118CB181A603B1C17331A783B1C173334
:1052F00001321A703B1C17331B78032BD1D93B1C8E
:10530000173300221A700FE03B1C17331B783A69E1
:1053100002339B00D31800225A603B1C17331A78C3
:105320003B1C173301321A703B1C17331B78032BBD
:10533000EAD93B1C173300221A702DE03B1C1733AF
:105340001A78131C5B009B189B003A69D318FB600A
:105350000222FB681A70FB6800225A600122FB6877
:105360001A72FB6800225A72FB6800229A720223AA
:105370003A6902339B00D318FA685A6002231A1C58
:105380003B69083292000021D1503B1C17331A7838
:105390003B1C173301321A703B1C17331B78002B50
:1053A000CCD00B4B3A699A613B69181CBD4607B0DB
:1053B00090BDC04618030020007004403C1000005F
:1053C0004803002000E100E0FFFF00FF00800040F4
:1053D000B005002080B586B000AF786039607B688A
:1053E0003B613B1C173300221A703B681B7F002B6C
:1053F00012D13B685B7F3A6902339B00D3185B682C
:10540000FB60FB685B68002B06D1FB683A685A605A
:105410003B1C173301221A703B1C17331B78002BDF
:1054200001D0002300E00923181CBD4606B080BD52
:1054300090B587B000AF7860396079683A683B1CF6
:105440001033081C111C1A1C00F0ECFB031C002B71
:1054500001D1092353E33B68181C00F05DFB031CDA
:10546000002B01D183234AE33A693B1C173312789E
:105470001A703B695B7A002B00D0FAE2E8493B1CCA
:1054800017331A7884235B0012018A18D31800227C
:105490005A60E3483B1C17331978E14C3B1C173327
:1054A0001A7884235B001201A218D3181B6880228B
:1054B00052041A4384235B0009014118CB181A6077
:1054C000D74A3B1C173318783B685968031C1033C4
:1054D0001B0199503B681B7A002B16D0D0483B1C0F
:1054E00017331978CE4C3B1C17331A7884235B0092
:1054F0001201A218D3185B688022D2031A438423B6
:105500005B0009014118CB185A60C5493B1C173391
:1055100018783B68DA68031C10331B01CB185A60FB
:105520003B681B7C002B16D0BD483B1C17331978F9
:10553000BB4C3B1C17331A7884235B001201A21862
:10554000D3185B68802212031A4384235B0009018D
:105550004118CB185A60B2483B1C17331978B04C2D
:105560003B1C17331A7884235B001201A218D3184E
:105570005A68AC4B1A403B689B7A1B031A4384233E
:105580005B0009014118CB185A60A5483B1C173332
:105590001978A34C3B1C17331A7884235B00120143
:1055A000A218D3185A68A04B1A403B685B7A1B05B7
:1055B0001A4384235B0009014118CB185A609848AC
:1055C0003B1C17331978964C3B1C17331A788423ED
:1055D0005B001201A218D3185A68944B1A403B681A
:1055E0009B7C1B021A4384235B0009014118CB18E2
:1055F0005A608B483B1C17331978894C3B1C173376
:105600001A7884235B001201A218D3185A68884BB9
:105610001A403B685B7C5B041A4384235B000901EE
:105620004118CB185A603B68DB7C002B16D17C48B4
:105630003B1C173319787A4C3B1C17331A78842398
:105640005B001201A218D3185B68802292051A43EE
:1056500084235B0009014118CB185A6070483B1C39
:10566000173319786E4C3B1C17331A7884235B0070
:105670001201A218D3181B685B0E5A063B685B69BF
:105680001A4384235B0009014118CB181A603B6858
:105690001B7E002B16D062483B1C17331978604CD8
:1056A0003B1C17331A7884235B001201A218D3180D
:1056B0005B68802252051A4384235B00090141186C
:1056C000CB185A603A682223D35C002B16D054487A
:1056D0003B1C17331978524C3B1C17331A78842320
:1056E0005B001201A218D3185B68802212041A43CF
:1056F00084235B0009014118CB185A603B685B7E2C
:10570000012B07D000DCC8E0022B53D0032B00D1C3
:1057100090E0C3E042483B1C17331978404C3B1CD7
:1057200017331A7884235B001201A218D3185B6820
:105730003022934310221A4384235B00090141184D
:10574000CB185A6036483B1C17331978344C3B1C35
:1057500017331A7884235B001201A218D3185B68F0
:105760000C221C1C9443221C3B689B7E9B001A430A
:1057700084235B0009014118CB185A6028483B1C60
:1057800017331978264C3B1C17331A7884235B0097
:105790001201A218D3185B6803221C1C9443221C1C
:1057A0003B68DB7E1A4384235B0009014118CB1858
:1057B0005A6073E01A483B1C17331978184C3B1C8D
:1057C00017331A7884235B001201A218D3185B6880
:1057D0003022934320221A4384235B00090141189D
:1057E000CB185A600E483B1C173319780C4C3B1CE5
:1057F00017331A7884235B001201A218D3185B6850
:105800000C221C1C9443221C3B689B7E9B001A4369
:1058100084235B0009014118CB185A603EE0C04662
:1058200000800040FF0FFFFFFFFFCFFFFFF0FFFFF3
:10583000FFFFF9FFB4483B1C17331978B24C3B1CEF
:1058400017331A7884235B001201A218D3185B68FF
:1058500030221A4384235B0009014118CB185A6097
:10586000A9483B1C17331978A74C3B1C17331A78EF
:1058700084235B001201A218D3185B680C221C1C45
:105880009443221C3B68DB7E9B001A4384235B000D
:1058900009014118CB185A6000E0C0463A6821233C
:1058A000D35C002B15D098483B1C17331978964CC5
:1058B0003B1C17331A7884235B001201A218D318FB
:1058C0005B6880221A4384235B0009014118CB18CE
:1058D0005A603B1C0F33EFF3108072B618708B4B7D
:1058E0001B78DBB20133DBB2884A191C1170012B23
:1058F00004D13B1C0F331A78854B1A703B69012287
:105900005A723B6901229A723A6830230121D154BC
:105910003A682323D35C002B40D07B483B1C1733D1
:105920001978794C3B1C17331A7884235B001201D9
:10593000A218D3185B68802212061A4384235B00E6
:1059400009014118CB185A603A682423D35C002B14
:105950000FD03B1C17331A783B1C173319787B6820
:1059600008318900CB58012119437B680832920025
:10597000D1503A682523D35C002B0FD03B1C173342
:105980001A783B1C173319787B6808318900CB588B
:10599000022119437B6808329200D1505D4A3B1CBA
:1059A00017331B780021D1543B689B7F002B3AD0E2
:1059B000584A3B1C17331B785648391C1731097855
:1059C000415CC9B2C9B23F208143C8B23968C97FBE
:1059D000C9B20143C9B2C9B2D1543A682023D35CD9
:1059E000002B0FD04B4A3B1C17331B784948391CFE
:1059F00017310978415CC9B2C9B240200143C9B22C
:105A0000C9B2D154434A3B1C17331B784148391C57
:105A100017310978415CC9B2C9B2802040420143C4
:105A2000C9B2C9B2D15438483B1C17331978364C27
:105A30003B1C17331A7884235B001201A218D31879
:105A40005B688022D2051A4384235B000901411858
:105A5000CB185A602D4B1B78DBB2013BDBB22B4AD3
:105A6000191C1170002B49D1294B187880F310882C
:105A700044E03B1C0E33EFF3108072B61870234BDA
:105A80001B78DBB20133DBB2204A191C1170012BE9
:105A900004D13B1C0E331A781D4B1A703B6901224E
:105AA0009A723A6830230121D1543B689B7F002BC6
:105AB00016D015483B1C17331978134C3B1C173371
:105AC0001A7884235B001201A218D3185B68802225
:105AD000D2051A4384235B0009014118CB185A6090
:105AE0000A4B1B78DBB2013BDBB2084A191C117070
:105AF000002B03D1064B187880F310880023181C64
:105B0000BD4607B090BDC046008000401503002090
:105B1000280F00200010024080B584B000AF7860EC
:105B20007B685B7A012B04D0022B07D0002B0AD0B4
:105B30000EE03B1C0F3300221A700BE03B1C0F33AE
:105B400001221A7006E03B1C0F3303221A7001E099
:105B5000002362E07B685B7C012B04D0022B07D022
:105B6000002B0AD00EE03B1C0E3300221A700BE013
:105B70003B1C0E3301221A7006E03B1C0E3303223D
:105B80001A7001E0002348E07B681B7E002B07D0E1
:105B90003A1C0F323B1C0E3312781B789A4217D3F3
:105BA0007B685B69DBB23A1C0E3212781340DBB2C1
:105BB000002B01D0002330E07B68DB68DBB23A1CAD
:105BC0000E3212781340DBB2002B01D0002324E008
:105BD0007B681B7E002B07D03A1C0F323B1C0E3318
:105BE00012781B789A4217D27B685B69DBB23A1C49
:105BF0000F3212781340DBB2002B01D000230CE0EF
:105C00007B685B68DBB23A1C0F3212781340DBB260
:105C1000002B01D0002300E00123181CBD4604B076
:105C200080BDC04680B586B000AFF860B9607A60CC
:105C30003B1C173300221A70BB685B7FFA68023383
:105C40009B00D3185B685A68BB689A420CD13B1C16
:105C5000173301221A70BB685B7FFA6802339B001E
:105C6000D3185A687B681A603B1C17331B78181CC2
:105C7000BD4606B080BDC04680B582B000AF214BA6
:105C80001B687B60204A94235B00D258E023DB052D
:105C900013401AD07B689A6A0223134009D07B68AC
:105CA0005B695B68DA6A7B685B695B681B68181C08
:105CB0009047154A144994235B00CB58802149042E
:105CC000194394235B00D15019E00F4A0E499423E5
:105CD0005B00CB5880214904194394235B00D150C9
:105CE0007B689A6A0123134009D07B685B695B6813
:105CF0009A6A7B685B695B681B68181C9047BD46A5
:105D000002B080BD480300200080004080B584B010
:105D100000AF7860484BFB60484BBB60FB68BA68DB
:105D20005A60FB685B687A681A60FB685B68444A83
:105D30005A60FB685B6801225A72FB685B6800224C
:105D40009A72FB685B6800221A72FB685B683D4AC6
:105D5000DA60FB685B6801225A74FB685B680422A6
:105D60009A74FB685B6801221A74FB685B68364AA8
:105D70005A61FB685B6801229A77FB685B680222C4
:105D8000DA77FB685A6820230021D154FB685B68EE
:105D900000221A77FB685B6802225A77FB685A6810
:105DA00022230021D154FB685B6800225A76FB68ED
:105DB0005B6800229A76FB685B680022DA76FB68F3
:105DC0005B680022DA74FB685A6821230021D154F1
:105DD000FB685A6823230021D154FB685A682423A6
:105DE0000021D154FB685A6825230021D154FB6857
:105DF0005B6800229A62FB685B680022DA62FB68DB
:105E00005A6830230021D154104B9B69002B06D1D6
:105E10000020FFF70FFA021CFB681A6003E00B4B2F
:105E20009A69FB681A60094BFA68DA61FB68181C0A
:105E3000BD4604B080BDC0464C0300205403002082
:105E400007A0064000140020FFFF0700B005002057
:105E500080B582B000AF78607B681A687B685B6849
:105E6000101C191CFFF7B6FA031C181CBD4602B023
:105E700080BDC04680B582B000AF78607B681A688C
:105E80007B685B68101C191CFFF7D2FA031C181CF6
:105E9000BD4602B080BDC04680B500AF354A354929
:105EA000354BCB58802109021943334BD150334A2B
:105EB00080235B000021D150C046304A80235B0024
:105EC000D2588023DB051340F7D12C4A80235B0096
:105ED00080214904D150294A82235B000021D150FE
:105EE000264A264980235B00CB588021C9051943E7
:105EF00080235B00D150214B214A1A60C0461F4BC2
:105F00001B68002BFBDB1D4A802387218904D150AD
:105F1000C0461A4A8023D358002BFADB174B194A84
:105F20009A60164A88231749D150144B0022DA6030
:105F3000124A8C230021D150104B01221A610F4AC2
:105F400090230121D1500D4B0F4A5A610B4A9423E3
:105F50000D49D150094B00221A66084AE02300215E
:105F6000D150064B00221A60044A80230021D150F0
:105F7000BD4680BD007004403C10000000F00240AF
:105F800000E01F02010000010000070780B500AF1C
:105F9000024A034B0349D150FEE7C04600E000E04F
:105FA0000C0D00000400FA0580B500AF044B1A6820
:105FB000044B101C191C0122FDF758FCBD4680BD86
:105FC0002C0F00201004002080B584B000AF786052
:105FD0003B1C0F3300221A702D4B1B88002B4DD019
:105FE0003B1C0E33EFF3108072B61870294B1B78F0
:105FF000DBB20133DBB2274A191C1170012B04D12B
:106000003B1C0E331A78244B1A70214B1B88013B22
:106010009AB21F4B1A80214B1B885A1C91B21F4AFF
:1060200011801F4AD25C7B681A701C4B1B887F2B27
:1060300002D91A4B00221A801A4B1B881A1C1A4BC1
:10604000134001D0192300E000233A1C0F321370D3
:10605000144B1A88154B13409AB2124B1A800D4BF1
:106060001B78DBB2013BDBB20A4A191C1170002B12
:1060700006D1094B187880F3108801E00A2302E06A
:106080003B1C0F331B78181CBD4604B080BDC046B6
:106090008A03002015030020280F00208C03002015
:1060A000900300208803002041080000B6F7FFFF9E
:1060B00080B584B000AF021CFB1D1A702E4B1B88EC
:1060C000802B01D10B2353E03B1C0F33EFF31080E7
:1060D00072B61870294B1B78DBB20133DBB2274A4A
:1060E000191C1170012B04D13B1C0F331A78244B5F
:1060F0001A70214B1B8801339AB21F4B1A80214B17
:106100001B885A1C91B21F4A11801F4AF91D097839
:10611000D1541C4B1B887F2B02D91A4B00221A80AA
:106120001A4B1B881A1C2023134012D1174B1B88B3
:10613000202213439AB2154B1A80154B1A68154B3F
:106140001B88191C104BCB18101C191C0122FDF7C1
:10615000D9FB0A4B1B78DBB2013BDBB2074A191CA7
:106160001170002B03D1064B187880F310880023A0
:10617000181CBD4604B080BD120400201503002089
:10618000280F002016040020180400208803002097
:106190002C0F00201404002080B500AF024B1B8898
:1061A000181CBD4680BDC0468A03002080B500AFE4
:1061B000024B1B88181CBD4680BDC046120400203F
:1061C00080B500AF0F4B00221A800F4B00221A80BF
:1061D0000E4B00221A800E4B00221A800D4B00221B
:1061E0001A800D4B00221A800C4B00221A800020CE
:1061F000FDF784FA021C0A4B1A60FFF7D5FEBD4674
:1062000080BDC046880300208A0300208C03002044
:106210008E03002012040020140400201604002025
:106220002C0F002090B583B000AF78600024274B7E
:106230001B887F2B21D8254B1B8801339AB2234B17
:106240001A80234B1B885A1C91B2214A1180214A83
:106250001178214AD1541E4B1B887F2B02D91C4B2D
:1062600000221A8004232343DCB2184B1B88802BA6
:106270000DD102232343DCB209E0184B1B884022D6
:1062800013439AB2154B1A8001232343DCB2221C1C
:106290000123134002D0FCF773FB0BE0221C042304
:1062A000134001D0FCF770FB221C0223134001D0E5
:1062B000FCF772FB0A4B1A68064B101C191C0122D2
:1062C000FDF7D4FABD4603B090BDC0468A03002056
:1062D0008E0300201004002090030020880300207B
:1062E0002C0F002080B584B000AF78603B1C0E33CB
:1062F00000221A802F4B1B881A1C2023134007D022
:106300003B1C0E333A1C0E32128802210A431A80BB
:10631000294B1B8801339AB2274B1A80264B1B88C6
:106320007F2B02D9244B00221A80244B1B88013B6F
:106330009AB2224B1A80214B1B88002B13D01D4B85
:106340001B88202213439AB21A4B1A801C4B1A68DE
:10635000194B1B88191C1B4BCB18101C191C012234
:10636000FDF7D0FA12E0134B1A88DF2313409AB2DC
:10637000104B1A80144B1B78002B07D13B1C0E339B
:106380003A1C0E32128801210A431A803B1C0E333C
:106390001A880223134001D0FCF7FAFA3B1C0E3393
:1063A0001A880123134001D0FCF7FAFABD4604B065
:1063B00080BDC04688030020140400201204002081
:1063C0002C0F0020180400209804002080B584B011
:1063D00000AF7860204B1A683B1C0C33101C191C52
:1063E000FDF7D2FBFB68002B31D0FA680223134083
:1063F00001D0042300E00023184A128813439AB204
:10640000164B1A80FA680823134001D0802300E05D
:106410000023124A128813439AB2104B1A80FB6869
:106420009AB2012313409AB20C4B1B8813439AB2C1
:106430000A4B1A80FA680423134001D0022300E0BB
:106440000023064A128813439AB2044B1A80FCF7C1
:1064500097FABD4604B080BD2C0F002088030020B1
:1064600080B582B000AF7860044B1B8802221343D2
:106470009AB2024B1A80BD4602B080BD880300204C
:1064800080B500AF044B1A68044B101C191C012284
:10649000FDF792FFBD4680BD300F0020240500208F
:1064A00080B584B000AF78603B1C0F3300221A70B7
:1064B0002D4B1B88002B4DD03B1C0E33EFF310806F
:1064C00072B61870294B1B78DBB20133DBB2274A56
:1064D000191C1170012B04D13B1C0E331A78244B6C
:1064E0001A70214B1B88013B9AB21F4B1A80214B1B
:1064F0001B885A1C91B21F4A11801F4AD25C7B68CC
:106500001A701C4B1B887F2B02D91A4B00221A8051
:106510001A4B1B881A1C1A4B134001D0192300E098
:1065200000233A1C0F321370144B1A88154B13407A
:106530009AB2124B1A800D4B1B78DBB2013BDBB2D7
:106540000A4A191C1170002B06D1094B187880F3E8
:10655000108801E00A2302E03B1C0F331B78181C53
:10656000BD4604B080BDC0469C0400201503002039
:10657000280F00209E040020A40400209A0400207C
:1065800041080000B6F7FFFF80B584B000AF021CE1
:10659000FB1D1A702E4B1B88802B01D10B2353E05F
:1065A0003B1C0F33EFF3108072B61870294B1B7829
:1065B000DBB20133DBB2274A191C1170012B04D165
:1065C0003B1C0F331A78244B1A70214B1B88013364
:1065D0009AB21F4B1A80214B1B885A1C91B21F4A3A
:1065E00011801F4AF91D0978D1541C4B1B887F2B41
:1065F00002D91A4B00221A801A4B1B881A1C20231E
:10660000134012D1174B1B88202213439AB2154B0B
:106610001A80154B1A68154B1B88191C104BCB1888
:10662000101C191C0122FDF713FF0A4B1B78DBB26B
:10663000013BDBB2074A191C1170002B03D1064B3A
:10664000187880F310880023181CBD4604B080BD64
:106650002605002015030020280F00202A05002011
:106660002C0500209A040020300F0020280500206F
:1066700080B500AF024B1B88181CBD4680BDC046CC
:106680009C04002080B500AF024B1B88181CBD463F
:1066900080BDC0462605002080B500AF0F4B00220C
:1066A0001A800F4B00221A800E4B00221A800E4BCC
:1066B00000221A800D4B00221A800D4B00221A80F6
:1066C0000C4B00221A800020FDF7BCFD021C0A4B77
:1066D0001A60FFF7D5FEBD4680BDC0469A04002073
:1066E0009C0400209E040020A00400202605002019
:1066F000280500202A050020300F002090B583B027
:1067000000AF78600024274B1B887F2B21D8254BB6
:106710001B8801339AB2234B1A80234B1B885A1CC7
:1067200091B2214A1180214A1178214AD1541E4B3D
:106730001B887F2B02D91C4B00221A800423234381
:10674000DCB2184B1B88802B0DD102232343DCB213
:1067500009E0184B1B88402213439AB2154B1A804C
:1067600001232343DCB2221C0123134002D0FCF797
:1067700035F90BE0221C0423134001D0FCF732F959
:10678000221C0223134001D0FCF734F90A4B1A688B
:10679000064B101C191C0122FDF70EFEBD4603B06E
:1067A00090BDC0469C040020A004002024050020C9
:1067B000A40400209A040020300F002080B584B08B
:1067C00000AF78603B1C0E3300221A802F4B1B88D1
:1067D0001A1C2023134007D03B1C0E333A1C0E32E8
:1067E000128802210A431A80294B1B8801339AB26E
:1067F000274B1A80264B1B887F2B02D9244B002263
:106800001A80244B1B88013B9AB2224B1A80214BE1
:106810001B88002B13D01D4B1B88202213439AB2D8
:106820001A4B1A801C4B1A68194B1B88191C1B4BDE
:10683000CB18101C191C0122FDF70AFE12E0134BA5
:106840001A88DF2313409AB2104B1A80144B1B781E
:10685000002B07D13B1C0E333A1C0E32128801214B
:106860000A431A803B1C0E331A880223134001D0BE
:10687000FCF7BCF83B1C0E331A880123134001D0EF
:10688000FCF7BCF8BD4604B080BDC0469A040020A9
:106890002805002026050020300F00202C050020B0
:1068A000AC05002080B584B000AF7860204B1A683A
:1068B0003B1C0C33101C191CFDF70CFFFB68002B54
:1068C00031D0FA680223134001D0042300E00023F2
:1068D000184A128813439AB2164B1A80FA68082392
:1068E000134001D0802300E00023124A1288134392
:1068F0009AB2104B1A80FB689AB2012313409AB2E5
:106900000C4B1B8813439AB20A4B1A80FA68042373
:10691000134001D0022300E00023064A12881343EB
:106920009AB2044B1A80FCF759F8BD4604B080BDFA
:10693000300F00209A04002080B582B000AF78604C
:10694000044B1B88022213439AB2024B1A80BD46A5
:1069500002B080BD9A04002080B500AF034B034A0B
:10696000526906218A435A61BD4680BD00F00F403E
:1069700080B500AF034B034A5269E6218A435A614E
:10698000BD4680BD80F00F4080B500AF0A4B0A4A7B
:10699000526880218A435A60074B074A92688021D7
:1069A0000A439A60044B044A5269C0218A438021F9
:1069B0000A435A61BD4680BDC0F00F4080B500AFAC
:1069C000034B034A5169034A0A405A61BD4680BDE0
:1069D00000F10F40FFFFFFBF80B584B000AF7860CB
:1069E000104BFB60FB687A681A600F4B0E4A5269C5
:1069F00002210A435A610C4B0B4A126802210A43D6
:106A00001A600A4B094A5168094A0A408021490024
:106A10000A435A60074BFA68DA60FB68181CBD46E7
:106A200004B080BDD405002040F00F4000A0044019
:106A3000FFF8FFFEB005002080B582B000AF78609F
:106A4000024B02229A60BD4602B080BD40F00FF8B2
:106A500080B582B000AF7860024B02225A60BD461A
:106A600002B080BD40F00FF880B582B000AF786012
:106A7000FBF7AEFFBD4602B080BDC04680B584B016
:106A800000AF021CBB1D1A803B1C0F3300221A7082
:106A9000BB1D00229B5E002B02D1BB1D01221A8070
:106AA0003B1C0E33EFF3108072B6187006E03B1CEF
:106AB0000F331A783B1C0F3301321A703B1C0F3313
:106AC0001B78174AD35C002B04D13B1C0F331B7877
:106AD000052BECD93B1C0F331B78052B0DD83B1C29
:106AE0000F331B780E4A0021D1543B1C0F331A7808
:106AF0000C4B5200B91D0988D1523B1C0E3318783B
:106B000080F310883B1C0F331B78062B01D1FF2329
:106B100002E03B1C0F331B78181CBD4604B080BD3F
:106B2000E4050020D805002080B584B000AF021C29
:106B3000FB1D1A70FB1D1B78FF2B01D1012319E0EF
:106B40003B1C0E33EFF3108072B61870FB1D1A78E1
:106B50000A4B5200D35A1BB25A425341DAB23B1C81
:106B60000F331A703B1C0E33187880F310883B1CCF
:106B70000F331B78181CBD4604B080BDD80500201B
:106B800080B582B000AFBB1DEFF3108072B61870F5
:106B9000FB1D00221A7017E0FB1D1A78104B5200E3
:106BA000D35A1BB2002B0ADDFB1D1A780C4B510087
:106BB000CB5A9BB2013B99B2094B5200D152FB1DFB
:106BC0001A78FB1D01321A70FB1D1B78052BE3D9C7
:106BD000BB1D187880F31088BD4602B080BDC0464A
:106BE000D805002080B582B000AFFB1D00221A70CE
:106BF0000FE0FB1D1A780A4B52000021D152FB1DF9
:106C00001B78084A0121D154FB1D1A78FB1D013263
:106C10001A70FB1D1B78052BEBD9BD4602B080BD59
:106C2000D8050020E405002080B584B000AF0A1C20
:106C3000FB1D011C19703B1D1A80FB1D1B78FF2BCF
:106C400001D100231CE03B1C0D33EFF3108072B622
:106C50001870FB1D19783B1C0E330C4A49008A5AE8
:106C60001A80FB1D1A78094B5200391D0988D15230
:106C70003B1C0D33187880F310883B1C0E331B88A7
:106C80001BB2181CBD4604B080BDC046D80500200C
:106C900080B584B000AF7860254B1B69002B36D1DE
:106CA000244BFB60FB687A685A60FB6801221A700B
:106CB000214BFA681A60214A2049214BCB58012107
:106CC00019431F4BD1501F4B80221A601D4B1E4A87
:106CD0009A601C4B03225A601C4A1C49C7239B0024
:106CE000CB58FF218B4380211943C7239B00D150F0
:106CF000164B164A1268802149050A431A60114B47
:106D000041221A600A4BFA681A61FB680CE0084BD2
:106D10001B69FB60FB687A685A60FB681B7801336B
:106D2000DAB2FB681A70FB68181CBD4604B080BD5F
:106D3000B0050020EC050020F405002000700440A0
:106D400038100000000004405FEA000000E100E0AD
:106D500080B582B000AF084B1B687B60074B074AC9
:106D6000126880210A431A607B685B68181C00F077
:106D70002FF8BD4602B080BDF4050020000004409D
:106D800080B584B000AF78600F4BFB60FB687A6819
:106D90009A60FB6801221A710C4BFA685A61002054
:106DA000FFF776FF021CFB681A60FB681B68002B6C
:106DB00004D1064B00225A61002300E0FB68181C36
:106DC000BD4604B080BDC046F8050020B0050020D7
:106DD00080B584B000AF7860054B5B69FB60FB68F1
:106DE0009B68181CFFF740FEBD4604B080BDC0463E
:106DF000B005002080B500AF584A5849584BCB58D1
:106E00008021C9021943564BD150544A5349554B1E
:106E1000CB588021C9021943524BD150524A524992
:106E20009423CB5CDBB202210B43D9B29423D1541F
:106E30004D4A80235B004021D1544B4BFF221A74F2
:106E4000494A8023FF21D154474A8823FF21D15446
:106E5000454A8423FF21D154434A8C230021D15435
:106E6000414A86235B006021D1543F4B00221A75B2
:106E70003D4A98230021D1543B4AC0230021D154DC
:106E8000394AC4230021D154374AC8230021D154A0
:106E9000354ACC230021D154334AD0230021D15488
:106EA000314AD4230021D1542F4AD8230021D15470
:106EB0002D4ADC230021D1542B4AE0230021D15458
:106EC000294AE4230021D154274AE8230021D15440
:106ED000254AEC230021D154234AF0230021D15428
:106EE000214AF4230021D1541F4AF8230021D15410
:106EF0001D4AFC230021D1541B4A1C4B1B0ADBB248
:106F000001218B43D9B29C23D154174A174B1B0C38
:106F1000D9B2B023D154144A144B1B0ED9B2B423A6
:106F2000D154114AAC230021D1540F4B00221A77BF
:106F30000D4A84235B000021D1540B4A0A49942353
:106F4000CB5CDBB2DBB22B218B43DBB201210B43E9
:106F5000DBB2D9B29423D154BD4680BD0070044049
:106F60000410000034100000002007400010002032
:106F700080B584B000AF021CFB1D1A703B1C0F33A0
:106F800000221A703B1C0E33EFF3108072B618709B
:106F9000224B1B78DBB20133DBB2204A191C117083
:106FA000012B04D13B1C0E331A781D4B1A701D4B5C
:106FB0001B78802B04D13B1C0F330B221A7018E076
:106FC000194B1B78194AF91D0978D154154B1B78B8
:106FD0000133DAB2134B1A70134B1B780133DAB258
:106FE000114B1A70104B1B78802B02D10E4B0022D4
:106FF0001A700A4B1B78DBB2013BDBB2074A191C43
:107000001170002B03D1064B187880F310883B1CBD
:107010000F331B78181CBD4604B080BD150300203B
:10702000280F002086060020840600200406002089
:1070300080B584B000AF78603B1C0F3300221A701B
:107040003B1C0E33EFF3108072B61870224B1B7886
:10705000DBB20133DBB2204A191C1170012B04D1C1
:107060003B1C0E331A781D4B1A701D4B1B78002BDE
:1070700004D13B1C0F330A221A7018E0194B1B78FD
:10708000194AD25C7B681A70154B1B78013BDAB247
:10709000134B1A70134B1B780133DAB2114B1A7071
:1070A000104B1B78802B02D10E4B00221A700A4B1A
:1070B0001B78DBB2013BDBB2074A191C1170002BB5
:1070C00003D1064B187880F310883B1C0F331B78D4
:1070D000181CBD4604B080BD15030020280F0020F9
:1070E00086060020850600200406002080B500AF3B
:1070F000044B1B7880225242D31ADBB2181CBD46C7
:1071000080BDC0468606002080B500AF054B00223A
:107110001A70054B00221A70044B00221A70BD46EB
:1071200080BDC0468406002085060020860600201B
:1071300080B584B000AF021CFB1D1A703B1C0F33DE
:1071400000221A703B1C0E33EFF3108072B61870D9
:10715000224B1B78DBB20133DBB2204A191C1170C1
:10716000012B04D13B1C0E331A781D4B1A701D4B9A
:107170001B78802B04D13B1C0F330B221A7018E0B4
:10718000194B1B78194AF91D0978D154154B1B78F6
:107190000133DAB2134B1A70134B1B780133DAB296
:1071A000114B1A70104B1B78802B02D10E4B002212
:1071B0001A700A4B1B78DBB2013BDBB2074A191C81
:1071C0001170002B03D1064B187880F310883B1CFC
:1071D0000F331B78181CBD4604B080BD150300207A
:1071E000280F00200A07002008070020880600203A
:1071F00080B584B000AF78603B1C0F3300221A705A
:107200003B1C0E33EFF3108072B61870224B1B78C4
:10721000DBB20133DBB2204A191C1170012B04D1FF
:107220003B1C0E331A781D4B1A701D4B1B78002B1C
:1072300004D13B1C0F330A221A7018E0194B1B783B
:10724000194AD25C7B681A70154B1B78013BDAB285
:10725000134B1A70134B1B780133DAB2114B1A70AF
:10726000104B1B78802B02D10E4B00221A700A4B58
:107270001B78DBB2013BDBB2074A191C1170002BF3
:1072800003D1064B187880F310883B1C0F331B7812
:10729000181CBD4604B080BD15030020280F002037
:1072A0000A070020090700208806002080B500AFEB
:1072B000024B1B78181CBD4680BDC0460A07002043
:1072C00080B500AF044B1B7880225242D31ADBB248
:1072D000181CBD4680BDC0460A07002080B500AF1F
:1072E000054B00221A70054B00221A70044B002235
:1072F0001A70BD4680BDC04608070020090700205F
:107300000A070020C046C046C04670470020C0465D
:10731000C046C046C046C04601300928F7D9C0461D
:107320007047C04680B582B000AF021CBB1D1A80FA
:1073300006E0FFF7EBFFBB1DBA1D1288643A1A8006
:10734000BB1D1B88642BF4D806E0FFF7DBFFBB1DD9
:10735000BA1D12880A3A1A80BB1D1B880A2BF4D862
:10736000BD4602B080BDC04680B582B000AF786037
:1073700007E00A4B181CFFF7D5FF7B68084A9B18EB
:107380007B607A68054B9A42F3D87B689BB2181CE5
:10739000FFF7C8FFBD4602B080BDC04660EA0000EE
:1073A000A015FFFF80B584B000AF021CBB1D1A8082
:1073B000094BFB6008E0FB68181CFFF7D5FFBB1DFD
:1073C0001A88BB1D013A1A80BB1D1B88002BF2D105
:1073D000BD4604B080BDC04680BB0000094B10B55F
:1073E00018681C1C431C0CD0074B08491A6800F095
:1073F000C5F9002802D00020FBF748FC01235B42BE
:10740000236010BD20FAFF1F1CFAFF1F0008002098
:1074100010B5094C2368002B07D0FFF7DFFF00F001
:107420006DF9064A002323601360054A00231360A8
:10743000044A136010BDC0466C0700206807002096
:10744000000C002070070020034A00231360034A49
:107450001360034A1360704774070020640700201C
:1074600018070020044B01221A60044A002313600D
:10747000034A13607047C046740700206407002069
:1074800018070020F0B5514F041C386885B001285A
:1074900000D094E04E490D68002D6DD0F72C00D13E
:1074A00092E063B2002B00DA89E04A4B4A4918683F
:1074B0001D1C0022062803DC0C54013018607EE0FD
:1074C000231C885C1341DB0103438B540132072AE0
:1074D000F6D100262E60414D414C2F68E01902F094
:1074E000C3F9F91D462969D1201C2E6000F087F9E7
:1074F000B04266D1221C4132231C117840331B78E4
:1075000009025918374B1A681F1C914259D1231C84
:1075100042331A78231C43331B78334E1B02D31893
:1075200032689B010293314D002A06D100F0B0F879
:107530000123336000F00EF928602B68029A2C4E6C
:107540005B420193134032680393934208D0FFF7E4
:1075500045FF039B2A682748FF21336002F08DF91D
:10756000019A0298234B90431818211C402202F0E4
:107570007BF93B6801331FE01F4B1A68032A1EDCAE
:10758000561C1E601D4B9C54042E18D11A78F02AEC
:1075900011D15A786F2A0ED19A786B2A0BD1DB78E9
:1075A0005F2B01D108600AE0212B04D1FFF730FFE7
:1075B000FBF766FB03E002233B6000E0296000204C
:1075C00002E0FFF725FF012005B0F0BD74070020A1
:1075D00018070020000C00200F0700207007002073
:1075E0001C070020680700206C0700201CFAFF1F02
:1075F00020FAFF1F00080020640700200B0700206E
:10760000024B18694006C00F7047C046C0F00F40DB
:1076100037B5094D6C46A868FDF7C6F80734002356
:107620002370201CFDF744F90A28FAD0A868FDF75A
:10763000C7F820783EBDC046B005002008B5FDF76C
:1076400027FA5A20FDF7A8F9FFF7E2FF5A28F6D1EA
:1076500008BD000010B50C4CE068FFF7EDF9012003
:10766000FFF7A0FEE068FFF7F3F9A068FDF79CF8CC
:10767000064C00232360FFF7C3FF002802D12368D4
:107680000133F7E710BDC046B0050020040C002010
:1076900010B5154CA068FDF793F8FDF735FAFDF726
:1076A000F5F8124B0022DA70DA7A20218A43DA7276
:1076B000FDF770FA0E4B0F499869022208401043FB
:1076C0009861D86901400A43DA61FFF75DF90A4B16
:1076D00080229A60FFF7BEFFFDF7C6F8FFF7AEFF06
:1076E000A068FDF76DF810BDB005002000A00640B1
:1076F00000C00440FCFFFFFEC0F00F4008B5054B82
:107700009868FDF75DF8FDF745FAFDF7ADF8FFF76E
:10771000A1FF08BDB0050020F8B5051C0F1C141C06
:107720001E1CFDF7B5F9EF19BD4206D02878FDF70C
:1077300033F90028FAD10135F6E7002E09D0A61951
:10774000B44206D0201CFDF7B3F80A28FAD0013461
:10775000F6E7F8BD13B502240023221C684606494B
:10776000019302F081F86846211C01AA0423FFF767
:10777000D3FF019816BDC0467C94000073B5032367
:107780000024151C6A4600940E1C1370558001904D
:1077900008216846221C231CFFF7BEFFFFF738FFB5
:1077A000012815D1AC420EDA3019291B102900DD51
:1077B00010210022131CFFF7AFFFFFF729FF01285C
:1077C00006D11034EEE7FFF723FF012800D1002097
:1077D00076BD30B5C3B20C1C000A651A95420ADAB0
:1077E00025785B19FE2B00D9FF3BC018FE2800D975
:1077F000FF380134F1E70002034398B230BD08B509
:10780000031C0A1C0020191CFFF7E3FF08BD000041
:10781000034B8022520480215A501A607047C046A0
:1078200000E100E070B5141C82B000290BD00229E1
:107830000CD004292DD0032900D18BE0052900D1DB
:1078400073E002B070BD544B1970FAE7534C6B46AD
:10785000EFF3108072B6187023780133DBB2237017
:10786000012B00D171E04E4B1A68002A52D101223F
:107870001A602378013BDBB22370002B60D000201C
:107880000121484A402300F0F1FC434B01221A70C9
:10789000D7E7414B1B78012BD3D1637912791B02B7
:1078A0001343402B5FD940260025637822781B02C2
:1078B0001343A27812041343E27812061343585D6F
:1078C0000135EDB2FFF754FBAE42EED8334C6B46B8
:1078D000EFF3108072B6187023780133DBB2237097
:1078E000012B53D0FFF702FC3F2840D92C4B01223B
:1078F0001A602378013BDBB22370002B03D12A4BA3
:10790000187880F310880121264A4023002000F0D7
:10791000ADFC96E72378013BDBB22370002BB4D19A
:10792000214B187880F31088AFE71B4A00231370AF
:107930001E4A012113701E4B1878FFF775F980E776
:10794000194B187880F3108899E76B461A78164B14
:107950001A7088E7164B05211878FFF765F9154B63
:1079600000221A706DE79EB2002E9DD1AEE70C4B3F
:1079700000221A602378013BDBB22370002B00D079
:107980005FE7094B187880F310885AE76B461A783E
:10799000054B1A70A6E7C0460D0C00201503002009
:1079A000080C0020400C0020280F00200E0C0020A6
:1079B000200F00200C0C0020F0B583B0051C00F057
:1079C000ABF93B4B0C201B78012B01D003B0F0BD71
:1079D000384C6B46EFF3108072B618702378013381
:1079E000DBB22370012B5DD0334E3368002B42D0C5
:1079F0002378013BDBB22370002B03D12F4B187887
:107A000080F31088FFF752FC2D4F032827D93B78CD
:107A10000024002B23D1FFF749FC03280CD9261D95
:107A2000F6B22819FFF7E4FB002803D10134E4B2D1
:107A3000B442F6D13F2CEED901233B70214B0221F9
:107A40001878FFF7F1F8002002212A1C231C01F00E
:107A500035FC002806D000233B701220B6E73B78A7
:107A6000002B01D00020B1E7164B05211878FFF755
:107A7000DBF80020AAE7FFF739FB3F28B8D901233C
:107A800033602378013BDBB22370002B03D10B4B17
:107A9000187880F3108801210B4A4023002000F061
:107AA000E5FBAFE76B461A78044B1A709CE7C046BB
:107AB0000D0C002015030020080C0020280F0020CA
:107AC0000C0C0020200F0020400C002008B50549B8
:107AD000031C0022002001F0CBFB002800D0FEE7B1
:107AE00008BDC0461574000008B5044B021C0832DE
:107AF00000781B680521984708BDC046800C00200F
:107B000010B50121041C044A01F004F8201C0121D5
:107B1000802201F01DF810BD840C002010B582B049
:107B20006A460121041C00F0F5FF6A461378802B99
:107B300001D002B010BD034B201C1A78012101F0C6
:107B400007F8F6E7840C002008B5437902791B0298
:107B500013438279052112041343C2791206134399
:107B60005A7800F0F5FF08BD70B5002182B0041C02
:107B700000260125012200F0ABFF012300960195AC
:107B8000201C0021402200F079FF201C002100224F
:107B900000F09EFF002300960195201C002140224A
:107BA00000F06CFF201C0121022200F0D1FF201CFC
:107BB0000621012200F0CCFF201C9021002200F0C1
:107BC000C7FF044B20781B6800210022984702B0B1
:107BD00070BDC046800C002008B54378002B07D14B
:107BE000C1781023C9011943C9B2002200F0B0FFC7
:107BF00008BDC04670B582B06C460E1CE07101F045
:107C000077FA1C4B0734051C1E6030D110211A4A2C
:107C1000207800F0DDFF1221051C184A207800F0C2
:107C2000D7FF14210543164A207800F0D1FFEDB2AA
:107C300005431321134A207800F0CAFFEDB2054333
:107C40001721114A207800F0C3FFEDB20543162139
:107C50000E4A207800F0BCFFEDB205430322201C41
:107C6000012100F075FF0A4B0322EDB21A70281CA7
:107C700002B070BD800C00205977000039770000F9
:107C8000F17600000D770000C9770000D97600007A
:107C9000840C002070B586B0151C6A46D071684609
:107CA00002AA0C1C073001211E1C00F033FF68469D
:107CB0000730062104AA00F02DFF6B46187A8028B1
:107CC00008D068460730211C2A1C331C00F036FB04
:107CD00006B070BD1B7C9A0701D40020F8E76B4604
:107CE000D879FAF7B3FF012805D06A46137A802BBA
:107CF000E7D10020ECE772B66846073000F076FB6B
:107D000000236A466846137201210022073000F002
:107D10001FFF62B6E9E7C0467047C046F8B5384C69
:107D2000802300225B00E254364B902218709200B0
:107D30000F1C3548FF2101F0A0FD344E344B80224A
:107D400086250021D2006D00301C1E6001F095FDDB
:107D5000625D802313436355211C86235A004B5DCB
:107D6000274C5BB2002BF8DB2A4BFF211970A15C7A
:107D700040230B43A354284B8022596852040A43E2
:107D80005A60002F35D11A68520052081A60224BEF
:107D9000224A5968300A0A405A600122184B90431F
:107DA000C0B29C215854300CC0B2B0215854300E8F
:107DB000B4215854802189007618194910200E608A
:107DC00084214900585494215A54BF218022995447
:107DD0005200995C7F20014099548422985C0121D3
:107DE00001439954985C10210143995400201A775B
:107DF000F8BD1968802212060A431A60C7E7C04618
:107E0000002007408C0C0020940C00200010002063
:107E1000900C002024FAFF1F00700440FFFFFFFEBB
:107E2000880C0020F0B55F4656464D464446F0B4F7
:107E3000614C887887B004AB00901E1C271C0D781D
:107E400011CF11C60E79CF783602802080003E43D4
:107E5000864204D90026CE7002260E71061C95209B
:107E6000062D11D80098AD00EFB2012813D07F087D
:107E7000524CF800C719A4467F00BA4667443F88B1
:107E80004F4C9520A74209D007B03CBC904699467C
:107E9000A246AB46F0BD0237FFB2E8E74C78032CB0
:107EA000F2D8009F012FEFD860465044C77BFF2FC8
:107EB00079D001242740BC46009C424F8273620067
:107EC00006803C6866462A433243D2B2260CC2730F
:107ED00044808680BC464F78009C47743A4F52B22B
:107EE0003F6804740197D200BA180F79B346CE7870
:107EF0003F023743FF249770A2463E0A271C644680
:107F00002468D67027401771260AB946574637406D
:107F1000664636685771B8465C4657462740360E67
:107F2000082497710396D6711470C27B019E924605
:107F3000544601226240D200B2180E79CC78360243
:107F400026439670340A4E46D4701671039E97717C
:107F50004446482717705471D6710E79CA7867461F
:107F600036023F683243009CD61962461660002CE8
:107F700008D1C27B019ED200B718387880225242C5
:107F800002433A704878114F0138411E88410099E8
:107F9000ED198C0019592A78031C0B431343DBB2EB
:107FA0002B70002070E70026C6730E79CF7836025A
:107FB0003E430027BC467FE780940000940C0020DD
:107FC000FFFF0000880C0020900C0020C02007401C
:107FD000F0B5474680B4962006294FD88900CBB229
:107FE000012A0BD05A08D4B212256543264B5D5B9B
:107FF000AC46264DAC4541D0E5000CE09A1CD2B20F
:108000005208D4B2E500204B2E1976009E5BB44690
:108010001E4EB44532D0D600B21852009F5A1B4EA5
:10802000B7422ED01A48D2180668D07B904601225B
:10803000C7005040F719C00030183E78B446624679
:108040007F2632403A7007782A193E400670012098
:108050004042464670815200D05A0E4A1668301A85
:1080600010600D4A0020891800220A702919012287
:10807000524249005A525B185A809A8004BC90467A
:10808000F0BD6046E9E7C046940C0020FFFF000009
:10809000900C0020880C0020C020074070B50629F5
:1080A00007D9244B244AD65CFF2E3ED0234B1B68B5
:1080B00034E08900C9B20B1C012A01D18B1CDBB250
:1080C0005B08DC001C48E4186400055B1C4CA542FE
:1080D00000D17F2312246343C318DE7BFF2E24D0FC
:1080E000012A23D04908CB0059184900425A144BA1
:1080F0009A42DBD04018114BC17B1B68CD005D1943
:10810000012251402A787F242240C9002A70591840
:108110000A781440012252420C704281F2009B18EE
