:100000000030002085050000A10C0000A90C0000B4
:10001000A90C0000A90C0000A90C0000A90C00000C
:10002000A90C0000A90C0000A90C0000A90C0000FC
:10003000A90C0000A90C0000A90C0000A90C0000EC
:10004000A90C0000A90C0000A90C0000A90C0000DC
:10005000A90C0000A90C0000A90C0000A90C0000CC
:10006000A90C0000A90C0000A90C0000A90C0000BC
:10007000E5070000A90C0000A90C0000A90C000075
:10008000A90C0000A90C0000A90C0000A90C00009C
:10009000A90C0000A90C0000A90C0000A90C00008C
:1000A000A90C0000A90C0000A90C0000A90C00007C
:1000B000A90C0000A90C0000A90C0000A90C00006C
:10040000FFFFFFFFFFFFFFFFFFFFFFFF7EFFFFFF7D
:1004100008B5054B054803331B1A062B03D9044BBB
:10042000002B00D0984708BD00F0FF1F00F0FF1F11
:10043000000000000648074908B5091A8910CB0FCB
:100440005918491003D0044B002B00D0984708BD21
:1004500000F0FF1F00F0FF1F00000000084B10B568
:100460001A781C1C002A09D1FFF7D2FF054B002B7C
:1004700002D0054800E000BF0123237010BDC04634
:1004800000F0FF1F00000000980E000008B5094BA7
:10049000002B03D00848094900E000BF0848036862
:1004A000002B03D0074B002B00D09847FFF7C2FF6B
:1004B00008BDC04600000000980E000004F0FF1FB9
:1004C00000F0FF1F000000007047C0467047C046A4
:1004D0007047C0467047C0467047C0467047C04628
:1004E00000B583B0684600F053FA0028FAD16B4695
:1004F000187800F09FFAF5E708B500F05FFCFFF709
:10050000EFFFFEE71C4BF0B5002B00D1F0BD00273C
:1005100003250126D81902684168002A26D100293E
:1005200004D18268002AF1D00C37F3E780680028F4
:10053000FAD0141C0C43254208D1032806D910CA4E
:10054000043810C10028F4D10C37E3E7264207D164
:10055000012805D9148802380C8002320231E6E7FE
:10056000147801380C7001320131E0E780688A426A
:10057000DDD10C37CEE7C046B80E00007047C0464C
:100580007047C04638B5FFF7F9FF00F08FFB184BF6
:10059000181C002805D0854681B00020C04300907B
:1005A00001B0144B144AD21A08D1FFF7ABFFFFF782
:1005B000E7FF00201149FFF79FFFFEE70325012415
:1005C0000020291C194006D1032A04D902C3043A89
:1005D000002AF6D1E9E7211C194005D1012A03D9E7
:1005E0001980023A0233F3E71870013A0133EFE75A
:1005F0000030002000F0FF1F94F2FF1F1CF0FF1FCF
:10060000344A354BF0B5D0611A603448344B8025FC
:10061000C658ED000021354311811182D16051820D
:1006200011835161C5502F4B2F4E9F69C025374014
:10063000AD002F439F61DF6900243E403543DD61FB
:100640002A4BC325AD005E59FF27BE4380273E439A
:100650005E511E6880256D0135431D60244B0826C0
:10066000DD78B543DD70DD780426B543DD7051607B
:10067000118020499C709C719C725C7145581E4C85
:100680002C408025ED042C43445018781F218843CA
:10069000187002205870987A8843011C0320014387
:1006A0009972D87A02210143D972D878082101437E
:1006B000D970D87804210143D970D878202101431A
:1006C000D97098790F21014399710C4B101C1A6055
:1006D000F0BDC04648F0FF1F44F0FF1F007004400B
:1006E0003410000000C00440FFF8FFFE00E100E00D
:1006F00000A0064004100000FFFFFFF384F2FF1F7C
:1007000030B5041C83B08420002A01D103B030BD71
:10071000238A0820002BF9D16B46EFF3108072B6C4
:1007200018700E4B18780130C0B21870012810D024
:100730002282002222811A78E160013AD2B21A7034
:100740000020002AE2D1064B187880F310880020A0
:10075000DCE76846057802480570E9E782F2FF1F8A
:1007600090F2FF1F30B5041C83B08420002A01D111
:1007700003B030BD238B0820002BF9D16B46EFF37B
:10078000108072B61870144B18780130C0B218700F
:1007900001281CD06161228321880022628201220B
:1007A0000A4322800D4A8021D0780143D17091798B
:1007B0000020C9B291711A78013AD2B21A70002A97
:1007C000D6D1074B187880F310880020D0E7684610
:1007D000057803480570DDE782F2FF1F00A00640A0
:1007E00090F2FF1F38B5404A404B0F211C68137927
:1007F000DBB21D1C19421FD01171D279D2B29807F9
:1008000024D40122002100201D0700D4021CD80797
:1008100002D50220024392B25D0702D508200243AE
:1008200092B260681D1C0243626020229543E06919
:10083000002945D000F02CFAA9062AD422880123E9
:10084000134202D080222A420CD138BD99063AD5F3
:10085000002A38D1218802220A4322800121012264
:100860000020D1E7618A228B914230D263695A1C01
:1008700062611A781C4BDA71638A228B01339BB256
:1008800063829A42E1D100232383E06900F098F962
:10089000DBE7154BDB79D9B2238A002BCED0E26897
:1008A000531CE36011702389228A01339BB2238198
:1008B0009A42C3D100232382E06900F045F9BDE7E5
:1008C00000F0C0F9B8E70522002104209CE7064AA1
:1008D0007F20D1780140D1709179C9B2917122887D
:1008E0009A432280B1E7C04600A0064044F0FF1FB3
:1008F00010B582B0021C6B46EFF3108072B6187010
:100900000E4B18780130C0B21870012810D0506812
:100910000860002151601A78013AD2B21A70002A98
:1009200003D1074B187880F31088002002B010BD67
:100930006846047802480470E9E7C04682F2FF1F67
:1009400090F2FF1F0A4B0B4A0821106058690843B8
:100950005861186888431860074B0849D8680140F7
:10096000802040000143D960054B101C5A6070473D
:1009700080F00F4068F0FF1F00B00440FFF8FFFE5A
:1009800084F2FF1F014B08229A60704780F00FF835
:1009900030B5204B041C198883B00A20002901D1EE
:1009A00003B030BD1C4A6946EFF3108072B6087080
:1009B00011780131C9B21170012926D01988174D5B
:1009C00001391980164B1888411C285C89B219809E
:1009D0002070FF2901D9002119801249124C088882
:1009E000002320420FD1114C204008801178181CA0
:1009F0000139C9B211700029D2D10D4A107880F3A3
:100A00001088181CCCE71923EDE7694608780849D7
:100A10000870D3E774F0FF1F82F2FF1F80F1FF1F01
:100A200070F0FF1F6CF0FF1F41080000B6F7FFFFDA
:100A300090F2FF1F70B5264B80211C88061C82B0E7
:100A40000B2049008C4229D0224C6A46EFF31080DB
:100A500072B6107022780132D2B22270012A32D0DE
:100A60001A881D4901321A801C4B1D886A1C92B2DB
:100A70001A804E55FF2A01D900221A80184B1A8875
:100A800090060DD523780020013BDBB22370002BAC
:100A900004D1144B187880F31088002002B070BD88
:100AA000202002431A80104B012218680F4B1B882C
:100AB000C918FFF757FE23780020013BDBB22370F3
:100AC000002BE6D0EAE768460178064A1170C7E7CE
:100AD0006EF0FF1F82F2FF1F78F0FF1F80F2FF1FF2
:100AE0006CF0FF1F90F2FF1F8CF2FF1F7CF1FF1FC5
:100AF0000C4A08B5002313800B4A002013800B4AD0
:100B000013800B4A13800B4A13800B4A13800B4A45
:100B10001380FFF775FD0A4B0A4901221860FFF7A1
:100B2000EFFD08BD6CF0FF1F74F0FF1F70F0FF1F9A
:100B300078F1FF1F6EF0FF1F7CF1FF1F80F2FF1F97
:100B40008CF2FF1F72F0FF1F174B70B51A88FF2A37
:100B500016D8013292B21A80144B154C1888267898
:100B6000411C144D89B219802E54FF2901D900214E
:100B7000198080235B009A4211D0FFF7A9FC07E09F
:100B80000D4B402219880A431A80FFF79FFC084C3E
:100B90000A4B211C18680122FFF7B2FD70BDFFF758
:100BA00097FCFFF799FCF3E774F0FF1F78F1FF1F44
:100BB00072F0FF1F80F1FF1F6CF0FF1F8CF2FF1F10
:100BC00038B51A481A4B01881A8801319406E40F87
:100BD00089B26400FF2900D90021164D01802888C0
:100BE000013880B22880002814D1DF210A401A8001
:100BF000114B1B78002B06D0A30708D4E30701D5BF
:100C0000FFF76CFC38BD01231C43A307F6D5FFF7A3
:100C100061FCF3E7202002431A80084B0122186888
:100C2000074B5918FFF79EFDE6E7C0467CF1FF1F12
:100C30006CF0FF1F6EF0FF1F7AF1FF1F8CF2FF1F99
:100C400078F0FF1F30B5104B83B0186801A9FFF78B
:100C50004FFE019B002B12D00C4A9C0715880120E7
:100C600019071840E40FA400C90F2843C901204305
:100C700008435907C90F4900031C0B431380FFF7B2
:100C800025FC03B030BDC0468CF2FF1F6CF0FF1F87
:100C9000024B022219880A431A8070476CF0FF1F2A
:100CA00008B5FFF711FC08BDFFBE7047354B364A4B
:100CB000364900B5D150364B882200215201995057
:100CC000344AC02189029950334AE8219858890151
:100CD00001439950314B9A78110704D5997808222D
:100CE0000A43D2B29A702A4B2D492A4A99502D4A6A
:100CF000802198584902014399501868C02109037E
:100D0000014319609858284901408020400401435C
:100D10009950264B264A996C0A4026499A644B788A
:100D200040221340202213434B70234B80221A7021
:100D3000A8230B70CB781F221340CB7005230B71B7
:100D400000234B7110228B791A42FCD119480C21D7
:100D50008379184A0B40082BFAD1402353710C2198
:100D600093790B40082BFBD1124840218379114A1B
:100D70001942FBD0282313700C2193790B400C2BC4
:100D8000FBD100BD080D000000E000E00000000005
:100D900000700440441000003810000000D00740EC
:100DA0000000011004100000FFFFFFFC0090044051
:100DB000FFF8FFFE0040064000500640264A274844
:100DC000136970B5E0210340C9000B431361244B44
:100DD0001F255C79AC435C711C790725AC431C7101
:100DE000204B73251C78AC4350252C431C705C7839
:100DF0006325AC4340252C435C709C781925AC439B
:100E00009C70194B00241C70184BC724A4001D595A
:100E10002D022D0A1D51164C164DA66F3540822607
:100E200076003543A567146D204001431165C1224A
:100E30009200985810490140995000F021F8FFF7AE
:100E400057FE00F01FF80020FFF77CFD0B4B5868A1
:100E5000FFF798FD62B670BD00900440FFF8FFFEFA
:100E600000F0074000D0074000E0074000E100E04C
:100E700000D00440FBF8FFFEFFFF00FF84F2FF1FDD
:100E80007047C046024B034A59690A405A6170478D
:100E900000F10F40FFFFFFBFF8B5C046F8BC08BC2B
:100EA0009E467047F8B5C046F8BC08BC9E467047E1
:040EB0008D040000AD
:040EB4005D040000D9
:100EB800B80E000000F0FF1F000000000000000056
:080EC800000000000000000022
:04000003000005856F
:00000001FF
