:10040000FFFFFFFFFFFFFFFFFFFFFFFF7EFFFFFF7D
:104000000030002015480000494F0000514F0000CB
:10401000514F0000514F0000514F0000514F000020
:10402000514F0000514F0000514F0000514F000010
:10403000514F0000514F0000514F0000514F000000
:10404000514F0000514F0000514F0000514F0000F0
:10405000514F0000514F0000514F0000514F0000E0
:10406000514F0000514F0000514F0000514F0000D0
:10407000754A0000514F0000514F0000514F0000A1
:10408000514F0000514F0000514F0000514F0000B0
:10409000514F0000514F0000514F0000514F0000A0
:1040A000CD710000514F0000514F0000514F0000F2
:1040B000514F0000514F0000514F0000514F000080
:10441000002934D00123002210B488422CD3012477
:104420002407A14204D2814202D209011B01F8E70C
:10443000E400A14204D2814202D249005B00F8E7C5
:10444000884201D3401A1A434C08A04202D3001BF1
:104450005C0822438C08A04202D3001B9C08224324
:10446000CC08A04202D3001BDC082243002803D062
:104470001B0901D00909E3E7101C10BC7047002894
:1044800001D00020C04307B4024802A140180290A6
:1044900003BDC046190000000029F0D003B5FFF7A6
:1044A000B9FF0EBC4243891A1847C0467047C04640
:1044B00008B5054B054803331B1A062B03D9044BDB
:1044C000002B00D0984708BD44F1FF1F44F1FF1FA7
:1044D000000000000648074908B5091A8910CB0FEB
:1044E0005918491003D0044B002B00D0984708BD41
:1044F00044F1FF1F44F1FF1F00000000084B10B5FE
:104500001A781C1C002A09D1FFF7D2FF054B002B9B
:1045100002D0054800E000BF0123237010BDC04653
:1045200000F2FF1F000000009888000008B5094B4A
:10453000002B03D00848094900E000BF0848036881
:10454000002B03D0074B002B00D09847FFF7C2FF8A
:1045500008BDC046000000009888000004F2FF1F5C
:1045600044F1FF1F000000007047C0467047C0467E
:104570007047C0467047C0467047C0467047C04647
:1045800000B5064B83B0019300F06CFD012001F0F3
:10459000A5F800F08BFF00F07DF8FEE7AA550000BB
:1045A00010B582B0032912D0072902D9CD2002B05C
:1045B00010BD214B8A00D358049A1360002BF5D00C
:1045C0001E4B49000598CB5A03800020EFE7002BD3
:1045D00021D01B498B4226D1072A28D894000023DA
:1045E0009900CB1817495B00CB181989D8790902B3
:1045F0000143987A0006014309590498016099899A
:10460000D87A9B7B090201431B060B439B5C0599EF
:1046100000200B80CBE70C4B049805990360042322
:104620000B800020C3E7042401220123D8E70424DF
:1046300001220023D4E7C046B08700006C87000049
:10464000090400005087000098F0FF1F00B5CD203E
:10465000012900D900BD024B00205B5C1370F9E713
:104660001CF2FF1F00B5CD20012900D900BD024B6F
:1046700000205A54FAE7C0461CF2FF1F0123002015
:104680008B424041C0B270470120704700487047DC
:10469000A0870000F0B55F4656464D464446F0B44C
:1046A0003A4B85B06C466D466E46394F9B46093491
:1046B0000A350B365846402100F008FF0C283DD043
:1046C000786800F0ADFA00F037FE032859D800F002
:1046D0005DFB0328EED902A800F0A8FA0028E9D172
:1046E000201C00F0A3FA0028E4D1281C00F09EFA58
:1046F0000028DFD1301C00F099FA0028DAD16B468F
:104700001B7A019323789A462B78994633789846FA
:1047100000F0B6FE0328CDD9019800F029FE5046DE
:1047200000F026FE484600F023FE404600F020FE42
:104730005846402100F0CAFE0C28C1D1786800F02C
:1047400069FAC4E702A800F0B5FD201C00F0B2FD34
:10475000281C00F0AFFD301C00F0ACFD23789A4619
:104760002B789946337898466B46187A00F0B0FA61
:10477000504600F0ADFA484600F0AAFA404600F074
:10478000A7FA00F0D9FD0328DCD8A0E700F4FF1F4A
:1047900068F8FF1F1C4BF0B5002B00D1F0BD0027BF
:1047A00003250126D81902684168002A26D100296C
:1047B00004D18268002AF1D00C37F3E78068002822
:1047C000FAD0141C0C43254208D1032806D910CA7C
:1047D000043810C10028F4D10C37E3E7264207D192
:1047E000012805D9148802380C8002320231E6E72C
:1047F000147801380C7001320131E0E780688A4298
:10480000DDD10C37CEE7C046FC8900007047C046BA
:104810007047C04638B5FFF7F9FF00F09BFB184B17
:10482000181C002805D0854681B00020C0430090A8
:1048300001B0144B144AD21A08D1FFF7ABFFFFF7AF
:10484000E7FF00201149FFF79BFEFEE70325012447
:104850000020291C194006D1032A04D902C3043AB6
:10486000002AF6D1E9E7211C194005D1012A03D914
:104870001980023A0233F3E71870013A0133EFE787
:104880000030002000F2FF1F0000002000F6FF1F94
:10489000344A354BF0B5D0611A603448344B80252A
:1048A000C658ED000021354311811182D16051823B
:1048B00011835161C5502F4B2F4E9F69C025374042
:1048C000AD002F439F61DF6900243E403543DD6129
:1048D0002A4BC325AD005E59FF27BE4380273E43C8
:1048E0005E511E6880256D0135431D60244B0826EE
:1048F000DD78B543DD70DD780426B543DD705160A9
:10490000118020499C709C719C725C7145581E4CB2
:104910002C408025ED042C43445018781F218843F7
:10492000187002205870987A8843011C03200143B4
:104930009972D87A02210143D972D87808210143AB
:10494000D970D87804210143D970D8782021014347
:10495000D97098790F21014399710C4B101C1A6082
:10496000F0BDC0462CF6FF1F28F6FF1F0070044064
:104970003410000000C00440FFF8FFFE00E100E03A
:1049800000A0064004100000FFFFFFF368F8FF1FBF
:1049900030B5041C83B08420002A01D103B030BD9F
:1049A000238A0820002BF9D16B46EFF3108072B6F2
:1049B00018700E4B18780130C0B21870012810D052
:1049C0002282002222811A78E160013AD2B21A7062
:1049D0000020002AE2D1064B187880F310880020CE
:1049E000DCE76846057802480570E9E766F8FF1FCE
:1049F00098FBFF1F30B5041C83B08420002A01D12E
:104A000003B030BD238B0820002BF9D16B46EFF3A8
:104A1000108072B61870144B18780130C0B218703C
:104A200001281CD061612283218800226282012238
:104A30000A4322800D4A8021D0780143D1709179B8
:104A40000020C9B291711A78013AD2B21A70002AC4
:104A5000D6D1074B187880F310880020D0E768463D
:104A6000057803480570DDE766F8FF1F00A00640E3
:104A700098FBFF1F38B5404A404B0F211C68137943
:104A8000DBB21D1C19421FD01171D279D2B2980726
:104A900024D40122002100201D0700D4021CD807C5
:104AA00002D50220024392B25D0702D508200243DC
:104AB00092B260681D1C0243626020229543E06947
:104AC000002945D000F038FAA9062AD4228801230B
:104AD000134202D080222A420CD138BD99063AD521
:104AE000002A38D1218802220A4322800121012292
:104AF0000020D1E7618A228B914230D263695A1C2F
:104B000062611A781C4BDA71638A228B01339BB283
:104B100063829A42E1D100232383E06900F0A4F983
:104B2000DBE7154BDB79D9B2238A002BCED0E268C4
:104B3000531CE36011702389228A01339BB22381C5
:104B40009A42C3D100232382E06900F051F9BDE706
:104B500000F0CCF9B8E70522002104209CE7064AC2
:104B60007F20D1780140D1709179C9B291712288AA
:104B70009A432280B1E7C04600A0064028F6FF1FF6
:104B800010B582B0021C6B46EFF3108072B618703D
:104B90000E4B18780130C0B21870012810D0506840
:104BA0000860002151601A78013AD2B21A70002AC6
:104BB00003D1074B187880F31088002002B010BD95
:104BC0006846047802480470E9E7C04666F8FF1FAB
:104BD00098FBFF1F0A4B0B4A0821106058690843D5
:104BE0005861186888431860074B0849D868014025
:104BF000802040000143D960054B101C5A6070476B
:104C000080F00F404CF6FF1F00B00440FFF8FFFE9D
:104C100068F8FF1F014B08229A60704780F00FF878
:104C2000014B08225A60704780F00FF830B5204BD6
:104C3000041C198883B00A20002901D103B030BDBB
:104C40001C4A6946EFF3108072B608701178013182
:104C5000C9B21170012926D01988174D0139198060
:104C6000164B1888411C285C89B219802070FF29D6
:104C700001D9002119801249124C088800232042D2
:104C80000FD1114C204008801178181C0139C9B28D
:104C900011700029D2D10D4A107880F31088181CA9
:104CA000CCE71923EDE76946087808490870D3E78F
:104CB00058F6FF1F66F8FF1F64F7FF1F54F6FF1F2B
:104CC00050F6FF1F41080000B6F7FFFF98FBFF1FDB
:104CD00070B5264B80211C88061C82B00B20490031
:104CE0008C4229D0224C6A46EFF3108072B61070C5
:104CF00022780132D2B22270012A32D01A881D499C
:104D000001321A801C4B1D886A1C92B21A804E55C3
:104D1000FF2A01D900221A80184B1A8890060DD557
:104D200023780020013BDBB22370002B04D1144B0D
:104D3000187880F31088002002B070BD2020024354
:104D40001A80104B012218680F4B1B88C918FFF7F7
:104D500051FE23780020013BDBB22370002BE6D00C
:104D6000EAE768460178064A1170C7E752F6FF1F66
:104D700066F8FF1F5CF6FF1F64F8FF1F50F6FF1F69
:104D800098FBFF1F94FBFF1F60F7FF1F014B188864
:104D90007047C04658F6FF1F0C4A08B50023138021
:104DA0000B4A002013800B4A13800B4A13800B4AD6
:104DB00013800B4A13800B4A1380FFF769FD0A4BDF
:104DC0000A4901221860FFF7E3FD08BD50F6FF1FF6
:104DD00058F6FF1F54F6FF1F5CF7FF1F52F6FF1F28
:104DE00060F7FF1F64F8FF1F94FBFF1F56F6FF1FBD
:104DF000174B70B51A88FF2A16D8013292B21A8062
:104E0000144B154C18882678411C144D89B2198012
:104E10002E54FF2901D90021198080235B009A427A
:104E200011D0FFF7A5FB07E00D4B402219880A437C
:104E30001A80FFF79BFB084C0A4B211C18680122C3
:104E4000FFF7A6FD70BDFFF793FBFFF795FBF3E7B8
:104E500058F6FF1F5CF7FF1F56F6FF1F64F7FF1F92
:104E600050F6FF1F94FBFF1F38B51A481A4B0188F4
:104E70001A8801319406E40F89B26400FF2900D931
:104E80000021164D01802888013880B22880002832
:104E900014D1DF210A401A80114B1B78002B06D059
:104EA000A30708D4E30701D5FFF768FB38BD01234A
:104EB0001C43A307F6D5FFF75DFBF3E72020024371
:104EC0001A80084B01221868074B5918FFF792FD0A
:104ED000E6E7C04660F7FF1F50F6FF1F52F6FF1FC0
:104EE0005EF7FF1F94FBFF1F5CF6FF1F30B5104BF2
:104EF00083B0186801A9FFF743FE019B002B12D075
:104F00000C4A9C071588012019071840E40FA400DB
:104F1000C90F2843C901204308435907C90F490055
:104F2000031C0B431380FFF721FB03B030BDC046C9
:104F300094FBFF1F50F6FF1F024B022219880A4301
:104F40001A80704750F6FF1F08B5FFF70DFB08BD2C
:104F5000FFBE7047354B364A364900B5D150364B07
:104F60008822002152019950344AC0218902995067
:104F7000334AE8219858890101439950314B9A7876
:104F8000110704D5997808220A43D2B29A702A4BA5
:104F90002D492A4A99502D4A8021985849020143A7
:104FA00099501868C021090301431960985828498D
:104FB00001408020400401439950264B264A996CB9
:104FC0000A4026499A644B7840221340202213431A
:104FD0004B70234B80221A70A8230B70CB781F22B2
:104FE0001340CB7005230B7100234B7110228B797A
:104FF0001A42FCD119480C218379184A0B40082B1E
:10500000FAD1402353710C2193790B40082BFBD12B
:10501000124840218379114A1942FBD0282313708A
:105020000C2193790B400C2BFBD100BD080D000027
:1050300000E000E000400000007004404410000068
:105040003810000000D007400000011004100000DC
:10505000FFFFFFFC00900440FFF8FFFE0040064009
:10506000005006402C4A2D48136970B5E0210340DA
:10507000C9000B4313612A4B1F255C79FF26AC4303
:105080005C711C790725AC431C71264B73251C7879
:10509000AC4350252C431C705C786325AC43402501
:1050A0002C435C709C781925AC439C701E4B0024EB
:1050B0001C701E4BC724A4001D592D022D0A1D5122
:1050C000C624A4001D59B5431D51194C194DA66F96
:1050D0003540822676003543A567146D2040014394
:1050E0001165C1229200985813490140995000F06F
:1050F00027F800F031F8FFF74FFE00F0C9F900F093
:1051000029F900F01FF80020FFF764FD0B4B5868E9
:10511000FFF780FD62B670BD00900440FFF8FFFE0F
:1051200000F0074000D0074000E0074000E100E049
:1051300000D00440FBF8FFFEFFFF00FF68F8FF1FF0
:105140007047C046024B034A59690A405A6170478A
:1051500000F10F40FFFFFFBF314B324A80219858CA
:10516000C902084330B598502F4AFE24985801438D
:1051700099502E4B9421585C022202435A548022AB
:10518000402052009854FF2280201A741A5488201C
:105190001A5484201A5410208C229854862260209D
:1051A0005200985464221A75982000221A54C02084
:1051B0001A54C4201A54C8201A54CC201A54D0208F
:1051C0001A54D4201A54D8201A54DC201A54E0203F
:1051D0001A54E4201A54E8201A54EC201A54F020EF
:1051E0001A54F4201A54F8201A54FC201A54104867
:1051F000050A25409C241D55050CEDB2B0241D5513
:10520000000EB4241855AC201A54842040001A779C
:105210001A545A5C2B208243012002435A5430BD59
:10522000007004400410000034100000002007400B
:1052300000FCFF1F70B51A4B82B06A46061CEFF3E4
:10524000108072B610701A780132D2B21A70012A28
:105250001DD0144A0B211478402C0BD0124913484E
:105260000D78013446550135EDB21470402D13D040
:105270000D7000211A78013AD2B21A70002A03D1B7
:105280000B4B187880F31088081C02B070BD6A467A
:105290001178074A1170DCE700220A700021E9E763
:1052A00066F8FF1F71F8FF1F70F8FF1F74F8FF1FEB
:1052B00098FBFF1F70B51B4B82B06A46051CEFF3CD
:1052C000108072B610701A780132D2B21A70012AA8
:1052D0001FD0154A0A24117800290CD11A78013AF6
:1052E000D2B21A70002A03D1104B187880F31088BC
:1052F000201C02B070BD0E4C0E4E20780139365C79
:105300000130C0B22E701170402807D020700024E8
:10531000E4E76A461178054A1170DAE70022227044
:105320000024DBE766F8FF1F71F8FF1F98FBFF1FE3
:1053300072F8FF1F74F8FF1F014B18787047C046C2
:1053400071F8FF1F024B40201B78C01AC0B2704793
:1053500071F8FF1F034A00231370034A1370034AB6
:105360001370704770F8FF1F72F8FF1F71F8FF1F6E
:1053700070B51A4B82B06A46061CEFF3108072B605
:1053800010701A780132D2B21A70012A1DD0144A54
:105390000B211478402C0BD0124913480D7801349E
:1053A00046550135EDB21470402D13D00D7000211B
:1053B0001A78013AD2B21A70002A03D10B4B18782E
:1053C00080F31088081C02B070BD6A461178074A45
:1053D0001170DCE700220A700021E9E766F8FF1F80
:1053E000F4F8FF1FF6F8FF1FB4F8FF1F98FBFF1F2C
:1053F00070B51B4B82B06A46051CEFF3108072B685
:1054000010701A780132D2B21A70012A1FD0154AD0
:105410000A24117800290CD11A78013AD2B21A70F4
:10542000002A03D1104B187880F31088201C02B09A
:1054300070BD0E4C0E4E20780139365C0130C0B282
:105440002E701170402807D020700024E4E76A46CF
:105450001178054A1170DAE7002222700024DBE798
:1054600066F8FF1FF4F8FF1F98FBFF1FF5F8FF1FFA
:10547000B4F8FF1F014B18787047C046F4F8FF1FBF
:10548000024B40201B78C01AC0B27047F4F8FF1FCF
:10549000034A00231370034A1370034A13707047C2
:1054A000F6F8FF1FF5F8FF1FF4F8FF1F80B500AFF7
:1054B000054A802380214904D150034B80225204A5
:1054C0001A60BD4680BDC04600E100E080B584B0F2
:1054D00000AF7860396000F055FB334B1B78DBB2CE
:1054E000012B5BD1314B1B68002B0DD1FFF72AFF3D
:1054F000031C3F2B08D9002001210022002301F0CA
:10550000CBF82A4B01221A60FFF7B4FF031C032BD0
:1055100042D9274B1B78DBB2002B3DD13B1C0F330C
:1055200000221A701AE00023BB6009E03B1C0F3315
:105530001A783B1C0F3301321A70BB680133BB6011
:10554000BB68032B0ADC3B1C0F331B787A68D3182B
:10555000181CFFF74DFF031C002BE7D03B1C0F333B
:105560001B783F2B04D8FFF785FF031C032BDAD8E9
:105570000F4B01221A703B1C0F331B789BB27A68C9
:105580000020022103F09CF8031C002B04D0084BE0
:1055900000221A70122302E0002300E00C23181CE2
:1055A000BD4604B080BDC046F7F8FF1FFCF8FF1FE2
:1055B000F9F8FF1F80B586B000AF3A60FB1D021CF2
:1055C0001A70BB1D0A1C1A70BB1D1B78002B03D15F
:1055D0003E4B00221A7076E0BB1D1B78022B0CD1CB
:1055E000002001210022002301F056F8384B01224F
:1055F0001A60364B01221A7065E0BB1D1B78042B24
:105600004FD1324B1B78DBB2012B4AD13B683B6157
:105610003B691A795B791B0213439BB23A1C0E3229
:1056200099B2402900D9402313803B1C1733002234
:105630001A701AE03B691A78597809020A43997876
:1056400009040A43DB781B0613431A1C3B1C17335F
:105650001B78D3181B78181CFFF7ECFD3B1C173385
:105660001A783B1C173301321A703B1C17331B7816
:105670009BB23A1C0E3212889A42DBD8FFF762FEC8
:10568000031C3F2B09D9002001210022002301F037
:1056900003F80F4B01221A6015E00D4B00221A602F
:1056A00011E0BB1D1B78032B03D10A4B00221A709B
:1056B00009E0BB1D1B78052B05D1044B00221A7095
:1056C000054B00221A70BD4606B080BDF7F8FF1FDB
:1056D000FCF8FF1FF9F8FF1FF8F8FF1F90B585B021
:1056E00000AF021CFB1D1A703C1C0F34084AFB1D46
:1056F0001B780020111C002202F08AFF031C23707B
:105700003B1C0F331B78002BFAD1BD4605B090BD72
:10571000B555000080B582B000AF78607A68084B5C
:10572000101C01211A1C02F01FF87B68181C0121B3
:10573000802202F05BF8C046BD4602B080BDC04684
:1057400004F9FF1F80B584B000AF78607A683B1C15
:105750000F33101C01211A1C02F006F83B1C0F33FA
:105760001B78802B07D17A68054B1B78101C012110
:105770001A1C02F03BF8C046BD4604B080BDC046CE
:1057800004F9FF1F80B582B000AF78607B685B785A
:10579000002B0DD17A687B68DB78DB01DBB210214E
:1057A0000B43DBB2DBB2101C191C002202F01EF806
:1057B000C046BD4602B080BD80B584B000AF786001
:1057C0007B681A79597909020A43997909040A43CD
:1057D000DB791B0613431A783B1C0E331A803B1CE3
:1057E0000E333A1C0E32128812021A807B681A7924
:1057F000597909020A43997909040A43DB791B069E
:10580000134301331B78191C3B1C0E333A1C0E3218
:1058100012880A431A807A683B1C0E331B88DBB25D
:10582000101C05211A1C01F0E1FFC046BD4604B062
:1058300080BDC046B0B586B002AF78603B1C08336F
:1058400001229A703B1C083300221A703B1C08335B
:10585000D97800220A4040210A43DA7019790022DF
:105860000A401A713B1C083300225A7079683B1CAD
:1058700008331A783B1C08339B783C1C0F34081CF7
:10588000111C1A1C01F02EFF031C237078683B1CAE
:10589000083319783B1C0833DA781B791B02134351
:1058A0009AB23B1C08339B783C1C083465783C1C3E
:1058B0000F3400950125019501F0B0FE031C237003
:1058C0003B1C083300229A7079683B1C08331A7815
:1058D0003B1C08339B78081C111C1A1C01F002FFAA
:1058E00078683B1C083319783B1C0833DA781B793D
:1058F0001B0213439AB23B1C08339B783C1C0834B0
:10590000647800940124019401F088FE7B68181CDF
:105910000121022201F06AFF7B68181C0621012286
:1059200001F064FF7B68181C9021002201F05EFFEB
:10593000054B1B687A681278101C002100229847DA
:10594000C046BD4604B0B0BD00F9FF1F80B582B0AF
:1059500000AF7860064B1B687A6811787A68083265
:10596000081C05219847C046BD4602B080BDC04610
:1059700000F9FF1F90B587B000AFB9607A603B1C9B
:105980000F33021C1A703B1C0F3319783C1C173460
:10599000BA687B68081C111C1A1C01F0E9FF031C83
:1059A0002370424BBA681A603B1C17331B78002BDC
:1059B00075D13B1C0F331A783D4B101C10211A1C5B
:1059C00001F09AFF031C191C3B1C17333A1C1732B9
:1059D00012780A431A703B1C0F331A78354B101C8F
:1059E00012211A1C01F088FF031C191C3B1C1733E1
:1059F0003A1C173212780A431A703B1C0F331A787C
:105A00002D4B101C14211A1C01F076FF031C191CCD
:105A10003B1C17333A1C173212780A431A703B1C8E
:105A20000F331A78254B101C13211A1C01F064FF48
:105A3000031C191C3B1C17333A1C173212780A43FB
:105A40001A703B1C0F331A781D4B101C17211A1C9F
:105A500001F052FF031C191C3B1C17333A1C173270
:105A600012780A431A703B1C0F331A78154B101C1E
:105A700016211A1C01F040FF031C191C3B1C173394
:105A80003A1C173212780A431A703B1C0F33181C49
:105A90000121032201F0AAFE0B4B03221A703B1CCA
:105AA00017331B78181CBD4607B090BD00F9FF1FC7
:105AB00035580000B9570000155700004557000041
:105AC000855700004D59000004F9FF1F90B585B0BF
:105AD00000AF3A601A1CFB1D1870BB1D19703B1DEE
:105AE0001A803B1C0F3300221A70FA1D3B1C0E3328
:105AF000101C01211A1C01F037FEFA1D3B1C0D334E
:105B0000101C06211A1C01F02FFE3B1C0E331B78C3
:105B1000802B1ED13B1C0D331B781A1C0223134013
:105B200017D0FB1D1B78181CFEF7AEFD031C012BC4
:105B30000FD172B6FB1D181C00F0C6FF3B1C0E33C4
:105B400000221A70FB1D181C0121002201F04EFEDC
:105B500062B63B1C0E331B78802B0BD03B1D1B8881
:105B60003C1C0F34F81DBA1D11783A6800F0DEFEB7
:105B7000031C23703B1C0F331B78181CBD4605B05B
:105B800090BDC04680B500AFBD4680BD80B500AFBA
:105B90002D4A8823BF21D1542B4A2B499423CB5C17
:105BA000DBB202210B43D9B29423D154264A982365
:105BB0000021D154244A80235B000021D154234A80
:105BC00090239B00101C191CFF2201F0ABFC204B02
:105BD0001A688023DB00101C191C002201F0A2FCB3
:105BE0001B4B1B68802189005A181A4B1A601A4BEC
:105BF000FF221A70144A14499423CB5CDBB20221B1
:105C00008B43D9B29423D1540F4A0F4986235B00AA
:105C1000CB5CDBB240210B43D9B286235B00D1546D
:105C2000094A8C23BF21D154074A84239F21D15490
:105C3000054A05499423CB5CDBB220218B43D9B2C2
:105C40009423D154BD4680BD002007400CF9FF1FAE
:105C500008F9FF1F50FBFF1F40F1FF1F80B584B004
:105C600000AFFB1D1870BB1D19707B1D1A703B1C0B
:105C70000F33FF221A70FB1D1B78062B14D8FB1D57
:105C80001B789B00D9B23B1C0F337A1D12788A18FF
:105C90001A70BB1D1B78012B06D13B1C0F333A1C1D
:105CA0000F32127802321A703B1C0F331B78181C0B
:105CB000BD4604B080BDC04690B585B000AFFB1DA9
:105CC0001870BB1D19707B1D1A703C1C0F34FB1D16
:105CD0001978BB1D1A787B1D1B78081C111C1A1C17
:105CE000FFF7BCFF031C23703B1C0F331B78FF2BFB
:105CF00012D03B1C0F331B785B08DBB21A1C0A491D
:105D0000131CDB009B185B005A5A084B9A4203D1C4
:105D10003B1C0F33FF221A703B1C0F331B78181CDF
:105D2000BD4605B090BDC0460CF9FF1FFFFF000047
:105D300090B585B000AF786039603B689A79D979C1
:105D400009020A43197A09040A435B7A1B061343C2
:105D50001A1C3B68197B5B7B1B020B439BB2D3185D
:105D6000BB603B1C0E3300221A803B689A7ADB7AB8
:105D70001B0213439BB21A1C3B68197B5B7B1B0203
:105D80000B439BB2D21A3B6819785B781B020B431A
:105D90009BB29A4208DD3A1C0E323B6819785B7858
:105DA0001B020B4313800FE03B689A7ADB7A1B02DD
:105DB000134399B23B681A7B5B7B1B0213439AB275
:105DC0003B1C0E338A1A1A807B683A1C0E321178FB
:105DD0009C7800202040014399705278D8780021A7
:105DE00001400A43DA70BA687B68FF2111401C79D0
:105DF0000020204001431971100AFF2101405C7905
:105E00000020204001435971100CFF2101409C7972
:105E10000020204001439971120ED87900210140E1
:105E20000A43DA71BD4605B090BDC04680B582B068
:105E300000AF0A1CFB1D011C1970BB1D1A705B4AC8
:105E400080235B000021D154594BFA1D12781A703F
:105E5000584A90239B00101C191CFF2201F062FB82
:105E6000554B564A1A60544B1A688023DB00101CAD
:105E7000191C002201F056FB4C4A4C4986235B005A
:105E8000CB5CDBB2802149420B43D9B286235B0055
:105E9000D154C046454A86235B00D35CDBB2DBB2FB
:105EA0005BB2002BF6DB464BFF221A703F4A3F499C
:105EB00086235B00CB5CDBB240210B43D9B2862347
:105EC0005B00D1543F4B3F4A5268802149040A434A
:105ED0005A60BB1D1B78002B07D03A4B394A126819
:105EE000802109060A431A6005E0364B354A1268DC
:105EF000520052081A60334B324A5168324A0A4003
:105F00005A602A4A2C4B1B681B0ADBB201218B43C7
:105F1000D9B29C23D154254A274B1B681B0CD9B2FC
:105F2000B023D154214A244B1B681B0ED9B2B42391
:105F3000D154214B1B68802189005A18234B1A60C9
:105F40001A4A84235B001021D154184A942301215A
:105F5000D154164A8023BF21D154144A13498023B7
:105F60005B00CB5CD9B27F230B40D9B280235B00AE
:105F7000D1540E4A0D498423CB5CDBB201210B4383
:105F8000D9B28423D154094A08498423CB5CDBB2BB
:105F900010210B43D9B28423D154044B84221A77A5
:105FA0000023181CBD4602B080BDC046002007403B
:105FB0004CFBFF1F0CF9FF1F08F9FF1F00FCFF1F20
:105FC00040F1FF1F00700440FFFFFFFE50FBFF1F6A
:105FD00090B589B000AF3960FB1D011C1970BB1D65
:105FE0001A703B1C1F333A6812781A703B1C1E3320
:105FF0003A6892781A703B1C0C33C64A03CA03C332
:106000003B68DA781B791B0213439AB280239B000A
:106010009A420AD93B68D97800220A40DA70197985
:1060200000220A4002210A431A713C1C1D343B1C09
:106030001F331A783B1C1E331B78101C191C0022BE
:10604000FFF70CFE031C23703B1C1C333A1C1D3253
:10605000127852081A703B1C1D331B78FF2B13D08B
:106060003B1C1C331A78AC49131CDB009B185B00EB
:106070005A5AAA4B9A4207D13B685B78032B03D844
:106080003B689B78012B01D995233EE13B1C1C33D7
:106090001A78131CDB009B185B009F4A9B18BB619E
:1060A000BB69DB7BFF2B02D1BB690022DA733B6843
:1060B000DA781B791B0213439AB2BB69FF211140A6
:1060C0001C780020204001431970120A92B25878BF
:1060D000002101400A435A70BB69BA1D12789A73B5
:1060E000BB69DA7B01231340DAB2BB69DA73BB699F
:1060F000DB7BDAB23B1C1E331B785B00D9B23B1C46
:106100001F331B789B00DBB20B43DBB21343DBB2C4
:10611000DAB2BB69DA73824B1A68BB69FF2111409E
:106120009C780020204001439970100AFF21014013
:10613000DC78002020400143D970100CFF21014081
:106140001C790020204001431971120E587900215A
:1061500001400A435A713B685A78BB695A74BB695B
:106160003A1C1E3212781A746E4B1A68BB69DB7BBC
:10617000DB00D3187B613B68DA781B791B02134381
:106180009AB27B69FF2111409C7800202040014396
:106190009970120A92B2D878002101400A43DA704D
:1061A0005F4B1A687B69FF2111401C790020204059
:1061B00001431971100AFF2101405C790020204041
:1061C00001435971100CFF2101409C7900202040AF
:1061D00001439971120ED879002101400A43DA7106
:1061E0007B6908221A704F4B1A68BB69DB7B01215F
:1061F0004B40DBB2DB00D3187B613B68DA781B795C
:106200001B0213439AB27B69FF2111409C78002046
:10621000204001439970120A92B2D87800210140BF
:106220000A43DA703E4B1A687B69FF2111401C79E2
:106230000020204001431971100AFF2101405C79C0
:106240000020204001435971100CFF2101409C792E
:106250000020204001439971120ED879002101409D
:106260000A43DA717B6948221A703B68DA781B7935
:106270001B0213439BB21A1C294B1B68D218284BD4
:106280001A603B1C1E331B78002B0ED1254B1A685D
:10629000BB69DB7BDB00D3187B617B691B788022C9
:1062A00052421343DAB27B691A703B1C1E331A78D0
:1062B0003B1C1E3319783B1C0C338900C9583B68C2
:1062C0005B78012B01D0012300E0002319433B1C24
:1062D0000C339200D1503B1C1F331B789B00124A99
:1062E0009B183A1C1F32127892000F48121812782D
:1062F000D1B23A1C1E3210783A1C0C3280008258FF
:10630000D2B20A43D2B21A700023181CBD4609B09B
:1063100090BDC046488700000CF9FF1FFFFF00003A
:1063200050FBFF1F08F9FF1FC020074090B587B042
:1063300000AF7860FB1C1970BB1C1A703B1C173334
:10634000C4221A703C1C1634FB1C1A78BB1C1B7828
:10635000101C191C0022FFF7AFFC031C23703B1C10
:1063600015333A1C1632127852081A703B1C163339
:106370001B78FF2B37D03B1C15331A78131CDB001E
:106380009B185B001B4A9B183B611B4B1A683B69BF
:10639000DB7BDB00D318FB60174B1A683B69DB7BA8
:1063A00001214B40DBB2DB00D318BB60FB681A78DD
:1063B0007F231340DAB2FB681A70BB681A787F2318
:1063C0001340DAB2BB681A703B699A7A01214942DC
:1063D0000A439A72DA7A012149420A43DA723B1C73
:1063E000173300221A703B1C17331B78181CBD464C
:1063F00007B090BD0CF9FF1F08F9FF1F90B585B0DD
:1064000000AFFB1D1870BB1D19707B1D1A703C1C62
:106410000F34BB1D1A787B1D1B78101C191C002221
:10642000FFF74AFC031C23703B1C0E333A1C0F324F
:10643000127852081A703B1C0F331B78FF2B01D1C6
:1064400096233EE0F91DBB1D1A787B1D1B78081CA6
:10645000111C1A1CFFF76AFF1C4B19683B1C0E33FA
:106460001A781B48131CDB009B185B001B5ACA1AC6
:10647000164B1A60BB1D1B789B00164A9B18002206
:106480001A703B1C0E331A781149131CDB009B1841
:106490005B00012252425A523B1C0E3319780C4ABF
:1064A0000B1CDB005B185B00D11848880124644298
:1064B00020434880D3189A88012149420A439A8090
:1064C0000023181CBD4605B090BDC04650FBFF1F01
:1064D0000CF9FF1FC020074090B585B000AF786071
:1064E000FB1C1970BB1C1A703C1C0F34FB1C1A7867
:1064F000BB1C1B78101C191C0022FFF7DDFB031CC2
:1065000023703B1C0F331B785B08DBB21A1C131C77
:10651000DB009B185B00164A9B18BB603B1C0F33CB
:10652000BA68D27B1A703B1C0F331B78FF2B1BD031
:106530007968FB1C1A78BB1C1B78081C111C1A1CE0
:10654000FFF7F4FE0B4B1A683B1C0F331878094B0E
:106550001B68391C0F310978C900CB5C7C2149428A
:106560000B43D9B2C3009954C046BD4605B090BD97
:106570000CF9FF1F08F9FF1F90B587B000AF7860D6
:10658000FB1C1970BB1C1A703C1C1734FB1C1A78BE
:10659000BB1C1B78101C191C0022FFF78DFB031C71
:1065A00023703B1C17331B785B08DBB21A1C131CCF
:1065B000DB009B185B00354A9B183B613B1C173383
:1065C0003A69D27B1A703B1C17331B78FF2B58D0CB
:1065D000FB1C1B789B002E4A9B18FB60FB1C1B7846
:1065E000002B23D03B695B7C012B01D0012300E011
:1065F00000233A1C0B321370BB1C1B78012B01D1FA
:10660000142300E018233A1C0B3211781A1C0B1CBF
:106610001343DAB23B1C0B331A70FB681A783B1C2D
:106620000B331B781343DAB2FB681A70FB681A78D5
:1066300002218A431A70174B1A683B1C17331878CB
:10664000144B1B68391C17310978C900C95C7B23BE
:106650000B40D9B2C30099540E4B1B683A1C173239
:106660001278D2000021D154BB1C1B78002B08D11A
:106670007A68FB1C1B78101C191C0022002300F0F8
:106680000BF8C046BD4607B090BDC0460CF9FF1FD1
:10669000C020074008F9FF1F90B589B000AFF8602F
:1066A0007A603B603B1C0B330A1C1A703B1C1F3387
:1066B00094221A703C1C1E343B1C0B331B78181C94
:1066C00000210022FFF7F8FA031C23703B1C1E3345
:1066D0001B785B08DBB21A1C131CDB009B185B00E9
:1066E0008F4A9B18BB613B1C1E33BA69D27B1A7060
:1066F0003B1C1E331B78FF2B00D10AE1894B1A6823
:106700003B1C1E331B7801214B40DBB2DB00D3184E
:106710007B6100233B61BB691A785B781B021343E2
:106720009AB2814B9A4200D1F3E07B691B781B0639
:10673000DB0FDBB2002B00D0EBE03B68002B56D127
:10674000784B1A683B1C1E331B78DB00D3183B6167
:10675000BB691A785B781B0213439AB23B69FF212D
:1067600011409C780020204001439970120A92B297
:10677000D878002101400A43DA70BB699A78D97849
:1067800009020A43197909040A435B791B0613437A
:106790001A1C3B69FF2111401C7900202040014355
:1067A0001971100AFF2101405C790020204001434B
:1067B0005971100CFF2101409C79002020400143B9
:1067C0009971120ED879002101400A43DA713B69B0
:1067D0001B785B06DB0FDBB29B01DBB278225242F7
:1067E0001343DBB2DAB23B691A70002394E03B68D2
:1067F0009AB2BB69FF2111409C7A002020400143DE
:106800009972120A92B2D87A002101400A43DA72D0
:10681000BB693A1D12789879002101400A439A71A8
:106820007A1D1278D879002101400A43DA71BA1D25
:106830001278187A002101400A431A72FA1D127860
:10684000587A002101400A435A72BB691A785B7872
:106850001B0213439BB21A1C3B689A4206D2BB69C7
:106860001A785B781B0213439BB23B60BB69197BB0
:1068700000220A401A73597B00220A405A73294B9E
:106880001A683B1C1E331B78DB00D3183B613B6846
:106890009AB23B69FF2111409C78002020400143BF
:1068A0009970120A92B2D878002101400A43DA7036
:1068B0007A683B69FF2111401C7900202040014388
:1068C0001971100AFF2101405C790020204001432A
:1068D0005971100CFF2101409C7900202040014398
:1068E0009971120ED879002101400A43DA713B698F
:1068F0001B785B06DB0FDBB29B01DBB278225242D6
:106900001343DBB2DAB23B691A703B1C1F3300221F
:106910001A703B1C1F331B78181CBD4609B090BD74
:106920000CF9FF1F08F9FF1FFFFF000090B589B0A9
:1069300000AFF8607A603B603B1C0B330A1C1A7096
:106940003B1C1F3393221A703C1C1E343B1C0B3320
:106950001B78181C01210022FFF7AEF9031C2370DD
:106960003B1C1E331B785B08DBB21A1C131CDB00BC
:106970009B185B00444A9B18BB613B1C1E331B7871
:10698000FF2B01D193237AE03B1C1E33BA69D27BE3
:106990001A703E4B1A683B1C1E331B78DB00D31861
:1069A0007B617B691B781B06DB0FDBB2002B63D19D
:1069B0003B1C0B331B789B00354A9B181B78DBB2C2
:1069C0001A1C0223134057D13B689AB2BB69FF21BE
:1069D00011409C7A0020204001439972120A92B221
:1069E000D87A002101400A43DA72BB693A1D127855
:1069F0009879002101400A439A717A1D1278D8795A
:106A0000002101400A43DA71BA1D1278187A002178
:106A100001400A431A72FA1D1278587A0021014087
:106A20000A435A72BB69197B00220A401A73597BC8
:106A300000220A405A737A69BB69101C191CFFF7BF
:106A400077F93B1C0B331B78002B03D17B69C822E1
:106A50001A700DE07B691B785B06DB0FDBB29B01D4
:106A6000DBB2782252421343DBB2DAB27B691A708E
:106A70003B1C1F3300221A703B1C1F331B78181C51
:106A8000BD4609B090BDC0460CF9FF1F08F9FF1FB5
:106A9000C020074080B582B000AF78600A1CFB1CA4
:106AA0001A70074AF91C98230978D154054B181C11
:106AB0000121012200F09AFEC046BD4602B080BD11
:106AC000002007404CFBFF1F80B584B000AF78600A
:106AD0002F4A2F4980235B00CB5CD9B27F230B4028
:106AE000D9B280235B00D154294A294986235B000F
:106AF000CB5CDBB220218B43D9B286235B00D1541F
:106B0000234A23498023CB5CDBB220210B43D9B23B
:106B10008023D1541E4A1E498423CB5CDBB2202142
:106B20008B43D9B28423D154194A19499423CB5C9D
:106B3000DBB220218B43D9B29423D154144A144997
:106B40009423CB5CDBB204210B43D9B29423D15400
:106B50003B1C0E330F4A1A803B1C0E331A883B1C19
:106B60000E33013A1A8001F0CFFD3B1C0E331B8817
:106B7000002BF1D1064A06499423CB5CDBB20421F9
:106B80008B43D9B29423D154C046BD4604B080BDD6
:106B900000200740409CFFFF90B589B000AF021C69
:106BA0003960FB1D1A703B1C1F3300221A70002332
:106BB000BB6100237B6100233B61FB1D1A7804232A
:106BC00013409A103B1C0F331A70FB1D1A780823D0
:106BD0001340DB10DAB23B68DA703B6859783B68E7
:106BE000DA783C1C1F343B1C0F331B78081C111C2B
:106BF0001A1CFFF733F8031C2370A94B1A683B1CBF
:106C00001F331B78DB00D318BB61A54B1A683B1CF4
:106C10001F331B7801214B40DBB2DB00D3187B61B3
:106C20003B1C1F331B785B08DBB21A1C131CDB00F8
:106C30009B185B009B4A9B183B61BB691A79597989
:106C400009020A43997909040A43DB791B061343B5
:106C50001A1C3B68FF2111401C7900202040014391
:106C60001971100AFF2101405C7900202040014386
:106C70005971100CFF2101409C79002020400143F4
:106C80009971120ED879002101400A43DA71BB696B
:106C90009A78DB781B0213439AB23B68FF211140BC
:106CA0005C7A0020204001435972120A92B2987A0D
:106CB000002101400A439A723B69DA7B3B1C1F3377
:106CC00001214A401A703B693A1C1F321278DA736C
:106CD000BB691B785B06DB0FDBB201225340DBB2E2
:106CE0009B01DAB27B691A703B68DB78012B00D01C
:106CF000B7E03B685B78002B16D16B4B1B78002B01
:106D000012D1694BFF221A703B68181C0021002227
:106D1000FFF70CFB7B6900221A703B68181C0021EE
:106D200000220023FFF7B8FC5F4B1B78012B04D037
:106D30003B685B78002B00D138E23B691A7B5B7BB8
:106D40001B0213439AB23B68597A9B7A1B020B438E
:106D50009BB2D3189AB23B69FF2111401C7B0020E3
:106D6000204001431973120A92B2587B002101405E
:106D70000A435A733B699A7ADB7A1B0213439AB22D
:106D80003B69197B5B7B1B020B439BB29A4213D876
:106D90003B685A7A9B7A1B0213439BB2DBB21A1CE4
:106DA0003B6919785B781B020B439BB29A4218D15E
:106DB0003B699B7B012B14D17A693B69101C191C20
:106DC000FEF7B6FF7B691B785B06DB0FDBB29B012E
:106DD000DBB2782252421343DBB2DAB27B691A701B
:106DE000ECE13B699A79D97909020A43197A0904D5
:106DF0000A435B7A1B0613431A1C3B68FF211140B0
:106E00001C790020204001431971100AFF21014024
:106E10005C790020204001435971100CFF21014092
:106E20009C790020204001439971120ED8790021ED
:106E300001400A43DA713B691A7B5B7B1B021343F7
:106E40009AB23B68FF2111405C7A00202040014348
:106E50005972120A92B2987A002101400A439A723A
:106E6000A4E13B685B78002B37D1BB691B789B069C
:106E70001B0FDBB20D2B19D13B6801229A703B68C6
:106E80001A79597909020A43997909040A43DB7985
:106E90001B0613431B78DB09DAB2034B1A701CE0A4
:106EA00008F9FF1F0CF9FF1F40F1FF1FC54B1B78AE
:106EB000012B12D1C34BFF221A703B68181C002112
:106EC0000122FFF733FA7B6900221A703B68181C15
:106ED000002100220023FFF7DFFB3B699A7ADB7A6F
:106EE0001B0213439AB2B84B9A4200D15EE13A1C9E
:106EF0000C323B68597A9B7A1B020B4313803B6927
:106F00001A7B5B7B1B0213439AB23B1C0C331B881E
:106F1000D3189AB23B69FF2111401C7B002020400E
:106F200001431973120A92B2587B002101400A43AF
:106F30005A733B691A785B781B0213439BB23A1C65
:106F40000C3212889A420DD13B699A7ADB7A1B0285
:106F500013439AB23B69197B5B7B1B020B439BB2C9
:106F60009A4222D83B699A7ADB7A1B0213439BB27E
:106F7000002B00D1D0E03B699A7ADB7A1B021343E5
:106F80009AB23B6919785B781B020B439BB2101CC9
:106F9000191CFDF781FA0B1C9BB2002B00D0BBE043
:106FA0003B699B7B012B00D0B6E03B699A7ADB7A88
:106FB0001B0213439BB21A1C3B69197B5B7B1B02B0
:106FC0000B439BB2D21A3B6919785B781B020B43C7
:106FD0009BB29A4206DD3B691A785B781B02134329
:106FE0009BB20DE03B699A7ADB7A1B0213439AB29B
:106FF0003B69197B5B7B1B020B439BB2D31A9BB291
:107000003A1C0A3213803B1C0A331B88002B33D1F5
:107010003B699A78D97809020A43197909040A4325
:107020005B791B0613431A1C7B69FF2111401C79F5
:107030000020204001431971100AFF2101405C79B2
:107040000020204001435971100CFF2101409C7920
:107050000020204001439971120ED879002101408F
:107060000A43DA717B69997800220A409A70D978CC
:1070700000220A40DA7040E03B699A79D979090226
:107080000A43197A09040A435B7A1B0613431A1C44
:107090003B69197B5B7B1B020B439BB2D3181A1C09
:1070A0007B69FF2111401C790020204001431971A8
:1070B000100AFF2101405C790020204001435971F2
:1070C000100CFF2101409C79002020400143997160
:1070D000120ED879002101400A43DA717B693A1C0B
:1070E0000A3211789C780020204001439970527830
:1070F000D878002101400A43DA707B691B785B066F
:10710000DB0FDBB29B01DBB2782252421343DBB2CE
:10711000DAB27B691A7051E03B699A79D979090230
:107120000A43197A09040A435B7A1B0613431A1CA3
:107130003B68FF2111401C79002020400143197158
:10714000100AFF2101405C79002020400143597161
:10715000100CFF2101409C790020204001439971CF
:10716000120ED879002101400A43DA713B691A7B7B
:107170005B7B1B0213439AB23B68FF2111405C7A90
:107180000020204001435972120A92B2987A0021DD
:1071900001400A439A723B699A7A012149420A43A3
:1071A0009A72DA7A012149420A43DA723B685A78C4
:1071B0003B68101C191C00F0AFFBC046BD4609B06F
:1071C00090BDC04640F1FF1FFFFF000080B588B0B2
:1071D00000AFD2493B1C1F3380228A5C1A70CF4912
:1071E0003B1C1E3384228A5C1A703B1C1D333A1CE4
:1071F0001F32391C1E31127809780A401A70C749AB
:107200003B1C1C3390228A5C1A70FB1DFF221A70F3
:10721000C34B1A783B1C08331A703B1C08330022FE
:107220009A703B1C083300225A603B1C0833597A81
:1072300000220A405A72997A00220A409A723B1C34
:1072400008330022DA703B1C083300221A723B1C00
:107250000833FF225A70B24AFB1D101C01211A1C70
:1072600000F082FAAD4A86235B00D35CDBB21A1CC5
:10727000012313401BD0FB1D1B78802B17D1A74A7D
:10728000A64980235B00CB5CD9B27F230B40D9B2E7
:1072900080235B00D154A14AA04986235B00CB5CCC
:1072A000DBB220218B43D9B286235B00D1543B1C37
:1072B0001D331A780423134031D0984AA423D35C99
:1072C000DAB23B1C1A331A803B1C183308221A808E
:1072D000924AA023D35CDAB23B1C16331A808F4A41
:1072E00080230421D1543B1C1A331A883B1C1833C9
:1072F0001B88111C99400B1C9AB23B1C16331B882F
:1073000013439BB29AB23B1D1A803B1C08333A1DB3
:107310005A603B1C08331220191C00F0FDFA3B1C7C
:107320001D331A780123134016D07C4A8023012193
:10733000D154FEF72BFC3B1C08331020191C00F025
:10734000EBFA764A75499423CB5CDBB220218B4360
:10735000D9B29423D154DDE03B1C1D331A780823A5
:1073600013401ED06D4A80230821D1543B1C1C338E
:107370001B781B09DAB23B1C08335A703B1C1C33C8
:107380001A783B1C0833101C191CFFF705FC634AD4
:1073900062499423CB5CDBB220218B43D9B2942386
:1073A000D1543B1C1D331A78022313402ED05B4A64
:1073B00080230221D15459493B1C1F3388228A5C07
:1073C0001A7056493B1C1E338C228A5C1A703B1C77
:1073D0001F333A1C1E321B7812781340DAB23B1C62
:1073E00008331A723B1C08331620191C00F094FA5B
:1073F0004A4A8823BF21D154484A48499423CB5C48
:10740000DBB220218B43D9B29423D1543B1C1D33D2
:107410001A781023134030D0404A80232021D154C1
:107420003E4A80231021D1543B1C08331420191CE0
:1074300000F072FA394A394986235B00CB5CDBB233
:1074400020210B43D9B286235B00D154334A334900
:1074500080235B00CB5CDBB2802149420B43D9B275
:1074600080235B00D1542D4A2C498423CB5CDBB2B2
:1074700020210B43D9B28423D1543B1C1D331A78ED
:107480002023134013D0254A80232021D1543B1CB4
:1074900008331320191C00F03FFA204A1F498423A7
:1074A000CB5CDBB220218B43D9B28423D1543B1C6B
:1074B0001D331B785BB2002B2BDA3B1C0833FF22F9
:1074C0005A703A1C0832FB1C101C10211A1C00F0C8
:1074D0004BF9FB1C1B78012B07D13B1C0833002206
:1074E0005A703B1C08330122DA700C4A8023802139
:1074F000D1543B1C08331720191C00F00DFA074A21
:1075000006499423CB5CDBB220218B43D9B2942370
:10751000D154C046BD4608B080BDC04600200740DB
:107520004CFBFF1F80B584B000AFF860B960FB1D55
:107530001A70FB1D1A78F968BB68081C111C1A1C0C
:1075400001F0F9F8C046BD4604B080BD80B582B0F8
:1075500000AFFB1D00221A70154B1A78154B1A70DC
:10756000FB1D00221A7009E0FB1D1B78124AFF2147
:10757000D154FB1D1A78FB1D01321A70FB1D1B78BC
:10758000062BF1D9FB1D00221A7009E0FB1D1B78A8
:107590000A4A0521D154FB1D1A78FB1D01321A70CD
:1075A000FB1D1B78062BF1D9BD4602B080BDC0463D
:1075B00065FBFF1F64FBFF1F54FBFF1F5CFBFF1FEE
:1075C00080B582B000AF3960111C1A1CFB1D187009
:1075D000BB1D19707B1D1A70BB1D1B78072B03D8B0
:1075E000BB1D1B78002B01D1992310E0BB1D1B781C
:1075F000013BDAB2084B1A70FFF7A8FFFB1D1A789F
:107600007B1D1B78101C191CFEF710FC031C181C9A
:10761000BD4602B080BDC04665FBFF1F90B585B07A
:1076200000AF7860081C111C1A1CFB1C18703B1C56
:107630001980BB1C1A703B1C0F3300221A70284B98
:107640001B78002B05D1FB1C1B78002B01D0952348
:1076500041E03B1C0833BA1C12789A703B1C08337B
:10766000FA1C12781A703B1C08333A1C1178DC782B
:10767000002020400143D970527818790021014040
:107680000A431A713B1C08333A1C203212785A7094
:107690007B6819783C1C0F343A1C08323B1C24339D
:1076A0001B78081C111C1A1CFEF792FC031C23708B
:1076B0003B1C08331B78002B0AD03B1C0F331B7874
:1076C000002B05D1064B1B78013BDAB2044B1A7034
:1076D0003B1C0F331B78181CBD4605B090BDC0463F
:1076E00064FBFF1F90B585B000AF7860FB1C19707C
:1076F000BB1C1A703B1C0F3300221A70184B1A78EF
:10770000184B1B789A4205D1FB1C1B78002B01D02B
:10771000962320E07B6819783C1C0F34FB1C1A78F8
:10772000BB1C1B78081C111C1A1CFEF767FE031CEF
:107730002370FB1C1B78002B0AD03B1C0F331B78DB
:10774000002B05D1064B1B780133DAB2044B1A70BB
:107750003B1C0F331B78181CBD4605B090BDC046BE
:1077600064FBFF1F65FBFF1F80B586B000AFF860AC
:107770007A603B1C0B330A1C1A703B1C17333A1CF3
:107780000B3211780F220A401A703B1C0B331B7806
:10779000072B0DD83B1C0B331B78002B08D03B1C50
:1077A0000B331B78013B0F4AD25C7B681A7014E0E4
:1077B0003B1C0B331A78102313400CD03B1C17339F
:1077C0001B78062B07D83B1C17331B78064AD25C64
:1077D0007B681A7001E0822300E00023181CBD467C
:1077E00006B080BD54FBFF1F5CFBFF1F80B584B05B
:1077F00000AF7860FB1C1970BB1C1A703B1C0F3368
:10780000FA1C11780F220A401A70FB1C1B78072BF8
:107810000BD8FB1C1B78002B07D0FB1C1B78013BF3
:10782000334AB91C0978D1545DE0FB1C1A78102347
:10783000134056D03B1C0F331B78062B51D83B1CF2
:107840000E33FA1C1278D2091A70BB1C1B78012B5C
:107850000CD179683B1C0F331A783B1C0E331B7814
:10786000081C111C1A1CFEF737FE32E0BB1C1B78EB
:10787000002B2ED13B1C0F331B781E4AD35C012BEF
:1078800027D179683B1C0F331A783B1C0E331B78C9
:10789000081C111C1A1CFEF76FFE3B1C0F331B78D3
:1078A000002B16D13B1C0E331B78013B5A1E934113
:1078B000DBB21A1C3B1C0E331A7079683B1C0F3369
:1078C0001A783B1C0E331B78081C111C1A1CFEF77F
:1078D00053FE3B1C0F331B78064AB91C0978D15460
:1078E00001E0822300E00023181CBD4604B080BDE7
:1078F00054FBFF1F5CFBFF1F80B582B000AF3A60F6
:10790000FB1D021C1A70BB1D0A1C1A700023181CD8
:10791000BD4602B080BDC04680B582B000AF021C3B
:107920003960FB1D1A70FB1D1B78102B01D1FFF76E
:107930000DFEFB1D1A78094B9200D358002B07D07F
:10794000FB1D1A78054B9200D3583A68101C9847D3
:107950000023181CBD4602B080BDC046DC87000075
:1079600080B582B000AF7860C046BD4602B080BD31
:1079700090B587B000AFB9607A603B1C0F33021C32
:107980001A703B1C173300221A700D4BBA681A602C
:107990000C4B7A681A603C1C17343B1C0F331A7866
:1079A000094B101C00211A1CFFF7A6FF031C2370B3
:1079B0003B1C17331B78181CBD4607B090BDC04652
:1079C00074FBFF1F78FBFF1FCD790000B0B588B0B6
:1079D00002AF78603B1C163300221A703B1C173331
:1079E000CD221A7000233B617A683B1C1633101CB1
:1079F00001211A1CFFF7B8FE7B689B78012B00D091
:107A000092E07B681A79597909020A439979090445
:107A10000A43DB791B061343654A111C1A1C082311
:107A2000081C111C1A1C00F07DFE614B9A88604BEB
:107A30009A805F4B5A885E4B5A805D4BDA885C4B6C
:107A4000DA805B4B1B781A1C602313402ED1584BF5
:107A50005B781A1C574B9200D358002B56D03B1C16
:107A600016331B78022B51D8514B5B781A1C3B1CE8
:107A700016331B78181C5049131C5B009B181B18ED
:107A80005B5C012B42D14A4B5B781A1C494B92003C
:107A9000D5587B6818783C1C173445493A1C10327D
:107AA0003B1C0E33A847031C23702FE0404BDA88A1
:107AB0003B1C0E331A803B1C0E331B88002B13D04B
:107AC0003B4B1B78DBB25BB2002B0DDB3B4B384AE8
:107AD00003CA03C379683B1C0E331B88384A081C51
:107AE0000021FEF7D9FD5FE0364B1B68002B0DD05F
:107AF000344B1D687B6818783C1C17342C493A1CA1
:107B000010323B1C0E33A847031C23707B68187887
:107B10003B1C17331978264A3B1C10333C1C0E348F
:107B2000009400F051F83EE03B1C16331B78042B08
:107B300005D17B681B78181C00F0A8FA34E01C4BB8
:107B40001B78DBB25BB2002B2DDB7B68DB78002B74
:107B500029D11C4B1B68002B18D07B685A7A9B7A62
:107B60001B0213439BB208339AB23B1C0E331A809C
:107B7000144B1D687B6818783C1C17340F493A1C5D
:107B800010323B1C0E33A847031C23707B68187807
:107B90003B1C17331978064A3B1C10333C1C0E342F
:107BA000009400F011F8C046BD4606B0B0BDC04616
:107BB00068FBFF1F648800003C8800007CFBFF1FFF
:107BC00084FBFF1F78FBFF1F80B584B000AFBA6055
:107BD0007B603B1C0F33021C1A703B1C0E330A1CCB
:107BE0001A703B1C0E331B78CD2B07D13B1C0F3377
:107BF000181C90210122FFF7F9FD2AE0BB691A88C1
:107C0000BB689979DB791B020B439BB29A4207D977
:107C1000BB689A79DB791B0213439AB2BB691A805D
:107C20003B1C0F3319787B681A68BB691B88081CDA
:107C30000021FDF74BFFBB681B78DBB25BB2002B6A
:107C400007DA3B1C0F33181C002100220023FEF72B
:107C500023FDC046BD4604B080BDC04690B58BB084
:107C600002AFB9607A603B603B1C0F33021C1A7094
:107C70000023BB613B1C1E3300221A703B1C1533D2
:107C800003221A703C1C1F343A1C0F323B1C153364
:107C9000101C01211A1CFFF767FD031C2370BB6831
:107CA0001B781A1C032313404BD13C1C1F343A1C75
:107CB0000F323B1C1433101C06211A1CFFF754FD15
:107CC000031C23703B1C14331B781A1C584B1A805E
:107CD000574B1A88032313409AB2554B1A80544BC2
:107CE0001A88534B1A803B1C0F331B783C1C1F34E3
:107CF0003A1C183200923A1C16320192181C0221CA
:107D000000220023FCF74CFC031C2370BB690733E3
:107D10001B781A1C4023134008D0454B1B88802237
:107D2000520013439AB2424B1A8006E0404B1A8825
:107D3000404B13409AB23E4B1A803B6802221A8095
:107D40006CE0BB681B781A1C03231340012B1ED167
:107D5000BB681A795B791B0213439AB23B1C1D3333
:107D60001A703B1C15331B78012B09D13B1C1D33AA
:107D70001B78002B04D03B1C1F33CD221A704DE022
:107D80002B4B00221A803B6802221A8046E0BB6817
:107D90001B781A1C03231340022B3FD13B1C1533C5
:107DA0001B78012B09D13B1C1E331B78002B04D000
:107DB0003B1C1F33CD221A7030E0BB681A795B7907
:107DC0001B0213439BB2DAB23B1C1E3310210A4341
:107DD0001A703C1C1F34391C0F313B1C1E331A789F
:107DE0003B1C1333081C111C1A1CFFF7BDFC031CA1
:107DF00023703B1C13331B781A1C0D4B1A800C4B41
:107E00001A880B4B1A803B6802221A80084B1A888A
:107E100080235B0013409AB2054B1A807B68044AAA
:107E20001A603B1C1F331B78181CBD4609B090BD5F
:107E300070FBFF1FFFFEFFFF90B587B000AFB9607A
:107E40007A603B603B1C0F33021C1A703B1C1733DB
:107E5000CD221A703B6800221A80BB685B781A1C1E
:107E6000022313405A103B1C16331A70BB681B7850
:107E70001A1C0323134000D094E03B1C16331B78DC
:107E8000012B4BD1BB689A78DB781B0213439BB262
:107E9000012B07D0BB689A78DB781B0213439BB297
:107EA000022B35D13C1C17343A1C0F323B1C1433C7
:107EB000101C06211A1CFFF757FC031C23703B1CE7
:107EC00017331B78002B22D1BB689A78DB781B0212
:107ED00013439BB2DBB20122111C99400B1CDAB296
:107EE0003B1C14331B781343DAB23B1C14331A7057
:107EF0003B1C14331B783C1C17343A1C0F32101CEB
:107F000006211A1CFFF772FC031C237005E004E035
:107F10003B1C1733CD221A708AE089E0BB689A783F
:107F2000DB781B0213439BB2012B36D13C1C173468
:107F30003A1C0F323B1C1433101C06211A1CFFF78D
:107F400013FC031C23703B1C17331B78002B6FD1D1
:107F5000BB689A78DB781B0213439BB2DBB2012229
:107F6000111C99400B1CDBB2DB43DBB23A1C143210
:107F700012781340DAB23B1C14331A703B1C1433D2
:107F80001B783C1C17343A1C0F32101C06211A1C9B
:107F9000FFF72CFC031C23704AE03B1C1733CD2257
:107FA0001A7045E0BB681B781A1C03231340022B90
:107FB0003ED1BB681A795B791B0213439BB2DAB2DC
:107FC0003B1C13331A703B1C13331B7810221343D2
:107FD000DAB23C1C1734391C0F313B1C16331B78AA
:107FE000081C111C1A1CFFF701FC031C23703B1C0E
:107FF00016331B78002B05D13B1C13331B78032B46
:1080000000D1C0463B1C16331B78002B01D0072340
:1080100000E008233A1C15321370094B1B683A1C08
:108020000F3210783A1C153211783A1C13329847E7
:108030003B1C17331B78181CBD4607B090BDC046CB
:1080400074FBFF1F80B584B000AFB9607A603B60FD
:108050003B1C0F33021C1A703B6800221A803B1C29
:108060000F33181C01210422FFF7C0FBBB689A786C
:10807000DB781B0213439BB2DAB2034B1A70002366
:10808000181CBD4604B080BD72FBFF1F80B582B0D6
:1080900000AF021CFB1D1A700C4B1B78FA1D101C44
:1080A000191CFEF7F7FCFB1D181C01210122FFF72C
:1080B0009DFB064B1B78FA1D101C03211A1CFFF7B1
:1080C00095FB0023181CBD4602B080BD72FBFF1F4C
:1080D00080B586B000AFB9607A603B603B1C0F335F
:1080E000021C1A703B6801221A803A1C0F323B1C9A
:1080F0001733101C04211A1CFFF736FB3B1C1733E7
:108100001B781A1C064B1A80054B1A88044B1A80E0
:108110007B68034A1A600023181CBD4606B080BD68
:1081200070FBFF1F90B587B000AFB9607A603B600D
:108130003B1C0F33021C1A703B1C1733CD221A70E4
:108140003B6800221A803B1C173304221A70BB685C
:108150009A78DB781B0213439AB23B1C14331A80C3
:108160003B1C0F331A783B1C14331B88101C191C42
:10817000FCF784FA031C002B3CD03B1C1633002276
:108180001A703B1C14331B88002B03D13B1C163385
:1081900001221A703C1C17343A1C0F323B1C163358
:1081A0001B78101C01211A1CFFF720FB031C2370F5
:1081B0003B1C14331B88DBB23C1C17343A1C0F32B7
:1081C000101C04211A1CFFF711FB031C23700D4B1C
:1081D0001B683A1C0F3211783A1C1432081C01211A
:1081E0009847084B1B683A1C0F321278101C02216A
:1081F000002298473B1C17331B78181CBD4607B05C
:1082000090BDC04674FBFF1F90B587B000AFB9604A
:108210007A603B603B1C0F33021C1A70BB681B78F2
:108220001A1C03231340012B01D004231CE03B68DC
:1082300001221A80BB681A795B791B0213439BB237
:10824000DAB23C1C17343B1C0F331978084B081C5E
:10825000111C1A1CFCF7FAF9031C23707B68044AF2
:108260001A603B1C17331B78181CBD4607B090BD25
:1082700070FBFF1F90B587B000AFB9607A603B60BC
:108280003B1C0F33021C1A703B6800221A80BB682B
:108290001B781A1C03231340012B01D004231AE07E
:1082A000BB681A795B791B0213439BB2DAB2BB68D5
:1082B0009978DB781B020B439BB2DBB23C1C173472
:1082C000391C0F310978081C111C1A1CFCF7CAF95B
:1082D000031C23700023181CBD4607B090BDC04688
:1082E00090B587B000AFB9607A603B603B1C0F333C
:1082F000021C1A703B6802221A803C1C17343A1C7C
:108300000F323B1C1633101C05211A1CFFF72CFAE8
:10831000031C23703B1C16331B781A1C054B1A8058
:108320007B68044A1A603B1C17331B78181CBD4637
:1083300007B090BD70FBFF1FB0B588B002AFB96049
:108340007A603B603B1C0F33021C1A70BB689A7842
:10835000DB781B0213439BB21B0A9AB23B1C1433FB
:108360001A703B1C1633012252421A803B1C1533F3
:10837000FF221A703B1C14331B78032B10D13A1CBC
:108380001632BB6819795B791B020B431380BB68FB
:108390009A78DB781B0213439AB23B1C15331A7090
:1083A0003C1C13343B1C0F3318783B1C14331978D6
:1083B0003B1C15331A783B1C16331B887D680095CF
:1083C0003D680195FCF7ECF8031C23703B1C13334C
:1083D0001B78181CBD4606B0B0BDC04680B584B041
:1083E00000AF78600E4B1B68002B16D07B681B7AA1
:1083F000002B09D00A4B1B687A6811787A6808321A
:10840000081C0521984708E0054B1B687A6811781D
:108410003A1C0832081C03219847BD4604B080BDB1
:108420008CFBFF1F80B584B000AF78607B681A7941
:10843000597909020A43997909040A43DB791B0631
:1084400013431A1C3B1C08331A607B685A7A9B7AC8
:108450001B0213439AB23B1C08339A800E4B1B68D5
:10846000002B16D07B681B7A002B09D00A4B1B68A7
:108470007A6811787A680832081C0521984708E064
:10848000054B1B687A6811783A1C0832081C0421D5
:108490009847BD4604B080BD8CFBFF1F80B584B0FB
:1084A00000AFB9607A603B603B1C0F33021C1A704E
:1084B0003B6800221A800023181CBD4604B080BD12
:1084C00090B58BB002AF3A60FB1D021C1A70BB1D49
:1084D0000A1C1A70FB1D1B78181CFCF7D7F8031C2C
:1084E0007B61BB1D1B78022B00D07CE03B1C13334F
:1084F00000221A703B1C13337A6912781A70002319
:10850000FB6114E0FA69131C9B009B187A69D3186D
:108510000133FB60FB681A78FB689B78F91D081C27
:10852000111C1A1CFFF7DEF8FB690133FB617B6944
:108530001B781A1CFB699A42E4DC0023BB614CE007
:10854000BA69131C9B009B187A69D3180133BB606E
:10855000BB681978BB68DA781B791B0213439AB29F
:10856000BB689B78B8684478F81D00940024019497
:10857000FFF754F8BB685B78022B00D018E0BB68AB
:108580009B78002B0AD1FB1D1978BB681A781D4B0C
:10859000081C111C1A1CFFF7AFF909E0FB1D197824
:1085A000BB681A78184B081C111C1A1CFFF7A4F999
:1085B000C046BB681A78BB689B78DB01DBB213430B
:1085C000DBB210221343DBB2FA1D101C191C00226F
:1085D000FFF70CF9BB690133BB617B691B781A1C7F
:1085E000BB699A42ACDC094B1B68002B07D0074BD8
:1085F0001B68FA1D1078BA1D11783A689847BD4675
:1086000009B090BD25840000DD8300008CFBFF1FB6
:1086100090B587B000AFB9607A601A1C3B1C0F336D
:10862000011C19703B1C0E331A703B1C17330022BF
:108630001A703B1C0F331B78181CFCF727F8031C1F
:108640003B613B691B780133DAB23C1C17343B1C9D
:108650000F3319783B1C0E331B78081C0021FEF7E2
:10866000AFFF031C23703B1C17331B78002B18D162
:108670003C1C17343B1C0F3319780D4A0D4B081C5A
:10868000111C1A1CFDF776F9031C23703B1C1733D1
:108690001B78002B05D1084BBA681A60074B7A6823
:1086A0001A603B1C17331B78181CBD4607B090BDE1
:1086B000C18400009D8400008CFBFF1F90FBFF1F06
:1086C00090B585B000AF3A601A1CFB1D1870BB1D39
:1086D00019703B1D1A803B1C0F3300221A703C1C82
:1086E0000F34FB1D1878BB1D19783A683B1D1B8899
:1086F000FDF7ECF9031C23703B1C0F331B78181C8F
:10870000BD4605B090BDC04680B500AF044B044ADD
:108710001278D2B220210A43D2B21A70BD4680BD6F
:1087200000F0074010B50023934203D0CC5CC45442
:108730000133F9E710BD00B5031C8218934202D043
:1087400019700133FAE700BD0800000004000000C2
:1087500098F0FF1F0409047C870000D08700000008
:1087600000000000000000000000000000001200F7
:1087700073000000000000000000000098F0FF1FE0
:1087800008F1FF1F20F1FF1F9CF0FF1FA0F0FF1F4B
:10879000B0F0FF1FCCF0FF1FDCF0FF1F74F0FF1FD5
:1087A000020102004000020201400000000000003F
:1087B00000000000F4F0FF1F00F0FF1F00000000A9
:1087C00000000000000000000000000000000000A9
:1087D00004182004101A0E1822000000CD790000A1
:1087E00025840000DD8300006179000061790000CC
:1087F0006179000061790000617900006179000011
:108800006179000061790000617900006179000000
:10881000617900006179000061790000355800003D
:1088200061790000B9570000455700001557000056
:10883000617900004D5900008557000001010001D9
:108840000100000000010100000000000101010121
:108850000100000001010001010001000001000011
:10886000010000005D7C0000397E00000000000077
:10887000397E0000000000004580000039830000C0
:1088800000000000D1800000258100000982000066
:1088900075820000E1820000F8B5C046F8BC08BC53
:1088A0009E467047F8B5C046F8BC08BC9E46704767
:0488B0002D45000052
:0488B400FD4400007F
:1088B80009027300010100400009040000020103DD
:1088C80000000724010001430006240201010406F8
:1088D80024020202040624020103050624020204FB
:1088E8000509240301050102010609240302060102
:1088F80001010609240301070102020709240302F2
:1089080008010102070905010240000000000625D0
:10891800010201030905820240000000000625014A
:1089280002050700220342004100440020005300D2
:108938005400520049004E004700200049004E00F4
:1089480044004500580000000403090404033000F3
:10895800100355005300420020004F0075007400BA
:108968001A0345007800740020004D0049004400B7
:10897800490020004F007500740000000E035500E8
:1089880053004200200049006E0000001803450013
:108998007800740020004D00490044004900200080
:1089A80049006E001201000200000040C016DE27D8
:1089B800000A01020301000018036C006400300083
:1089C8006400400069006B0069002E0066006900C1
:1089D80020037500730062006D006900640069007F
:1089E8003200200073006C006100760065002000F2
:0489F800FF0000007C
:1089FC00B888000000F0FF1F4401000000000000D8
:088A0C00000000000000000062
:04000003000048159C
:00000001FF
