:1000000000180020FD0A00004519000051190000E9
:100010005119000051190000511900005119000038
:100020005119000051190000511900005119000028
:100030005119000051190000511900005119000018
:100040005119000051190000511900005119000008
:1000500051190000511900005119000051190000F8
:1000600051190000511900005119000051190000E8
:100070002110000051190000511900005119000011
:1000800051190000511900005119000051190000C8
:1000900051190000511900005119000051190000B8
:1000A00051190000511900005119000051190000A8
:1000B0005119000051190000511900005119000098
:10040000FFFFFFFFFFFFFFFFF0FFFFFF7EFFFFFF8C
:1004100008B5054B054803331B1A062B03D9044BBB
:10042000002B00D0984708BD04F8FF1F04F8FF1FF9
:10043000000000000648074908B5091A8910CB0FCB
:100440005918491003D0044B002B00D0984708BD21
:1004500004F8FF1F04F8FF1F00000000084B10B550
:100460001A781C1C002A09D1FFF7D2FF054B002B7C
:1004700002D0054800E000BF0123237010BDC04634
:1004800000FCFF1F00000000DC26000008B5094B3F
:10049000002B03D00848094900E000BF0848036862
:1004A000002B03D0074B002B00D09847FFF7C2FF6B
:1004B00008BDC04600000000DC26000004FCFF1F51
:1004C00004F8FF1F0000000080B500AFBD4680BDEE
:1004D00080B500AFBD4680BD80B500AFBD4680BDD4
:1004E00080B500AFBD4680BD80B500AFBD4680BDC4
:1004F00080B500AFBD4680BD80B582B000AF7860EA
:10050000396080F3088880F309888F46BD4602B0C1
:1005100080BDC04680B582B000AF8023DB011B6880
:100520007B600A4B1B683B603B6801330AD0084A7A
:10053000084B8021C901D1507A683B68101C191CF6
:10054000FFF7DAFFBD4602B080BDC04604400000A0
:1005500000E000E0080D000080B582B000AFFB1D98
:1005600000221A70C046FB1D181C00F0A5FE031CDB
:100570000A2BF8D0FB1D1B78181CBD4602B080BDAD
:1005800090B585B000AF786039603B1C0C33002219
:100590001A803B1C0F3300221A700BE03B1C0C33FB
:1005A0001B887A68D3187B603B1C0C331B883A6825
:1005B000D31A3B603B689AB23C1C0F3479683B1CF1
:1005C0000C33081C111C1A1C00F064FF031C237060
:1005D0003B1C0F331B780A2BE0D03B1C0F331B78DE
:1005E000002B01D0012300E00023181CBD4605B0FC
:1005F00090BDC04680B584B000AF786039603B1CC8
:100600000E3300221A800BE03B1C0E331B887A68E5
:10061000D3187B603B1C0E331B883A68D31A3B60AF
:100620003B689AB279683B1C0E33081C111C1A1CDB
:1006300000F062FF031C0B2BE6D0BD4604B080BD6A
:1006400090B583B000AFFC1DFFF786FF031C23703D
:10065000FB1D1B78012B08D18023DB003B603B1C7A
:10066000181C0421FFF7C6FF08E0FB1D02221A70C8
:10067000044B1B68181C1021FFF7BCFFBD4603B0DC
:1006800090BDC04600F8FF1F90B583B000AFFC1DC1
:10069000FFF762FF031C2370FFF75EFFFFF75CFFAD
:1006A0003B1C181C0421FFF76BFF3B681A1CFB1D49
:1006B0001B78101C191CFFF79DFFBD4603B090BDB1
:1006C00080B586B000AFFFF747FF3B1C0A33181C0C
:1006D0000221FFF755FF3B1D181C0421FFF750FFB7
:1006E000FB1C01221A703B1C0A331A888023DB0092
:1006F0009A4217D9FB1C03221A70FB1C181C0121FB
:10070000FFF778FF00237B6104E0FFF725FF7B699B
:1007100001337B613B1C0A331B881A1C7B699A429C
:10072000F3DC34E0384A8023DB00101CFF211A1C64
:1007300001F0BFFF00233B6122E03B1C0A331B8812
:100740001A1C3B69D31AFB60FB68102B01DD1023D8
:10075000FB60FB1C181C0121FFF74CFF3A692A4B78
:10076000D218FB68101C191CFFF70AFF031C002B92
:1007700003D0FB1C04221A7009E03B6910333B6173
:100780003B1C0A331B881A1C3B699A42D5DC7A68E9
:100790001E4B9A4208D93B1C0A331B881A1C7B68E3
:1007A000D2181A4B9A4202D8FB1C02221A70FB1C68
:1007B000181C0121FFF71EFFFB1C1B78012B00D02A
:1007C00019E0FB1C01221A707A680F498023DB00B4
:1007D000081C111C1A1C01F03FFB031C002B03D04A
:1007E000FB1C03221A7006E0C046002001F01EFB2D
:1007F000031C002BF9D1FB1C181C0121FFF7FAFE8A
:10080000BD4606B080BDC04600080020FF3F000086
:1008100090B583B000AF1B4B1A69022313405A1ED8
:100820009341DBB27B607B68012B01D1FFF772FE45
:1008300000F030FDFC1CBB1C181C00F03DFD031C2F
:100840002370FB1C1B78002B1BD1BB1C1B785A2B65
:1008500004D1BB1C1B78181C00F0A2FDBB1C1B782C
:10086000012B01D1FFF7ECFEBB1C1B78022B01D141
:10087000FFF70AFFBB1C1B78032B02D1FFF720FFF9
:10088000D8E7D7E700F00F4080B500AF01F024F9BA
:10089000FFF7BEFFFEE7C04680B582B000AF7860CC
:1008A0003960BD4602B080BD80B58AB000AFF86047
:1008B000B9607A607B687B6204233B620323FB613F
:1008C0000223BB6101237B6101233B61FA68BB68A2
:1008D0009A4202D07B68002B00D14DE049E0FB69D1
:1008E000BA68134018D1FB69FA68134014D13A6A08
:1008F0007B6A9A4210D8FB68BA6812681A603B6A31
:10090000FA68D318FB603B6ABA68D318BB603B6ACD
:100910007A6AD31A7B622CE07B69BA68134018D1DB
:100920007B69FA68134014D1BA697B6A9A4210D87D
:10093000FB68BA6812881A80BB69FA68D318FB6032
:10094000BB69BA68D318BB60BB697A6AD31A7B6289
:100950000FE0FB68BA6812781A703B69FA68D3181E
:10096000FB603B69BA68D318BB603B697A6AD31AEB
:100970007B627B6A002BB2D1BD460AB080BDC04607
:1009800090B583B000AF2D4B002B00D153E0002376
:100990007B6032E029497A68131C5B009B189B003E
:1009A000CB18586825497A68131C5B009B189B007C
:1009B0005958224C7A68131C5B009B189B00E31863
:1009C00008331B681A1CFFF76FFF1C497A68131C59
:1009D0005B009B189B00CB18596818487A68131C59
:1009E0005B009B189B00C31808331B68081C191C6C
:1009F000FFF752FF7B6801337B6010497A68131C54
:100A00005B009B189B005B58002BC3D10B497A6895
:100A1000131C5B009B189B00CB185B68002BB9D1A3
:100A200006497A68131C5B009B189B00CB1808339F
:100A30001B68002BAED1BD4603B090BD002700005F
:100A400080B588B000AF274A274BD31AFB61264BED
:100A5000BB6104237B6103233B610223FB60012311
:100A6000BB6001237B60FB69002B00D136E032E0E4
:100A70003B69BA6913400FD17A69FB699A420BD876
:100A8000BB6900221A607B69BA69D318BB617B69B4
:100A9000FA69D31AFB611EE0BB68BA6913400FD133
:100AA000FA68FB699A420BD8BB6900221A80FB687E
:100AB000BA69D318BB61FB68FA69D31AFB610AE013
:100AC000BB6900221A707B68BA69D318BB617B6866
:100AD000FA69D31AFB61FB69002BC9D1BD4608B086
:100AE00080BDC046080C002000FCFF1F80B500AF91
:100AF000BD4680BD80B500AFBD4680BD80B582B02B
:100B000000AF0E4B7B60FFF7F1FF00F027FF7B6823
:100B1000181C002805D0854681B00020C0430090F5
:100B200001B0FFF78DFFFFF72BFFFFF7E3FF044B4B
:100B30000020191CFFF7A8FEFEE7C04600180020A1
:100B40001CFCFF1F80B584B000AF7860604BFB6079
:100B5000FB6800221A81FB6800221A82FB680022CF
:100B6000DA60FB6800225A82FB6800221A83FB6865
:100B700000225A61FB687A68DA61564BFA681A609B
:100B8000554A5549554BCB588021C9001943534B01
:100B9000D150534B524A5168524A0A408021890031
:100BA0000A435A604E4B4E4A91684E4A0A40802191
:100BB00089000A439A604C4A4B49C3239B00CB5897
:100BC000FF218B4380211943C3239B00D150464B07
:100BD000454A1268802149010A431A60434B434A3F
:100BE000D278D2B208218A43D2B2DA703F4B3F4A60
:100BF000D278D2B204218A43D2B2DA70FB680022E2
:100C00001A80FB6800225A60FB6800229A70374BFA
:100C100000229A70354B00229A71344B00229A724E
:100C2000324B00225A712C4A2B49314BC958314B57
:100C30000B408021C90419432D4BD1502B4B2B4A1B
:100C40001278D2B21F218A43D2B21A70274B0222E5
:100C50005A70264B254A927AD2B2D2B21F218A43C9
:100C6000D2B203210A43D2B2D2B29A721F4B1F4AA8
:100C7000D27AD2B2D2B202210A43D2B2D2B2DA725C
:100C80001A4B1A4AD278D1B25F220A40D2B2DA7035
:100C9000164B164A9279D2B20F218A43D2B29A7178
:100CA000124B124AD278D2B208218A43D2B2DA70F9
:100CB0000E4B0E4AD278D2B204218A43D2B2DA70F5
:100CC0000D4BFA681A60FB68181CBD4604B080BD65
:100CD00044FCFF1F64FCFF1F007004403410000040
:100CE00000900440FFF8FFFE00E100E000A0064095
:100CF00004100000FFFFFFF3BC01002080B584B0AA
:100D000000AF78607B68FB60FB689B78002B26D186
:100D1000FB6801229A70144B134AD278D2B2D2B235
:100D200008210A43D2B2D2B2DA700F4B0E4AD278FF
:100D3000D2B2D2B204210A43D2B2D2B2DA700A4B92
:100D4000094AD278D2B220210A43D2B2DA70064BD5
:100D5000054A9279D2B20F210A43D2B29A71002386
:100D6000181CBD4604B080BD00A0064080B584B00C
:100D700000AF78607B68FB60FB689B78002B22D01B
:100D8000FB6800229A70124B114AD278D1B25F22CE
:100D90000A40D2B2DA700E4B0D4A9279D2B20F21CC
:100DA0008A43D2B29A710A4B094AD278D2B2082148
:100DB0008A43D2B2DA70064B054AD278D2B2042105
:100DC0008A43D2B2DA700023181CBD4604B080BD3D
:100DD00000A0064080B586B000AFF860B960BB1DCA
:100DE0001A80FB687B617B699B78002B01D107230C
:100DF00039E0BB1D1B88002B01D1842333E07B69C4
:100E00001B8A002B01D008232DE03B1C1333EFF38A
:100E1000108072B61870164B1B78DBB20133DBB250
:100E2000134A191C1170012B04D13B1C13331A787F
:100E3000104B1A707B69BA68DA607B69BA1D128838
:100E40001A827B6900221A81094B1B78DBB2013BB5
:100E5000DBB2074A191C1170002B03D1054B18781F
:100E600080F310880023181CBD4606B080BDC04624
:100E700081FDFF1F040C002080B586B000AFF86034
:100E8000B960BB1D1A80FB687B617B699B78002B76
:100E900001D107234EE0BB1D1B88002B01D1842309
:100EA00048E07B691B8B002B01D0082342E03B1CF0
:100EB0001333EFF3108072B61870204B1B78DBB23F
:100EC0000133DBB21D4A191C1170012B04D13B1CEC
:100ED00013331A781A4B1A707B69BA685A617B69A6
:100EE000BA1D12881A837B6900225A827B691B888B
:100EF000012213439AB27B691A80124B114AD278AD
:100F0000D2B2802149420A43D2B2DA700D4B0D4A67
:100F10009279D2B29A71094B1B78DBB2013BDBB2FA
:100F2000064A191C1170002B03D1054B187880F369
:100F300010880023181CBD4606B080BD81FDFF1F30
:100F4000040C002000A0064090B583B000AF78608C
:100F5000124BDB79DBB21C1C7B681B8A002B1AD07E
:100F60007B68DB68591C7A68D160E2B21A707B68D2
:100F70001B8901339AB27B681A817B681A897B6866
:100F80001B8A9A4207D17B6800221A827B68DB6940
:100F9000181C00F0A9FBBD4603B090BD00A00640A0
:100FA00080B582B000AF78607B685A8A7B681B8B03
:100FB0009A421CD219497B685B69581C7A68506157
:100FC0001B78CB717B685B8A01339AB27B685A824B
:100FD0007B685A8A7B681B8B9A421CD17B680022F3
:100FE0001A837B68DB69181C00F0DEFB13E00B4BF7
:100FF0000A4AD278D1B27F220A40D2B2DA70074BC5
:10100000064A9279D2B29A717B681B880122934377
:101010009AB27B681A80BD4602B080BD00A006402F
:10102000F0B5474680B482B000AF364B1B687B609A
:10103000354B1B79DBB21C1C002500260F232340F7
:1010400047D0314B0F221A712F4BDB79DBB2984618
:101050000223234013D0202323400DD04246002AF0
:101060000AD1331C0133DEB27B681B880222134392
:101070009AB27B681A8002E004232B439DB20823B6
:10108000234002D001232B439DB20123234002D0F1
:1010900002232B439DB20423234002D008232B4379
:1010A0009DB27B685A682B1C1A437B685A602023C8
:1010B000221C9A43131C1C1C002E05D07B68DB6984
:1010C000181C00F02FFC04E07B68DB69181C00F0A2
:1010D000DFFB2023234003D07B68181CFFF734FF7D
:1010E0007B681B881A1C0123134006D080232340F1
:1010F00003D07B68181CFFF753FFBD4602B004BC49
:101100009046F0BD64FCFF1F00A0064080B584B08F
:1011100000AF786039607B68FB60FB689B78002BD0
:1011200001D107232AE03B1C0B33EFF3108072B68A
:101130001870144B1B78DBB20133DBB2114A191C57
:101140001170012B04D13B1C0B331A780E4B1A7013
:10115000FB685A683B681A60FB6800225A60094BBA
:101160001B78DBB2013BDBB2064A191C1170002B65
:1011700003D1054B187880F310880023181CBD4656
:1011800004B080BD81FDFF1F040C002080B584B039
:1011900000AF7860104BFB60FB687A681A600F4BF9
:1011A0000E4A526908210A435A610C4B0B4A1268D5
:1011B00008218A431A600A4B094AD168094A0A4041
:1011C000802149000A43DA60074BFA685A60FB68DD
:1011D000181CBD4604B080BD68FCFF1F80F00F40A6
:1011E00000B00440FFF8FFFEBC01002080B582B0D3
:1011F00000AF7860024B08229A60BD4602B080BD05
:1012000080F00FF880B500AF1B4B1B78002B24D06B
:101210001A4B1B68181CFFF771FD184B1A68184B06
:10122000101C191C0122FFF7D5FD164B1B88002B43
:101230001FD0154B1B88202213439AB2124B1A80E1
:101240000E4B1A68114B1B88191C114BCB18101C24
:10125000191C0122FFF710FE0BE00B4B1A88DF234D
:1012600013409AB2084B1A80044B1B68181CFFF7F6
:101270007DFDBD4680BDC0466CFCFF1F000C0020FC
:10128000F8FCFF1FFAFCFF1F6EFCFF1FFCFCFF1F9A
:1012900000FDFF1F80B500AF064B1B78002B04D16B
:1012A000044B01221A70FFF7ADFF0023181CBD4646
:1012B00080BDC0466CFCFF1F80B584B000AF786075
:1012C0003B1C0F3300221A702D4B1B88002B4DD076
:1012D0003B1C0E33EFF3108072B61870294B1B784D
:1012E000DBB20133DBB2274A191C1170012B04D188
:1012F0003B1C0E331A78244B1A70214B1B88013B80
:101300009AB21F4B1A80214B1B885A1C91B21F4A5C
:1013100011801F4AD25C7B681A701C4B1B887F2B84
:1013200002D91A4B00221A801A4B1B881A1C1A4B1E
:10133000134001D0192300E000233A1C0F32137030
:10134000144B1A88154B13409AB2124B1A800D4B4E
:101350001B78DBB2013BDBB20A4A191C1170002B6F
:1013600006D1094B187880F3108801E00A2302E0C7
:101370003B1C0F331B78181CBD4604B080BDC04613
:1013800070FCFF1F81FDFF1F040C002072FCFF1F7B
:1013900078FCFF1F6EFCFF1F41080000B6F7FFFF3F
:1013A00080B584B000AF021CFB1D1A70304B1B8847
:1013B000802B01D10B2357E03B1C0F33EFF3108040
:1013C00072B618702B4B1B78DBB20133DBB2294AA3
:1013D000191C1170012B04D13B1C0F331A78264BBA
:1013E0001A70234B1B8801339AB2214B1A80234B6E
:1013F0001B885A1C91B2214A1180214AF91D097893
:10140000D1541E4B1B887F2B02D91C4B00221A8003
:101410001C4B1B78002B18D01B4B1B881A1C20233D
:10142000134012D1184B1B88202213439AB2164B3B
:101430001A80164B1A68164B1B88191C104BCB18B8
:10144000101C191C0122FFF717FD0A4B1B78DBB299
:10145000013BDBB2074A191C1170002B03D1064B6C
:10146000187880F310880023181CBD4604B080BD96
:10147000FAFCFF1F81FDFF1F040C0020FEFCFF1F74
:1014800000FDFF1F6CFCFF1F6EFCFF1F000C002007
:10149000FCFCFF1FB0B584B000AFF8607A603B1C65
:1014A0000A330A1C1A800024002518E0FB685A1C25
:1014B000FA60181CFFF700FF031C0A2B02D0192B3F
:1014C00008D009E0002C00D10A247B682A1C1A806D
:1014D000231C0DE01924C0462B1C01339DB23B1C7C
:1014E0000A331B88AB42E1D87B682A1C1A80231C74
:1014F000181CBD4604B0B0BD80B588B000AFF86020
:101500007A603B1C0A330A1C1A803B1C1E330022E3
:101510001A80FB68BB613B1C17334E4A12781A7065
:1015200077E03B1C1633EFF3108072B618704A4B0D
:101530001B78DBB20133DBB2474A191C1170012B57
:1015400004D13B1C16331A78444B1A70414B0122CC
:101550001A70434B1B8801339AB2414B1A80414B9E
:101560001B885A1C91B23F4A11801A1CBB69591C36
:10157000B96119783C4B99543A4B1B887F2B02D99F
:10158000384B00221A803B1C1E331A883B1C1E332A
:1015900001321A803A1C1E323B1C0A3312881B8807
:1015A0009A4203D02E4B1B88802B07D13B1C17334C
:1015B0001B78002B02D1274B00221A702B4B1B7873
:1015C000002B18D02A4B1B881A1C2023134012D141
:1015D000274B1B88202213439AB2254B1A80254B98
:1015E0001A68254B1B88191C1F4BCB18101C191C83
:1015F0000122FFF741FC184B1B78DBB2013BDBB249
:10160000154A191C1170002B03D1144B187880F364
:1016100010883A1C1E323B1C0A3312881B889A42DF
:1016200004D20F4B1B887F2B00D87AE77B683A1CCB
:101630001E3212881A803A1C1E323B1C0A33128852
:101640001B889A4201D00B2300E00023181CBD46E2
:1016500008B080BD80FDFF1F81FDFF1F040C00202E
:10166000FAFCFF1FFEFCFF1F00FDFF1F6CFCFF1FAD
:101670006EFCFF1F000C0020FCFCFF1F80B500AFBC
:10168000104B00221A80104B00221A700F4B0022C0
:101690001A800F4B00221A800E4B00221A800E4B2C
:1016A00000221A800D4B00221A800D4B00221A8056
:1016B0000020FFF747FA021C0A4B1A60FFF7A2FD51
:1016C000BD4680BD6EFCFF1F6CFCFF1F70FCFF1F42
:1016D00072FCFF1F74FCFF1FFAFCFF1FFCFCFF1FC6
:1016E000FEFCFF1F000C002090B583B000AF7860B7
:1016F0000024274B1B887F2B21D8254B1B880133C7
:101700009AB2234B1A80234B1B885A1C91B2214A50
:101710001180214A1178214AD1541E4B1B887F2BFE
:1017200002D91C4B00221A8004232343DCB2184B3D
:101730001B88802B0DD102232343DCB209E0184B18
:101740001B88402213439AB2154B1A80012323436E
:10175000DCB2221C0123134002D0FEF7B9FE0BE0DD
:10176000221C0423134001D0FEF7B6FE221C0223E4
:10177000134001D0FEF7B8FE0A4B1A68064B101C46
:10178000191C0122FFF726FBBD4603B090BDC046E1
:1017900070FCFF1F74FCFF1FF8FCFF1F78FCFF1F8D
:1017A0006EFCFF1F000C002080B584B000AF786095
:1017B0003B1C0E3300221A802F4B1B881A1C20233F
:1017C000134007D03B1C0E333A1C0E321288022104
:1017D0000A431A80294B1B8801339AB2274B1A807F
:1017E000264B1B887F2B02D9244B00221A80244BC6
:1017F0001B88013B9AB2224B1A80214B1B88002B7D
:1018000013D01D4B1B88202213439AB21A4B1A8007
:101810001C4B1A68194B1B88191C1B4BCB18101C2E
:10182000191C0122FFF728FB12E0134B1A88DF2353
:1018300013409AB2104B1A80144B1B78002B07D11F
:101840003B1C0E333A1C0E32128801210A431A80C7
:101850003B1C0E331A880223134001D0FEF740FED2
:101860003B1C0E331A880123134001D0FEF740FEC3
:10187000BD4604B080BDC0466EFCFF1FFCFCFF1FD0
:10188000FAFCFF1F000C002000FDFF1F80FDFF1F62
:1018900080B584B000AF7860204B1A683B1C0C33D5
:1018A000101C191CFFF732FCFB68002B31D0FA68C2
:1018B0000223134001D0042300E00023184A1288B9
:1018C00013439AB2164B1A80FA680823134001D0CA
:1018D000802300E00023124A128813439AB2104B6F
:1018E0001A80FB689AB2012313409AB20C4B1B88F2
:1018F00013439AB20A4B1A80FA680423134001D0AA
:10190000022300E00023064A128813439AB2044BD4
:101910001A80FEF7DDFDBD4604B080BD000C00203E
:101920006EFCFF1F80B582B000AF7860044B1B884F
:10193000022213439AB2024B1A80BD4602B080BD08
:101940006EFCFF1F80B500AFFEF7BEFDBD4680BD3B
:1019500080B500AFFFBEBD4680BDC04680B500AFBC
:101960004F4A5049504BD150504A88235B010021C7
:10197000D1504E4A4E4BC0218902D1504B4A4B495F
:101980004C4BCB58A821890119434A4BD1504A4BA3
:101990009B78DBB21A1C0823134007D0464B464AFB
:1019A0009278D2B208210A43D2B29A703F4A404B91
:1019B0004249D1503D4A3D49414BCB5880214902D3
:1019C00019433F4BD150394B384A1268C0210903A3
:1019D0000A431A60354A3549394BC958394B0B40CF
:1019E000802149041943364BD150374B364A916C0C
:1019F000364A0A409A64364B354A5278D2B2D2B24D
:101A0000111C40220A40D2B220210A43D2B2D2B2E3
:101A10005A70304B80221A702D4BA8221A702C4B12
:101A20002B4AD278D1B21F220A40D2B2DA70284BA8
:101A300005221A71264B00225A71C046244B9B790D
:101A4000DBB21A1C10231340F8D1C046204B9B79FF
:101A5000DBB21A1C0C231340082BF7D11C4B40227D
:101A60005A71C0461A4B9B79DBB21A1C0C231340E7
:101A7000082BF7D1C046164B9B79DBB21A1C4023CA
:101A80001340F8D0124B28221A70C046104B9B7995
:101A9000DBB21A1C0C2313400C2BF7D1BD4680BDC2
:101AA00000E000E000000000080D000000700440AD
:101AB000441000003810000000D007400000011062
:101AC00004100000FFFFFFFC00900440FFF8FFFE41
:101AD000004006400050064080B500AF424B424AED
:101AE0001169424A0A40E021C9000A431A61404B89
:101AF0003F4A5279D2B21F218A43D2B25A713C4B2B
:101B00003B4A1279D2B207218A43D2B21A71394BB9
:101B1000384A1278D2B2D2B273218A43D2B250215B
:101B20000A43D2B2D2B21A70324B324A5278D2B28F
:101B3000D2B263218A43D2B240210A43D2B2D2B296
:101B40005A702C4B2B4A9278D2B219218A43D2B2C6
:101B50009A70294B00221A70234AA0230221D150E7
:101B6000264A2649C7239B00CB581B04190CC723C0
:101B70009B00D150224B224A916F224A0A400821F1
:101B8000FF310A439A67184B174A51681E4A0A40A8
:101B900002210A435A60144B134A116D134A0A403A
:101BA000E021C9000A431A65144A1449C1239B0065
:101BB000C958164B1940C1239B00D15000F050FD6D
:101BC000FFF75CFD00F050FD0020FFF7DFFA104B3F
:101BD0005B68181CFFF70AFB00F012F900F034FDF7
:101BE00062B6BD4680BDC04600900440FFF8FFFECF
:101BF00000F0074000D0074000E0074000E100E0AF
:101C000000D00440F8F8FFFEF8FFF0FEFFFF00FFF1
:101C1000BC01002090B589B000AFF860B960BB1D71
:101C20001A806D4B1B78002B01D00823D0E03B1CA1
:101C30001E3300221A800023BB610DE0BA69BB6825
:101C4000D3181B78FF2B04D03B1C1E331B221A8099
:101C500007E0BB690133BB61BB1D1A88BB699A42AF
:101C6000ECD83B1C1E331B881B2B00D077E0BB68D5
:101C70009B0A9B023B61BB689B059B0D7B613B699B
:101C8000564A111C1A1C8023DB00081C111C1A1C4C
:101C900000F006FD7A69514BD318FA6812781A7071
:101CA000FB680133FB60BB1D1A88BB1D013A1A801B
:101CB0007B6901337B617A698023DB009A4203D020
:101CC000BB1D1B88002BE5D1434B01221A70444BEE
:101CD00006221A60434B414A1A60434B8022D200CD
:101CE0001A60424B3A691A60414BFA681A60BB1D90
:101CF0001A88404B1A60404B19683C4B1A683A4BA3
:101D00001B683C1C1E34081C111C1A1C00F01AFA1B
:101D1000031C23803B1C1E331B88002B0ED1364B2B
:101D20001B68181C00F054FA2B4B1B78002BF6D1C3
:101D3000324B1A783B1C1E331A800BE0264B0022D4
:101D40001A703B1C1E331B88892B03D13B1C1E338E
:101D500002221A803B1C1E331B88DBB238E0254B65
:101D600000221A601E4B05221A601B4B01221A70BA
:101D7000214B1868BB1D1B883C1C1E34F968BA68CF
:101D800000F0A4F9031C23803B1C1E331B88002B8E
:101D90000ED1194B1B68181C00F01AFA0E4B1B7859
:101DA000002BF6D1154B1A783B1C1E331A800BE022
:101DB000094B00221A703B1C1E331B88892B03D150
:101DC0003B1C1E3302221A803B1C1E331B88DBB2D5
:101DD000181CBD4609B090BD89FDFF1FA4FDFF1F63
:101DE00084FDFF1F90FDFF1F94FDFF1F98FDFF1F47
:101DF0009CFDFF1FA0FDFF1F8CFDFF1F88FDFF1F27
:101E000080B500AF002000F033F9021C044B1A60CB
:101E1000044B00221A70044B01221A70BD4680BD8B
:101E20008CFDFF1F89FDFF1F8AFDFF1F80B582B05B
:101E300000AF021CFB1D1A70054B1B68181C00F03C
:101E4000C7F9044B1B78181CBD4602B080BDC046C4
:101E50008CFDFF1F89FDFF1F80B584B000AFF860C7
:101E6000B960BB1D1A80F968BA68BB1D1B88081CC5
:101E7000111C1A1CFFF7CEFE031C181CBD4604B033
:101E800080BDC04680B584B000AF7860574B00225B
:101E90001A70574B1B68052B03D0062B00D183E02B
:101EA0009CE0544B1B68002B00D179E0524B1A6820
:101EB000524B1A60524B1A68524B1B68D218504B47
:101EC0001A604C4B1B689B059B0D47D0494B1A6809
:101ED0004D4B9A422CD80023FB601AE0454B1B68FF
:101EE000FA689A4209D2FA68484BD218424B1968EC
:101EF000FB68CB181B78137008E0FA68434BD218C4
:101F00003F4B1968FB68CB181B781370FB680133D3
:101F1000FB60FA683C4B9A42E0D9384B3B4A1A6066
:101F2000384B8022D2001A60324B00221A601CE02B
:101F3000304B1B689B0A9A02324B1A602D4B1B6870
:101F40009B059A0D2B4B1A602B4B1B681A1C2D4BB3
:101F50001B68D3181A1C284B1A6006E0254B1A6818
:101F6000284B1A60234B00221A60214B06221A606C
:101F7000274B1968224B1A68224B1B68081C111C3E
:101F80001A1C00F0DFF8031CDAB2184B1A70174B5A
:101F90001B78002B03D01F4B00221A7022E021E097
:101FA0001C4B00221A701DE0114B05221A60184BC1
:101FB0001868124B1968124B1A68124B1B6800F014
:101FC00085F8031CDAB2094B1A70084B1B78002BFA
:101FD00003D0104B00221A7004E003E00D4B0022E6
:101FE0001A70C046BD4604B080BDC04688FDFF1FC4
:101FF00084FDFF1FA0FDFF1F9CFDFF1F90FDFF1F25
:1020000098FDFF1F94FDFF1FFF030000A4FDFF1FAD
:102010008CFDFF1F89FDFF1F80B586B000AF786083
:102020000F4B00221A700F4B00221A600E4B1A68D9
:102030003B1C0833101C191C00F05EFA3B1C0833D3
:102040009B781A1C1023134003D0084B16221A70D9
:1020500002E0064B03221A70BD4606B080BDC046A2
:1020600089FDFF1F84FDFF1F8CFDFF1F88FDFF1FE3
:1020700080B584B000AF7860104BFB60FB68022233
:102080005A70FB6800221A70FB680022DA70FB6845
:102090000022DA60FB687A685A61094A0849094BEC
:1020A000CB5801211943074BD150074BFA689A606E
:1020B000FB68181CBD4604B080BDC046A4010020CA
:1020C000007004403C100000BC01002080B586B0C8
:1020D00000AFF860B9607A603B60FB687B617B6948
:1020E0005B78022B09D07B695B78012B05D07B697B
:1020F0005B78002B01D0082320E07A683B68101C35
:10210000191C00F043FA031C002B01D0892315E0B1
:102110007B6902221A707B6904225A707B6906224D
:102120009A707B693A689A607B69BA68DA607B6901
:102130007A681A617B6900225A600023181CBD4628
:1021400006B080BD80B586B000AFF860B9607A6037
:10215000FB687B617B695B78022B09D07B695B78CC
:10216000012B05D07B695B78002B01D008232BE085
:10217000BA687B68101C191C00F008FA031C002BBD
:1021800001D0892320E0BB689B059B0D03D17B68B0
:102190009B059B0D01D0892316E07B6903221A70F1
:1021A0007B6904225A707B697A689A607B69002295
:1021B000DA607B69BA681A617B698022D2005A6052
:1021C0007B6909229A700023181CBD4606B080BDA9
:1021D00080B58AB000AF78607B68FB6101235B4209
:1021E000FB600023BB603B1C1B3300221A703B1CAE
:1021F000263300221A703B1C223300221A80FB690E
:102200005B78052B08D0FB695B78042B04D0FB6955
:102210005B78032B00D064E1B34B1B78DBB2DBB2FD
:102220005BB2002B00DB5CE1FB695B78042B06D121
:10223000AD4B70221A70FB690022DA7046E0AA4AA0
:102240003B1C1A3312781A70FB69DA783B1C1A337C
:10225000197870230B40DBB21343DAB2FB69DA70F2
:10226000FB69DB78002B16D0FB6900225A70FB69F2
:102270001B78012B09D09D4B9C4AD2688021C90054
:102280000A43DA60C046C046C046FB695B69181C59
:10229000FFF7C2FE25E1FB699B68002B16D1FB69A5
:1022A00002225A70FB691B78012B09D08F4B8F4A91
:1022B000D2688021C9000A43DA60C046C046C046E1
:1022C000FB695B69181CFFF7DDFD0AE1FB691B7800
:1022D000022B02D0032B05D009E03B1C2233012244
:1022E0001A8004E03B1C223301221A80C046F2E02F
:1022F0007D4A3B1C1A3312781A703B1C1A331A7829
:102300007023134000D0ECE0FB695B78042B03D111
:10231000FB6905225A7015E0FB691A69FB695B6865
:10232000D218FB691A61FB691B78012B03D0FB698A
:102330001B78022B06D1FB69DA68FB695B68D2184F
:10234000FB69DA60FB691B78022B09D0032B00D0F4
:102350008AE0FB699B6866495A18FB699A6083E0CA
:10236000FB691B69D9B23B1C263303220A401A7051
:102370003B1C1B333A1C2632127804218A1A1A702D
:10238000FB699A683B1C1B331B789A4205D2FB6998
:102390009A683B1C27331A7005E03B1C27333A1C14
:1023A0001B3212781A703B1C253300221A7024E06D
:1023B0003B1C26331A783B1C25331B78D3183A1C58
:1023C0000C32D218FB69D9683B1C25331B78CB181B
:1023D0001B7813703B1C26331A783B1C25331B7863
:1023E000D3183A1C0832D318FF221A703B1C25332D
:1023F0001A783B1C253301321A703A1C25323B1CDB
:10240000273312781B789A42D2D3FB691A693B1C96
:1024100026331B78D31A7B617B691B683B61FB68A1
:10242000BA6813403A69D243134007D0FB69DB789E
:1024300004221343DAB2FB69DA7052E03B69DA43F3
:10244000FB685340FB603B1C27331A78FB695A60DA
:10245000FB699A683B1C27331B78D21AFB699A6088
:10246000244BFA681A60C0463B1C22333A1C2232C5
:102470001288013A1A80FB699B68002B03D13B1C30
:10248000223300221A80FB691B78012B23D0164BC4
:10249000FA699278DA71144AFB691B69D9B23B1C5C
:1024A00026331B78CB1ADBB213710F4AFB6919690B
:1024B0003B1C26331B78CB1A1B0ADBB253710A4A2A
:1024C000FB6919693B1C26331B78CB1A1B0CDBB24A
:1024D000937100F077F83B1C22331B88002B00D04F
:1024E00006E7BD460AB080BD00000240003000F0A3
:1024F00000FCFFFF0800024080B584B000AF7860A8
:1025000039607B68FB603B1C0B33EFF3108072B6C5
:1025100018701C4B1B78DBB20133DBB2194A191C53
:102520001170012B04D13B1C0B331A78164B1A7017
:10253000FB681A783B681A70FB689A783B685A7097
:10254000FB68DA783B689A70FB681A693B685A60E6
:10255000FB68DA683B689A60FB685A683B68DA6037
:10256000084B1B78DBB2013BDBB2064A191C117029
:10257000002B03D1044B187880F31088BD4604B0BB
:1025800080BDC04681FDFF1F040C002080B582B0D5
:1025900000AF786039603A6880235B029A4209D8BC
:1025A0003B68002B06D03B6880225202D21A7B681F
:1025B0009A4201D2892300E00023181CBD4602B0D4
:1025C00080BDC04680B58AB000AF3B1C08330133E4
:1025D000012293437B62194B7A6A111C1A1C19233E
:1025E000081C111C1A1C00F05BF8FB1DEFF3108097
:1025F00072B61870124B1B78DBB20133DBB2104A93
:10260000191C1170012B03D1FB1D1A780D4B1A7088
:102610007B6A012213439847094B1B78DBB2013BCD
:10262000DBB2074A191C1170002B03D1054B187837
:1026300080F31088BD460AB080BDC046C4260000A5
:1026400081FDFF1F040C002080B500AF034B034A3F
:10265000526902218A435A61BD4680BD00F00F4095
:1026600080B500AFBD4680BD80B500AF0A4B0A4AB9
:1026700051680A4A0A405A60074B074A926880210B
:10268000C9050A439A60044B034A5169034A0A4048
:102690005A61BD4680BDC04600F10F40FFFFFFBF3D
:1026A00010B50023934203D0CC5CC4540133F9E746
:1026B00010BD00B5031C8218934202D0197001337B
:1026C000FAE700BD00B5044A80231370117848B2C0
:1026D0000028FBDA00BDC04600000240F8B5C04645
:1026E000F8BC08BC9E467047F8B5C046F8BC08BCAC
:0426F0009E4670474B
:0426F4008D04000051
:0426F8005D0400007D
:0426FC000044000096
:10270000FC26000000F8FF1F04000000000000008D
:082710000000000000000000C1
:0400000300000AFDF2
:00000001FF
