:100000000018002071070000AD100000B5100000BE
:10001000B5100000B5100000B5100000B5100000CC
:10002000B5100000B5100000B5100000B5100000BC
:10003000B5100000B5100000B5100000B5100000AC
:10004000B5100000B5100000B5100000B51000009C
:10005000B5100000B5100000B5100000B51000008C
:10006000B5100000B5100000B5100000B51000007C
:100070003D0A0000B5100000B5100000B5100000EA
:10008000B5100000B5100000B5100000B51000005C
:10009000B5100000B5100000B5100000B51000004C
:1000A000B5100000B5100000B5100000B51000003C
:1000B000B5100000B5100000B5100000B51000002C
:10040000FFFFFFFFFFFFFFFFFFFFFFFF7EFFFFFF7D
:1004100008B5054B054803331B1A062B03D9044BBB
:10042000002B00D0984708BD04F8FF1F04F8FF1FF9
:10043000000000000648074908B5091A8910CB0FCB
:100440005918491003D0044B002B00D0984708BD21
:1004500004F8FF1F04F8FF1F00000000084B10B550
:100460001A781C1C002A09D1FFF7D2FF054B002B7C
:1004700002D0054800E000BF0123237010BDC04634
:1004800000FCFF1F00000000B818000008B5094B71
:10049000002B03D00848094900E000BF0848036862
:1004A000002B03D0074B002B00D09847FFF7C2FF6B
:1004B00008BDC04600000000B818000004FCFF1F83
:1004C00004F8FF1F00000000704770477047704736
:1004D00070477047064A802311689B0110B5186861
:1004E0004A1C04D0034A044CA35000F0F5F810BD98
:1004F00004200000080D000000E000E013B56C4689
:10050000073400232370201C00F0AAFB0A28FAD02D
:10051000207816BD73B56C4606340023051C0E1CEE
:100520002380B1B2281C221C00F042FC0A2803D10F
:100530002388ED18F61AF4E7431E984176BD73B58B
:100540006C4606340023051C0E1C2380B1B2281C07
:10055000221C00F04BFC0B2803D12388ED18F61A5F
:10056000F4E773BD07B5FFF7C9FF012805D1802364
:10057000DB00019301A8042102E0034B102118685D
:10058000FFF7DDFF07BDC04600F8FF1F13B5FFF7FB
:10059000B5FF041CFFF7B2FFFFF7B0FF01A804216D
:1005A000FFF7B8FF0198211CFFF7C9FF13BD00003A
:1005B000F7B56D460235FFF7A1FF0221281CFFF7B2
:1005C000A9FF042101A8FFF7A5FF6C462B88013481
:1005D000012180222170D20093420CD90323201CD8
:1005E0002370FFF7ACFF00262B889E4220DAFFF72E
:1005F00085FF0136F8E7224FFF21381C01F047F94B
:1006000000262F88BE4213DA201C0121FFF797FF36
:100610001B4BBF1B9819391E102900DD1021FFF755
:1006200079FF002802D00423237001E01036E8E7A8
:10063000019A144B9A4203D929888A189A4201D800
:1006400002232370201C0121FFF779FF2378012B5F
:1006500010D180220A480199D200237000F0D4FE04
:10066000002802D00323237004E0002000F0C0FE25
:100670000028FAD1201C0121FFF761FFF7BDC04619
:1006800000080020FF1F0000124B13B51B699A07DA
:1006900001D5FFF71FFF00F0D5FA6C460734201C88
:1006A00000F0DEFA0028F8D120785A2801D100F0B5
:1006B00027FB2378012B01D1FFF754FF2378022B6E
:1006C00001D1FFF763FF2378032BE6D1FFF770FF1B
:1006D000E3E7C04600F00F4080F3088880F3098804
:1006E0008F46704708B500F06BFDFFF7CDFFFEE7C2
:1006F00030B588421ED0002A1CD0032401250B1CD3
:100700000343234205D1032A03D908C9043A08C088
:100710000EE02B4207D1012A05D90B88023A03804B
:100720000231023004E00B78013A037001310130EC
:10073000002AE4D130BD000038B50B4D0024002D57
:1007400010D02B191968002906D02B1958689A68FF
:10075000FFF7CEFF0C34F4E75A68002AF5D19B6806
:10076000002BF2D138BDC046DC180000704770473E
:1007700038B5FFF7FBFF00F09FFC194B181C002851
:1007800005D0854681B00020C043009001B0154AD5
:10079000154B9B1A08D1FFF7CFFFFFF7E8FF13496E
:1007A0000020FFF79FFF19E0032001240025111C02
:1007B000014004D1032B02D902C2043B0BE0111CFF
:1007C000214005D1012B03D91180023B023202E006
:1007D0001570013B0132002BE9D1DCE7FEE7C04692
:1007E0000018002000FCFF1F080C00201CFCFF1F4D
:1007F000324A334BF0B5D0611A603248324B802414
:10080000C558E40000212C4311811182D16051822E
:1008100011835161C4502D4B2D4D5E6880242E40B4
:10082000A40026435E609E6835402C439C60294BA3
:10083000C324A4001D59FF26B543802635431D510E
:100840001D6874012C431C60234B0825DC78AC43E5
:10085000DC70DE780424A643DE7051609170118054
:1008600099709971997259711C491D4E47583E40B3
:100870008027FF043E43465019781F20814319709A
:10088000022159709E7A8643301C032630439872A9
:10089000D87A0143D972D8785F210140D97099790B
:1008A0000F2081439971D978101CA943D970D97848
:1008B000A143D9700B4B1A60F0BDC04648FCFF1F26
:1008C00044FCFF1F007004403410000000900440FE
:1008D000FFF8FFFE00E100E000A006400410000069
:1008E000FFFFFFF3C001002000B58378002B12D179
:1008F00001238370094B0821DA780A43DA70DA7829
:1009000004210A43DA70DA7820210A43DA709A79EE
:100910000F210A439A71002000BDC04600A0064086
:1009200000B58378002B12D000238370094B5F221F
:10093000D9780A40DA709A790F218A439A71DA7865
:1009400008218A43DA70DA7804218A43DA700020B9
:1009500000BDC04600A0064037B58478031C0720C0
:10096000002C26D08420002A23D01C8A0820002CAA
:100970001FD16C46EFF3108072B6E0710D4807345A
:1009800005780135EDB20570012D02D125780A4CAC
:1009900025701A820022D9601A810378013BDBB2EC
:1009A0000370101C934204D1034B187880F3108815
:1009B00000203EBD80FDFF1F040C002037B5847869
:1009C000031C0720002C32D08420002A2FD01C8B3F
:1009D0000820002C2BD16C46EFF3108072B6E0712A
:1009E0001348073405780135EDB20570012D02D1A9
:1009F0002578104C257059611988012421431A83E8
:100A0000002219805A820C4B8021DC782143D97056
:100A10009979C9B299710378013BDBB20370101C5C
:100A2000934204D1034B187880F3108800203EBD18
:100A300080FDFF1F040C002000A0064070B53B4D58
:100A40003B4B2A791C68D2B20F23161C1A422ED0B7
:100A50002B71EB790220111CDBB2014009D020215F
:100A6000114009D0002B06D12188084320800121A4
:100A700003E00B1C01E0002104230120160700D530
:100A80000343024201D002200343500701D508204E
:100A900003436668E06933436360161C20239E436A
:100AA000002902D000F0FAFA01E000F0D3FAB00613
:100AB00014D5EA79238AD2B2002B0FD0E368591CEF
:100AC000E1601A702389228A01339BB223819A4202
:100AD00004D100232382E06900F03AFA228801233E
:100AE0001A4222D0802216421FD0618A228B914264
:100AF00011D263695A1C62611B78EB71638A228B85
:100B000001339BB263829A420FD100232383E069B1
:100B100000F060FA09E0E9787F220A40EA70AA79D9
:100B2000D2B2AA7122889A43228070BD00A00640EA
:100B300044FCFF1F13B58278031C0720002A1ED037
:100B40000F4A6C462418EFF3108072B620701078AC
:100B50000130C0B21070012802D124780948047015
:100B600058680860002058601378013BDBB21370AE
:100B7000834204D1034B187880F31088002016BDFF
:100B800080FDFF1F040C00200A4B0B4A80211060DF
:100B9000586908435861186888431860074B08492A
:100BA000D8690140802040000143D961054B101CE9
:100BB0005A607047C0F00F4068FCFF1F00C004403F
:100BC000FFF8FFFEC0010020014B80229A607047B1
:100BD000C0F00FF810B5144B144C1B78002B19D033
:100BE0002068FFF781FE206811490122FFF7B4FE5B
:100BF000104B1B88002B15D00F4B20211A88206822
:100C00000A431A800D4B0E491B880122C918FFF7B1
:100C1000D5FE07E0084BDF22198820680A401A80B9
:100C2000FFF77EFE10BDC0466CFCFF1F000C0020CD
:100C300072FCFF1F6EFCFF1F7CFDFF1FFAFCFF1FF5
:100C400076FCFF1F08B5054B1A78002A03D1012254
:100C50001A70FFF7BFFF002008BDC0466CFCFF1FE5
:100C600037B51F49051C0B880A20002B36D01D4BB9
:100C70006A46EFF3108072B6D071187807320130EF
:100C8000C0B218701C1C012802D11278164B1A70C1
:100C90000B881648013B0B80154B19884A1C415C98
:100CA00092B21A8029707F2A01D900221A80114B32
:100CB00011481A88191C0023024200D019230F483A
:100CC00002400A802178181C0139C9B2217000291C
:100CD00004D1054A107880F31088181C3EBDC04628
:100CE00074FCFF1F80FDFF1F040C0020FCFCFF1F95
:100CF00070FCFF1F7CFDFF1F41080000B6F7FFFFDF
:100D000037B52249051C0A880B20802A3DD0204B8C
:100D10006A46EFF3108072B6D0711878073201304E
:100D2000C0B218701C1C012802D11278194B1A701D
:100D30000B8801330B80184B18491888421C92B25B
:100D40001A800D547F2A01D900221A80144B1B7877
:100D5000002B0ED0134B20201A88024209D10243E7
:100D60001A80114B01221868104B1B88C918FFF715
:100D700025FE22780020013AD2B22270824204D1AC
:100D8000044B187880F3108800203EBD6EFCFF1FD6
:100D900080FDFF1F040C00207EFDFF1F76FCFF1F5F
:100DA0006CFCFF1F7CFDFF1F000C0020FAFCFF1FE6
:100DB000F7B5071C01910092051C0024EE1B019B56
:100DC000B6B29E420ED2281CFFF74AFF0A2803D073
:100DD000192805D1041C03E0002C03D1041C01E0F8
:100DE0000135EBE7009B201C1E80FEBDF0B5384BA3
:100DF00087B01B7801900D1C03920093041C019B8B
:100E00009BB29C46E31A9BB2AB4209D303995D1B8C
:100E10000B806B1E9D416D420B20284007B0F0BD3A
:100E20002C490A887F2AF1D82B496B460A78EFF3C0
:100E3000108072B6D8750132D2B217330A70012A07
:100E400002D11A78254B1A70214A01231370214BC5
:100E500001341888611E013080B21880204B097857
:100E60001F8802917E1C1F49029AB6B21E80CA5585
:100E70007F2E01D900261E806246A31A9BB2AB4288
:100E800001D0802804D1009B002B01D1104A13709F
:100E9000154B1B78002B0ED0144B20201A880242D1
:100EA00009D102431A80124B01221868114B1B888A
:100EB000C918FFF783FD084A1378013BDBB21370B2
:100EC000002B9CD1054B187880F3108897E7C0461B
:100ED000F8FCFF1F6EFCFF1F80FDFF1F040C0020AD
:100EE0007EFDFF1F76FCFF1F6CFCFF1F7CFDFF1FBC
:100EF000000C0020FAFCFF1F08B50C4B00201880E6
:100F00000B4B18700B4B18800B4B18800B4B188039
:100F10000B4B18800B4B18800B4B1880FFF768FCAD
:100F20000A4B1860FFF756FE08BDC0467CFDFF1F48
:100F30006CFCFF1F74FCFF1F70FCFF1FF6FCFF1F03
:100F40006EFCFF1FFAFCFF1F7EFDFF1F000C002040
:100F50001A4B70B51A881A4D7F2A12D8013292B2F4
:100F60001A80184B2E781888174C411C89B21980AA
:100F700026547F2901D900211980802A08D0042411
:100F800007E0124B40211A8801240A431A8000E02E
:100F90000624E30702D5FFF798FA08E004231C4271
:100FA00001D0FFF793FAA30701D5FFF791FA084B99
:100FB000291C18680122FFF7CFFC70BD74FCFF1FCD
:100FC00072FCFF1FF6FCFF1FFCFCFF1F7CFDFF1FD8
:100FD000000C002019491A4A38B510880B880130D6
:100FE0009C06E40F80B264007F2800D90020154DD4
:100FF00010802888013880B2288000280BD020205B
:1010000003430B80104B1149186813880122C9183B
:10101000FFF7D4FC08E0DF2213400B800C4B1B7859
:10102000002B01D101231C43A30701D5FFF74FFA81
:10103000E30701D5FFF74DFA38BDC0467CFDFF1F21
:10104000FAFCFF1F6EFCFF1F000C002076FCFF1F48
:10105000F8FCFF1F37B50F4B01A91868FFF76AFDB1
:10106000019B002B12D00C4A9C0715880120190700
:101070001840E40FA400C90F2843C90120430843C6
:101080005907C90F4900031C0B431380FFF71DFAD2
:1010900037BDC046000C00207CFDFF1F024B022123
:1010A0001A880A431A8070477CFDFF1F08B5FFF7B6
:1010B0000BFA08BDFFBE7047334B344A344910B5B4
:1010C000D150344B88220021520199503248C0221D
:1010D00092021A50314AE8219C58890121439950C3
:1010E0002F4A082194780C4202D0947821439170C1
:1010F0002C4A80211A502C4A490298580143995091
:101100001868C02109030143196098582749014014
:101110008020400401439950254B264A996C0A408F
:101120009A64254B402259780A4020210A435A707C
:10113000224A80211170A0221A70D9781F220A40F9
:10114000DA7002221A7100225A7110229979114222
:10115000FCD10C219A790A40082AFBD1164A402179
:1011600051710C219A790A40082AFBD140229979C1
:101170001142FCD0104A202111700C219A790A40AA
:101180000C2AFBD110BDC046080D000000E000E0B5
:1011900000000000007004404410000038100000FF
:1011A00000D007400000011004100000FFFFFFFC0A
:1011B00000900440FFF8FFFE00400640005006404B
:1011C000F8B5344B34481A69E0210240C9000A439B
:1011D0001A61324A1F255479314FAC435471147946
:1011E0000725AC4314712F4A73251478AC4350255E
:1011F0002C43147054786325AC4340252C43547021
:1012000094781925AC439470274A002414701A1C52
:101210000225A0321560254AD668311C0426B44642
:10122000FF26B444664639403143D160C726204A80
:10123000AE40915989B291511E4EB16F0F400821B5
:101240008C46FF218C4461460F43B7675F681A4E96
:10125000E0213E4035435D601D6DC90028400143DB
:101260001965C1239B00D05814490140D15000F0AA
:10127000E5FAFFF741FE00F0EFFA201CFFF784FCCF
:101280000F4B5868FFF7A0FC00F09EF800F0CEFA74
:1012900062B6F8BD00900440FFF8FFFE00F0074082
:1012A000F8F8FFFE00D0074000E0074000B004401F
:1012B00000E100E000D00440F8FFF0FEFFFF00FF77
:1012C000C0010020F7B5364C151C2278061C0B1CFB
:1012D0000820002A63D10A1CD11AA9423FD2511C0E
:1012E0001278FF2A01D10A1CF6E79F0ABF02019774
:1012F00080229B05D2002B4801999F0D00F0BEFA79
:101300008022284BD2003178013DD9550137013672
:10131000ADB2974201D0002DF5D101222270224AB0
:1013200006211160214A01991360214B8022D200CD
:101330001A60204B1960204B1E60204B1D60204D11
:10134000286800F03BF9002806D1286800F05CF915
:101350002378002BF9D119E0002323701BE0174AF2
:1013600000211160104A0521154F116001222270E1
:1013700038681A1C311C2B1C00F002F9002808D117
:10138000386800F041F92378002BF9D10D4B18781B
:1013900004E000222270892800D10220C0B2FEBDE4
:1013A0009801002090FDFF1F940100208CFDFF1F7D
:1013B000A4010020A00100209C01002088FDFF1F47
:1013C00084FDFF1F81FDFF1F08B5002000F0BCF861
:1013D000044B00221860044B1A70044B01221A704F
:1013E00008BDC04684FDFF1F980100209001002029
:1013F00008B5034B186800F007F9024B187808BDD0
:1014000084FDFF1F9801002008B5FFF75BFF08BDB2
:10141000334BF7B5334D1A6800242C70052A02D0DF
:10142000062A49D058E0304B1A68002A41D02F4F85
:101430002F4938682F4D086001902F488C46066868
:1014400029688919016090050091800D66461FD0BA
:101450002A498A4214D880272948231CFF00041CEB
:10146000934201D2019900E00099595CC1540133C3
:10147000BB42F4D12B601C4B002234601A6009E09F
:10148000920A1860019B92022A609A183A6001E061
:101490002A601860124E062333601A4B2A681868B7
:1014A000009900F08BF80F4EC0B23070002815D0B4
:1014B0000022154B1A7011E005221A60114B1868B2
:1014C0000B4B19680C4B1A680A4B1B6800F058F854
:1014D000C0B22870002801D00B4B1C70F7BDC0466D
:1014E0009401002081FDFF1F88FDFF1F9C0100204B
:1014F0008CFDFF1FA4010020A0010020FF030000BD
:1015000090FDFF1F84FDFF1F980100201FB50A4AB0
:1015100000231370094A69461360094B186800F0EC
:1015200057F969468A78074BD10601D5162200E0A3
:1015300003221A7005B000BD98010020940100201C
:1015400084FDFF1F81FDFF1F094B022210B55A7059
:101550000022DA701A70DA600649074A5861885822
:10156000012420438850054A181C936010BDC046D2
:10157000A8010020007004403C100000C0010020C1
:1015800070B54578041C0820022D14D80A4D5E1E43
:101590008920AE420FD880256D02ED1AAA420AD8E2
:1015A00002202070042060700620A0700020A3603C
:1015B000E1602261606070BDFFFF000030B54478DB
:1015C000031C0820022C1BD80E4C551E8920A54256
:1015D00016D880246402A41AA14211D80C1C14430A
:1015E000A405A40D0CD19A6080220320D2001870AB
:1015F0005A60042009225870DC6019619A70201C1E
:1016000030BDC046FFFF0000F0B501238DB05B4246
:101610000393002304934578EA1ED2B2022A00D92C
:10162000C6E064490C780A1C64B29C4200DBBFE04F
:101630007024042D02D10C70C3702BE009780C408B
:10164000C1780C43C4700178002C0FD0437001297D
:1016500008D0594B8022D968D2000A43DA60C046CC
:10166000C046C0464069FFF751FFA1E08368002BE8
:1016700010D102234370012908D04F4B8022D96832
:10168000D2000A43DA60C046C046C0464069FFF750
:10169000BFFE8DE00378991EC9B2012900D987E009
:1016A000147870210C4200D082E04178042902D1E4
:1016B000052141700AE0056941686C1804615C1EEF
:1016C000E4B2012C02D8C6687118C160022B06D0A2
:1016D000032B36D1876839497B18836033E003696F
:1016E00085680093009C032323400424E41AE4B299
:1016F000A54200D2ECB20021CFB2A7420BD2C668FD
:1017000003AF765CFF187E5404AE0127F6187F42C3
:1017100077540131F0E70099039FCE1A3168049E97
:10172000C9433E40314204D0C37804221343C370FE
:101730003EE044602C1B8460214C79400391216081
:1017400002E0012B34D000238178D1710469E11AC1
:10175000C9B211710569E91A090AC9B25171016961
:1017600005ADCB1A1B0CDBB2937116491922281C4C
:1017700000F084F8144B6A461978EFF3108072B6C3
:10178000D0720131C9B20B3219701C1C012902D16F
:1017900012780E4B1A7001231D43A8472378013B92
:1017A000DBB22370002B03D1084B187880F310882C
:1017B0000DB0F0BD00000240003000F000FCFFFF63
:1017C00008000240A018000080FDFF1F040C00204C
:1017D00013B5144A031C6C46EFF3108072B6E07127
:1017E000107807340130C0B21070012802D124787B
:1017F0000D4804701878087098784870D878887008
:1018000018694860D8685B688860CB601378013BD2
:10181000DBB21370002B03D1034B187880F31088D0
:1018200013BDC04680FDFF1F040C0020024B0221A7
:101830005A698A435A61704700F00F40054B0822ED
:101840005968114359609968914399605969914366
:101850005961704780F00F40064B074A59681140A4
:10186000596098688021C9050143996059690A4007
:101870005A61704700F10F40FFFFFFBF10B5002312
:10188000934203D0CC5CC4540133F9E710BD00B5DA
:10189000031C8218934202D019700133FAE700BD8D
:1018A00000B5044A80231370117848B20028FBDA8F
:1018B00000BDC04600000240F8B5C046F8BC08BCF8
:1018C0009E467047F8B5C046F8BC08BC9E467047B7
:0418D0008D04000083
:0418D4005D040000AF
:0418D80000240000E8
:1018DC00D818000000F8FF1F0400000000000000F2
:0818EC000000000000000000F4
:040000030000077181
:00000001FF
